:020000040800F2
:1000000000F3002471030008C1360008AB3100087A
:10001000BD360008EF040008F93A000800000000AF
:10002000000000000000000000000000B102000815
:10003000F3040008000000000D0300083538000834
:100040008F0300088F0300088F0300088F03000848
:100050008F0300088F0300088F0300088F03000838
:100060008F0300088F0300088F0300088F03000828
:100070008F0300088F0300088F0300088F03000818
:100080008F0300088F0300088F0300088F03000808
:100090008F0300088F0300088F0300088F030008F8
:1000A0008F030008153A00088F0300088F0300082B
:1000B0008F0300088F0300088F0300088F030008D8
:1000C0008F0300088F0300088F0300088F030008C8
:1000D0008F0300088F0300088F0300088F030008B8
:1000E0008F0300088F030008000000008F03000842
:1000F0008F0300088F0300088F0300088F03000898
:100100008F0300088F0300088F0300088F03000887
:100110008F0300088F0300088F0300088F03000877
:100120008F0300088F0300088F0300088F03000867
:100130008F030008A90500088F0300088F0300083B
:1001400000000000000000000000000000000000AF
:100150008F0300088F0300088F0300088F03000837
:100160008F0300088F0300088F0300088F03000827
:100170008F0300088F0300088F0300088F03000817
:100180008F0300088F0300088F0300088F03000807
:100190008F0300088F0300088F0300088F030008F7
:1001A0008F0300088F0300088F0300088F030008E7
:1001B0008F0300088F0300088F0300088F030008D7
:1001C0008F0300088F0300088F0300088F030008C7
:1001D0008F0300088F0300088F0300088F030008B7
:1001E0008F0300088F0300088F0300088F030008A7
:1001F0008F0300088F0300088F0300088F03000897
:100200008F0300088F0300088F0300088F03000886
:100210008F0300088F0300088F0300088F03000876
:100220008F0300088F0300088F0300080000000000
:100230008F0300088F030008000000008F030008F0
:100240008F0300088F0300088F0300088F03000846
:100250008F0300088F0300088F0300088F03000836
:100260008F0300088F0300088F0300088F03000826
:100270008F0300088F0300088F03000800000000B0
:100280008F0300088F0300088F03000800000000A0
:10029000000000008F030008DFF810D000F0EAF83B
:1002A00000480047358D0008AFF3008000F30024BC
:1002B0002C4B19680868B0E8F04F80F30988BFF349
:1002C0006F8F4FF0000080F311887047000000002E
:1002D00008480068006880F308884FF0000080F349
:1002E000148862B661B6BFF34F8FBFF36F8F00DF24
:1002F00000BF00BF08ED00E0DFF80C00016841F42A
:1003000070010160704700BF88ED00E0EFF30980E5
:10031000BFF36F8F134B1A681EF0100F08BF20ED4C
:10032000108A20E9F04F106009B44FF0500080F3BC
:100330001188BFF34F8FBFF36F8F16F029FE4FF078
:10034000000080F3118809BC19680868B0E8F04F14
:100350001EF0100F08BFB0EC108A80F30988BFF3BD
:100360006F8F7047BC4A0024EFF305807047000090
:10037000074880470748804707480047FEE7FEE7F1
:10038000FEE7FEE7FEE7FEE7FEE7FEE7FEE7FEE745
:100390000D0E0008FD38000899020008004870475B
:1003A000149101080649074A0868504343F239028C
:1003B0001044086040087047014908607047000019
:1003C000804B00246D4EC64110B5431A934209D2AA
:1003D0008318881803E010F8011D03F8011D521E50
:1003E000F9D210BD40EA01039B0703D009E008C918
:1003F000121F08C0042AFAD203E011F8013B00F8EA
:10040000013B521EF9D210BDD2B201E000F8012B1F
:10041000491EFBD270470022F6E710B513460A4684
:1004200004461946FFF7F0FF204610BD30B50446DC
:100430000020034600E05B1C934203D2E05CCD5CED
:10044000401BF8D030BD30B50B46014600202022BD
:10045000012409E021FA02F59D4205D303FA02F5D1
:10046000491B04FA02F52844151EA2F10102F1DC31
:1004700030BD0000064C074D06E0E06840F0010387
:1004800094E8070098471034AC42F6D3FFF708FF12
:1004900084920108A492010870B58C1810F8015BD1
:1004A00015F0070301D110F8013B2A1106D110F80D
:1004B000012B03E010F8016B01F8016B5B1EF9D111
:1004C0002B0705D40023521E0DD401F8013BFAE797
:1004D00010F8013BCB1A921C03E013F8015B01F802
:1004E000015B521EF9D5A142D8D3002070BD00BFD8
:1004F000FEE7704710B5002210E002EB42040369EA
:1005000003EBC40100230B604B608B60CB600B617D
:100510004B6100F1480343F82210521C042AECD32B
:100520000024C46504668466C46684650324036885
:1005300003F58053C3F83041036803F58053046921
:10054000C3F81C4103694833046804F58054C4F8B7
:10055000283110BD10B500220EE002EB4204C36842
:1005600003EBC40100230B604B608B60CB6000F198
:10057000180343F82210521C042AEED3002484628C
:100580000324036803F58053C3F82C41036803F583
:100590008053C468C3F81441036803F58053C468EA
:1005A000C3F8204110BD000010B5024800F046FD20
:1005B00010BD0000D44B002410B5A2B004460120A9
:1005C0008DF83300002012908DF841008DF8430023
:1005D00001208DF828008DF856008DF8320000209B
:1005E0008DF84C0001208DF8840040030F9000200E
:1005F0008DF85C0018908DF885008DF886004FF41A
:10060000C360169000208DF830000B9001208DF80B
:10061000350000208DF836008DF840001D901B90AD
:1006200014908DF864008DF87A0001208DF8420056
:100630002020209001208DF8440000208DF85500E6
:100640004FF0405009904FF480400E9000208DF8FC
:10065000310002201F9000208DF878008DF879007D
:100660008DF8540001208DF8340000201A900120EC
:100670008DF8700009A9204600F0A8FA01208DF835
:1006800004000290002000908DF81C008DF80D00F1
:100690008DF80C004FF40010069000208DF8140027
:1006A0004FF40010049000208DF81D004FF40670E8
:1006B00008906946204600F02BFA22B010BD0020B9
:1006C000704710B501F016FB10BD000010B50248D0
:1006D00001F07EF8002010BDD44B002470B5044614
:1006E0000D46164633462A462146044800F05FFF71
:1006F00010B14FF0FF3070BD0020FCE7D44B002458
:1007000070B504460D46164633462A46214604482F
:1007100001F09CF910B14FF0FF3070BD0020FCE7F4
:10072000D44B00242DE9F04F06460B46924606F1C5
:1007300018042269D4F810804FF0000C54F82210ED
:100740009D68E346C86800F00040B0F1004F04D057
:1007500004F1140050F8220010B10220BDE8F08F1F
:10076000187800F00400C8B3C8686FF30F00D3F81E
:1007700024E040EA0E00C860C86840F48030C860D9
:100780003068006E40F48010D6F800E0CEF86000CB
:10079000187800F0080008B3B3F82CE088686EF30E
:1007A0001F408860C86840F40030C860C86820F402
:1007B0004020D3F830E040EA0E00C8603068406E58
:1007C00040F48010D6F800E0CEF864003068006D88
:1007D00040F08060D6F800E0CEF85000187800F0C5
:1007E000100058B188686FF30D00D3F818E040EAA4
:1007F0000E008860C86840F08060C860187800F01B
:10080000040018B9187800F0100078B3C86840F0F8
:100810008040C86000BF00BF00BFBFF35F8F00BF54
:1008200000BF00BFC86840F00040C86000BF521C55
:10083000042A00D3121F00BF54F822100CF1010C3F
:10084000C86800F00040B0F1004F10D154F82810F3
:1008500000BF00BF00BFBFF35F8F00BF00BF00BF7E
:10086000C86820F00040C860022077E7FFE70CF17D
:10087000010C2868086088686FF30D00D5F804E063
:1008800040EA0E008860A86868B1AD6828684860D2
:100890008868DFF878E200EA0E00B5F804E040EA84
:1008A0000E40886007E0002048608868DFF85CE25E
:1008B00000EA0E008860187800F01000A0B1C86847
:1008C00020F4F000B3F820E040EACE40C860C868E9
:1008D0006FF31100D3F81CE040EA0E00C860C8684E
:1008E00040F48020C8601FE0C8686FF30E00D3F8A2
:1008F00004E040EA0E00C860187800F0010038B14A
:10090000C86820F44030D3F814E040EA0E00C86014
:10091000187800F0200038B1C86820F04060D3F8A3
:1009200010E040EA0E00C860187800F0040038B10A
:10093000886820F44040D3F828E040EA0E00886040
:10094000C86840F00050C860C86820F08040C860A7
:1009500000BF00BF00BFBFF35F8F00BF00BF00BF7D
:10096000C86840F00040C860187800F0020038B154
:10097000C86820F06070D3F80CE040EA0E00C86050
:1009800096E0C86820F08050C86000BF521C042A5E
:1009900000D3121F00BF54F82210C86820F0005086
:1009A000C860C86800F00040B0F1004F04D004F106
:1009B000140050F82200F8B1424654F822104FF0CB
:1009C000000915E000BF00BF00BFBFF35F8F00BF8D
:1009D00000BF00BFC86820F00040C86000BF521CC4
:1009E000042A00D3121F00BF54F8221009F1010994
:1009F000E145E7D30220B1E60CF1010CAD682868AF
:100A0000086088686FF30D00D5F804E040EA0E0036
:100A10008860A86868B1AD68286848608868DFF8B1
:100A2000ECE000EA0E00B5F804E040EA0E40886011
:100A300007E0002048608868DFF8D0E000EA0E0098
:100A40008860187800F0100060B1C8686FF311007A
:100A5000D3F81CE040EA0E00C860C86840F480206B
:100A6000C86013E0C8686FF30E00D3F804E040EAF2
:100A70000E00C860187800F0010038B1C86820F492
:100A80004030D3F814E040EA0E00C8600BF1010BCF
:100A900000BF00BF00BFBFF35F8F00BF00BF00BF3C
:100AA000C86840F00040C860C86820F08040C86056
:100AB000A86800287FF465AFBAF1000F04D08868F9
:100AC00040F00040886003E0886820F000408860C3
:100AD000C86840F08050C86004F1140E606A4EF897
:100AE0002200226100BFEFF31080074600BF012003
:100AF00080F3108800BF0BF1010EA06A7044A06261
:100B000000BF87F3108800BF002027E6FFFF00C06A
:100B100010B5036803F580531B6847F60204A3432E
:100B20000C682343046804F5805423600C798B68B7
:100B300043EA04330C7B43EAC432036803F5805371
:100B40005B684DF20104A3431343046804F5805429
:100B500063604C7B0B6A43EA0442036803F58053ED
:100B6000D3F80031164C23401343046804F5805435
:100B7000C4F800310C7D0B6943EA04134C7F43EA4F
:100B80000432036803F58053D3F804310D4C23403D
:100B90001343046804F58054C4F804310C7F8B6956
:100BA00043EAC472036803F58053D3F80831064C56
:100BB00023401343046804F58054C4F8083110BD81
:100BC00000C0FEFFEFEFC0FFFFFFC07F10B50C6855
:100BD0008B6823430C7943EAC4630C7B43EAC45318
:100BE0004C7B43EA84538C7B43EA4453CC7B43EAFB
:100BF00004530C7C0CB9012400E0002443EAC443F4
:100C00004C7C0CB9012400E0002443EA44438C7C72
:100C100043EA04434C6923438C6923430C7F43EA32
:100C200004334C7F43EAC4238C7F0CB9012400E0D9
:100C3000002443EA8423CC7F43EA442391F82040F4
:100C40000CB9012400E0002443EA042351F8244FA6
:100C500023430C7943EA04138C6843EA04020368D3
:100C60001B683D4C23401343046823600B7E5B06E6
:100C70000C7D43EA04630C7B43EA84434C7B43EAE8
:100C800044438C7B24390CB9012400E0002443EA5E
:100C900004434C6B43EA040203685B682F4C234017
:100CA00013430468636091F840404B6C43EA0422AC
:100CB0000368DB6840F20F14A34313430468E36046
:100CC00091F854400B6D43EA440391F84C400CB941
:100CD000012400E0002443EAC41331F8484F43EAFA
:100CE000044203681B6F4FF60D74234013430468DE
:100CF00023678B7B4C7B43EA44020368D3F8903034
:100D000023F0030313430468C4F890300368D3F856
:100D1000003D23F072030C6923430468C4F8003DCE
:100D20000C7E4B6948390CB9012400E0002443EAE9
:100D3000841391F8614043EA041391F8624043EA56
:100D4000C4020368D3F8303D23F07B0313430468E7
:100D5000C4F8303D10BD0000838004000080F8C05E
:100D60002DE9F8430446002000904FF00109A56EDC
:100D700004F1480050F82560E76E24E0306958B966
:100D8000684600F093FC009810B94FF0000903E0AA
:100D90000098306100983060B9F1000F13D0A06D59
:100DA00018B14FF04140F06002E04FF00140F060B8
:100DB00000BF6D1C042D00D32D1F00BF04F148009F
:100DC00050F825607F1E17B1B9F1000FD6D1E06E43
:100DD000B84216D0E81C00F0030800BF00BF00BFF7
:100DE000BFF35F8F00BF00BF00BF08EB4801206961
:100DF00000EBC101206800F58050C0F82811A566FD
:100E0000E766BDE8F88372B600BFFEE707480068F2
:100E100040F002000549086000BF04480838006837
:100E200000F400500028F8D0704700000C48025829
:100E30007047000010B50446204600F00BF800F0A3
:100E40008000802803D1024800680AF06DFA10BDC6
:100E5000B44900240146D1F88C0070470146D1F80E
:100E600088007047024609B9012070471068006881
:100E700000F00C00C86210680068C0F3001081F830
:100E800028001068006800F0600048621068006880
:100E9000C0F3002080F0010081F820001068006895
:100EA000C0F34020C87710680068C0F3802080F04D
:100EB0000100887710680068C0F3C0204877106888
:100EC0000068C0F3003008771068006800F4005034
:100ED00088611068006800F480404861106800680C
:100EE000C0F30040887410680068C0F3404080F090
:100EF0000100487410680068C0F3C04080F0010031
:100F0000087410680068C0F30050C8731068006867
:100F1000C0F34050887310680068C0F38050487375
:100F200010680068C0F3C05008731068006800F0D3
:100F3000E060886010680068C0F3C06008711068E5
:100F4000006800F0E040086010684068C0F30D00E1
:100F5000486310684068C0F3004080F0010081F8E9
:100F6000320010684068C0F3404081F831001068DA
:100F70004068C0F3804081F8300010684068C0F3DA
:100F8000006081F8380010684068C0F34460C863AE
:100F90001068C068C0F3002081F840001068C06885
:100FA00000F00F0048641068006FC0F3400081F843
:100FB00054001068006FC0F3C01080F0010081F889
:100FC0004C001068006F00F0700008651068006F3A
:100FD000000C88641068D0F8900000F0010081F8DF
:100FE00056001068D0F89000C0F3400081F855001A
:100FF0001068D0F8000D00F0720088651068D0F815
:10100000300D00F02300C8651068D0F8300DC0F333
:10101000C00081F862001068D0F8300DC0F30010F5
:1010200081F861001068D0F8300DC0F3801080F0B6
:10103000010081F86000002017E700002DE9F04171
:1010400004462068D0F8B050206800F58050D0F8F1
:101050006061206800F58050D0F834715348D0F8B2
:10106000008006F0400060B107F0400048B148F24F
:101070004001206800F58050C0F86011204600F063
:1010800039FB06F0010060B107F0010048B148F2F9
:101090000101206800F58050C0F86011204600F082
:1010A000C3FC06F48040C0B307F48040A8B3D4F872
:1010B000880040F00800C4F8880006F48050C8B1E9
:1010C000206800F58050D0F8600141F2021108401C
:1010D000C4F88C00206800F58050D0F8340120F46A
:1010E0004041206800F58050C0F83411E020C4F879
:1010F00084000FE0206800F58050D0F8600100F413
:10110000CD40C4F88C004FF4CD41206800F58050EC
:10111000C0F860112046FFF78DFE05F48040B0F561
:10112000804F04D005F40050B0F5005F12D11434A4
:10113000606F40F01000606754F8140CD0F8B800ED
:10114000E067E0202067143C2046FFF773FE002094
:10115000C4F8900005F0100060B12068D0F8C0001D
:1011600000F06000C4F89400204600F0A1F90020CF
:10117000C4F8940005F0200060B12068D0F8D000D9
:1011800000F00F00C4F898002046FFF751FE002041
:10119000C4F8980008F4800030B14FF4800003498F
:1011A0000860204600F050FCBDE8F081A80000581F
:1011B00038B504460CB9012038BDD4F8840028B9EC
:1011C0002020C4F88400204600F0BAF800BF574839
:1011D000006840F00200554908600846006800F0C9
:1011E0000200009000BF00BF207A18B9002001F073
:1011F0005FFE03E04FF4000001F05AFE4C48006827
:10120000206800F58050006840F00101206800F57A
:101210008050016000F06EFD05460DE000F06AFDB3
:10122000401BB0F5FA7F07D90420C4F88800E020FD
:10123000C4F884000120BFE7206800F580500068F2
:1012400000F001000028E9D1204600F0C1FA01F0C9
:10125000B5F83849B0FBF1F0401E2168C1F8DC0058
:101260002046FFF7A9F9206800F58050D0F800016A
:1012700020F4E01040F40021206800F58050C0F810
:101280000011207D00F0030038B10120C4F888006F
:10129000E020C4F8840001208EE7206800F580502B
:1012A000D0F8080147F6FE718843616940EA4101C0
:1012B000206800F58050C0F808112046FFF74AF971
:1012C0002046FFF717F9606800796168497940EABC
:1012D00001202168C1F800036068C07800066168D9
:1012E000897840EA01406168497840EA01206168F4
:1012F000097808432168C1F804032068D0F80C0776
:101300000D4908432168C1F80C072068D0F8100780
:101310000A4908432168C1F810070020C4F8880072
:101320001020C4F88400002046E70000F44402586E
:101330000404005840420F006000020C00C0200C62
:1013400010B586B00446142101A8FFF764F853498C
:10135000206888427ED100BF5148006840F40040B8
:101360004F4908600846006800F40040009000BF44
:1013700000BF00BF0846006840F48030086008469F
:10138000006800F48030009000BF00BF00BF084636
:10139000006840F4003008600846006800F400303F
:1013A000009000BF00BF00BF3D480830006840F01B
:1013B00004003B49083108600846006800F004005A
:1013C000009000BF00BF00BF0846006840F0010069
:1013D00008600846006800F00100009000BF00BFF0
:1013E00000BF0846006840F0020008600846006838
:1013F00000F00200009000BF00BF022001900290A8
:101400000020039004900B20059001A9254800F0CE
:101410005DFB8620019002200290002003900320B3
:1014200004900B20059001A91F4800F04FFB3020CD
:1014300001900220029000200390032004900B20D2
:10144000059001A9174800F041FB4FF4806001901E
:10145000022000E020E002900020039004900B2086
:10146000059001A9114800F031FB4FF46050019044
:101470000220029000200390032004900B2005908E
:1014800001A90A4800F022FB002205213D2000F0BE
:101490004DFD3D2000F036FD06B010BD008002403D
:1014A000D8440258000802580000025800040258AC
:1014B00070472DE9F05F04460F464FF00008C34621
:1014C00047B9D4F8880040F00100C4F88800012032
:1014D000BDE8F09FD4F88400402801D00120F7E750
:1014E000E66D04F1480050F82650E06EC0F1040AA1
:1014F0003FE0E86800F0804018B16968A16729689A
:101500006167E86800F0005008B9E06F28B3E86848
:1015100000F0005010B1002121666166E868C0F358
:101520000E01606EA1EB0009E86800F0805018B170
:10153000E96821674FF0010B1FFA89F304F180017C
:10154000081F2A6900F0E0F8206E401C2066606EDB
:1015500000EB090161660020286100BF761C042EA3
:1015600000D3361F00BF04F1480050F8265008F1A0
:101570000108E86800F0004020B9D04502D2BBF174
:10158000000FB6D0E06E00EB0801E166E06E10B12E
:101590002046FFF7E5FBE665BBF1010F05D1E06FE3
:1015A00038600021E167002092E7012090E72DE9F3
:1015B000F04704460F46904699462068D0F800024E
:1015C00000F0010010B10120BDE8F0872068D0F8DC
:1015D000005225F0787040EA475525F4F81040EAAB
:1015E000084545F00C0545F001052068C0F800529B
:1015F00000F080FB064607E000F07CFB801BB0F5A6
:101600007A7F01D90120DFE72068D0F8000200F0DE
:1016100001000028F0D12068D0F8040280B2C9F897
:1016200000000020D0E72DE9F047064606F1180536
:10163000AF6AEC6A4FF0010831E04FF001097F1EFC
:1016400005F1140050F8240038B900BF641C042CC4
:1016500000D3241F00BF4FF00009B9F1000F1ED0C6
:1016600004EB4401F06800EBC100C06800F00040EA
:1016700098B905F1140151F8240000F0DFF90021B8
:1016800005F1140040F8241000BF641C042C00D3A2
:10169000241F00BFAF62EC6201E04FF0000817B1F9
:1016A000B8F1000FC9D10020BDE8F0877CB5044631
:1016B0000D4808F05FF9054685B105F1200020606E
:1016C0000A48286140F2F45120682B464122CDE9B6
:1016D0000001002108460AF0DBF804E0012004497B
:1016E0000870002020607CBDCC8E01081DC0000861
:1016F000B049002410B504460248006809F014FE01
:1017000010BD0000B44900242DE9F04704460F46FF
:101710002146BC460020A2F120000025056005817D
:1017200043810D680DB9086002E0DCF800502860C4
:10173000CCF80000086803E005891D4405810068B5
:101740000028F9D115461E46002E29DD05F01F0A96
:101750000AEB0608A94600BF00BF00BFBFF34F8FCA
:1017600000BF00BF00BF00BFDFF83CA0CAF8009078
:1017700009F12009A8F12008B8F1000FF4DC00BF3E
:1017800000BF00BFBFF34F8F00BF00BF00BF00BF4F
:1017900000BF00BFBFF36F8F00BF00BF00BF00BF1F
:1017A00000BFBDE8F08700005CEF00E070B50446C4
:1017B0000D460DB9012070BDD4F88400102805D164
:1017C00029462046FFF702FA0020F4E70120F2E75D
:1017D00070B506463068D0F8004224F4706400F01A
:1017E000EDFD05461048854202D244F4007417E02E
:1017F0000E48854202D244F4407411E00C48854200
:1018000000D20DE00B48854202D244F4807407E018
:101810000948854202D244F4806401E044F4A064A3
:101820003068C0F8004270BDC00E160200879303F6
:1018300000E1F50580D1F00880B2E60E10B504464F
:10184000D4F88400102853D12020C4F8840001214A
:10185000A1650421E1662046FFF782FA206800F5C1
:101860008050D0F8040140F00101206800F580505C
:10187000C0F80411206800F58050D0F8080140F04D
:101880000101206800F58050C0F80811206800F5BB
:101890008050D0F8600140F48171206800F58050DC
:1018A000C0F860112068D0F8000D40F001002168F8
:1018B000C1F8000D2068006840F00200216808604F
:1018C0002068006840F0010021680860206800F589
:1018D0008050D0F834014DF2C1010843216801F570
:1018E0008051C1F834014020C4F88400002010BDAC
:1018F0000120FCE710B50146D1F8840040284FD103
:101900002020C1F88400086800F58050D0F8340128
:101910004DF2C104A0430C6804F58054C4F83401AE
:10192000086800F58050D0F8040120F00104086830
:1019300000F58050C0F80441086800F58050D0F8E8
:10194000080120F00104086800F58050C0F8084143
:101950000868006820F001000C6820600868D0F872
:10196000000D40F001000C68C4F8000D0868006824
:1019700020F002000C682060002208E001F148001D
:1019800050F82230D86820F08040D860521C042AD9
:10199000F4D300248C651020C1F88400002010BD11
:1019A0000120FCE770B504460D463DB9D4F8880027
:1019B00040F00100C4F88800012070BDD4F8840014
:1019C00040282ED1696BE163012229462046FEF7AB
:1019D000A9FE38B1D4F8880040F00200C4F88800AD
:1019E0000120EAE700BF00BF00BFBFF34F8F00BF79
:1019F00000BF00BF00BFA06A401CA062A06A04280C
:101A000002D3A06A001FA06200BF04F11800A16AFF
:101A100050F82110206800F58050C0F820110020F7
:101A2000CBE70120C9E7000010B504460248006872
:101A300009F07AFC10BD0000B849002410B5044636
:101A400020460AF017FA10BD704700002DE9F04754
:101A500005460F46904699462868D0F8000200F0E7
:101A6000010010B10120BDE8F0872868D0F80042DD
:101A700024F0787040EA475424F4F81040EA08440F
:101A800024F00C00041D44F001041FFA89F00D49F4
:101A900008600D48C0F8004200F02CF9064607E047
:101AA00000F028F9801BB0F57A7F01D90120DAE730
:101AB0002868D0F8000200F001000028F0D100BF33
:101AC000D1E700000482024000800240F8B50246DF
:101AD0000B4600216F4DD7E001278F401E6806EAB4
:101AE0000704002C72D01E7906F00306012E04D0E4
:101AF0001E7906F00306022E13D190684F000326CC
:101B0000BE40B0434F00DE68BE4030439060506836
:101B100001268E40B0431E79C6F300168E40304336
:101B200050601E7906F00306032E09D0D0684F00DE
:101B30000326BE40B0434F009E68BE403043D06095
:101B40001E7906F00306022E13D1CF0802F12006FB
:101B500056F827004E07F70E0F26BE40B0434F073A
:101B6000FF0E1E69BE403043CF0802F1200646F842
:101B7000270010684F000326BE40B0431E7906F0D0
:101B800003064F00BE40304310605E6806F44036E6
:101B9000002E78D000BF404E366846F002063E4F19
:101BA0003E603E46366806F00206009600BF00BF63
:101BB0003A4E8F0856F827008E07370F0F26BE4083
:101BC000B043374EB24202D100262EE05BE0354EE4
:101BD000B24201D1012628E0334EB24201D10226A1
:101BE00023E0324EB24201D103261EE0304EB24213
:101BF00001D1042619E02F4EB24201D1052614E08E
:101C00002D4EB24201D106260FE02C4EB24201D138
:101C100007260AE02A4EB24201D1082605E0294EE5
:101C2000B24201D1092600E00A268F073F0FBE40CD
:101C300030431A4E8F0846F827004FF0B046306800
:101C4000A0435E6806F4801606B120434FF0B0460C
:101C500030607068A0435E6806F4001606B1204349
:101C60004FF0B04670606868A0435E6806F40036C6
:101C700006B1204368602868A0435E6806F4803699
:101C800006B120432860491C1E68CE40002E7FF418
:101C900023AFF8BD80000058F444025808040058EF
:101CA000000002580004025800080258000C0258B4
:101CB000001002580014025800180258001C025864
:101CC000002002580024025810B5426921EA02039C
:101CD00002EA010443EA0443836110BD0AB1816151
:101CE00001E00B048361704701480068000C7047F5
:101CF0000010005C0148006870470000984900240B
:101D0000034800680349097808440149086070479E
:101D100098490024A049002410B5032000F044F99C
:101D200000F084FB10490968C1F303210F4A515C9C
:101D300001F01F0120FA01F40B48006800F00F00C9
:101D40001146085C00F01F0024FA00F00849086002
:101D5000084804600F2000F00FF808B1012010BD02
:101D600000F0B8F80020FAE718440258BC8E0108C9
:101D7000A8490024A449002470B58AB00446102C58
:101D80000AD200222146192000F0D0F8192000F0D4
:101D9000B9F81948046002E001200AB070BD00BF24
:101DA0001648006840F001001449086008460068C1
:101DB00000F00100009000BF00BF01A902A800F0E0
:101DC000C7FA00F021FB06460D48B6FBF0F0451EB1
:101DD0000C480D49086040F2E7310B48C16045608E
:101DE00000210161816001F070F818B9064801F026
:101DF000A5F8D2E70120D0E79C490024F04402581E
:101E000040420F0000000140884B00244178154AF1
:101E1000116014490831096821F00101114A0832A2
:101E20001160121F41681160017B0907C27A41EA03
:101E30000261827A41EAC241427B41EA8241827B6D
:101E400041EA4241C27B41EA0241427A41EA02212F
:101E5000027A41EA420102781143024A08321160D3
:101E60007047000098ED00E000BF00BF00BFBFF367
:101E70005F8F00BF00BF00BF0548006820F48030BE
:101E80000349086000200249703108607047000073
:101E900024ED00E040F001010D4A11600C49703959
:101EA000096841F480310A4A703A116000BF00BFEE
:101EB00000BFBFF34F8F00BF00BF00BF00BF00BF18
:101EC00000BFBFF36F8F00BF00BF00BF70470000AF
:101ED00094ED00E008B500BF0948006840F002003A
:101EE000074908600846006800F00200009000BF43
:101EF00000BF00220F21901E00F018F808BD00005E
:101F0000F44402580146084600280DDB00BF00BF1C
:101F100000F01F0301229A4043099B0003F1E023D4
:101F2000C3F8002100BF00BF00BF70472DE9F05F7C
:101F300080460D46164601F0B3FE074639462A464E
:101F4000334601F00700C0F1070ABAF1040F02D9C5
:101F50004FF0040A01E0C0F1070AD14600F1040A7B
:101F6000BAF1070F02D24FF0000A01E0A0F1030A14
:101F7000D4464FF0010A0AFA09FAAAF1010A0AEA5C
:101F8000020A0AFA0CFA4FF0010B0BFA0CFBABF148
:101F9000010B0BEA030B4AEA0B042146404601F011
:101FA00087FEBDE8F09F000000BF00F00702064B6F
:101FB00019684FF6FF031940044B0B4343EA022113
:101FC000014B196000BF70470CED00E00000FA05FE
:101FD00070B5044615480068C0F3800048B913483E
:101FE000006800F00700A04201D0012070BD002071
:101FF000FCE70E48006820F0070020430B4908600A
:10200000FFF778FE054607E0FFF774FE401BB0F5CA
:102010007A7F01D90120E9E7044808380068C0F355
:1020200040300028F0D00020E0E700000C480258C3
:102030002DE9F04104460D4614B90120BDE8F081B8
:10204000BD48006800F00F00A8420ED2BA480068F0
:1020500020F00F002843B84908600846006800F0E7
:102060000F00A84201D00120E8E7207800F004002A
:1020700004280ED1B1492069096801F07001884235
:1020800007D9AE48006820F0700021690843AB49C9
:102090000860207800F00800082811D1A749091D20
:1020A0006069096801F07001884209D9A348001DE0
:1020B000006820F0700061690843A049091D0860AC
:1020C000207800F01000102811D19C49091DA0694A
:1020D000096801F4E061884209D99848001D006848
:1020E00020F4E060A16908439449091D0860207844
:1020F00000F02000202811D190490831E0690968DA
:1021000001F07001884209D98C480830006820F03D
:102110007000E1690843894908310860207800F0BF
:10212000020002280ED18549E068096801F00F011C
:10213000884207D98148006820F00F00E168084311
:102140007E490860207800F00100002850D07B48CC
:10215000006820F47060A1680843784908606068EE
:10216000022807D1754818380068C0F34040F8B914
:10217000012063E76068032807D1704818380068B9
:10218000C0F34060A0B9012058E76068012807D17A
:102190006A4818380068C0F3002048B901204DE7AC
:1021A000664818380068C0F3800008B9012045E788
:1021B00062480838006820F00700616808435F49FA
:1021C00008390860FFF796FD064608E0FFF792FD24
:1021D000801B41F28831884201D903202EE75748FD
:1021E0000838006800F038006168B0EBC10FEDD12D
:1021F000207800F0020002280ED15049E0680968FA
:1022000001F00F01884207D24C48006820F00F000F
:10221000E1680843494908604748006800F00F003A
:10222000A8420ED94448006820F00F0028434249D4
:1022300008600846006800F00F00A84201D00120A5
:10224000FCE6207800F0040004280ED13B49206908
:10225000096801F07001884207D23848006820F010
:1022600070002169084335490860207800F00800B3
:10227000082811D13149091D6069096801F0700110
:10228000884209D22D48001D006820F07000616965
:1022900008432A49091D0860207800F01000102822
:1022A00011D12649091DA069096801F4E06188423D
:1022B00009D22248001D006820F4E060A1690843AB
:1022C0001E49091D0860207800F02000202811D147
:1022D0001A490831E069096801F07001884209D2A1
:1022E00016480830006820F07000E169084313497F
:1022F0000831086000F09AF810490968C1F3032119
:102300000F4A515C01F01F0120FA01F70B480068E9
:1023100000F00F001146085C00F01F0027FA00F0E3
:10232000084908600848076008480068FFF724FD6E
:102330008046404682E600000020005218440258C1
:10234000BC8E0108A8490024A44900249C4900240B
:102350003F220260174A126802F007024260154AE3
:102360000832126802F470628260124A08321268FF
:1023700002F00F02C2600F4A0832126802F07002C7
:1023800002610C4A0C32126802F070024261094A82
:102390000C32126802F4E0628261064A103212685E
:1023A00002F07002C261044A126802F00F020A6071
:1023B00070470000104402580020005210B500F091
:1023C00035F80D490968C1F303210C4A515C01F04D
:1023D0001F0120FA01F40848006800F00F001146C0
:1023E000085C00F01F0024FA00F005490860054869
:1023F00004600846006810BD18440258BC8E0108ED
:10240000A8490024A449002400B5FFF7D7FF0549D7
:102410000968C1F30221044A515C01F01F01C84060
:1024200000BD00001C440258BC8E0108F0B5824E6D
:10243000366806F0380636B1082E15D0102E15D0A5
:10244000182E7DD114E07C4E103E3668C6F340163F
:1024500046B1794E103E3668C6F3C107774E26FA6C
:1024600007F000E07548E5E07548E3E07548E1E015
:10247000714E1836366806F003046F4E183636680B
:10248000C6F305116C4E1C36366806F001056A4E1F
:1024900024363668C6F3CC0616FB05F601EE106A44
:1024A000B8EE410A002971D024B1012C50D0022C81
:1024B0006DD16DE0604E103E3668C6F340163EB3F7
:1024C0005D4E103E3668C6F3C1075C4E26FA07F330
:1024D00001EE103AF8EE411A01EE101AB8EE411A68
:1024E00081EE812A9FED581AC0EE011A524E203615
:1024F0003668C6F3080601EE106AB8EE411A31EEEE
:10250000811AF7EE001A31EE211A62EE010A1EE07E
:1025100001EE101AB8EE411ADFED4C1A81EE812A55
:102520009FED491AC0EE011A434E20363668C6F3B5
:10253000080601EE106AB8EE411A31EE811A00E089
:1025400076E0F7EE001A31EE211A62EE010A5BE046
:1025500001EE101AB8EE411A9FED3D2AC2EE011AA3
:102560009FED391A80EE012A334E20363668C6F3C5
:10257000080601EE106AB8EE411A32EE011AB7EE03
:10258000002A31EE021A61EE810A3DE04EE01DE0C4
:1025900001EE101AB8EE411ADFED2E1A81EE812AF3
:1025A0009FED291AC0EE011A234E20363668C6F375
:1025B000080601EE106AB8EE411A31EE811AF7EE04
:1025C000001A31EE211A62EE010A1DE001EE101A26
:1025D000B8EE411A9FED1E2AC2EE011A9FED1A1A9B
:1025E00080EE012A144E20363668C6F3080601EE46
:1025F000106AB8EE411A32EE011AB7EE002A31EE37
:10260000021A61EE810A00BF00BF0B4E2036366809
:10261000C6F34626721C01EE102AB8EE411AC0EE2F
:10262000811ABCEEE11A11EE100A00E0002001E070
:10263000034800BF00BFF0BD104402580090D00313
:1026400000093D0040787D01000000460024744CE4
:102650000024744A20BCBE4B2DE9F047044614B94F
:102660000120BDE8F087207800F00100002870D03C
:10267000FA48006800F03808F8481830D0F80090A0
:10268000B8F1100F06D0B8F1180F0FD109F0030000
:1026900002280BD1F14810380068C0F340400028F0
:1026A0006AD06068002867D10120DAE700BF60685F
:1026B000B0F5803F08D1E9481038006840F4803018
:1026C000E649103908602EE0606868B9E3481038C0
:1026D000006820F48030E14910390860084600683D
:1026E00020F4802008601EE06068B0F5A02F0DD1B6
:1026F000DA481038006840F48020D8491039086062
:102700000846006840F4803008600CE0D348103878
:10271000006820F48030D14910390860084600680C
:1027200020F48020086000BF606898B1FFF7E2FAEB
:10273000054606E0FFF7DEFA401B642801D90320B6
:102740008FE7C64810380068C0F340400028F1D039
:1027500012E012E0FFF7CEFA054606E0FFF7CAFAEC
:10276000401B642801D903207BE7BC48103800686F
:10277000C0F340400028F1D100BF207800F00200F3
:10278000022874D1B548006800F03808B348183002
:10279000D0F80090B8F1000F05D0B8F1180F56D15D
:1027A00009F00300D0BBAD4810380068C0F38000CA
:1027B00018B1E06808B9012053E7A848103800684C
:1027C00020F01900E1680843A44910390860FFF7B8
:1027D00091FA054606E0FFF78DFA401B022801D961
:1027E00003203EE79D4810380068C0F380000028B1
:1027F000F1D000BFFFF778FA41F2030188421AD8FE
:10280000206940280BD195480C38006820F47C30B2
:1028100040F4003091490C39086017E017E08F4808
:102820000C38006820F47C30216940EA01308B4983
:102830000C3908600AE089480C38006820F0FE4036
:10284000217C40EA016085490C39086066E0E06857
:1028500088B382481038006820F01900E168084306
:102860007E4910390860FFF745FA054607E056E053
:10287000FFF740FA401B022801D90320F1E6774810
:1028800010380068C0F380000028F1D000BFFFF7C7
:102890002BFA41F2030188421AD8206940280BD153
:1028A0006E480C38006820F47C3040F400306B49EE
:1028B0000C39086017E017E068480C38006820F40D
:1028C0007C30216940EA013064490C3908600AE033
:1028D00062480C38006820F0FE40217C40EA01602C
:1028E0005E490C39086019E05C481038006820F037
:1028F00001005A4910390860FFF7FCF9054606E067
:10290000FFF7F8F9401B022801D90320A9E6534834
:1029100010380068C0F380000028F1D100BF207893
:1029200000F0100010287CD14C48006800F03808F6
:102930004A481830D0F80090B8F1080F06D0B8F126
:10294000180F3DD109F00300012839D14348103850
:102950000068C0F3002020B1E069802801D0012088
:102960007FE600BFFFF7C0F941F2030188421AD8A1
:10297000206A20280AD139480C38006820F0F84035
:1029800040F0804035490C39086018E033480C3875
:10299000006820F0F84094F8201040EA81602F4948
:1029A0000C3908600BE02D48001F006820F07C50B7
:1029B00094F8201040EA01602849091F086066E089
:1029C000E06978B325481038006840F0800023495A
:1029D00010390860FFF78EF9054606E0FFF78AF91F
:1029E000401B022801D903203BE61C481038006830
:1029F000C0F300200028F1D000BFFFF775F941F2C5
:102A0000030188421CD8206A20280CD113480C38B6
:102A1000006820F0F84040F0804010490C39086010
:102A20001AE035E01CE00D480C38006820F0F84052
:102A300094F8201040EA816008490C3908600BE0E6
:102A40000648001F006820F07C5094F8201040EAEF
:102A500001600249091F086019E000001044025893
:102A6000FA48006820F08000F8490860FFF742F952
:102A7000054606E0FFF73EF9401B022801D9032076
:102A8000EFE5F2480068C0F300200028F2D100BF53
:102A9000207800F00800082836D16069D0B1EB48F2
:102AA0007430006840F00100E84974310860FFF7B5
:102AB00021F9054606E0FFF71DF9401B022801D960
:102AC0000320CEE5E14874300068C0F340000028E0
:102AD000F1D019E0DD487430006820F00100DB49D6
:102AE00074310860FFF706F9054606E0FFF702F9C2
:102AF000401B022801D90320B3E5D4487430006894
:102B0000C0F340000028F1D1207800F020002028F8
:102B100030D1A069B8B1CD48006840F48050CB49AD
:102B20000860FFF7E7F8054606E0FFF7E3F8401B0B
:102B3000022801D9032094E5C4480068C0F340305E
:102B40000028F2D016E0C148006820F48050BF4948
:102B50000860FFF7CFF8054606E0FFF7CBF8401B0B
:102B6000022801D903207CE5B8480068C0F3403052
:102B70000028F2D1207800F0040004287DD1B44868
:102B8000006840F48070B2490860FFF7B3F805466A
:102B900006E0FFF7AFF8401B642801D9032060E589
:102BA000AB48006800F480700028F2D000BFA06835
:102BB000012808D1A5487030006840F00100A34901
:102BC000703108602DE0A06868B9A04870300068D6
:102BD00020F001009D49703108600846006820F02F
:102BE000040008601DE0A06805280DD197487030EA
:102BF000006840F00400954970310860084600689C
:102C000040F0010008600CE090487030006820F04F
:102C100001008E49703108600846006820F0040009
:102C2000086000BFA068A0B1FFF764F8054608E09F
:102C3000FFF760F8401B41F28831884201D9032038
:102C40000FE5824870300068C0F340000028EFD0E4
:102C500013E0FFF74FF8054608E0FFF74BF8401B7D
:102C600041F28831884201D90320FAE47748703074
:102C70000068C0F340000028EFD1606A00287DD0D2
:102C800072481030006800F03800182877D0606A69
:102C9000022875D16D48006820F080706B4908608B
:102CA000FFF728F8054606E0FFF724F8401B022846
:102CB00001D90320D5E465480068C0F340600028CE
:102CC000F2D100BFD4E90A1041EA00105F4928316F
:102CD000096840F2F332914308435C4928310860A7
:102CE000208E401EC0F30800616B491E4FF47E42E7
:102CF00002EA41210843218F491ED20102EA014123
:102D000008433C21095D491E120202EA01610843A1
:102D10004E493031086000BF081F006820F00100F4
:102D2000091F08604948343000684FF6F87188433D
:102D3000A16C40EAC10045493431086043482C3059
:102D4000006820F00C00216C084340492C310860D9
:102D50000846006820F00200616C08433B492C31B2
:102D600008600846006840F4803008600846006843
:102D700040F4003008600846006802E093E038E064
:102D80001FE040F4802008600846006840F0010021
:102D900008602E48006840F080702C490860FEF7FB
:102DA000A9FF054606E0FEF7A5FF401B022801D952
:102DB000032056E425480068C0F340600028F2D0A4
:102DC00071E02248006820F0807020490860FEF71A
:102DD00091FF054606E0FEF78DFF401B022801D952
:102DE00003203EE419480068C0F340600028F2D197
:102DF00059E0164828300768144830300668606A81
:102E0000012821D007F00301A06A81421CD1C7F339
:102E10000511E06A884217D1C6F30801206B401EF5
:102E2000814211D1606B401EC6F3462188420BD10E
:102E3000A06B401EC6F30641884205D1E06B401EE0
:102E4000C6F30661884205D001200AE40044025816
:102E50000048025815480068C0F3CC07A06CB8427F
:102E600021D012480838006820F001000F490839C5
:102E70000860FEF73FFF054600BFFEF73BFF401B23
:102E8000FBD00A4800684FF6F8718843A16C40EA0D
:102E9000C1000649086005480838006840F0010094
:102EA00002490839086000204AE40000344402580E
:102EB0000349096821F460010143014A1160704728
:102EC0000404005870477047704710B504460CB9A9
:102ED000012010BD94F83D0028B9002084F83C0082
:102EE000204600F029F8022084F83D00211D2068CA
:102EF00000F098FD012084F8480000BF84F83E00EF
:102F000001213F200155402001554120015542201B
:102F100001554320015500BF00BF012084F8440043
:102F200045200155462001554720015500BF01208D
:102F300084F83D000020CCE770470000014691F87E
:102F40003D00012801D001207047022081F83D009A
:102F50000868C06840F001000B68D8601C4B086826
:102F600098421BD00868B0F1804F17D0194B086801
:102F7000984213D0184B086898420FD0174B086836
:102F800098420BD0164B0868984207D0154B08683A
:102F9000984203D0144B0868984210D108688068A2
:102FA000124B00EA0302062A0FD0B2F5803F0CD084
:102FB0000868006840F001000B68186005E00868C8
:102FC000006840F001000B6818600020BCE70000BA
:102FD000000001400004004000080040000C0040D8
:102FE00000040140001800400040014007000100BB
:102FF000704770B504462068C6682068056905F00A
:103000000200022819D106F00200022815D1401F43
:1030100021680861012020772068806900F00300A2
:1030200018B12046FFF7E4FF05E0204600F0ADF8B8
:10303000204600F0ABF80020207705F004000428BB
:1030400019D106F00400042815D1C0432168086195
:10305000022020772068806900F4407018B1204673
:10306000FFF7C6FF05E0204600F08FF8204600F08D
:103070008DF80020207705F00800082819D106F007
:103080000800082815D1C043216808610420207772
:103090002068C06900F0030018B12046FFF7A8FFC0
:1030A00005E0204600F071F8204600F06FF800209F
:1030B000207705F01000102819D106F01000102814
:1030C00015D1C04321680861082020772068C069B5
:1030D00000F4407018B12046FFF78AFF05E0204653
:1030E00000F053F8204600F051F80020207705F05A
:1030F000010048B106F0010030B16FF00100216815
:103100000861204600F044F805F08000802804D0D3
:1031100005F40050B0F5005F0AD106F08000802869
:1031200006D16FF40250216808612046FFF7CBFEFC
:1031300005F48070B0F5807F0AD106F08000802809
:1031400006D16FF48070216808612046FFF7BAFE4F
:1031500005F04000402809D106F04000402805D184
:10316000C04321680861204600F01EF805F02000E9
:10317000202809D106F02000202805D1C04321686D
:1031800008612046FFF7A0FE70BD70477047000041
:1031900010B5044603492068884201D1FEF7B0FD0E
:1031A00010BD000000000140704700BFFEE738B5C9
:1031B0000446002000906A46012163692068984710
:1031C000002802DA6FF0040038BD6A460121636905
:1031D00020689847002802DA6FF00400F4E70098AE
:1031E00000F0040008B90120EEE76A460021636997
:1031F00020689847002802DA6FF00400E4E700989E
:1032000000F48050B0F5805F1FD0009800F40050AB
:10321000B0F5005F07D1009800F48070B0F5807FB2
:1032200001D10220D0E7009800F40050B0F5005F13
:1032300001D10320C8E7009800F48070B0F5807FCA
:1032400001D10420C0E70520BEE76A461F2163695B
:1032500020689847002802DA6FF00400B4E700986D
:1032600000F4805008B90620AEE7009800F01C007A
:10327000182801D10220A7E7009800F01C000828B8
:1032800001D10320A0E7009800F01C00142801D110
:10329000042099E7052097E7F8B504460020009040
:1032A00000250026606830BBA06808B1A068804790
:1032B00020202060002513E06A4612212846636919
:1032C0009847002802DA6FF0040608E0009800F042
:1032D0001F00A84202D12560002603E000BF6D1C3C
:1032E0001F2DE9D900BF20681F2801D96FF0020601
:1032F0000EB9012060603046F8BD02462AB1C868A8
:1033000018B1886808B1086910B94FF0FF307047EC
:10331000086890604B68D360CB6853618B68136119
:103320000B6993610020F2E71FB500200090019027
:1033300002900390FEF798FD01208DF80000002018
:103340008DF8010001901F208DF8080087208DF86E
:10335000090000208DF80A008DF80B0001208DF87F
:103360000C008DF80D0000208DF80E008DF80F0078
:103370006846FEF74BFD01208DF8010015480190CD
:1033800010208DF8080000208DF8090001208DF82C
:103390000A0003208DF80B0000208DF80D00684610
:1033A000FEF734FD02208DF801000B480190082043
:1033B0008DF8080000208DF80A0001208DF80D001E
:1033C0008DF80F006846FEF721FD0420FEF762FD30
:1033D0001FBD0000000002300000043000B587B0BF
:1033E000142102A8FDF717F800BF1C48006840F040
:1033F00004001A4908600846006800F004000190C3
:1034000000BF00BF00BF0846006840F00100086030
:103410000846006800F00100019000BF00BF00BF37
:103420000846006840F0020008600846006800F0A6
:103430000200019000BF00BF002208210848FEF7EB
:103440004DFC08200290012003900020049005907C
:1034500002A90348FEF73AFB07B000BDE04402585A
:10346000000002580EB5C02086490870A820487098
:103470000A208870C870FF208349087048708870DF
:103480000020C8708149087048708870C870002199
:10349000084611F0F5FF7B48007800067949497825
:1034A00040EA01407749897840EA01207549C978A6
:1034B000084302067348007800067249497840EADA
:1034C00001407049897840EA01206E49C978084373
:1034D00000F47F4042EA00226A4800780006694909
:1034E000497840EA01416748807841EA002065490F
:1034F000C978084300F47F0042EA1022614800784E
:1035000001066048407841EA00415E48807841EA1F
:1035100000205C49C978084342EA10605C490860B1
:103520005948007800065849497840EA0140564910
:10353000897840EA01205449C97808430206524874
:10354000007800065049497840EA01404E498978A0
:1035500040EA01204C49C978084300F47F4042EA20
:1035600000224948007800064749497840EA01416D
:103570004548807841EA00204349C978084300F46F
:103580007F0042EA10224048007801063E48407819
:1035900041EA00413C48807841EA00203A49C97834
:1035A000084342EA10603B4908603848007800064A
:1035B0003649497840EA01403449897840EA012097
:1035C0003249C978084302063048007800062F497E
:1035D000497840EA01402D49897840EA01202B4989
:1035E000C978084300F47F4042EA00222748007867
:1035F00000062649497840EA01412448807841EA9A
:1036000000202249C978084300F47F0042EA1022D2
:103610001E48007801061D48407841EA00411B48D9
:10362000807841EA00201949C978084342EA1060CD
:103630001949086019481A490022174BCDE90021A1
:103640000290144A1249174806F09CFF154807F0EB
:103650000BFA144807F048FB1349124807F070FAB8
:1036600024211248FCF7D7FE11A0104908604FF43E
:1036700080604861102088610A460A490E4807F0B8
:1036800081FE0EBDDC490024E0490024E449002409
:10369000D0490024D4490024D8490024795601088F
:1036A000B5560008DC4C0024D9540008104D002405
:1036B0004574684C696E6B00DD54000800BFFEE77E
:1036C00000BFFEE708B5022000231A461946009005
:1036D000184600F001F808BD2DE9F05F05460F46D9
:1036E0009046994600BFDFF864B09BF8000053286D
:1036F00001D000F003FA00BFDFF850A0032D1FD265
:10370000EFF311810846202181F3118800BF00BF2B
:1037100005EB45020AF1180101EBC2043DB1276037
:10372000C4F80480C4F8089000212161E1600A997E
:103730006161C1B281F3118800BF00BF002601E0C2
:103740004FF0FF363046BDE8F09F0000ECC7002484
:103750002DE9F04104460D46164600BF0E4F38785D
:10376000532801D000F0CAF900BFEFF311800746DB
:10377000202080F3118800BF00BF32462946204632
:1037800000F00CF88046F8B280F3118800BF00BF4B
:103790004046BDE8F0810000ECC700242DE9F04769
:1037A000074688461646C24607EB47011B4800EB12
:1037B000C109D9F8140020B1012811D0022826D15E
:1037C0001EE0484600F0D2F90546B54201D2002479
:1037D00005E0344632465146484600F010FA18E0FB
:1037E000484600F0C3F90546B54201D2284600E03C
:1037F0003046044622465146484600F000FA08E0AA
:1038000032465146484600F0BFF9044601E0002424
:1038100000BF00BF2046BDE8F087000004C80024B8
:10382000FFF720FE00BF0AF0B9FA4FF47A7007F0F4
:10383000BBFAF8E710B54FF0E020006914F00EFB7A
:10384000012801D013F0A0FC10BD000000B59DB010
:103850004C210AA8FCF7DFFD202102A8FCF7DBFDC4
:103860000220FEF7B5FB00BF002001902148006850
:1038700020F001001F4908600846006800F00100C0
:1038800001901D48006820F4404040F480401A49EF
:1038900008600846006800F44040019000BF00BF87
:1038A00000BF1548006800F40050B0F5005FF8D183
:1038B00002200A9001200D9040200E9000201390CD
:1038C0000AA8FEF7C9FE08B1FDF79DFA3F20029055
:1038D00000200390049005900690079008900990AE
:1038E000012102A8FEF7A4FB08B1FDF78CFA1DB078
:1038F00000BD00002C0400581848025808B53B4889
:10390000006840F47000394908603948006800F0E8
:103910000F00072806D23648006820F00F00C01DAF
:10392000334908603348006840F0010031490860BD
:1039300000203049103108602E4800682E490840A8
:103940002C4908602A48006800F00F00072806D9B3
:103950002748006820F00F00C01D2549086000209E
:10396000244918310860091D0860091D08602348B2
:103970002049283108602248091D08602148091D96
:1039800008600020091D08601E48091D086000200D
:10399000091D08601B48091D08600020091D0860FA
:1039A0001448006820F48020124908600020114962
:1039B00060310860144800686FF30F00B0F1005FD9
:1039C00002D20120114908600A48DC30006840F04A
:1039D00060400849DC31086008460068009000BF7C
:1039E00043F2D2000A49086008BD000088ED00E0FB
:1039F00000200052004402587FEDF6EA0002020265
:103A00000000FF01800201010010005C08810051EC
:103A10000040005210B50248FFF7EBFA10BD00005D
:103A2000884B002410B502682B4B98420ED0B0F1A1
:103A3000804F0BD0294B984208D0294B984205D093
:103A4000284B984202D0284B984203D122F07002B2
:103A50004B681A43204B984217D0B0F1804F14D0D6
:103A60001E4B984211D01E4B98420ED01D4B9842CF
:103A70000BD01D4B984208D01C4B984205D01C4BD4
:103A8000984202D01B4B984203D122F44072CB687B
:103A90001A4322F080034C6943EA04028B68C36234
:103AA0000B6883620C4B98420BD00F4B984208D0A6
:103AB0000E4B984205D00E4B984202D00D4B9842C7
:103AC00001D10B690363036843F00403036001231E
:103AD0004361026010BD000000000140000400408E
:103AE00000080040000C004000040140004001407C
:103AF000004401400048014000BFFEE770B5144C8F
:103B0000A8212046FCF787FC03202061606111A0FA
:103B1000A0611349E1614FF4806121620021A1623B
:103B20006162E1620BA020660E4961661021A16608
:103B300000212167E1666167002505E0C5F10F00FE
:103B40000949085C60556D1C102DF7D370BD00004D
:103B5000ECC700245465726D696E616C0000000052
:103B600094C8002494CC00248090010810B501462C
:103B70000A69CB689A4204D88C68641EE41AA018BB
:103B800001E0D41A601E10BD2DE9F05F044689469D
:103B900017464FF0000AE56800BFD4F81080A8452A
:103BA00003D9A8EB0500461E04E0A5EB0800401C65
:103BB000A1680E1AA068401BB04201D9304601E04E
:103BC000A068401B0646BE4201D2304600E038469F
:103BD0000646606800EB050B324649465846FCF73E
:103BE000F3FBB244B144BF1B3544A068A84200D1E6
:103BF0000025E560002FD0D15046BDE8F09F2DE9AB
:103C0000F047044689461546E668A068871BAF4220
:103C10000AD9606800EB060A2A4649465046FCF776
:103C2000D3FB7019E06014E0B846606800EB060A48
:103C3000424649465046FCF7C7FBA5EB0708D4F8B7
:103C400004A009EB070142465046FCF7BDFBC4F84F
:103C50000C80BDE8F08700000FB4054B10B503A938
:103C6000044A029800F056F810BC5DF814FB0000FE
:103C700001590008844B00240FB4084B10B504A967
:103C800002AA039800F046F8044602A9002000F0BA
:103C9000E2F9204610BC5DF814FB00005740000814
:103CA00002480068C0F30220704700000CED00E0FD
:103CB00010B5002804DB0A07130E054A135406E06A
:103CC0000A07140E034A00F00F031B1FD45410BD43
:103CD00000E400E018ED00E0EFF305807047EFF33B
:103CE0001080704702E008C8121F08C1002AFAD1EC
:103CF00070477047002001E001C1121F002AFBD16C
:103D0000704780F31088704780F31088704780F305
:103D1000108870472DE9FF4F8BB088460546002676
:103D200006E025280BD0DDE90D1290476D1C761CAE
:103D300028780028F5D10FB03046BDE8F08F002478
:103D4000A146A2460122AE4900E0044315F8013F16
:103D5000203B02FA03F00842F7D128782A2810D035
:103D60006FF02F022878A0F13001092915D809EB4E
:103D7000890102EB410144F0020400EB01096D1CD2
:103D8000F0E758F8041B5FEA010903D544F4005436
:103D9000C9F1000944F002046D1C28782E2817D1BF
:103DA00015F8010F44F004042A280ED06FF02F02FA
:103DB0002878A0F1300109290AD80AEB8A0102EB20
:103DC000410100EB010A6D1CF2E758F804AB6D1CD1
:103DD00028786C280FD006DC4C2817D068280DD026
:103DE0006A2814D104E0742810D07A280FD10DE08D
:103DF00044F400140AE044F4801401E044F4401454
:103E00006978814202D104F580146D1C6D1C2878FC
:103E1000692865D006DC00288DD0632827D0642867
:103E200006D15DE06E2808D073282AD0752877D097
:103E3000DDE90D129047761CE0E0C4F30250022841
:103E400009D003280DD0D8F8001004280DD00E603A
:103E500008F10408D2E0D8F80010F217C1E90062B6
:103E6000F6E7D8F800100E80F2E70E70F0E718F8C9
:103E7000041B8DF8001000208DF80100EB46012096
:103E800003E058F804BB4FF0FF3061074FF0000724
:103E900001D40AE07F1C57450DDA8742FADB1BF894
:103EA00007100029F6D106E07F1C8742FCDB1BF8D7
:103EB00007100029F8D1DDE90D23A9EB07008146A1
:103EC000214600F0B1F83044C61904E0DDE90D12D6
:103ED0001BF8010B90477F1EF8D22146484688E028
:103EE00058F8040BC4F302514FF00A0B032900D118
:103EF00000B2042900D140B2002802DA40422D214C
:103F000002E0210505D52B218DF82410012104E0C4
:103F100006E0E10710D02021F6E708AF089113E092
:103F200058F8040BC4F302514FF00A0B032900D1D7
:103F300080B2042900D1C0B20021EEE75946FCF757
:103F400082FA303107F8011D0028F7D1ADEB0700E8
:103F500000F1200B600702D524F4803401E04FF01B
:103F6000010ADA4502DDAAEB0B0000E000208246E0
:103F700000EB0B0108980144A9EB01000A90E00353
:103F800006D4DDE90D2321460A9800F04DF80644D9
:103F90004FF0000908E009A911F80900DDE90D1248
:103FA000904709F10109761C08998945F3DBE00384
:103FB0000CD5DDE90D2321460A9800F035F80644BA
:103FC00004E0DDE90D1230209047761CBAF10001C3
:103FD000AAF1010AF5DC05E0DDE90D1217F8010B85
:103FE0009047761CBBF10001ABF1010BF4DC0A98A1
:103FF0002146DDE90D2300F005F806446D1C97E627
:10400000092801002DE9F041044600251E46174607
:10401000880404D405E039462020B0476D1C641E96
:10402000F9D52846BDE8F0812DE9F0410446002588
:104030001E469046C80301D5302700E0202788049B
:1040400004D505E041463846B0476D1C641EF9D5DD
:104050002846BDE8F0810A68531C0B601070704759
:104060002DE9F04105460E46002445E009F0AEFF7B
:104070000746244800EB04100068002838D1214886
:1040800000EB04100560384609F0CCFF00201D4904
:1040900001EB0411486000BF1A4800EB0410807B5C
:1040A000002808D000BF18A340F20E2223A12BA0A5
:1040B000FFF7D2FD00BF00BF0020124901EB041141
:1040C0000881287800F0F000102804D10EB10120FA
:1040D00002E0002000E001200A4901EB04114881C0
:1040E0000020084901EB041188812046BDE8F081D9
:1040F000384609F097FF641C042CB7DB4FF0FF3003
:10410000F4E70000344D00242E2E2F4D6964646CBA
:104110006577617265732F54686972645F5061726C
:1041200074792F4C7749502F7372632F6170692F08
:10413000736F636B6574732E63000000736F636B42
:104140006574735B695D2E73656C6563745F77611D
:104150006974696E67203D3D2030000041737365CE
:104160007274696F6E2022257322206661696C6506
:1041700064206174206C696E6520256420696E205E
:1041800025730A002DE9F04104460D4600BF05F0F5
:104190000300002808D000BF0BA34FF4B67216A18D
:1041A0001DA0FFF759FD00BF00BF2E4609F00EFF0E
:1041B0000746A06800683060A0680660384609F0CD
:1041C00031FFBDE8F08100002E2E2F4D6964646C34
:1041D0006577617265732F54686972645F506172AC
:1041E00074792F4C7749502F7372632F636F726508
:1041F0002F6D656D702E63006D656D705F66726505
:10420000653A206D656D2070726F7065726C7920F3
:10421000616C69676E656400417373657274696F80
:104220006E2022257322206661696C6564206174AA
:10423000206C696E6520256420696E2025730A0054
:1042400070B5054609F0C2FE0646A8680468002C51
:1042500016D02068A968086000BF04F00300002899
:1042600008D000BF09A34FF48C7214A11CA0FFF763
:10427000F3FC00BF00BF304609F0D4FE204670BDFD
:10428000304609F0CFFE0020F9E700002E2E2F4D1A
:104290006964646C6577617265732F5468697264D0
:1042A0005F50617274792F4C7749502F7372632F6E
:1042B000636F72652F6D656D702E63006D656D7037
:1042C0005F6D616C6C6F633A206D656D702070720C
:1042D0006F7065726C7920616C69676E656400004F
:1042E000417373657274696F6E2022257322206694
:1042F00061696C6564206174206C696E6520256459
:1043000020696E2025730A002DE9F05F07460E46EE
:104310003C4600BF44B900BF4BA34FF4DC7257A129
:104320005AA0FFF799FC00BF00BF09F04FFE83467B
:10433000002060602672207F40F0010020776578C1
:1043400000206070584609F06DFE606A20B10022BE
:1043500004212046636A9847606A20B10022114612
:104360002046636A9847606A20B1002202212046F5
:10437000636A9847304604F059FA824604F1100007
:1043800009F0B9FE20B1514604F1100009F0A4FE75
:1043900004F1140009F0AFFE20B1514604F11400FD
:1043A00009F09AFE012D03D0042D01D0032D3CD13C
:1043B000207FC0F3800900BF00BF207F00F0FB001A
:1043C000207700BF00BFB9F1000F2DD100BF206AD8
:1043D00040B900BF1CA34FF4F37236A12BA0FFF726
:1043E0003BFC00BF00BF042D03D10020216A0871EF
:1043F00001E0206A0671206A006800F10C0800BF25
:10440000404609F0C3FE40B900BF0FA340F2EF12CF
:104410002FA11EA0FFF720FC00BF00BF00202062DC
:10442000404609F0ADFE00BF0CE000BF206A40B17D
:1044300000BF05A340F2F7122CA114A0FFF70CFC5B
:1044400000BF00BFBDE8F09F2E2E2F4D6964646C45
:104450006577617265732F54686972645F50617229
:1044600074792F4C7749502F7372632F6170692FC5
:104470006170695F6D73672E63000000636F6E6E1D
:1044800020213D204E554C4C0000000041737365C7
:104490007274696F6E2022257322206661696C65D3
:1044A00064206174206C696E6520256420696E202B
:1044B00025730A00636F6E6E2D3E63757272656EB2
:1044C000745F6D736720213D204E554C4C000000F9
:1044D000696E61766C6964206F705F636F6D706C7C
:1044E000657465645F73656D00000000636F6E6ED8
:1044F0002D3E63757272656E745F6D7367203D3D0E
:10450000204E554C4C0000000146002902DC484278
:10451000112801DB0520704702484A4250F822006A
:10452000F9E70000E88E010870B50546002411E0A7
:1045300004EB4400094901EBC000067D4EB104EBD9
:10454000440001EBC0008068A84202D1204600F080
:1045500087F9641C0A2CEBDB70BD0000287E002468
:104560002DE9FF5F0646894617464FF00A0AD346F3
:10457000D04600240A200390002002900190009071
:1045800000BF73E004EB4400764901EBC000057DF9
:10459000B8F10A0F02D10DB9A04665E0002D63D035
:1045A00000BF012D0AD0022D08DA00BF6EA340F231
:1045B00023127BA18AA0FFF74FFB00BF00BFAEB163
:1045C00004EB4401674A02EBC10130684968884244
:1045D0000CD13FB104EB4400114601EBC0008068F0
:1045E000B84203D1204604B0BDE8F09F012D28D188
:1045F00004EB44005B4951F8300080B104EB440007
:1046000001EBC000418A029881422DDB039404EB48
:104610004400544901EBC000408A029024E004EBBE
:104620004400504901EBC000418A019881421BDBE4
:10463000A24604EB44004B4901EBC000408A0190C4
:1046400012E0022D10DB04EB4400464901EBC000F0
:10465000418A0098814207DBA34604EB44004149AC
:1046600001EBC000408A0090601C04B20A2C89DB78
:1046700009F0020028B9B8F10A0F05D109F00100CC
:1046800010B94FF0FF30AEE7B8F10A0F01DA444637
:1046900031E0BBF10A0F11DA5C4600BF04EB4400C5
:1046A000304951F8300040B100BF2FA340F26D12E5
:1046B00055A14BA0FFF7D0FA00BF0CE0BAF10A0FEA
:1046C00001DA544607E003980A2801DA039C02E065
:1046D0004FF0FF3087E700BF0A2C08DB00BF22A3A2
:1046E00040F27F124EA13EA0FFF7B6FA00BF00BF16
:1046F000204600F0B5F800BF0A2C08DB00BF1AA363
:1047000040F2831246A136A0FFF7A6FA00BF00BF11
:1047100000BF04EB4400134901EBC000007D40B131
:1047200000BF11A34FF4C27242A12DA0FFF794FA6B
:1047300000BF00BF36B104EB44010A4A02EBC101DD
:1047400030684860002004EB4401064A02EBC101D6
:10475000488204EB4400114601EBC000876020460C
:1047600041E70000287E00242E2E2F4D6964646CE2
:104770006577617265732F54686972645F50617206
:1047800074792F4C7749502F7372632F636F726562
:104790002F697076342F6574686172702E63000023
:1047A0007374617465203D3D204554484152505F0B
:1047B00053544154455F50454E44494E47207C7CFC
:1047C000207374617465203E3D2045544841525029
:1047D0005F53544154455F535441424C45000000DF
:1047E000417373657274696F6E202225732220668F
:1047F00061696C6564206174206C696E6520256454
:1048000020696E2025730A006172705F7461626CAA
:10481000655B695D2E71203D3D204E554C4C00007E
:1048200069203C204152505F5441424C455F5349FE
:104830005A4500006172705F7461626C655B695D0E
:104840002E7374617465203D3D204554484152509B
:104850005F53544154455F454D505459000000008A
:1048600010B5044604EB44000C4951F8300060B127
:1048700004EB4401094A52F8310007F0FBFA00202A
:1048800004EB4401054A42F83100002004EB4401E6
:10489000024A02EBC101087510BD0000287E002409
:1048A000F0B587B007460D4600BF002D0AD100BF06
:1048B0002EA340F28A223BA13EA0FFF7CDF900BF14
:1048C00007B0F0BD00BF7C682088B0F5807F08D1BC
:1048D0002079062805D16079042802D1608808284B
:1048E00003D0384607F0C6FAEAE7D4F80E0006907F
:1048F000A0690590686808B9002607E0059869680E
:10490000884201D1012000E0002006460EB10120BE
:1049100000E00220034604F1080206A9284600F040
:10492000CBFCE088B0F5807F03D0B0F5007F15D1D7
:1049300013E086B1022206AB04F10800291DCDE97F
:104940000232CDE9001005F1260302462231284645
:1049500000F05CFB00E000BF01E000E000BF00BF32
:10496000384607F087FA00BFAAE700002E2E2F4D29
:104970006964646C6577617265732F5468697264E9
:104980005F50617274792F4C7749502F7372632F87
:10499000636F72652F697076342F65746861727009
:1049A0002E6300006E6574696620213D204E554CD3
:1049B0004C000000417373657274696F6E2022258C
:1049C0007322206661696C6564206174206C696E75
:1049D0006520256420696E2025730A002DE9FE43B9
:1049E00004460F461546A94600BF002C08D100BF5B
:1049F0005DA340F21E326AA16DA0FFF72DF900BF42
:104A000000BF00BF47B900BF57A340F21F3272A1D9
:104A100067A0FFF721F900BF00BF00BF002D08D13C
:104A200000BF51A34FF448726EA161A0FFF714F9C3
:104A300000BF00BF2146286801F0E2F910B1DFF89D
:104A4000B48186E0287800F0F000E02816D101203B
:104A50008DF8040000208DF805005E208DF806001A
:104A6000687800F07F008DF80700A8788DF80800BE
:104A7000E8788DF809000DF1040869E02868A1685C
:104A80000840D4E90112114088420ED0288880B233
:104A90004FF6A961884208D0E06810B104F10C0912
:104AA00003E06FF00300BDE8FE835348007800EB9D
:104AB0004000524901EBC000007D02281BDB4E483C
:104AC000007800EB400001EBC0008068A04212D1EA
:104AD0004949097801EB4101484A02EBC101D9F883
:104AE00000004968884206D143480278394620468A
:104AF00000F086F8D7E7002622E006EB46003F49A3
:104B000001EBC000007D022818DB06EB460001EB3C
:104B1000C0008068A04211D106EB4601374A02EB83
:104B2000C101D9F800004968884207D132480670AF
:104B300032463946204600F063F8B4E7701CC6B22E
:104B40000A2EDADB3A464946204600F00DF9AAE77C
:104B500000BF4FF40060434604F12602394600903E
:104B6000204600F025FD9EE72E2E2F4D6964646CD3
:104B70006577617265732F54686972645F50617202
:104B800074792F4C7749502F7372632F636F72655E
:104B90002F697076342F6574686172702E6300001F
:104BA0006E6574696620213D204E554C4C00000016
:104BB000417373657274696F6E20222573222066BB
:104BC00061696C6564206174206C696E6520256480
:104BD00020696E2025730A007120213D204E554C1E
:104BE0004C00000069706164647220213D204E55C4
:104BF0004C4C0000D88E0108A84A0024287E0024CE
:104C0000F8B505460E46144600BF04EB4400314992
:104C100001EBC000007D022808DA00BF2EA340F29D
:104C2000EE223BA146A0FFF717F800BF00BF04EB40
:104C30004400284901EBC000007D022839D104EB73
:104C4000440001EBC000408AB0F58E7F11DD04EB1B
:104C500044000A4602EBC000011D284600F09CFA01
:104C600038BB032004EB44011A4A02EBC10108756A
:104C70001FE004EB4400174901EBC000408AB0F587
:104C8000877F16DB04EB44000B4603EBC00000F10A
:104C90000C0204EB440003EBC000011D284600F0A9
:104CA00087FA30B9032004EB44010A4A02EBC10140
:104CB00008754FF40060009004EB4400054901EBD7
:104CC000C00000F10C0305F126023146284600F031
:104CD0006FFCF8BD287E00242E2E2F4D6964646C75
:104CE0006577617265732F54686972645F50617291
:104CF00074792F4C7749502F7372632F636F7265ED
:104D00002F697076342F6574686172702E630000AD
:104D10006172705F7461626C655B6172705F69641F
:104D2000785D2E7374617465203E3D204554484182
:104D300052505F53544154455F535441424C4500D7
:104D4000417373657274696F6E2022257322206629
:104D500061696C6564206174206C696E65202564EE
:104D600020696E2025730A002DE9FE4F81460F460B
:104D7000164609F1260A4FF0FF30029000200190FC
:104D80004946386801F03CF838B9387800F0F0004E
:104D9000E02802D00FB1386818B96FF00F00BDE8F5
:104DA000FE8F4A4601213846FFF7DAFB8046B8F10C
:104DB000000F02DA4FFA88F0F1E700BFB8F17F0F79
:104DC00008D300BF5FA340F2C1326CA16FA0FEF711
:104DD00043FF00BF00BF08F0FF0404EB4400754927
:104DE00001EBC000007D70B90120019004EB44018B
:104DF000704A02EBC101087504EB4400114601EB57
:104E0000C000C0F8089000BF04EB4400694901EB02
:104E1000C000007D01280FD004EB440001EBC0006E
:104E2000007D022808DA00BF46A340F2CD3262A11D
:104E300056A0FEF711FF00BF00BF019800B93EB9B0
:104E40003946484600F0A8F902900EB90298A6E744
:104E500000BF46B900BF3BA340F2E13260A14BA0C6
:104E6000FEF7FAFE00BF00BF04EB4400514901EB1E
:104E7000C000007D022811DB5C4804704FF4006024
:104E8000009004EB440001EBC00000F10C0352461B
:104E90003146484600F08CFB029050E004EB4400A1
:104EA000444901EBC000007D012848D14FF0000BC0
:104EB000354618E000BF6889298988420AD12868E8
:104EC00040B100BF1FA340F2F13249A12FA0FEF76D
:104ED000C3FE00BF00BF287B00F0400010B14FF0C0
:104EE000010B02E02D68002DE4D100BFBBF1000FE3
:104EF00007D032464FF420710E2006F0AFFD054674
:104F000003E03546284607F0C3F9A5B104EB440099
:104F1000284951F8300030B104EB4401254A52F8D9
:104F2000310006F0A7FF04EB4400224941F830505D
:104F30000020029002E04FF0FF30029000BF029884
:104F40002DE700002E2E2F4D6964646C6577617229
:104F500065732F54686972645F50617274792F4C65
:104F60007749502F7372632F636F72652F69707664
:104F7000342F6574686172702E63000074797065F7
:104F8000206F766572666C6F770000004173736501
:104F90007274696F6E2022257322206661696C65C8
:104FA00064206174206C696E6520256420696E2020
:104FB00025730A00287E00246172705F7461626C40
:104FC000655B695D2E7374617465203D3D205045BD
:104FD0004E44494E47206F7220535441424C450085
:104FE0007120213D204E554C4C000000A84A002461
:104FF0006E6F207061636B65742071756575657384
:1050000020616C6C6F776564210000002DE9FC5F06
:1050100006460F4690469946DDE90CAB002001900C
:1050200000BF002E08D100BF31A340F257423EA17D
:1050300041A0FEF711FE00BF00BF4FF420721C21FB
:105040000E2006F079FA05461DB94FF0FF30BDE895
:10505000FC9F00BF68891C2808DA00BF24A340F227
:1050600062423FA134A0FEF7F7FD00BF00BF6C68AD
:105070000F9802F0F4FBE08000BF96F82C000628A1
:1050800008D000BF1AA340F2694242492AA0FEF7A5
:10509000E3FD00BF00BFD9F80000A060B9F804002C
:1050A000A081DBF80000C4F81200BBF80400E08225
:1050B000DAF80000C4F80E000E980068A0614FF402
:1050C000807020800820608006202071042060719C
:1050D00040F6060043463A4629460090304600F026
:1050E00067FA284606F0C6FE00250198AFE70000E3
:1050F0002E2E2F4D6964646C6577617265732F5431
:10510000686972645F50617274792F4C7749502FCF
:105110007372632F636F72652F697076342F6574B5
:10512000686172702E6300006E6574696620213DAF
:10513000204E554C4C000000417373657274696FCA
:105140006E2022257322206661696C65642061747B
:10515000206C696E6520256420696E2025730A0025
:10516000636865636B207468617420666972737428
:1051700020706275662063616E20686F6C642073B6
:105180007472756374206574686172705F686472AC
:10519000000000004092010870B504460D46034A25
:1051A0002946204600F004F870BD0000D88E0108A2
:1051B0007FB504460D4616460121074A201D04F11D
:1051C00026038DE825000391324619462046FFF755
:1051D0001DFF04B070BD0000DE8E010870B5002414
:1051E00064E004EB4400334901EBC000057D002D71
:1051F0005BD004EB440001EBC000408A401C04EB90
:1052000044012C4A02EBC101488204EB44001146E0
:1052100001EBC000408AB0F5967F0DDA04EB440044
:1052200001EBC000007D01280AD104EB440001EB32
:10523000C000408A052803DB2046FFF711FB34E05D
:1052400004EB44001B4901EBC000007D032807D19B
:10525000042004EB4401174A02EBC101087524E065
:1052600004EB4400134901EBC000007D042807D182
:10527000022004EB44010F4A02EBC101087514E05F
:1052800004EB44000B4901EBC000007D01280CD168
:1052900004EB44020B4603EBC202111D04EB440273
:1052A00003EBC2029068FFF777FF641C0A2C98DBBF
:1052B00070BD0000287E00242DE9F84305460E4607
:1052C0001746984600BF95F82C00062808D000BF66
:1052D0002EA340F2A9123BA143A0FEF7BDFC00BFE4
:1052E00000BF5EB1306848B12946306800F088FDE3
:1052F00020B9307800F0F000E02803D16FF00F0003
:10530000BDE8F8832A4641463046FFF729F90446AE
:10531000002C01DA60B2F3E7022004EB44013C4ABE
:1053200002EBC101087504EB4400114601EBC0001B
:10533000856004EB440001EBC0003968C160B988A6
:105340000182002004EB440102EBC101488204EB1E
:105350004400114651F83000B0B104EB440051F85C
:105360003090002004EB440142F831004FF400601B
:105370003B4605F1260249460090284600F018F900
:10538000484606F077FD00BF0020B9E72E2E2F4DCE
:105390006964646C6577617265732F5468697264BF
:1053A0005F50617274792F4C7749502F7372632F5D
:1053B000636F72652F697076342F657468617270DF
:1053C0002E6300006E657469662D3E6877616464C3
:1053D000725F6C656E203D3D204554485F485741E3
:1053E0004444525F4C454E00417373657274696F5B
:1053F0006E2022257322206661696C6564206174C9
:10540000206C696E6520256420696E2025730A0072
:10541000287E00242DE9F04104460E464FF00E0888
:1054200060890E2800DC4FE0E07B18B996F8300068
:10543000401CE0736568AF89287800F00100B0B1C6
:105440002878012809D1687888B9A8785E280ED113
:10545000607B40F01000607309E006221D49284679
:10546000FAF7E4FF18B9607B40F008006073082F7A
:1054700003D0B7F5C16F22D110E096F82D0000F0EF
:10548000080000B920E04146204606F055FF00B173
:105490001AE03146204600F041FE11E096F82D005A
:1054A00000F0080000B90FE04146204606F044FF36
:1054B00000B109E031462046FFF7F2F900E003E0D1
:1054C00000BF0020BDE8F081204606F0D3FC00209C
:1054D000F8E70000D88E0108704700009AB0064631
:1054E000642101A8FAF797FF00240027A046A146EF
:1054F000354600BF2C48FDF75AFE044695F82D00AE
:10550000C0F3800058B1012C09DC2848FCF7F2F9FF
:10551000284605F0AFFA284605F016FB3FE095F85F
:105520002D00C0F38000002839D1012C37DD022C7A
:1055300006D0032C0AD0042C0ED0052C17D111E074
:105540004FF400594FF48048012711E04FF0000953
:105550004FF4804801270BE04FF400594FF000084A
:10556000012705E04FF00009C846012700E000BF11
:1055700000BFA7B101A90D48FBF774FCCDF81C9042
:10558000CDF8188001A90948FCF710F90748FCF785
:1055900055F9284605F0A8FB284605F03BFB64209A
:1055A00005F002FCA6E70000BC4C0024D44B00240C
:1055B0002DE9F04705460E4617469846DDF820903F
:1055C000484602F04CF982460E21304605F036FF7F
:1055D00000B122E07468A4F80CA0D8F800002060A4
:1055E000B8F80400A0803868C4F80600B888608164
:1055F00000BF95F82C00062808D000BF08A34FF480
:10560000997215A121A0FEF727FB00BF00BF31460C
:105610002846AA699047BDE8F0876FF00100FAE7D5
:105620002E2E2F4D6964646C6577617265732F54FB
:10563000686972645F50617274792F4C7749502F9A
:105640007372632F6E657469662F65746865726E18
:1056500065742E63000000006E657469662D3E68F7
:1056600077616464725F6C656E206D75737420621F
:1056700065203620666F722065746865726E657489
:105680005F6F75747075742100000000417373655D
:105690007274696F6E2022257322206661696C65C1
:1056A00064206174206C696E6520256420696E2019
:1056B00025730A0010B5044600BF44B900BF0CA30F
:1056C00040F2162211A115A0FEF7C6FA00BF00BFD6
:1056D000732084F82E0074212F2001551948606131
:1056E0001948A061204601F0E3FD002010BD000034
:1056F0002E2E2F4C5749502F5461726765742F65B9
:10570000746865726E657469662E63006E6574698F
:105710006620213D204E554C4C00000041737365BE
:105720007274696F6E2022257322206661696C6530
:1057300064206174206C696E6520256420696E2088
:1057400025730A00DD490008C574000806460024D8
:10575000354600BF4FF0FF310B48006805F032FDC1
:105760000028F7D100BF284601F09AFE04463CB15C
:10577000294620462A69904710B1204606F07AFB58
:10578000002CF0D1E6E70000B44900242DE9F84FE1
:1057900005460E46DDB1AF69002F12DA08F016FC9F
:1057A0008146A869002808DA16B9A869401EA861D0
:1057B000484608F037FCBDE8F88FAF69484608F066
:1057C00031FC384600F0DEF804460CB9F3E7F2E7A6
:1057D0004FF0010808F0FAFB8146052E24D2DFE8DD
:1057E00006F0030E151C20002089401C00B2208109
:1057F000B4F90800012801DD4FF0000820E02089FD
:10580000401E00B220814FF0000819E0608908B105
:105810004FF000080120608112E000206081804686
:105820000EE00120A0810BE000BF00BF19A34FF4E0
:105830001F6225A128A0FEF70FFA00BF00BF00BF1E
:1058400000BFA07B00B3B8F1000F1DD0B4F9080071
:10585000002801DD012000E000208246608908B1B7
:10586000012000E000208346A08908B1012000E06B
:1058700000200090484608F0D5FB5A46514638466D
:10588000009B08F007FA02E0484608F0CBFB00BF97
:1058900091E700002E2E2F4D6964646C657761726C
:1058A00065732F54686972645F50617274792F4C0C
:1058B0007749502F7372632F6170692F736F636B19
:1058C0006574732E63000000756E6B6E6F776E20CB
:1058D0006576656E74000000417373657274696F5C
:1058E0006E2022257322206661696C6564206174D4
:1058F000206C696E6520256420696E2025730A007E
:1059000038B504468DF8000069460320ABBE20463A
:1059100038BD2DE9FC4105460C4608F057FB07460B
:105920006B4601AA2146284600F01FF80646384675
:1059300008F078FB26B16A462046019900F002F88B
:10594000BDE8FC8170B506460D461446206838B1A6
:105950001EB1206806F08EFA02E0206804F056F8C6
:1059600015B1284604F02AFA70BD10B504466068E7
:105970001860002060602068106000202060012016
:1059800010BD000070B50546284610F01DF804460D
:1059900034B900BF09200349086000BF002070BD72
:1059A0002046FCE7B44A002470B505460C46224662
:1059B0000321284600F054F970BD00002DE9FF5F77
:1059C00005468A467248806803900398007800076D
:1059D000870E142F00DAD1E06889042800D2CDE0C8
:1059E0006868047814B1082C77D100E0C1E0DFF8D2
:1059F000A09109F114096648007D00F0F000E0284C
:105A000000D1BFE0624A1168506900F0F9F900B1B5
:105A1000B8E02889082800D2B0E0284600F0C5F98F
:105A200020B1284606F026FABDE8FF9F07F10E01D7
:105A3000284605F003FD002844D0288938441FFA81
:105A400080FB2889584500DD9CE04FF420725946C0
:105A50000E2005F071FD8046B8F1000F00D191E0F5
:105A6000B8F80A1007F10800814203D2404606F058
:105A700001FA87E03A46D8F804000399FAF7A4FC43
:105A80003946404606F058FC00280DD000BF00BF44
:105A900040A3B6224DA15BA0FEF7DEF800BF00BF19
:105AA000404606F0E7F96DE02946404606F02EF83C
:105AB00018B1404606F0DEF964E0284606F0DAF94F
:105AC000454612E007F10E01284606F035FC60B1AC
:105AD00000BF00BF2FA3C72200E038E053A149A0B8
