:020000040800F2
:10000000907F0024B1020008592D0008D52800086F
:10001000552D000827040008152F000800000000D7
:100020000000000000000000000000005F2D00083C
:100030002B040008000000005D2D0008612D000861
:10004000CF020008CF020008CF020008CF0200084C
:10005000CF020008CF020008CF020008CF0200083C
:10006000CF020008CF020008CF020008CF0200082C
:10007000CF020008CF020008CF020008CF0200081C
:10008000CF020008CF020008CF020008CF0200080C
:10009000CF020008CF020008CF020008CF020008FC
:1000A000CF020008CF020008CF020008CF020008EC
:1000B000CF020008CF020008CF020008CF020008DC
:1000C000CF020008CF020008CF020008CF020008CC
:1000D000CF020008CF020008CF020008CF020008BC
:1000E000CF020008CF02000800000000CF02000885
:1000F000CF020008CF020008CF020008CF0200089C
:10010000CF020008CF020008CF020008CF0200088B
:10011000CF020008CF020008CF020008CF0200087B
:10012000CF020008CF020008CF020008CF0200086B
:10013000CF020008CF020008CF020008CF0200085B
:1001400000000000000000000000000000000000AF
:10015000CF020008CF020008CF020008CF0200083B
:10016000CF020008CF020008CF020008CF0200082B
:10017000CF020008CF020008CF020008CF0200081B
:10018000CF020008CF020008CF020008CF0200080B
:10019000CF020008CF020008CF020008CF020008FB
:1001A000CF020008CF020008CF020008CF020008EB
:1001B000CF020008CF020008CF020008CF020008DB
:1001C000CF020008CF020008CF020008CF020008CB
:1001D000CF020008CF020008CF020008CF020008BB
:1001E000CF020008CF020008CF020008CF020008AB
:1001F000CF020008CF020008CF020008CF0200089B
:10020000CF020008CF020008CF020008CF0200088A
:10021000CF020008CF020008CF020008CF0200087A
:10022000CF020008CF020008CF0200080000000043
:10023000CF020008CF02000800000000CF02000833
:10024000CF020008CF020008CF020008CF0200084A
:10025000CF020008CF020008CF020008CF0200083A
:10026000CF020008CF020008CF020008CF0200082A
:10027000CF020008CF020008CF02000800000000F3
:10028000CF020008CF020008CF02000800000000E3
:1002900000000000CF020008DFF810D000F086F860
:1002A00000480047BF5E0008AFF30080907F002445
:1002B000074880470748804707480047FEE7FEE7B2
:1002C000FEE7FEE7FEE7FEE7FEE7FEE7FEE7FEE706
:1002D000310D0008192E0008990200080649074A46
:1002E0000868504343F239021044086040087047E0
:1002F0000149086070470000744A00246D4EC641F1
:1003000010B5431A934209D28318881803E010F8F5
:10031000011D03F8011D521EF9D210BD40EA010370
:100320009B0703D009E008C9121F08C0042AFAD2AB
:1003300003E011F8013B00F8013B521EF9D210BD59
:10034000D2B201E000F8012B491EFBD27047002217
:10035000F6E710B513460A4604461946FFF7F0FFC4
:10036000204610BD30B504460020034600E05B1C6B
:10037000934203D2E05CCD5C401BF8D030BD30B579
:100380000B46014600202022012409E021FA02F553
:100390009D4205D303FA02F5491B04FA02F52844ED
:1003A000151EA2F10102F1DC30BD0000064C074D24
:1003B00006E0E06840F0010394E807009847103435
:1003C000AC42F6D3FFF76CFFD0E80008F0E8000875
:1003D00070B58C1810F8015B15F0070301D110F807
:1003E000013B2A1106D110F8012B03E010F8016B34
:1003F00001F8016B5B1EF9D12B0705D40023521EB7
:100400000DD401F8013BFAE710F8013BCB1A921C1E
:1004100003E013F8015B01F8015B521EF9D5A1421C
:10042000D8D3002070BD00BFFEE7704710B5002292
:1004300010E002EB4204036903EBC40100230B60EC
:100440004B608B60CB600B614B6100F1480343F85C
:100450002210521C042AECD30024C465046684666E
:10046000C46684650324036803F58053C3F83041F0
:10047000036803F580530469C3F81C4103694833DA
:10048000046804F58054C4F8283110BD10B500226A
:100490000EE002EB4204C36803EBC40100230B60CF
:1004A0004B608B60CB6000F1180343F82210521CA4
:1004B000042AEED3002484620324036803F58053E6
:1004C000C3F82C41036803F58053C468C3F8144192
:1004D000036803F58053C468C3F8204110BD10B50C
:1004E000A2B0044601208DF83300002012908DF850
:1004F00041008DF8430001208DF828008DF856004A
:100500008DF8320000208DF84C0001208DF8840019
:1005100040030F9000208DF85C0018908DF8850046
:100520008DF886004FF4C360169000208DF83000DF
:100530000B9001208DF8350000208DF836008DF8E5
:1005400040001D901B9014908DF864008DF87A0087
:1005500001208DF842002020209001208DF84400D9
:1005600000208DF855004FF0405009904FF4804026
:100570000E9000208DF8310002201F9000208DF891
:1005800078008DF879008DF8540001208DF8340042
:1005900000201A9001208DF8700009A9204600F073
:1005A000A7FA01208DF804000290002000908DF839
:1005B0001C008DF80D008DF80C004FF40010069013
:1005C00000208DF814004FF40010049000208DF8E6
:1005D0001D004FF4067008906946204600F02AFA84
:1005E00022B010BD0020704710B501F0F1F810BD29
:1005F00010B5024800F068FE002010BD7C4A0024BF
:1006000070B504460D46164633462A462146044830
:1006100000F0E8FD10B14FF0FF3070BD0020FCE7A6
:100620007C4A002470B504460D46164633462A46D9
:100630002146044800F082FF10B14FF0FF3070BD3A
:100640000020FCE77C4A00242DE9F04F06460B46CB
:10065000924606F118042269D4F810804FF0000C7D
:1006600054F822109D68E346C86800F00040B0F1DD
:10067000004F04D004F1140050F8220010B1022001
:10068000BDE8F08F187800F00400C8B3C8686FF3B5
:100690000F00D3F824E040EA0E00C860C86840F4B8
:1006A0008030C8603068006E40F48010D6F800E0FA
:1006B000CEF86000187800F0080008B3B3F82CE01A
:1006C00088686EF31F408860C86840F40030C860D6
:1006D000C86820F44020D3F830E040EA0E00C8603B
:1006E0003068406E40F48010D6F800E0CEF8640028
:1006F0003068006D40F08060D6F800E0CEF8500021
:10070000187800F0100058B188686FF30D00D3F826
:1007100018E040EA0E008860C86840F08060C86059
:10072000187800F0040018B9187800F0100078B3B9
:10073000C86840F08040C86000BF00BF00BFBFF382
:100740005F8F00BF00BF00BFC86840F00040C860B6
:1007500000BF521C042A00D3121F00BF54F82210FD
:100760000CF1010CC86800F00040B0F1004F10D14E
:1007700054F8281000BF00BF00BFBFF35F8F00BF59
:1007800000BF00BFC86820F00040C860022077E7C3
:10079000FFE70CF1010C2868086088686FF30D0012
:1007A000D5F804E040EA0E008860A86868B1AD683A
:1007B000286848608868DFF878E200EA0E00B5F83B
:1007C00004E040EA0E40886007E000204860886846
:1007D000DFF85CE200EA0E008860187800F0100094
:1007E000A0B1C86820F4F000B3F820E040EACE40A1
:1007F000C860C8686FF31100D3F81CE040EA0E002F
:10080000C860C86840F48020C8601FE0C8686FF303
:100810000E00D3F804E040EA0E00C860187800F03B
:10082000010038B1C86820F44030D3F814E040EA41
:100830000E00C860187800F0200038B1C86820F0B9
:100840004060D3F810E040EA0E00C860187800F06D
:10085000040038B1886820F44040D3F828E040EA2A
:100860000E008860C86840F00050C860C86820F07A
:100870008040C86000BF00BF00BFBFF35F8F00BFF4
:1008800000BF00BFC86840F00040C860187800F0A2
:10089000020038B1C86820F06070D3F80CE040EA7C
:1008A0000E00C86096E0C86820F08050C86000BFA5
:1008B000521C042A00D3121F00BF54F82210C8682B
:1008C00020F00050C860C86800F00040B0F1004F50
:1008D00004D004F1140050F82200F8B1424654F854
:1008E00022104FF0000915E000BF00BF00BFBFF3AA
:1008F0005F8F00BF00BF00BFC86820F00040C86025
:1009000000BF521C042A00D3121F00BF54F822104B
:1009100009F10109E145E7D30220B1E60CF1010C30
:10092000AD682868086088686FF30D00D5F804E0AA
:1009300040EA0E008860A86868B1AD682868486021
:100940008868DFF8ECE000EA0E00B5F804E040EA61
:100950000E40886007E0002048608868DFF8D0E03B
:1009600000EA0E008860187800F0100060B1C868D6
:100970006FF31100D3F81CE040EA0E00C860C868AD
:1009800040F48020C86013E0C8686FF30E00D3F80D
:1009900004E040EA0E00C860187800F0010038B1A9
:1009A000C86820F44030D3F814E040EA0E00C86074
:1009B0000BF1010B00BF00BF00BFBFF35F8F00BF93
:1009C00000BF00BFC86840F00040C860C86820F0A1
:1009D0008040C860A86800287FF465AFBAF1000FB6
:1009E00004D0886840F00040886003E0886820F008
:1009F00000408860C86840F08050C86004F1140E60
:100A0000606A4EF82200226100BFEFF310800746B3
:100A100000BF012080F3108800BF0BF1010EA06A17
:100A20007044A06200BF87F3108800BF002027E653
:100A3000FFFF00C010B5036803F580531B6847F63D
:100A40000204A3430C682343046804F58054236024
:100A50000C798B6843EA04330C7B43EAC4320368A5
:100A600003F580535B684DF20104A343134304680C
:100A700004F5805463604C7B0B6A43EA04420368CC
:100A800003F58053D3F80031164C23401343046818
:100A900004F58054C4F800310C7D0B6943EA04135B
:100AA0004C7F43EA0432036803F58053D3F80431E2
:100AB0000D4C23401343046804F58054C4F80431FA
:100AC0000C7F8B6943EAC472036803F58053D3F843
:100AD0000831064C23401343046804F58054C4F8DD
:100AE000083110BD00C0FEFFEFEFC0FFFFFFC07F69
:100AF00010B50C688B6823430C7943EAC4630C7B04
:100B000043EAC4534C7B43EA84538C7B43EA44530B
:100B1000CC7B43EA04530C7C0CB9012400E0002494
:100B200043EAC4434C7C0CB9012400E0002443EAAE
:100B300044438C7C43EA04434C6923438C6923433C
:100B40000C7F43EA04334C7F43EAC4238C7F0CB907
:100B5000012400E0002443EA8423CC7F43EA4423B9
:100B600091F820400CB9012400E0002443EA04235A
:100B700051F8244F23430C7943EA04138C6843EA69
:100B8000040203681B683D4C234013430468236040
:100B90000B7E5B060C7D43EA04630C7B43EA8443D3
:100BA0004C7B43EA44438C7B24390CB9012400E09C
:100BB000002443EA04434C6B43EA040203685B6885
:100BC0002F4C234013430468636091F840404B6C02
:100BD00043EA04220368DB6840F20F14A343134383
:100BE0000468E36091F854400B6D43EA440391F8C4
:100BF0004C400CB9012400E0002443EAC41331F84E
:100C0000484F43EA044203681B6F4FF60D742340BC
:100C10001343046823678B7B4C7B43EA44020368DD
:100C2000D3F8903023F0030313430468C4F89030E2
:100C30000368D3F8003D23F072030C692343046872
:100C4000C4F8003D0C7E4B6948390CB9012400E022
:100C5000002443EA841391F8614043EA041391F8B5
:100C6000624043EAC4020368D3F8303D23F07B03BB
:100C700013430468C4F8303D10BD000083800400B5
:100C80000080F8C02DE9F8430446002000904FF0A2
:100C90000109A56E04F1480050F82560E76E24E0D4
:100CA000306958B9684600F0D9FA009810B94FF089
:100CB000000903E00098306100983060B9F1000F3E
:100CC00013D0A06D18B14FF04140F06002E04FF03A
:100CD0000140F06000BF6D1C042D00D32D1F00BF2C
:100CE00004F1480050F825607F1E17B1B9F1000FDC
:100CF000D6D1E06EB84216D0E81C00F0030800BF61
:100D000000BF00BFBFF35F8F00BF00BF00BF08EB95
:100D10004801206900EBC101206800F58050C0F84F
:100D20002811A566E766BDE8F88372B600BFFEE746
:100D30000748006840F002000549086000BF044809
:100D40000838006800F400500028F8D07047000010
:100D50000C480258024609B9012070471068006823
:100D600000F00C00C86210680068C0F3001081F841
:100D700028001068006800F0600048621068006891
:100D8000C0F3002080F0010081F8200010680068A6
:100D9000C0F34020C87710680068C0F3802080F05E
:100DA0000100887710680068C0F3C0204877106899
:100DB0000068C0F3003008771068006800F4005045
:100DC00088611068006800F480404861106800681D
:100DD000C0F30040887410680068C0F3404080F0A1
:100DE0000100487410680068C0F3C04080F0010042
:100DF000087410680068C0F30050C8731068006879
:100E0000C0F34050887310680068C0F38050487386
:100E100010680068C0F3C05008731068006800F0E4
:100E2000E060886010680068C0F3C06008711068F6
:100E3000006800F0E040086010684068C0F30D00F2
:100E4000486310684068C0F3004080F0010081F8FA
:100E5000320010684068C0F3404081F831001068EB
:100E60004068C0F3804081F8300010684068C0F3EB
:100E7000006081F8380010684068C0F34460C863BF
:100E80001068C068C0F3002081F840001068C06896
:100E900000F00F0048641068006FC0F3400081F854
:100EA00054001068006FC0F3C01080F0010081F89A
:100EB0004C001068006F00F0700008651068006F4B
:100EC000000C88641068D0F8900000F0010081F8F0
:100ED00056001068D0F89000C0F3400081F855002B
:100EE0001068D0F8000D00F0720088651068D0F826
:100EF000300D00F02300C8651068D0F8300DC0F345
:100F0000C00081F862001068D0F8300DC0F3001006
:100F100081F861001068D0F8300DC0F3801080F0C7
:100F2000010081F86000002017E7000038B5044692
:100F30000CB9012038BDD4F8840028B92020C4F8A9
:100F40008400204600F0BAF800BF5748006840F01F
:100F50000200554908600846006800F00200009051
:100F600000BF00BF207A18B9002001F08FFC03E019
:100F70004FF4000001F08AFC4C480068206800F53E
:100F80008050006840F00101206800F58050016049
:100F900000F01EFC05460DE000F01AFC401BB0F509
:100FA000FA7F07D90420C4F88800E020C4F8840040
:100FB0000120BFE7206800F58050006800F00100C4
:100FC0000028E9D1204600F07FF900F0F7FE38490B
:100FD000B0FBF1F0401E2168C1F8DC002046FFF7AD
:100FE0007EFA206800F58050D0F8000120F4E0106F
:100FF00040F40021206800F58050C0F80011207DE9
:1010000000F0030038B10120C4F88800E020C4F8E3
:10101000840001208EE7206800F58050D0F8080198
:1010200047F6FE718843616940EA4101206800F596
:101030008050C0F808112046FFF728FA2046FFF735
:10104000F5F9606800796168497940EA0120216812
:10105000C1F800036068C07800066168897840EADA
:1010600001406168497840EA0120616809780843D5
:101070002168C1F804032068D0F80C070D49084323
:101080002168C1F80C072068D0F810070A49084306
:101090002168C1F810070020C4F888001020C4F8A7
:1010A0008400002046E70000F4440258040400587D
:1010B00040420F006000020C00C0200C10B586B04A
:1010C0000446142101A8FFF742F9414920688842EB
:1010D0007CD100BF3F48006840F400403D490860B3
:1010E0000846006800F40040009000BF00BF00BF49
:1010F0000846006840F4803008600846006800F444
:101100008030009000BF00BF00BF0846006840F478
:10111000003008600846006800F40030009000BF0E
:1011200000BF00BF2B480830006840F00400294988
:10113000083108600846006800F00400009000BF15
:1011400000BF00BF0846006840F001000860084684
:10115000006800F00100009000BF00BF00BF08461B
:10116000006840F0020008600846006800F00200D5
:10117000009000BF00BF32200190022002900020AA
:101180000390022004900B20059001A9124800F062
:1011900015FA862001900220029000200390022080
:1011A00004900B20059001A90C4800F007FA4FF4B9
:1011B00060500190022002900020039002200490D1
:1011C0000B20059001A9064800F0F8F906B010BD03
:1011D00000800240D844025800080258000002581B
:1011E000000402582DE9F04704460F469046994600
:1011F0002068D0F8000200F0010010B10120BDE825
:10120000F0872068D0F8005225F0787040EA475502
:1012100025F4F81040EA084545F00C0545F00105B5
:101220002068C0F8005200F0D3FA064607E000F04C
:10123000CFFA801BB0F57A7F01D90120DFE7206863
:10124000D0F8000200F001000028F0D12068D0F8AA
:10125000040280B2C9F800000020D0E77CB5044643
:101260000D4805F00FFB054685B105F12000206013
:101270000A4828614FF4C06120682B464122CDE91D
:1012800000010021084606F087F904E00120044926
:101290000870002020607CBD5CE60008057D000829
:1012A0009C49002470B504460D460DB9012070BD5F
:1012B000D4F88400102805D129462046FFF718FCF1
:1012C0000020F4E70120F2E770B506463068D0F858
:1012D000004224F4706400F071FD05461048854218
:1012E00002D244F4007417E00E48854202D244F45E
:1012F000407411E00C48854200D20DE00B48854255
:1013000002D244F4807407E00948854202D244F4D2
:10131000806401E044F4A0643068C0F8004270BD0D
:10132000C00E16020087930300E1F50580D1F00896
:1013300080B2E60E10B50446D4F88400102844D1DB
:101340002020C4F884000421E1662046FFF79AFCBF
:101350002068006840F0020021680860206800688A
:1013600040F00100216808602068D0F8000D40F0CE
:1013700001002168C1F8000D206800F58050D0F808
:10138000040140F00101206800F58050C0F804110C
:10139000206800F58050D0F8080140F00101206875
:1013A00000F58050C0F80811206800F58050D0F892
:1013B000600140F48171206800F58050C0F8601130
:1013C0004020C4F88400002010BD0120FCE7014645
:1013D000D1F88400402833D12020C1F88400086867
:1013E00000F58050D0F8040120F00102086800F5F3
:1013F0008050C0F80421086800F58050D0F808013A
:1014000020F00102086800F58050C0F80821086843
:10141000006820F001000A6810600868D0F8000D2C
:1014200040F001000A68C2F8000D0868006820F06A
:1014300002000A6810601020C1F884000020704784
:101440000120FCE72DE9F041044688461546B8F135
:10145000000F08D1D4F8880040F00100C4F88800DB
:101460000120BDE8F081D4F88400402863D1002237
:1014700041462046FFF7E8F838B1D4F8880040F03C
:101480000200C4F888000120EBE700BF00BF00BFE6
:10149000BFF34F8F00BF00BF00BF04F11800A16A67
:1014A00050F8217000BFA06A401CA062A06A042806
:1014B00002D3A06A001FA06200BF04F11800A16A55
:1014C00050F82110206800F58050C0F8201100F07D
:1014D0007FF9064629E0206800F58050D0F86001C9
:1014E00000F4805070B1D4F8880040F00800C4F8CF
:1014F0008800206800F58050D0F86001C4F88C00A6
:101500000120AEE7681C80B100F062F9801BA842A0
:1015100000D855B9D4F8880040F00400C4F8880019
:101520004FF04050F86001209BE7F86800F0004061
:101530000028D0D195E7012093E700002DE9F0477E
:1015400005460F46904699462868D0F8000200F0FC
:10155000010010B10120BDE8F0872868D0F80042F2
:1015600024F0787040EA475424F4F81040EA084424
:1015700024F00C00041D44F001041FFA89F00D4909
:1015800008600D48C0F8004200F022F9064607E066
:1015900000F01EF9801BB0F57A7F01D90120DAE74F
:1015A0002868D0F8000200F001000028F0D100BF48
:1015B000D1E700000482024000800240F8B50246F4
:1015C0000B4600216F4DD7E001278F401E6806EAC9
:1015D0000704002C72D01E7906F00306012E04D0F9
:1015E0001E7906F00306022E13D190684F000326E1
:1015F000BE40B0434F00DE68BE403043906050684C
:1016000001268E40B0431E79C6F300168E4030434B
:1016100050601E7906F00306032E09D0D0684F00F3
:101620000326BE40B0434F009E68BE403043D060AA
:101630001E7906F00306022E13D1CF0802F1200610
:1016400056F827004E07F70E0F26BE40B0434F074F
:10165000FF0E1E69BE403043CF0802F1200646F857
:10166000270010684F000326BE40B0431E7906F0E5
:1016700003064F00BE40304310605E6806F44036FB
:10168000002E78D000BF404E366846F002063E4F2E
:101690003E603E46366806F00206009600BF00BF78
:1016A0003A4E8F0856F827008E07370F0F26BE4098
:1016B000B043374EB24202D100262EE05BE0354EF9
:1016C000B24201D1012628E0334EB24201D10226B6
:1016D00023E0324EB24201D103261EE0304EB24228
:1016E00001D1042619E02F4EB24201D1052614E0A3
:1016F0002D4EB24201D106260FE02C4EB24201D14E
:1017000007260AE02A4EB24201D1082605E0294EFA
:10171000B24201D1092600E00A268F073F0FBE40E2
:1017200030431A4E8F0846F827004FF0B046306815
:10173000A0435E6806F4801606B120434FF0B04621
:1017400030607068A0435E6806F4001606B120435E
:101750004FF0B04670606868A0435E6806F40036DB
:1017600006B1204368602868A0435E6806F48036AE
:1017700006B120432860491C1E68CE40002E7FF42D
:1017800023AFF8BD80000058F44402580804005804
:10179000000002580004025800080258000C0258C9
:1017A000001002580014025800180258001C025879
:1017B00000200258002402580AB1816101E00B04A4
:1017C0008361704701480068000C70470010005C9E
:1017D00001480068704700008449002403480068FD
:1017E0000349097808440149086070478449002486
:1017F0008C49002410B5032000F00CF900F004FB24
:1018000010490968C1F303210F4A515C01F01F011F
:1018100020FA01F40B48006800F00F001146085C44
:1018200000F01F0024FA00F008490860084804602E
:101830000F2000F00FF808B1012010BD00F09AF859
:101840000020FAE7184402584CE6000894490024A6
:101850009049002470B504461148007808B9012069
:1018600070BD0F4800784FF47A71B1FBF0F00D496C
:101870000968B1FBF0F5284601F012F808B1012023
:10188000EEE7102C07D200222146501E00F084F80B
:101890000548046001E00120E2E70020E0E70000E5
:1018A0008C49002490490024884900244178154A35
:1018B000116014490831096821F00101114A083208
:1018C0001160121F41681160017B0907C27A41EA69
:1018D0000261827A41EAC241427B41EA8241827BD3
:1018E00041EA4241C27B41EA0241427A41EA022195
:1018F000027A41EA420102781143024A0832116039
:101900007047000098ED00E000BF00BF00BFBFF3CC
:101910005F8F00BF00BF00BF0548006820F4803023
:1019200003490860002002497031086070470000D8
:1019300024ED00E040F001010D4A11600C497039BE
:10194000096841F480310A4A703A116000BF00BF53
:1019500000BFBFF34F8F00BF00BF00BF00BF00BF7D
:1019600000BFBFF36F8F00BF00BF00BF7047000014
:1019700094ED00E008B500BF0648006840F00200A2
:10198000044908600846006800F00200009000BFAB
:1019900000BF08BDF44402582DE9F05F80460D46B3
:1019A000164601F0C9FA074639462A46334601F081
:1019B0000700C0F1070ABAF1040F02D94FF0040A78
:1019C00001E0C0F1070AD14600F1040ABAF1070F9D
:1019D00002D24FF0000A01E0A0F1030AD4464FF012
:1019E000010A0AFA09FAAAF1010A0AEA020A0AFA3B
:1019F0000CFA4FF0010B0BFA0CFBABF1010B0BEAED
:101A0000030B4AEA0B042146404601F09DFABDE86B
:101A1000F09F000000BF00F00702064B19684FF668
:101A2000FF031940044B0B4343EA0221014B1960A9
:101A300000BF70470CED00E00000FA0570B50446E9
:101A400015480068C0F3800048B91348006800F0EA
:101A50000700A04201D0012070BD0020FCE70E4825
:101A6000006820F0070020430B490860FFF7B0FE34
:101A7000054607E0FFF7ACFE401BB0F57A7F01D9C1
:101A80000120E9E7044808380068C0F34030002826
:101A9000F0D00020E0E700000C4802582DE9F041AA
:101AA00004460D4614B90120BDE8F081BD48006828
:101AB00000F00F00A8420ED2BA48006820F00F00D4
:101AC0002843B84908600846006800F00F00A842A3
:101AD00001D00120E8E7207800F0040004280ED1AE
:101AE000B1492069096801F07001884207D9AE4800
:101AF000006820F0700021690843AB490860207835
:101B000000F00800082811D1A749091D606909687B
:101B100001F07001884209D9A348001D006820F037
:101B2000700061690843A049091D0860207800F031
:101B30001000102811D19C49091DA069096801F401
:101B4000E061884209D99848001D006820F4E060EF
:101B5000A16908439449091D0860207800F020001D
:101B6000202811D190490831E069096801F070011D
:101B7000884209D98C480830006820F07000E1697B
:101B80000843894908310860207800F002000228E3
:101B90000ED18549E068096801F00F01884207D934
:101BA0008148006820F00F00E16808437E49086022
:101BB000207800F00100002850D07B48006820F415
:101BC0007060A1680843784908606068022807D1FE
:101BD000754818380068C0F34040F8B9012063E741
:101BE0006068032807D1704818380068C0F3406067
:101BF000A0B9012058E76068012807D16A48183861
:101C00000068C0F3002048B901204DE76648183845
:101C10000068C0F3800008B9012045E76248083831
:101C2000006820F00700616808435F4908390860D0
:101C3000FFF7CEFD064608E0FFF7CAFD801B41F224
:101C40008831884201D903202EE7574808380068B8
:101C500000F038006168B0EBC10FEDD1207800F0E2
:101C6000020002280ED15049E068096801F00F0116
:101C7000884207D24C48006820F00F00E168084312
:101C8000494908604748006800F00F00A8420ED993
:101C90004448006820F00F00284342490860084685
:101CA000006800F00F00A84201D00120FCE6207877
:101CB00000F0040004280ED13B492069096801F0B6
:101CC0007001884207D23848006820F0700021690E
:101CD000084335490860207800F00800082811D131
:101CE0003149091D6069096801F07001884209D213
:101CF0002D48001D006820F07000616908432A49E2
:101D0000091D0860207800F01000102811D1264924
:101D1000091DA069096801F4E061884209D22248DE
:101D2000001D006820F4E060A16908431E49091DF8
:101D30000860207800F02000202811D11A490831CD
:101D4000E069096801F07001884209D2164808303C
:101D5000006820F07000E169084313490831086009
:101D600000F052F810490968C1F303210F4A515C91
:101D700001F01F0120FA01F70B48006800F00F0086
:101D80001146085C00F01F0027FA00F008490860BF
:101D90000848076008480068FFF75CFD8046404639
:101DA00082E6000000200052184402584CE6000869
:101DB00094490024904900248849002410B500F07B
:101DC00023F80D490968C1F303210C4A515C01F065
:101DD0001F0120FA01F40848006800F00F001146C6
:101DE000085C00F01F0024FA00F00549086005486F
:101DF00004600846006810BD184402584CE600080C
:101E00009449002490490024F0B5824E366806F0CB
:101E1000380636B1082E15D0102E15D0182E7DD1CB
:101E200014E07C4E103E3668C6F3401646B1794E3B
:101E3000103E3668C6F3C107774E26FA07F000E079
:101E40007548E5E07548E3E07548E1E0714E183605
:101E5000366806F003046F4E18363668C6F305116F
:101E60006C4E1C36366806F001056A4E243636681C
:101E7000C6F3CC0616FB05F601EE106AB8EE410A71
:101E8000002971D024B1012C50D0022C6DD16DE00D
:101E9000604E103E3668C6F340163EB35D4E103EAF
:101EA0003668C6F3C1075C4E26FA07F301EE103A16
:101EB000F8EE411A01EE101AB8EE411A81EE812AAD
:101EC0009FED581AC0EE011A524E20363668C6F3FE
:101ED000080601EE106AB8EE411A31EE811AF7EEEB
:101EE000001A31EE211A62EE010A1EE001EE101A0C
:101EF000B8EE411ADFED4C1A81EE812A9FED491AA6
:101F0000C0EE011A434E20363668C6F3080601EECD
:101F1000106AB8EE411A31EE811A00E076E0F7EE71
:101F2000001A31EE211A62EE010A5BE001EE101A8E
:101F3000B8EE411A9FED3D2AC2EE011A9FED391A03
:101F400080EE012A334E20363668C6F3080601EECD
:101F5000106AB8EE411A32EE011AB7EE002A31EEDD
:101F6000021A61EE810A3DE04EE01DE001EE101A1A
:101F7000B8EE411ADFED2E1A81EE812A9FED291A63
:101F8000C0EE011A234E20363668C6F3080601EE6D
:101F9000106AB8EE411A31EE811AF7EE001A31EEEE
:101FA000211A62EE010A1DE001EE101AB8EE411A84
:101FB0009FED1E2AC2EE011A9FED1A1A80EE012A29
:101FC000144E20363668C6F3080601EE106AB8EEE5
:101FD000411A32EE011AB7EE002A31EE021A61EE12
:101FE000810A00BF00BF0B4E20363668C6F3462676
:101FF000721C01EE102AB8EE411AC0EE811ABCEE36
:10200000E11A11EE100A00E0002001E0034800BFD1
:1020100000BFF0BD104402580090D00300093D00FD
:1020200040787D01000000460024744C0024744A6E
:1020300020BCBE4B2DE9F047044614B90120BDE891
:10204000F087207800F00100002870D0FA4800687E
:1020500000F03808F8481830D0F80090B8F1100FA8
:1020600006D0B8F1180F0FD109F0030002280BD1E8
:10207000F14810380068C0F3404000286AD060681A
:10208000002867D10120DAE700BF6068B0F5803F23
:1020900008D1E9481038006840F48030E64910392A
:1020A00008602EE0606868B9E3481038006820F4E2
:1020B0008030E149103908600846006820F480202B
:1020C00008601EE06068B0F5A02F0DD1DA48103826
:1020D000006840F48020D84910390860084600683C
:1020E00040F4803008600CE0D3481038006820F4D9
:1020F0008030D149103908600846006820F48020FB
:10210000086000BF606898B1FFF762FB054606E013
:10211000FFF75EFB401B642801D903208FE7C64808
:1021200010380068C0F340400028F1D012E012E0FF
:10213000FFF74EFB054606E0FFF74AFB401B64280D
:1021400001D903207BE7BC4810380068C0F3404049
:102150000028F1D100BF207800F00200022874D1DD
:10216000B548006800F03808B3481830D0F800903F
:10217000B8F1000F05D0B8F1180F56D109F00300DF
:10218000D0BBAD4810380068C0F3800018B1E068DB
:1021900008B9012053E7A8481038006820F019005A
:1021A000E1680843A44910390860FFF711FB0546B0
:1021B00006E0FFF70DFB401B022801D903203EE794
:1021C0009D4810380068C0F380000028F1D000BF9F
:1021D000FFF7F8FA41F2030188421AD82069402833
:1021E0000BD195480C38006820F47C3040F4003066
:1021F00091490C39086017E017E08F480C380068E7
:1022000020F47C30216940EA01308B490C390860A8
:102210000AE089480C38006820F0FE40217C40EA42
:10222000016085490C39086066E0E06888B382483F
:102230001038006820F01900E16808437E49103921
:102240000860FFF7C5FA054607E056E0FFF7C0FA59
:10225000401B022801D90320F1E6774810380068B6
:10226000C0F380000028F1D000BFFFF7ABFA41F2C5
:10227000030188421AD8206940280BD16E480C38D7
:10228000006820F47C3040F400306B490C39086061
:1022900017E017E068480C38006820F47C302169AA
:1022A00040EA013064490C3908600AE062480C38A1
:1022B000006820F0FE40217C40EA01605E490C3954
:1022C000086019E05C481038006820F001005A49A5
:1022D00010390860FFF77CFA054606E0FFF778FA48
:1022E000401B022801D90320A9E653481038006892
:1022F000C0F380000028F1D100BF207800F010006A
:1023000010287CD14C48006800F038084A48183042
:10231000D0F80090B8F1080F06D0B8F1180F3DD1F1
:1023200009F00300012839D1434810380068C0F390
:10233000002020B1E069802801D001207FE600BFA5
:10234000FFF740FA41F2030188421AD8206A202898
:102350000AD139480C38006820F0F84040F080403D
:1023600035490C39086018E033480C38006820F013
:10237000F84094F8201040EA81602F490C39086039
:102380000BE02D48001F006820F07C5094F82010CE
:1023900040EA01602849091F086066E0E06978B3F7
:1023A00025481038006840F0800023491039086043
:1023B000FFF70EFA054606E0FFF70AFA401B02286F
:1023C00001D903203BE61C4810380068C0F3002008
:1023D0000028F1D000BFFFF7F5F941F20301884270
:1023E0001CD8206A20280CD113480C38006820F033
:1023F000F84040F0804010490C3908601AE035E0A0
:102400001CE00D480C38006820F0F84094F82010CB
:1024100040EA816008490C3908600BE00648001F5B
:10242000006820F07C5094F8201040EA01600249D6
:10243000091F086019E0000010440258FA480068BB
:1024400020F08000F8490860FFF7C2F9054606E071
:10245000FFF7BEF9401B022801D90320EFE5F2483F
:102460000068C0F300200028F2D100BF207800F0FF
:102470000800082836D16069D0B1EB487430006894
:1024800040F00100E84974310860FFF7A1F9054602
:1024900006E0FFF79DF9401B022801D90320CEE595
:1024A000E14874300068C0F340000028F1D019E022
:1024B000DD487430006820F00100DB4974310860A9
:1024C000FFF786F9054606E0FFF782F9401B022870
:1024D00001D90320B3E5D44874300068C0F340004C
:1024E0000028F1D1207800F02000202830D1A06908
:1024F000B8B1CD48006840F48050CB490860FFF780
:1025000067F9054606E0FFF763F9401B022801D989
:10251000032094E5C4480068C0F340300028F2D09E
:1025200016E0C148006820F48050BF490860FFF7FA
:102530004FF9054606E0FFF74BF9401B022801D989
:1025400003207CE5B8480068C0F340300028F2D191
:10255000207800F0040004287DD1B448006840F4DD
:102560008070B2490860FFF733F9054606E0FFF7CF
:102570002FF9401B642801D9032060E5AB480068AF
:1025800000F480700028F2D000BFA068012808D1B4
:10259000A5487030006840F00100A3497031086020
:1025A0002DE0A06868B9A0487030006820F00100F4
:1025B0009D49703108600846006820F004000860FA
:1025C0001DE0A06805280DD197487030006840F0E4
:1025D00004009549703108600846006840F0010029
:1025E00008600CE090487030006820F001008E49CF
:1025F000703108600846006820F00400086000BFE1
:10260000A068A0B1FFF7E4F8054608E0FFF7E0F89E
:10261000401B41F28831884201D903200FE58248EE
:1026200070300068C0F340000028EFD013E0FFF7DF
:10263000CFF8054608E0FFF7CBF8401B41F28831A0
:10264000884201D90320FAE4774870300068C0F36B
:1026500040000028EFD1606A00287DD07248103019
:10266000006800F03800182877D0606A022875D119
:102670006D48006820F080706B490860FFF7A8F88B
:10268000054606E0FFF7A4F8401B022801D9032005
:10269000D5E465480068C0F340600028F2D100BF6F
:1026A000D4E90A1041EA00105F492831096840F274
:1026B000F332914308435C4928310860208E401E64
:1026C000C0F30800616B491E4FF47E4202EA4121CB
:1026D0000843218F491ED20102EA014108433C21EF
:1026E000095D491E120202EA016108434E49303178
:1026F000086000BF081F006820F00100091F086083
:102700004948343000684FF6F8718843A16C40EABC
:10271000C10045493431086043482C30006820F03E
:102720000C00216C084340492C31086008460068C1
:1027300020F00200616C08433B492C3108600846D8
:10274000006840F4803008600846006840F40030BB
:1027500008600846006802E093E038E01FE040F4BB
:10276000802008600846006840F0010008602E489C
:10277000006840F080702C490860FFF729F8054692
:1027800006E0FFF725F8401B022801D9032056E494
:1027900025480068C0F340600028F2D071E022486C
:1027A000006820F0807020490860FFF711F80546A6
:1027B00006E0FFF70DF8401B022801D903203EE494
:1027C00019480068C0F340600028F2D159E016486B
:1027D00028300768144830300668606A012821D024
:1027E00007F00301A06A81421CD1C7F30511E06A1A
:1027F000884217D1C6F30801206B401E814211D1D7
:10280000606B401EC6F3462188420BD1A06B401E70
:10281000C6F30641884205D1E06B401EC6F306614F
:10282000884205D001200AE40044025800480258BA
:1028300015480068C0F3CC07A06CB84221D01248FC
:102840000838006820F001000F4908390860FEF7D9
:10285000BFFF054600BFFEF7BBFF401BFBD00A4889
:1028600000684FF6F8718843A16C40EAC100064940
:10287000086005480838006840F00100024908393E
:10288000086000204AE40000344402580349096803
:1028900021F460010143014A1160704704040058AB
:1028A00070B504462546681EB0F1807F01D3012033
:1028B0000FE0681E4FF0E02148610F214FF0FF301C
:1028C00000F042FB00204FF0E02188610720086102
:1028D000002070BD00BFFEE738B504460020009020
:1028E0006A460121636920689847002802DA6FF080
:1028F000040038BD6A4601216369206898470028B2
:1029000002DA6FF00400F4E7009800F0040008B960
:102910000120EEE76A460021636920689847002895
:1029200002DA6FF00400E4E7009800F48050B0F59C
:10293000805F1FD0009800F40050B0F5005F07D111
:10294000009800F48070B0F5807F01D10220D0E7BC
:10295000009800F40050B0F5005F01D10320C8E7F3
:10296000009800F48070B0F5807F01D10420C0E7AA
:102970000520BEE76A461F21636920689847002842
:1029800002DA6FF00400B4E7009800F4805008B950
:102990000620AEE7009800F01C00182801D10220A4
:1029A000A7E7009800F01C00082801D10320A0E749
:1029B000009800F01C00142801D1042099E705209C
:1029C00097E7F8B5044600200090002500266068CF
:1029D00030BBA06808B1A068804720202060002597
:1029E00013E06A461221284663699847002802DAF4
:1029F0006FF0040608E0009800F01F00A84202D122
:102A00002560002603E000BF6D1C1F2DE9D900BF23
:102A100020681F2801D96FF002060EB901206060FE
:102A20003046F8BD02462AB1C86818B1886808B1B6
:102A3000086910B94FF0FF307047086890604B6824
:102A4000D360CB6853618B6813610B69936100207D
:102A5000F2E71FB500200090019002900390FEF76E
:102A600053FF01208DF8000000208DF80100019037
:102A70001F208DF8080087208DF8090000208DF8B0
:102A80000A008DF80B0001208DF80C008DF80D0068
:102A900000208DF80E008DF80F006846FEF706FF47
:102AA0000420FEF747FF1FBD00B587B0142102A820
:102AB000FDF74DFC00BF1C48006840F004001A49B7
:102AC00008600846006800F00400019000BF00BFE5
:102AD00000BF0846006840F0010008600846006832
:102AE00000F00100019000BF00BF00BF0846006871
:102AF00040F0020008600846006800F00200019003
:102B000000BF00BF002208210848FEF755FE08203C
:102B100002900120039000200490059002A9034830
:102B2000FEF74CFD07B000BDE0440258000002581B
:102B30000EB5C0207D490870A82048700A20887012
:102B4000C870FF207A490870487088700020C870EB
:102B50007849087048708870C87003F033F973487A
:102B6000007800067149497840EA01406F49897848
:102B700040EA01206D49C978084302066B48007895
:102B800000066A49497840EA01406849897840EA84
:102B900001206649C978084300F47F4042EA0022D8
:102BA0006248007800066149497840EA01415F487F
:102BB000807841EA00205D49C978084300F47F002D
:102BC00042EA10225948007801065848407841EA04
:102BD00000415648807841EA00205449C9780843AA
:102BE00042EA106054490860514800780006504994
:102BF000497840EA01404E49897840EA01204C4931
:102C0000C978084302064A480078000648494978CE
:102C100040EA01404649897840EA01204449C978A0
:102C2000084300F47F4042EA002241480078000651
:102C30003F49497840EA01413D48807841EA002017
:102C40003B49C978084300F47F0042EA1022384823
:102C5000007801063648407841EA004134488078DF
:102C600041EA00203249C978084342EA10603349FA
:102C700008603048007800062E49497840EA014053
:102C80002C49897840EA01202A49C978084302067C
:102C90002848007800062749497840EA014025493C
:102CA000897840EA01202349C978084300F47F402D
:102CB00042EA00221F48007800061E49497840EA8F
:102CC00001411C48807841EA00201A49C97808432C
:102CD00000F47F0042EA10221648007801061548E9
:102CE000407841EA00411348807841EA00201149C8
:102CF000C978084342EA1060114908601148124936
:102D000000220F4BCDE9002102900C4A0A490F48DE
:102D100003F004FE0D4804F073F80C4804F0B0F919
:102D20000B490A4804F0D8F80EBD0000C44900243D
:102D3000C8490024CC490024B8490024BC490024D7
:102D4000C0490024954100082D440008844B00240C
:102D50002543000800BFFEE700BFFEE7704770474D
:102D600010B5FEF73BFD10BD00B59DB04C210AA883
:102D7000FDF7EDFA202102A8FDF7E9FA0220FEF79F
:102D80005DFE00BF002001902148006820F0010096
:102D90001F4908600846006800F0010001901D48C6
:102DA000006820F4404040F480401A49086008461A
:102DB000006800F44040019000BF00BF00BF15480C
:102DC000006800F40050B0F5005FF8D102200A90CE
:102DD00001200D9040200E90002013900AA8FFF7CC
:102DE00029F908B1FDF7A1FF3F20029000200390D0
:102DF000049005900690079008900990012102A880
:102E0000FEF74CFE08B1FDF790FF1DB000BD0000BD
:102E10002C040058184802583448006840F47000E8
:102E2000324908603248006800F00F00072806D2D7
:102E30002F48006820F00F00C01D2D4908602D4864
:102E4000006840F001002B4908600020294910313A
:102E50000860284800682849084026490860244836
:102E6000006800F00F00072806D92148006820F00C
:102E70000F00C01D1E49086000201E49183108605F
:102E8000091D0860091D08601C481A49283108609E
:102E90001B48091D08601B48091D08600020091D0A
:102EA00008601848091D08600020091D08601548C1
:102EB000091D08600020091D08600E48006820F404
:102EC00080200C49086000200A49603108600E48E3
:102ED00000686FF30F00B0F1005F02D201200B49D0
:102EE000086043F2D2000A490860704788ED00E0AC
:102EF00000200052004402587FEDF6EA0002020270
:102F00000000FF01800201010010005C08810051F7
:102F10000040005200BFFEE70FB4054B10B503A9F7
:102F2000044A029800F034F810BC5DF814FB00006D
:102F3000C5440008784A002402480068C0F3022013
:102F4000704700000CED00E010B5002804DB0A0714
:102F5000130E054A135406E00A07140E034A00F044
:102F60000F031B1FD45410BD00E400E018ED00E077
:102F700002E008C8121F08C1002AFAD17047704742
:102F8000002001E001C1121F002AFBD170470000A0
:102F90002DE9FF4F8BB09A460F460546002606E006
:102FA00025280BD052460D9990476D1C761C287829
:102FB0000028F5D10FB03046BDE8F08F0024A046C0
:102FC0000122604900E0044315F8013F203B02FA6A
:102FD00003F00842F7D128782E2817D115F8010FF1
:102FE00044F004042A280ED06FF02F022878A0F1B4
:102FF000300109290AD808EB880102EB410100EBF6
:1030000001086D1CF2E757F8048B6D1C28786928BD
:103010003ED006DC0028CDD063280BD0642804D134
:1030200036E0732810D075284BD052460D99904742
:10303000761C85E017F8040B8DF8000000208DF851
:103040000100E946012003E057F8049B4FF0FF30F0
:1030500061074FF0000401D40AE0641C44450DDA16
:103060008442FADB19F804100029F6D106E0641C4A
:103070008442FCDB19F804100029F8D1264404E04E
:1030800019F8010B52460D999047641EF8D257E08B
:1030900001CF4FF00A0B002802DA40422D2102E056
:1030A000210504D52B218DF82410012103E0E1072F
:1030B00005D02021F7E70DF1200908910CE000214F
:1030C000F9E701CF4FF00A0BF9E75946FDF757F939
:1030D00001F1300209F8012D0028F6D1ADEB09000D
:1030E00000F1200B600701D44FF00108D84502DD44
:1030F000A8EB0B0000E000208046002406E009A8B1
:103100005246005D0D999047641C761C08988442D5
:10311000F5DB04E0302052460D999047761CB8F15B
:103120000001A8F10108F5DC05E019F8010B524691
:103130000D999047761CBBF10001ABF1010BF4DC5B
:103140006D1C34E70928010070B504460D4600BF28
:1031500005F00300002808D000BF08A34FF4B672A2
:1031600012A11AA0FFF7D8FE00BF00BF2E46A0682C
:1031700000683060A068066070BD00002E2E2F4DE4
:103180006964646C6577617265732F5468697264F1
:103190005F50617274792F4C7749502F7372632F8F
:1031A000636F72652F6D656D702E63006D656D7058
:1031B0005F667265653A206D656D2070726F70652F
:1031C000726C7920616C69676E6564004173736528
:1031D0007274696F6E2022257322206661696C65A6
:1031E00064206174206C696E6520256420696E20FE
:1031F00025730A0070B50546A8680468002C13D032
:103200002068A968086000BF04F00300002808D007
:1032100000BF06A34FF48C7210A119A0FFF77CFE2B
:1032200000BF00BF204670BD0020FCE72E2E2F4DB2
:103230006964646C6577617265732F546869726440
:103240005F50617274792F4C7749502F7372632FDE
:10325000636F72652F6D656D702E63006D656D70A7
:103260005F6D616C6C6F633A206D656D702070727C
:103270006F7065726C7920616C69676E65640000BF
:10328000417373657274696F6E2022257322206604
:1032900061696C6564206174206C696E65202564C9
:1032A00020696E2025730A0070B50546002411E0E0
:1032B00004EB4400094901EBC000067D4EB104EB6C
:1032C000440001EBC0008068A84202D1204600F013
:1032D00087F9641C0A2CEBDB70BD0000A07A002487
:1032E0002DE9FF5F0646894617464FF00A0AD34686
:1032F000D04600240A200390002002900190009004
:1033000000BF73E004EB4400764901EBC000057D8B
:10331000B8F10A0F02D10DB9A04665E0002D63D0C7
:1033200000BF012D0AD0022D08DA00BF6EA340F2C3
:1033300023127BA18AA0FFF7EFFD00BF00BFAEB153
:1033400004EB4401674A02EBC101306849688842D6
:103350000CD13FB104EB4400114601EBC000806882
:10336000B84203D1204604B0BDE8F09F012D28D11A
:1033700004EB44005B4951F8300080B104EB440099
:1033800001EBC000418A029881422DDB039404EBDB
:103390004400544901EBC000408A029024E004EB51
:1033A0004400504901EBC000418A019881421BDB77
:1033B000A24604EB44004B4901EBC000408A019057
:1033C00012E0022D10DB04EB4400464901EBC00083
:1033D000418A0098814207DBA34604EB440041493F
:1033E00001EBC000408A0090601C04B20A2C89DB0B
:1033F00009F0020028B9B8F10A0F05D109F001005F
:1034000010B94FF0FF30AEE7B8F10A0F01DA4446C9
:1034100031E0BBF10A0F11DA5C4600BF04EB440057
:10342000304951F8300040B100BF2FA340F26D1277
:1034300055A14BA0FFF770FD00BF0CE0BAF10A0FD9
:1034400001DA544607E003980A2801DA039C02E0F7
:103450004FF0FF3087E700BF0A2C08DB00BF22A334
:1034600040F27F124EA13EA0FFF756FD00BF00BF05
:10347000204600F0B5F800BF0A2C08DB00BF1AA3F5
:1034800040F2831246A136A0FFF746FD00BF00BF01
:1034900000BF04EB4400134901EBC000007D40B1C4
:1034A00000BF11A34FF4C27242A12DA0FFF734FD5B
:1034B00000BF00BF36B104EB44010A4A02EBC10170
:1034C00030684860002004EB4401064A02EBC10169
:1034D000488204EB4400114601EBC000876020469F
:1034E00041E70000A07A00242E2E2F4D6964646C01
:1034F0006577617265732F54686972645F50617299
:1035000074792F4C7749502F7372632F636F7265F4
:103510002F697076342F6574686172702E630000B5
:103520007374617465203D3D204554484152505F9D
:1035300053544154455F50454E44494E47207C7C8E
:10354000207374617465203E3D20455448415250BB
:103550005F53544154455F535441424C4500000071
:10356000417373657274696F6E2022257322206621
:1035700061696C6564206174206C696E65202564E6
:1035800020696E2025730A006172705F7461626C3D
:10359000655B695D2E71203D3D204E554C4C000011
:1035A00069203C204152505F5441424C455F534991
:1035B0005A4500006172705F7461626C655B695DA1
:1035C0002E7374617465203D3D204554484152502E
:1035D0005F53544154455F454D505459000000001D
:1035E00010B5044604EB44000C4951F8300060B1BA
:1035F00004EB4401094A52F8310004F0B5FA002006
:1036000004EB4401054A42F83100002004EB440178
:10361000024A02EBC101087510BD0000A07A002427
:10362000F0B587B007460D4600BF002D0AD100BF98
:103630002EA340F28A223BA13EA0FFF76DFC00BF03
:1036400007B0F0BD00BF7C682088B0F5807F08D14E
:103650002079062805D16079042802D160880828DD
:1036600003D0384604F080FAEAE7D4F80E0006905A
:10367000A0690590686808B9002607E005986968A0
:10368000884201D1012000E0002006460EB1012051
:1036900000E00220034604F1080206A9284600F0D3
:1036A000CBFCE088B0F5807F03D0B0F5007F15D16A
:1036B00013E086B1022206AB04F10800291DCDE912
:1036C0000232CDE9001005F12603024622312846D8
:1036D00000F05CFB00E000BF01E000E000BF00BFC5
:1036E000384604F041FA00BFAAE700002E2E2F4D05
:1036F0006964646C6577617265732F54686972647C
:103700005F50617274792F4C7749502F7372632F19
:10371000636F72652F697076342F6574686172709B
:103720002E6300006E6574696620213D204E554C65
:103730004C000000417373657274696F6E2022251E
:103740007322206661696C6564206174206C696E07
:103750006520256420696E2025730A002DE9FE434B
:1037600004460F461546A94600BF002C08D100BFED
:103770005DA340F21E326AA16DA0FFF7CDFB00BF32
:1037800000BF00BF47B900BF57A340F21F3272A16C
:1037900067A0FFF7C1FB00BF00BF00BF002D08D12D
:1037A00000BF51A34FF448726EA161A0FFF7B4FBB4
:1037B00000BF00BF2146286801F0B8F810B1DFF85B
:1037C000B48186E0287800F0F000E02816D10120CE
:1037D0008DF8040000208DF805005E208DF80600AD
:1037E000687800F07F008DF80700A8788DF8080051
:1037F000E8788DF809000DF1040869E02868A168EF
:103800000840D4E90112114088420ED0288880B2C5
:103810004FF6A961884208D0E06810B104F10C09A4
:1038200003E06FF00300BDE8FE835348007800EB2F
:103830004000524901EBC000007D02281BDB4E48CE
:10384000007800EB400001EBC0008068A04212D17C
:103850004949097801EB4101484A02EBC101D9F815
:1038600000004968884206D143480278394620461C
:1038700000F086F8D7E7002622E006EB46003F4935
:1038800001EBC000007D022818DB06EB460001EBCF
:10389000C0008068A04211D106EB4601374A02EB16
:1038A000C101D9F800004968884207D13248067042
:1038B00032463946204600F063F8B4E7701CC6B2C1
:1038C0000A2EDADB3A464946204600F00DF9AAE70F
:1038D00000BF4FF40060434604F1260239460090D1
:1038E000204600F021FD9EE72E2E2F4D6964646C6A
:1038F0006577617265732F54686972645F50617295
:1039000074792F4C7749502F7372632F636F7265F0
:103910002F697076342F6574686172702E630000B1
:103920006E6574696620213D204E554C4C000000A8
:10393000417373657274696F6E202225732220664D
:1039400061696C6564206174206C696E6520256412
:1039500020696E2025730A007120213D204E554CB0
:103960004C00000069706164647220213D204E5556
:103970004C4C000068E60008684A0024A07A002445
:10398000F8B505460E46144600BF04EB4400314925
:1039900001EBC000007D022808DA00BF2EA340F230
:1039A000EE223BA146A0FFF7B7FA00BF00BF04EB31
:1039B0004400284901EBC000007D022839D104EB06
:1039C000440001EBC000408AB0F58E7F11DD04EBAE
:1039D00044000A4602EBC000011D284600F09CFA94
:1039E00038BB032004EB44011A4A02EBC1010875FD
:1039F0001FE004EB4400174901EBC000408AB0F51A
:103A0000877F16DB04EB44000B4603EBC00000F19C
:103A10000C0204EB440003EBC000011D284600F03B
:103A200087FA30B9032004EB44010A4A02EBC101D2
:103A300008754FF40060009004EB4400054901EB69
:103A4000C00000F10C0305F126023146284600F0C3
:103A50006BFCF8BDA07A00242E2E2F4D6964646C97
:103A60006577617265732F54686972645F50617223
:103A700074792F4C7749502F7372632F636F72657F
:103A80002F697076342F6574686172702E63000040
:103A90006172705F7461626C655B6172705F6964B2
:103AA000785D2E7374617465203E3D204554484115
:103AB00052505F53544154455F535441424C45006A
:103AC000417373657274696F6E20222573222066BC
:103AD00061696C6564206174206C696E6520256481
:103AE00020696E2025730A002DE9FE4F81460F469E
:103AF000164609F1260A4FF0FF300290002001908F
:103B00004946386800F012FF38B9387800F0F00004
:103B1000E02802D00FB1386818B96FF00F00BDE887
:103B2000FE8F4A4601213846FFF7DAFB8046B8F19E
:103B3000000F02DA4FFA88F0F1E700BFB8F17F0F0B
:103B400008D300BF5FA340F2C1326CA16FA0FFF7A2
:103B5000E3F900BF00BF08F0FF0404EB440075491F
:103B600001EBC000007D70B90120019004EB44011D
:103B7000704A02EBC101087504EB4400114601EBE9
:103B8000C000C0F8089000BF04EB4400694901EB95
:103B9000C000007D01280FD004EB440001EBC00001
:103BA000007D022808DA00BF46A340F2CD3262A1B0
:103BB00056A0FFF7B1F900BF00BF019800B93EB9A8
:103BC0003946484600F0A8F902900EB90298A6E7D7
:103BD00000BF46B900BF3BA340F2E13260A14BA059
:103BE000FFF79AF900BF00BF04EB4400514901EB15
:103BF000C000007D022811DB5C4804704FF40060B7
:103C0000009004EB440001EBC00000F10C035246AD
:103C10003146484600F088FB029050E004EB440037
:103C2000444901EBC000007D012848D14FF0000B52
:103C3000354618E000BF6889298988420AD128687A
:103C400040B100BF1FA340F2F13249A12FA0FFF7FE
:103C500063F900BF00BF287B00F0400010B14FF0B7
:103C6000010B02E02D68002DE4D100BFBBF1000F75
:103C700007D032464FF420710E2003F069FD05464F
:103C800003E03546284604F037F9A5B104EB4400BB
:103C9000284951F8300030B104EB4401254A52F86C
:103CA000310003F061FF04EB4400224941F8305039
:103CB0000020029002E04FF0FF30029000BF029817
:103CC0002DE700002E2E2F4D6964646C65776172BC
:103CD00065732F54686972645F50617274792F4CF8
:103CE0007749502F7372632F636F72652F697076F7
:103CF000342F6574686172702E630000747970658A
:103D0000206F766572666C6F770000004173736593
:103D10007274696F6E2022257322206661696C655A
:103D200064206174206C696E6520256420696E20B2
:103D300025730A00A07A00246172705F7461626C5E
:103D4000655B695D2E7374617465203D3D2050454F
:103D50004E44494E47206F7220535441424C450017
:103D60007120213D204E554C4C000000684A002433
:103D70006E6F207061636B65742071756575657316
:103D800020616C6C6F776564210000002DE9FC5F99
:103D900006460F4690469946DDE90CAB002001909F
:103DA00000BF002E08D100BF31A340F257423EA110
:103DB00041A0FFF7B1F800BF00BF4FF420721C21F3
:103DC0000E2003F03BFA05461DB94FF0FF30BDE869
:103DD000FC9F00BF68891C2808DA00BF24A340F2BA
:103DE00062423FA134A0FFF797F800BF00BF6C68A4
:103DF0000F9801F0E0FFE08000BF96F82C00062845
:103E000008D000BF1AA340F2694242492AA0FFF736
:103E100083F800BF00BFD9F80000A060B9F8040023
:103E2000A081DBF80000C4F81200BBF80400E082B7
:103E3000DAF80000C4F80E000E980068A0614FF494
:103E4000807020800820608006202071042060712E
:103E500040F6060043463A4629460090304600F0B8
:103E600063FA284603F080FE00250198AFE70000C2
:103E70002E2E2F4D6964646C6577617265732F54C3
:103E8000686972645F50617274792F4C7749502F62
:103E90007372632F636F72652F697076342F657448
:103EA000686172702E6300006E6574696620213D42
:103EB000204E554C4C000000417373657274696F5D
:103EC0006E2022257322206661696C65642061740E
:103ED000206C696E6520256420696E2025730A00B8
:103EE000636865636B2074686174206669727374BB
:103EF00020706275662063616E20686F6C64207349
:103F00007472756374206574686172705F6864723E
:103F1000000000008CE8000870B504460D46034A16
:103F20002946204600F004F870BD000068E600084D
:103F30007FB504460D4616460121074A201D04F1AF
:103F400026038DE825000391324619462046FFF7E7
:103F50001DFF04B070BD00006EE6000870B50024BF
:103F600064E004EB4400334901EBC000057D002D03
:103F70005BD004EB440001EBC000408A401C04EB22
:103F800044012C4A02EBC101488204EB4400114673
:103F900001EBC000408AB0F5967F0DDA04EB4400D7
:103FA00001EBC000007D01280AD104EB440001EBC5
:103FB000C000408A052803DB2046FFF711FB34E0F0
:103FC00004EB44001B4901EBC000007D032807D12E
:103FD000042004EB4401174A02EBC101087524E0F8
:103FE00004EB4400134901EBC000007D042807D115
:103FF000022004EB44010F4A02EBC101087514E0F2
:1040000004EB44000B4901EBC000007D01280CD1FA
:1040100004EB44020B4603EBC202111D04EB440205
:1040200003EBC2029068FFF777FF641C0A2C98DB51
:1040300070BD0000A07A00242DE9F84305460E4625
:104040001746984600BF95F82C00062808D000BFF8
:104050002EA340F2A9123BA143A0FEF75DFF00BFD3
:1040600000BF5EB1306848B12946306800F05EFCA0
:1040700020B9307800F0F000E02803D16FF00F0095
:10408000BDE8F8832A4641463046FFF729F9044641
:10409000002C01DA60B2F3E7022004EB44013C4A51
:1040A00002EBC101087504EB4400114601EBC000AE
:1040B000856004EB440001EBC0003968C160B98839
:1040C0000182002004EB440102EBC101488204EBB1
:1040D0004400114651F83000B0B104EB440051F8EF
:1040E0003090002004EB440142F831004FF40060AE
:1040F0003B4605F1260249460090284600F014F997
:10410000484603F031FD00BF0020B9E72E2E2F4DA9
:104110006964646C6577617265732F546869726451
:104120005F50617274792F4C7749502F7372632FEF
:10413000636F72652F697076342F65746861727071
:104140002E6300006E657469662D3E687761646455
:10415000725F6C656E203D3D204554485F48574175
:104160004444525F4C454E00417373657274696FED
:104170006E2022257322206661696C65642061745B
:10418000206C696E6520256420696E2025730A0005
:10419000A07A00242DE9F04104460E464FF00E08A7
:1041A00060890E2800DC4FE0E07B18B996F83000FB
:1041B000401CE0736568AF89287800F00100B0B159
:1041C0002878012809D1687888B9A8785E280ED1A6
:1041D000607B40F01000607309E006221D4928460C
:1041E000FCF7C0F818B9607B40F008006073082F36
:1041F00003D0B7F5C16F22D110E096F82D0000F082
:10420000080000B920E04146204603F0C3FE00B19B
:104210001AE03146204600F017FD11E096F82D0017
:1042200000F0080000B90FE04146204603F0B2FE5E
:1042300000B109E031462046FFF7F2F900E003E063
:1042400000BF0020BDE8F081204603F08DFC002077
:10425000F8E7000068E600082DE9F0419AB004464E
:10426000642101A8FCF773F8002500260027A84662
:104270002A48FEF731FB054694F82D00C0F3800074
:1042800058B1012D09DC2648FDF7A1F8204602F0BF
:10429000BDFD204602F024FE3DE094F82D00C0F361
:1042A0008000002837D1012D35DD022D06D0032DE9
:1042B0000AD0042D0ED0052D16D110E04FF4005871
:1042C0004FF48047012610E04FF000084FF480477C
:1042D00001260AE04FF400580027012605E04FF0C0
:1042E00000080027012600E000BF00BF9EB101A921
:1042F0000B48FCF72FFDCDF81C80069701A9084854
:10430000FCF7D0FF0648FDF715F8204602F0B8FE8E
:10431000204602F04BFE1AB0BDE8F081644B002449
:104320007C4A0024704700002DE9F04705460E4600
:1043300017469846DDF82090484601F03CFD82463D
:104340000E21304602F0FCFE00B122E07468A4F8B1
:104350000CA0D8F800002060B8F80400A0803868ED
:10436000C4F80600B888608100BF95F82C000628C4
:1043700008D000BF08A34FF4997215A121A0FEF741
:10438000CBFD00BF00BF31462846AA699047BDE873
:10439000F0876FF00100FAE72E2E2F4D6964646CF0
:1043A0006577617265732F54686972645F506172DA
:1043B00074792F4C7749502F7372632F6E6574692F
:1043C000662F65746865726E65742E630000000068
:1043D0006E657469662D3E6877616464725F6C65B2
:1043E0006E206D757374206265203620666F7220B2
:1043F00065746865726E65745F6F7574707574212D
:1044000000000000417373657274696F6E2022258D
:104410007322206661696C6564206174206C696E2A
:104420006520256420696E2025730A0010B50446B6
:1044300000BF44B900BF0CA34FF4C57211A115A071
:10444000FEF76AFD00BF00BF732084F82E007421C0
:104450002F200155194860611948A061204601F0DC
:104460009FFB002010BD00002E2E2F4C5749502FCF
:104470005461726765742F65746865726E657469DE
:10448000662E63006E6574696620213D204E554C92
:104490004C000000417373657274696F6E202225B1
:1044A0007322206661696C6564206174206C696E9A
:1044B0006520256420696E2025730A005D37000899
:1044C000AD5C000838B504468DF80000694603204D
:1044D000ABBE204638BD70B505460C4622460321CA
:1044E000284600F053F970BD2DE9FF5F05468A4666
:1044F000724880680390039800780007870E142F95
:1045000000DAD1E06889042800D2CDE06868047838
:1045100014B1082C77D100E0C1E0DFF8A09109F1D7
:1045200014096648007D00F0F000E02800D1BFE0EB
:10453000624A1168506900F0F9F900B1B8E02889C1
:10454000082800D2B0E0284600F0C5F920B128467E
:1045500003F00AFBBDE8FF9F07F10E01284602F0B9
:10456000EFFD002844D0288938441FFA80FB2889B1
:10457000584500DD9CE04FF4207259460E2002F0B1
:104580005DFE8046B8F1000F00D191E0B8F80A1046
:1045900007F10800814203D2404603F0E5FA87E0C4
:1045A0003A46D8F804000399FBF7AAFE394640467C
:1045B00003F0F0FC00280DD000BF00BF40A3B622DE
:1045C0004DA15BA0FEF7A8FC00BF00BF404603F072
:1045D000CBFA6DE02946404603F012F918B1404687
:1045E00003F0C2FA64E0284603F0BEFA454612E042
:1045F00007F10E01284603F0CDFC60B100BF00BFFB
:104600002FA3C72200E038E053A149A0FEF784FCA5
:1046100000BF00BF4CE06E683946284602F090FDAE
:1046200050BBD5F80480D9F80000C8F80C00234826
:104630000069C8F810000020307070884FF6F771DC
:10464000884203DD70880930708002E0708808308D
:104650007080FF2088F808000020A8F80A000120D8
:104660000021FF230A46CDE9010A00914946284668
:1046700000F0D2FB834600BF11E0032C0ED00B2CC0
:104680000CD00C2C0AD0042C08D0052C06D00D2CF4
:1046900004D00E2C02D0112C00D000BF00BF00BFF0
:1046A000284603F061FA55E7284603F05DFA51E722
:1046B000284603F059FA00BF4CE70000B84B00242D
:1046C0002E2E2F4D6964646C6577617265732F546B
:1046D000686972645F50617274792F4C7749502F0A
:1046E0007372632F636F72652F697076342F6963FD
:1046F0006D702E630000000069636D705F696E70FD
:1047000075743A206D6F76696E6720722D3E706108
:10471000796C6F616420746F2069636D70206865C7
:1047200061646572206661696C65640A000000005E
:10473000417373657274696F6E202225732220663F
:1047400061696C6564206174206C696E6520256404
:1047500020696E2025730A0069636D705F696E7051
:1047600075743A20726573746F72696E67206F7228
:104770006967696E616C20702D3E7061796C6F6144
:1047800064206661696C65640A0000002DE9FF47DA
:104790000746884691464FF420722421222002F0D9
:1047A0004DFD05460DB9BDE8FF8700BF6889242887
:1047B00008D200BF1BA34FF4B47228A132A0FEF7A9
:1047C000ABFB00BF00BFD7F804A06C6884F8008082
:1047D00084F801900020A080E08079686A6802F186
:1047E00008001C22FBF78CFDDAF80C00039003A8EC
:1047F00000F07AFD064686B1002060806989204677
:1048000000F05FF8608001200021FF2303AACDE9BA
:1048100001060091284600F0FFFA284603F0A4F9AB
:1048200000BFC0E72E2E2F4D6964646C65776172FE
:1048300065732F54686972645F50617274792F4C8C
:104840007749502F7372632F636F72652F6970768B
:10485000342F69636D702E63000000006368656328
:104860006B2074686174206669727374207062755D
:10487000662063616E20686F6C642069636D7020D0
:104880006D65737361676500417373657274696FF9
:104890006E2022257322206661696C656420617434
:1048A000206C696E6520256420696E2025730A00DE
:1048B00070B505460C4622460B212846FFF766FFD9
:1048C00070BD30B504460D462946204601F0C8FAB1
:1048D000C04380B230BDF0B50646002700243546FF
:1048E00019E06989686801F0BBFA0444A0B200EBE2
:1048F0001444688900EBD0714910A0EB410149B123
:104900000FB9012000E000200746E0B2C4F3072100
:1049100041EA00242D68002DE3D127B1E0B2C4F3B1
:10492000072141EA0024E04380B2F0BD18B50246F9
:104930000092D04300B10AB9012018BD91F82D00B2
:1049400000F0020008B90020F7E74868904201D162
:104950000020F2E700988B681840D1E90134234029
:10496000984208D1886822EA00008C68E3439842A4
:1049700001D10120E1E70020DFE700002DE9F74F3A
:104980008CB004460F464FF00008B98CA1F114001A
:10499000C11700EB5171C1F3CF0A14200590606874
:1049A0000990DDF8249099F8000000F00F00142120
:1049B000B1EB800F04D06FF005000FB0BDE8F08FB1
:1049C00000BF608914280BDA00BF72A34FF43F7256
:1049D0007FA186A0FEF7A0FA00BF6FF00500ECE70C
:1049E00000BFB9F8060001F0E6F904900498C0F39E
:1049F0000C000790049800F40050039020891438AC
:104A00001FFA80FBBDE04FF6FF7000EACA00584570
:104A100001DD584603E04FF6FF7000EACA00089037
:104A20004FF4207214210E2002F008FC054605B94F
:104A3000ADE000BF6889142808DA00BF55A34FF421
:104A4000497274A169A0FEF767FA00BF00BF142283
:104A500068680999FBF754FCD5F8049008980A9007
:104A600054E061890598081A80B2029000BF6189FC
:104A70000598814208DA00BF46A340F22D326DA1AD
:104A80005AA0FEF749FA00BF00BF02990A9888426F
:104A900001DA0A9800E002988046B8F1000F03D1CD
:104AA00000200590246831E000F068FC06461EB93D
:104AB000284603F059F86AE06168059808443346CF
:104AC00041224146CDE90008002002F065FD0B902F
:104AD0000B9830B9304600F057FC284603F044F8F4
:104AE00055E0204603F008FA7461564830612846C4
:104AF0000B9902F07BFD0A98A0EB080080B20A90A7
:104B00000A9810B100200590246800BF0A98002878
:104B1000A7D10598404480B20590B88C1438584508
:104B200001DB012000E0002006900798C0F30C0094
:104B30000490069808B1039818B1049840F4005006
:104B40000490049801F037F9A9F806000899143187
:104B500088B201F030F9A9F802000020A9F80A0093
:104B60007B69294638460E9A9847284602F0FCFF92
:104B70000898ABEB00001FFA80FB0798504480B206
:104B80000790BBF1000F7FF43EAF002015E74FF018
:104B9000FF3012E72E2E2F4D6964646C65776172C9
:104BA00065732F54686972645F50617274792F4C19
:104BB0007749502F7372632F636F72652F69707618
:104BC000342F6970345F667261672E6300000000E5
:104BD0006970345F6672616728293A207062756671
:104BE00020746F6F2073686F727400004173736577
:104BF0007274696F6E2022257322206661696C656C
:104C000064206174206C696E6520256420696E20C3
:104C100025730A0074686973206E6565647320618A
:104C2000207062756620696E206F6E652070696500
:104C300063652100702D3E6C656E203E3D20706FD7
:104C400066660000D95A00082DE9F04707460E466F
:104C50007D6828780421B1EB201F05D0384602F08A
:104C600083FF0020BDE8F087287800074FEA9068AE
:104C7000688801F0A0F881463989494503DD494635
:104C8000384603F085F87889404505DB3889484582
:104C900002DBB8F1140F04DA384602F065FF002099
:104CA000E0E728694D494861E86808610846007DE9
:104CB00000F0F000E0280AD196F82D0000F0010085
:104CC00018B1706808B134461CE000241AE0304680
:104CD00000F088F808B1344614E000243F48007D15
:104CE0007F280FD03E48046809E0B44200D105E0B7
:104CF000204600F077F800B103E000BF2468002CE4
:104D0000F3D100BF354908693146FFF70FFE28B9D6
:104D10003248007C00F0F000E02804D1384602F070
:104D200023FF00209EE724B9384602F01DFF002033
:104D300098E7E8884FF63F71084038B1384600F0F0
:104D400055F907460FB900208CE77D6823480460B9
:104D50004660856028780007800E2049888141469A
:104D6000384603F017F9687A01280DD0062806D0D6
:104D700011280ED13146384609F08EFA22E031462C
:104D8000384604F055FB1DE031463846FFF7ACFBD2
:104D900018E0124948692146FFF7C8FD70B90F486D
:104DA000007D00F0F000E02808D00FFA88F13846C6
:104DB00002F0BCFF02213846FFF78DFB384602F0B7
:104DC000D3FE00BF00BF002004490860486088602F
:104DD00088810861486100BF44E70000B84B0024A7
:104DE000004A002410B5044694F82D0000F001009C
:104DF00070B1606860B1074840696168884205D059
:104E0000044948692146FFF791FD08B1012010BD12
:104E10000020FCE7B84B00242DE9FE4F07460C4666
:104E200015469846DDE90C9A0E9EA34625B10CB1B5
:104E3000206808B906F1040B43462A46594638460D
:104E4000CDE9009A029600F003F8BDE8FE8F00005D
:104E50002DE9F84F05460F4690469A46DDF828B0F2
:104E60000C9E00BFA87B012808D000BF37A34FF4D9
:104E7000557243A145A0FEF74FF800BF00BFB8F13F
:104E8000000F46D04FF014091421284602F058F9BB
:104E900018B16FF00100BDE8F88F6C6800BF688939
:104EA000142808D200BF29A34FF4627241A137A091
:104EB000FEF732F800BF00BF84F808A00B986072BC
:104EC000D8F80000206148464FEAE97109EB91717A
:104ED000C1F3870141F04001217084F801B02889B5
:104EE00000F069FF60800020E0803E48008800F00C
:104EF00062FFA0803B480088401C3A4908801FB9E7
:104F000039480068E06001E03868E06000206081B6
:104F100009E06889142802DA6FF00100BBE76C68C9
:104F200020690090E846B08C48B12889B18C88424D
:104F300005DD424631462846FFF720FDABE74246F5
:104F40002946304673699847A5E700002E2E2F4D5D
:104F50006964646C6577617265732F546869726403
:104F60005F50617274792F4C7749502F7372632FA1
:104F7000636F72652F697076342F6970342E630009
:104F8000702D3E726566203D3D2031004173736592
:104F90007274696F6E2022257322206661696C65C8
:104FA00064206174206C696E6520256420696E2020
:104FB00025730A00636865636B20746861742066FA
:104FC0006972737420706275662063616E20686F09
:104FD0006C64207374727563742069705F686472A6
:104FE000000000006A4A002470E700082DE9F14F34
:104FF00084B004984568287800F00F001421B1EBC4
:10500000800F00D011E1E88800F0D5FEC0F30C005D
:105010004FF6FF7101EAC00A688800F0CCFE07462F
:1050200028780007810E02910299B94200DDFCE068
:105030000298381A87B2049802F080FB06467D4831
:10504000018888190A280ADD3146284600F0E6FC66
:1050500020B17848008830440A2800DDE5E0764831
:10506000046811E06069E968884209D1A06929698A
:10507000884205D1A089A988884201D1012000E099
:10508000002000B102E02468002CEBD100BF34B94D
:105090003146284600F0A8FB044694B9C5E0E888EC
:1050A00000F089FEC0F30C0058B9E08900F083FEDF
:1050B000C0F30C0028B11422294604F10800FBF7C4
:1050C0001FF9E888012121EA50100190019850B1A0
:1050D0000AEB070188B2504503DB4FF6EB718842BB
:1050E00000DD80E000BF2046019A049900F098F9A5
:1050F00083460BF1010000B975E04E48008830444A
:105100004C490880019840B10AEB070188B2A0839E
:10511000A17F41F00101A17700BFBBF1010F60D178
:10512000A08B143080B2009060684068D0F8009086
:1051300060684568142204F108012846FBF7E0F88E
:10514000009800F038FE68800020E8806881606880
:1051500004900DE0D9F8040003901421484602F0B1
:1051600019FF4946049802F041FA0398D0F80090DC
:10517000B9F1000FEED130480068844202D14FF0FF
:1051800000080EE02C48D0F8008006E0D8F80000B7
:10519000A04200D104E0D8F80080B8F1000FF5D1AA
:1051A00000BF4146204600F0BDFA049802F0C6FA5E
:1051B000064600BF1F480088B04208DA00BF1FA3A0
:1051C00040F29B222CA133A0FDF7A6FE00BF00BF3A
:1051D00018480088801B17490880049805B0BDE86E
:1051E000F08F0020FAE700BF44B900BF13A34FF4CB
:1051F0002A7232A127A0FDF78FFE00BF00BF6068B2
:1052000090B900BF0C480068844208D000BF0BA3CF
:1052100040F2AB222CA11FA0FDF77EFE00BF00BF15
:105220000021204600F07EFA00BF049802F09CFCAA
:105230000020D3E7704A00246C4A00242E2E2F4D04
:105240006964646C6577617265732F546869726410
:105250005F50617274792F4C7749502F7372632FAE
:10526000636F72652F697076342F6970345F667270
:1052700061672E630000000069705F72656173737F
:105280005F70627566636F756E74203E3D20636C5F
:10529000656E0000417373657274696F6E2022251C
:1052A0007322206661696C6564206174206C696E8C
:1052B0006520256420696E2025730A0069707220BC
:1052C000213D204E554C4C006E6F74206669727300
:1052D00074616C74686F756768206A757374206593
:1052E0006E7175657565640010B5024621480168E8
:1052F00021E091F82D0000F00100D8B191F82D00C7
:10530000C0F38000B0B14868A0B110688B68184045
:10531000D1E901342340984201D1084610BD91F8EB
:105320002D0000F0020028B91068CB68984201D126
:105330000846F3E709680029DBD10F480068A0B1EF
:105340000D48006890F82D0000F0010068B10A488F
:10535000006890F82D00C0F3800030B10648006866
:10536000406810B110787F2801D10020D6E70248AC
:105370000068D3E7004A0024044A002410B5052041
:1053800001F028FA10BD000010B5044600BF002C43
:1053900008D100BF06A34FF4317214A116A0FDF787
:1053A000BBFD00BF00BF2146052001F045F910BD3F
:1053B0002E2E2F4D6964646C6577617265732F546E
:1053C000686972645F50617274792F4C7749502F0D
:1053D0007372632F636F72652F697076342F6970F3
:1053E000345F667261672E63000000007020213D0B
:1053F000204E554C4C000000417373657274696F08
:105400006E2022257322206661696C6564206174B8
:10541000206C696E6520256420696E2025730A0062
:105420002DE9F74F84B006468846002501200190FB
:10543000D8F8040002900299488800F0BCFC83462A
:10544000029800780007800E03900398584503DD0A
:10545000681E07B0BDE8F08F0398ABEB00001FFAA1
:1054600080FB0299C88800F0A6FCC0F30C004FF640
:10547000FF7101EAC00A00BF00BFD8F80440002055
:105480002060A4F804A00AEB0B00E080E0885045FF
:1054900002DA4FF0FF30DCE7D6F804903EE0D9F8AE
:1054A0000470A088B988884220DAC4F800909DB1C1
:1054B000A088E988884203DBE088B988884202DD59
:1054C0004FF0FF30C5E7C5F80080E888A188884222
:1054D0000BD00020019008E0E088B988884202DD06
:1054E0004FF0FF30B5E7C6F804801AE0A088B9880D
:1054F000884202D14FF0FF30ABE7A088F98888429C
:1055000002DA4FF0FF30A4E72DB1E888B98888426D
:1055100001D000200190D7F800903D46B9F1000F6E
:10552000BDD100BFB9F1000F28D1002D17D000BFA9
:10553000E888A188884208DD00BF3EA34FF4DB72F3
:105540004BA153A0FDF7E8FC00BF00BFC5F80080E9
:10555000E888A188884211D0002001900EE000BFA9
:10556000706840B100BF33A34FF4DF7252A148A06E
:10557000FDF7D2FC00BF00BFC6F80480069820B932
:10558000B07F00F00100002851D00198002848D0D9
:10559000706818B170684068808810B10020019070
:1055A0003FE02546D4F800900BE0D9F80440E888A5
:1055B000A188884202D00020019005E02546D4F859
:1055C0000090B9F1000FF0D100BF0198002828D059
:1055D00000BF706840B900BF16A340F2DF1244A1BB
:1055E0002BA0FDF799FC00BF00BF00BF70684068AA
:1055F000A04208D100BF0FA34FF4F0723CA124A039
:10560000FDF78AFC00BF00BF00BF206840B100BFAB
:1056100008A34FF4F1723AA11DA0FDF77DFC00BF75
:1056200000BF019808B1012013E7002011E7002016
:105630000FE700002E2E2F4D6964646C6577617250
:1056400065732F54686972645F50617274792F4C6E
:105650007749502F7372632F636F72652F6970766D
:10566000342F6970345F667261672E63000000003A
:10567000636865636B20667261676D656E74732025
:10568000646F6E2774206F7665726C617000000025
:10569000417373657274696F6E20222573222066D0
:1056A00061696C6564206174206C696E6520256495
:1056B00020696E2025730A006E6F2070726576690E
:1056C0006F757320667261676D656E742C207468E7
:1056D0006973206D75737420626520746865206637
:1056E0006972737420667261676D656E7421000063
:1056F00073616E69747920636865636B00000000F4
:1057000076616C69646174655F646174616772611C
:105710006D3A6E6578745F70627566213D4E554CCA
:105720004C00000070B504460D460E480068A042CB
:1057300003D10C49206808600EE000BF002D08D19D
:1057400000BF09A340F2451216A11DA0FDF7E4FB1E
:1057500000BF00BF206828602146042000F06CFFD5
:1057600070BD00006C4A00242E2E2F4D6964646CBD
:105770006577617265732F54686972645F506172F6
:1057800074792F4C7749502F7372632F636F726552
:105790002F697076342F6970345F667261672E638B
:1057A0000000000073616E69747920636865636B43
:1057B000206C696E6B6564206C6973740000000076
:1057C000417373657274696F6E202225732220669F
:1057D00061696C6564206174206C696E6520256464
:1057E00020696E2025730A0070B505460E46042018
:1057F00000F0F0FF044664B93146284600F00EF987
:10580000B04203DB042000F0E5FF04460CB90020A1
:1058100070BD20212046FAF79AFD0F20E077064858
:1058200000682060044804601422294604F108003E
:10583000FAF766FD2046EBE76C4A00242DE9F047B5
:1058400004468846002500BFA04507D100BF40A3FD
:10585000AB224EA150A0FDF75FFB00BF00BFB8F127
:10586000000F0DD000BFD8F80000A04207D000BF45
:1058700037A3AD2252A148A0FDF74EFB00BF00BFE9
:105880006068D0F80490B9F80400002824D1676853
:10589000D9F800006060142204F108017868FAF772
:1058A0002FFD01213846FFF703F8384601F046FF87
:1058B000064600BFA819B0F5803F07DB00BF24A350
:1058C000BC2244A134A0FDF727FB00BF00BFA819EC
:1058D00085B2384602F048F967681CE0D7F80490B2
:1058E000BA46D9F80070504601F028FF064600BFBE
:1058F000A819B0F5803F07DB00BF15A3CC2235A166
:1059000025A0FDF709FB00BF00BFA81985B25046CE
:1059100002F02AF900BF002FE0D141462046FFF7F0
:1059200001FF00BF33480088A84207DA00BF08A380
:10593000D22231A118A0FDF7EFFA00BF00BF2D4819
:105940000088401B2B4908802846BDE8F0870000EE
:105950002E2E2F4D6964646C6577617265732F54C8
:10596000686972645F50617274792F4C7749502F67
:105970007372632F636F72652F697076342F69704D
:10598000345F667261672E63000000007072657696
:1059900020213D2069707200417373657274696FD4
:1059A0006E2022257322206661696C656420617413
:1059B000206C696E6520256420696E2025730A00BD
:1059C000707265762D3E6E657874203D3D2069705D
:1059D0007200000070627566735F667265656420B0
:1059E0002B20636C656E203C3D20307866666666D1
:1059F00000000000704A002469705F726561737373
:105A00005F70627566636F756E74203E3D207062D4
:105A10007566735F66726565640000002DE9F84F76
:105A200005468946002700BF0026B24600200090A8
:105A300083461B48046821E06069E968884207D111
:105A4000A0692969884203D1A089A988884201D028
:105A5000012000E0002068B10BF1010B1EB92646C1
:105A6000CDF800A006E0E07FF17F884202DC264608
:105A7000CDF800A0206800B1A2462468002CDBD13C
:105A80002EB130460099FFF7D9FE804647444F4576
:105A900002DABBF1010FC7DC3846BDE8F88F000021
:105AA0006C4A002470B500250A4804680FE0E07FC6
:105AB000002805DDE07F401EE0772546246806E0EB
:105AC0002646246829463046FFF7B8FE00BF002C62
:105AD000EDD170BD6C4A002470B505462C4600BF60
