:020000040800F2
:10000000004A002471030008D51D0008BF1C000829
:10001000D11D000835040008452500080000000037
:10002000000000000000000000000000B102000815
:1000300039040008000000000D03000865220008D4
:100040008F0300088F0300088F0300088F03000848
:100050008F0300088F0300088F0300088F03000838
:100060008F0300088F0300088F0300088F03000828
:100070008F0300088F0300088F0300088F03000818
:100080008F0300088F0300088F0300088F03000808
:100090008F0300088F0300088F0300088F030008F8
:1000A0008F030008612400088F0300088F030008F5
:1000B0008F0300088F0300088F0300088F030008D8
:1000C0008F0300088F0300088F0300088F030008C8
:1000D0008F0300088F0300088F0300088F030008B8
:1000E0008F0300088F030008000000008F03000842
:1000F0008F0300088F0300088F0300088F03000898
:100100008F0300088F0300088F0300088F03000887
:100110008F0300088F0300088F0300088F03000877
:100120008F0300088F0300088F0300088F03000867
:100130008F0300083D0400088F0300088F030008A8
:1001400000000000000000000000000000000000AF
:100150008F0300088F0300088F0300088F03000837
:100160008F0300088F0300088F0300088F03000827
:100170008F0300088F0300088F0300088F03000817
:100180008F0300088F0300088F0300088F03000807
:100190008F0300088F0300088F0300088F030008F7
:1001A0008F0300088F0300088F0300088F030008E7
:1001B0008F0300088F0300088F0300088F030008D7
:1001C0008F0300088F0300088F0300088F030008C7
:1001D0008F0300088F0300088F0300088F030008B7
:1001E0008F0300088F0300088F0300088F030008A7
:1001F0008F0300088F0300088F0300088F03000897
:100200008F0300088F0300088F0300088F03000886
:100210008F0300088F0300088F0300088F03000876
:100220008F0300088F0300088F0300080000000000
:100230008F0300088F030008000000008F030008F0
:100240008F0300088F0300088F0300088F03000846
:100250008F0300088F0300088F0300088F03000836
:100260008F0300088F0300088F0300088F03000826
:100270008F0300088F0300088F03000800000000B0
:100280008F0300088F0300088F03000800000000A0
:10029000000000008F030008DFF810D000F0B8F86D
:1002A0000048004729290008AFF30080004A0024D5
:1002B0002C4B19680868B0E8F04F80F30988BFF349
:1002C0006F8F4FF0000080F311887047000000002E
:1002D00008480068006880F308884FF0000080F349
:1002E000148862B661B6BFF34F8FBFF36F8F00DF24
:1002F00000BF00BF08ED00E0DFF80C00016841F42A
:1003000070010160704700BF88ED00E0EFF30980E5
:10031000BFF36F8F134B1A681EF0100F08BF20ED4C
:10032000108A20E9F04F106009B44FF0500080F3BC
:100330001188BFF34F8FBFF36F8F03F0A1F94FF018
:10034000000080F3118809BC19680868B0E8F04F14
:100350001EF0100F08BFB0EC108A80F30988BFF3BD
:100360006F8F704748000024EFF30580704700004E
:10037000074880470748804707480047FEE7FEE7F1
:10038000FEE7FEE7FEE7FEE7FEE7FEE7FEE7FEE745
:10039000B9040008492300089902000810B5431A5F
:1003A000934209D28318881803E010F8011D03F85E
:1003B000011D521EF9D210BD40EA01039B0703D074
:1003C00009E008C9121F08C0042AFAD203E011F894
:1003D000013B00F8013B521EF9D210BDD2B201E040
:1003E00000F8012B491EFBD270470022F6E710B53A
:1003F00013460A4604461946FFF7F0FF204610BD93
:10040000421C10F8011B0029FBD1801A7047000024
:10041000064C074D06E0E06840F0010394E8070051
:1004200098471034AC42F6D3FFF73AFFE04000089B
:100430000041000800BFFEE77047000010B5024809
:1004400000F062F810BD0000500300240020704747
:1004500010B500F0E3F910BD10B5024800F056F9F0
:10046000002010BD5003002470B504460D4616460A
:1004700033462A462146044800F001F910B14FF0F6
:10048000FF3070BD0020FCE75003002470B5044627
:100490000D46164633462A462146044800F078F9B0
:1004A00010B14FF0FF3070BD0020FCE75003002476
:1004B00072B600BFFEE700000748006840F0020087
:1004C0000549086000BF04480838006800F400507F
:1004D0000028F8D0704700000C4802587047000010
:1004E00010B50446204600F00BF800F0800080288C
:1004F00003D10248006802F0E3FA10BD2C0000248A
:100500000146D1F88C0070472DE9F041044620687F
:10051000D0F8B050206800F58050D0F860612068B5
:1005200000F58050D0F834715348D0F8008006F0C0
:10053000400060B107F0400048B148F24001206837
:1005400000F58050C0F86011204600F0D5F806F0A4
:10055000010060B107F0010048B148F201012068D4
:1005600000F58050C0F86011204600F005F906F44F
:100570008040C0B307F48040A8B3D4F8880040F0AE
:100580000800C4F8880006F48050C8B1206800F55F
:100590008050D0F8600141F202110840C4F88C008C
:1005A000206800F58050D0F8340120F440412068E4
:1005B00000F58050C0F83411E020C4F884000FE04A
:1005C000206800F58050D0F8600100F4CD40C4F8F8
:1005D0008C004FF4CD41206800F58050C0F86011C8
:1005E0002046FFF77DFF05F48040B0F5804F04D032
:1005F00005F40050B0F5005F12D11434606F40F084
:100600001000606754F8140CD0F8B800E067E020E0
:100610002067143C2046FFF763FF0020C4F89000D9
:1006200005F0100060B12068D0F8C00000F0600054
:10063000C4F89400204600F021F80020C4F894008B
:1006400005F0200060B12068D0F8D00000F00F0065
:10065000C4F898002046FFF741FF0020C4F8980036
:1006600008F4800030B14FF4800003490860204650
:1006700000F08CF8BDE8F081A800005870472DE923
:10068000F04704460F46904699462068D0F800028D
:1006900000F0010010B10120BDE8F0872068D0F81B
:1006A000005225F0787040EA475525F4F81040EAEA
:1006B000084545F00C0545F001052068C0F80052DA
:1006C00000F0ACF8064607E000F0A8F8801BB0F593
:1006D0007A7F01D90120DFE72068D0F8000200F01E
:1006E00001000028F0D12068D0F8040280B2C9F8D7
:1006F00000000020D0E7000010B504460248006862
:1007000002F0DEF910BD00002C00002470B5064692
:100710003068D0F8004224F4706400F0E3FB054632
:100720001048854202D244F4007417E00E48854216
:1007300002D244F4407411E00C48854200D20DE02E
:100740000B48854202D244F4807407E00948854290
:1007500002D244F4806401E044F4A0643068C0F83C
:10076000004270BDC00E16020087930300E1F5053C
:1007700080D1F00880B2E60E10B504460248006849
:1007800002F09EF910BD0000300000247047000008
:100790002DE9F04705460F46904699462868D0F85F
:1007A000000200F0010010B10120BDE8F0872868C8
:1007B000D0F8004224F0787040EA475424F4F8104E
:1007C00040EA084424F00C00041D44F001041FFA20
:1007D00089F00D4908600D48C0F8004200F01EF88D
:1007E000064607E000F01AF8801BB0F57A7F01D9C1
:1007F0000120DAE72868D0F8000200F001000028A4
:10080000F0D100BFD1E70000048202400080024026
:1008100001480068000C70470010005C0148006847
:10082000704700001000002403480068034909785D
:100830000844014908607047100000241800002493
:1008400010B5032000F044F900F084FB104909685A
:10085000C1F303210F4A515C01F01F0120FA01F49A
:100860000B48006800F00F001146085C00F01F0004
:1008700024FA00F008490860084804600F2000F0DE
:100880000FF808B1012010BD00F0B8F80020FAE719
:100890001844025890400008200000241C00002446
:1008A00070B58AB00446102C0AD2002221461920C5
:1008B00000F0D0F8192000F0B9F81948046002E0FF
:1008C00001200AB070BD00BF1648006840F001006A
:1008D000144908600846006800F00100009000BF5D
:1008E00000BF01A902A800F0C7FA00F021FB0646EC
:1008F0000D48B6FBF0F0451E0C480D49086040F26B
:10090000E7310B48C160456000210161816001F061
:1009100066F818B9064801F09BF8D2E70120D0E745
:1009200014000024F044025840420F00000001402F
:10093000040300244178154A1160144908310968FC
:1009400021F00101114A08321160121F4168116043
:10095000017B0907C27A41EA0261827A41EAC24117
:10096000427B41EA8241827B41EA4241C27B41EAC9
:100970000241427A41EA0221027A41EA42010278C6
:100980001143024A083211607047000098ED00E000
:1009900000BF00BF00BFBFF35F8F00BF00BF00BF3D
:1009A0000548006820F480300349086000200249AF
:1009B000703108607047000024ED00E040F0010154
:1009C0000D4A11600C497039096841F480310A4AB6
:1009D000703A116000BF00BF00BFBFF34F8F00BF70
:1009E00000BF00BF00BF00BF00BFBFF36F8F00BFDD
:1009F00000BF00BF7047000094ED00E008B500BFE5
:100A00000948006840F0020007490860084600688D
:100A100000F00200009000BF00BF00220F21901ED6
:100A200000F018F808BD0000F444025801460846DA
:100A300000280DDB00BF00BF00F01F0301229A4019
:100A400043099B0003F1E023C3F8002100BF00BF6E
:100A500000BF70472DE9F05F80460D46164601F055
:100A60002FFF074639462A46334601F00700C0F1FA
:100A7000070ABAF1040F02D94FF0040A01E0C0F1ED
:100A8000070AD14600F1040ABAF1070F02D24FF06B
:100A9000000A01E0A0F1030AD4464FF0010A0AFA65
:100AA00009FAAAF1010A0AEA020A0AFA0CFA4FF054
:100AB000010B0BFA0CFBABF1010B0BEA030B4AEA3F
:100AC0000B042146404601F003FFBDE8F09F000003
:100AD00000BF00F00702064B19684FF6FF031940EC
:100AE000044B0B4343EA0221014B196000BF7047DE
:100AF0000CED00E00000FA0570B5044615480068EA
:100B0000C0F3800048B91348006800F00700A04215
:100B100001D0012070BD0020FCE70E48006820F0E5
:100B2000070020430B490860FFF778FE054607E001
:100B3000FFF774FE401BB0F57A7F01D90120E9E789
:100B4000044808380068C0F340300028F0D0002086
:100B5000E0E700000C4802582DE9F04104460D463C
:100B600014B90120BDE8F081BD48006800F00F0015
:100B7000A8420ED2BA48006820F00F002843B849B6
:100B800008600846006800F00F00A84201D001206C
:100B9000E8E7207800F0040004280ED1B14920696C
:100BA000096801F07001884207D9AE48006820F05A
:100BB000700021690843AB490860207800F0080004
:100BC000082811D1A749091D6069096801F0700161
:100BD000884209D9A348001D006820F070006169AF
:100BE0000843A049091D0860207800F01000102873
:100BF00011D19C49091DA069096801F4E06188428E
:100C000009D99848001D006820F4E060A1690843F4
:100C10009449091D0860207800F02000202811D197
:100C200090490831E069096801F07001884209D9EA
:100C30008C480830006820F07000E1690843894959
:100C400008310860207800F0020002280ED18549A2
:100C5000E068096801F00F01884207D981480068FF
:100C600020F00F00E16808437E490860207800F01A
:100C70000100002850D07B48006820F47060A16813
:100C80000843784908606068022807D17548183819
:100C90000068C0F34040F8B9012063E760680328AA
:100CA00007D1704818380068C0F34060A0B901202F
:100CB00058E76068012807D16A4818380068C0F30F
:100CC000002048B901204DE7664818380068C0F395
:100CD000800008B9012045E762480838006820F024
:100CE0000700616808435F4908390860FFF796FD0F
:100CF000064608E0FFF792FD801B41F288318842EA
:100D000001D903202EE757480838006800F0380062
:100D10006168B0EBC10FEDD1207800F0020002282D
:100D20000ED15049E068096801F00F01884207D2EE
:100D30004C48006820F00F00E1680843494908600A
:100D40004748006800F00F00A8420ED944480068E8
:100D500020F00F002843424908600846006800F070
:100D60000F00A84201D00120FCE6207800F004002A
:100D700004280ED13B492069096801F070018842BE
:100D800007D23848006820F07000216908433549CF
:100D90000860207800F00800082811D13149091DA9
:100DA0006069096801F07001884209D22D48001D70
:100DB000006820F07000616908432A49091D086035
:100DC000207800F01000102811D12649091DA069D3
:100DD000096801F4E061884209D22248001D0068D8
:100DE00020F4E060A16908431E49091D08602078CD
:100DF00000F02000202811D11A490831E069096863
:100E000001F07001884209D216480830006820F0CD
:100E10007000E169084313490831086000F09AF84E
:100E200010490968C1F303210F4A515C01F01F0109
:100E300020FA01F70B48006800F00F001146085C2B
:100E400000F01F0027FA00F0084908600848076012
:100E500008480068FFF724FD8046404682E600000F
:100E6000002000521844025890400008200000243E
:100E70001C000024140000243F220260174A12685C
:100E800002F007024260154A0832126802F47062EA
:100E90008260124A0832126802F00F02C2600F4AE2
:100EA0000832126802F0700202610C4A0C321268B9
:100EB00002F070024261094A0C32126802F4E062E8
:100EC0008261064A1032126802F07002C261044A5E
:100ED000126802F00F020A607047000010440258C6
:100EE0000020005210B500F035F80D490968C1F333
:100EF00003210C4A515C01F01F0120FA01F408485B
:100F0000006800F00F001146085C00F01F0024FA92
:100F100000F005490860054804600846006810BDF7
:100F20001844025890400008200000241C000024AF
:100F300000B5FFF7D7FF05490968C1F30221044A4C
:100F4000515C01F01F01C84000BD00001C44025864
:100F500090400008F0B5824E366806F0380636B18B
:100F6000082E15D0102E15D0182E7DD114E07C4EF1
:100F7000103E3668C6F3401646B1794E103E3668CC
:100F8000C6F3C107774E26FA07F000E07548E5E0A2
:100F90007548E3E07548E1E0714E1836366806F0B2
:100FA00003046F4E18363668C6F305116C4E1C36B6
:100FB000366806F001056A4E24363668C6F3CC065C
:100FC00016FB05F601EE106AB8EE410A002971D051
:100FD00024B1012C50D0022C6DD16DE0604E103E3A
:100FE0003668C6F340163EB35D4E103E3668C6F313
:100FF000C1075C4E26FA07F301EE103AF8EE411AEB
:1010000001EE101AB8EE411A81EE812A9FED581AAE
:10101000C0EE011A524E20363668C6F3080601EEBD
:10102000106AB8EE411A31EE811AF7EE001A31EE6D
:10103000211A62EE010A1EE001EE101AB8EE411A02
:10104000DFED4C1A81EE812A9FED491AC0EE011A9C
:10105000434E20363668C6F3080601EE106AB8EE35
:10106000411A31EE811A00E076E0F7EE001A31EE17
:10107000211A62EE010A5BE001EE101AB8EE411A85
:101080009FED3D2AC2EE011A9FED391A80EE012A2A
:10109000334E20363668C6F3080601EE106AB8EE05
:1010A000411A32EE011AB7EE002A31EE021A61EE51
:1010B000810A3DE04EE01DE001EE101AB8EE411A43
:1010C000DFED2E1A81EE812A9FED291AC0EE011A5A
:1010D000234E20363668C6F3080601EE106AB8EED5
:1010E000411A31EE811AF7EE001A31EE211A62EE42
:1010F000010A1DE001EE101AB8EE411A9FED1E2AFA
:10110000C2EE011A9FED1A1A80EE012A144E203603
:101110003668C6F3080601EE106AB8EE411A32EEE0
:10112000011AB7EE002A31EE021A61EE810A00BF01
:1011300000BF0B4E20363668C6F34626721C01EE01
:10114000102AB8EE411AC0EE811ABCEEE11A11EE77
:10115000100A00E0002001E0034800BF00BFF0BD1E
:10116000104402580090D00300093D0040787D01F2
:10117000000000460024744C0024744A20BCBE4B7E
:101180002DE9F047044614B90120BDE8F087207826
:1011900000F00100002870D0FA48006800F038081C
:1011A000F8481830D0F80090B8F1100F06D0B8F118
:1011B000180F0FD109F0030002280BD1F1481038A5
:1011C0000068C0F3404000286AD06068002867D1FA
:1011D0000120DAE700BF6068B0F5803F08D1E94838
:1011E0001038006840F48030E649103908602EE07D
:1011F000606868B9E3481038006820F48030E1493D
:10120000103908600846006820F4802008601EE05D
:101210006068B0F5A02F0DD1DA481038006840F4AE
:101220008020D849103908600846006840F48030B2
:1012300008600CE0D3481038006820F48030D149B1
:10124000103908600846006820F48020086000BF5C
:10125000606898B1FFF7E2FA054606E0FFF7DEFAAC
:10126000401B642801D903208FE7C6481038006866
:10127000C0F340400028F1D012E012E0FFF7CEFAB0
:10128000054606E0FFF7CAFA401B642801D903208F
:101290007BE7BC4810380068C0F340400028F1D11B
:1012A00000BF207800F00200022874D1B548006821
:1012B00000F03808B3481830D0F80090B8F1000FAB
:1012C00005D0B8F1180F56D109F00300D0BBAD48D6
:1012D00010380068C0F3800018B1E06808B9012038
:1012E00053E7A8481038006820F01900E168084367
:1012F000A44910390860FFF791FA054606E0FFF7A8
:101300008DFA401B022801D903203EE79D48103882
:101310000068C0F380000028F1D000BFFFF778FA22
:1013200041F2030188421AD8206940280BD1954820
:101330000C38006820F47C3040F4003091490C39BE
:10134000086017E017E08F480C38006820F47C3004
:10135000216940EA01308B490C3908600AE089486C
:101360000C38006820F0FE40217C40EA016085498D
:101370000C39086066E0E06888B38248103800687D
:1013800020F01900E16808437E4910390860FFF732
:1013900045FA054607E056E0FFF740FA401B0228F1
:1013A00001D90320F1E6774810380068C0F38000C7
:1013B0000028F1D000BFFFF72BFA41F20301884269
:1013C0001AD8206940280BD16E480C38006820F4E8
:1013D0007C3040F400306B490C39086017E017E0AE
:1013E00068480C38006820F47C30216940EA0130FC
:1013F00064490C3908600AE062480C38006820F043
:10140000FE40217C40EA01605E490C39086019E029
:101410005C481038006820F001005A491039086013
:10142000FFF7FCF9054606E0FFF7F8F9401B022834
:1014300001D90320A9E6534810380068C0F38000A2
:101440000028F1D100BF207800F0100010287CD1D6
:101450004C48006800F038084A481830D0F800902E
:10146000B8F1080F06D0B8F1180F3DD109F003000C
:10147000012839D1434810380068C0F3002020B15A
:10148000E069802801D001207FE600BFFFF7C0F9A6
:1014900041F2030188421AD8206A20280AD139482B
:1014A0000C38006820F0F84040F0804035490C3995
:1014B000086018E033480C38006820F0F84094F8D1
:1014C000201040EA81602F490C3908600BE02D485C
:1014D000001F006820F07C5094F8201040EA016062
:1014E0002849091F086066E0E06978B3254810388C
:1014F000006840F08000234910390860FFF78EF93A
:10150000054606E0FFF78AF9401B022801D90320AF
:101510003BE61C4810380068C0F300200028F1D0DA
:1015200000BFFFF775F941F2030188421CD8206A19
:1015300020280CD113480C38006820F0F84040F007
:10154000804010490C3908601AE035E01CE00D4875
:101550000C38006820F0F84094F8201040EA8160D0
:1015600008490C3908600BE00648001F006820F0AD
:101570007C5094F8201040EA01600249091F08607D
:1015800019E0000010440258FA48006820F080007A
:10159000F8490860FFF742F9054606E0FFF73EF913
:1015A000401B022801D90320EFE5F2480068C0F390
:1015B00000200028F2D100BF207800F008000828A1
:1015C00036D16069D0B1EB487430006840F001005A
:1015D000E84974310860FFF721F9054606E0FFF796
:1015E0001DF9401B022801D90320CEE5E1487430E3
:1015F0000068C0F340000028F1D019E0DD487430E5
:10160000006820F00100DB4974310860FFF706F93B
:10161000054606E0FFF702F9401B022801D9032026
:10162000B3E5D44874300068C0F340000028F1D11D
:10163000207800F02000202830D1A069B8B1CD4832
:10164000006840F48050CB490860FFF7E7F8054692
:1016500006E0FFF7E3F8401B022801D9032094E5D8
:10166000C4480068C0F340300028F2D016E0C148FA
:10167000006820F48050BF490860FFF7CFF80546A6
:1016800006E0FFF7CBF8401B022801D903207CE5D8
:10169000B8480068C0F340300028F2D1207800F04C
:1016A000040004287DD1B448006840F48070B24939
:1016B0000860FFF7B3F8054606E0FFF7AFF8401BF8
:1016C000642801D9032060E5AB48006800F480700D
:1016D0000028F2D000BFA068012808D1A5487030CA
:1016E000006840F00100A349703108602DE0A06857
:1016F00068B9A0487030006820F001009D49703141
:1017000008600846006820F0040008601DE0A0683A
:1017100005280DD197487030006840F004009549C5
:10172000703108600846006840F0010008600CE075
:1017300090487030006820F001008E4970310860D8
:101740000846006820F00400086000BFA068A0B14F
:10175000FFF764F8054608E0FFF760F8401B41F228
:101760008831884201D903200FE582487030006833
:10177000C0F340000028EFD013E0FFF74FF8054614
:1017800008E0FFF74BF8401B41F28831884201D94D
:101790000320FAE4774870300068C0F34000002866
:1017A000EFD1606A00287DD072481030006800F0E8
:1017B0003800182877D0606A022875D16D48006813
:1017C00020F080706B490860FFF728F8054606E0B6
:1017D000FFF724F8401B022801D90320D5E465480F
:1017E0000068C0F340600028F2D100BFD4E90A10BD
:1017F00041EA00105F492831096840F2F332914311
:1018000008435C4928310860208E401EC0F3080060
:10181000616B491E4FF47E4202EA41210843218F49
:10182000491ED20102EA014108433C21095D491EDB
:10183000120202EA016108434E493031086000BFDC
:10184000081F006820F00100091F08604948343073
:1018500000684FF6F8718843A16C40EAC100454921
:101860003431086043482C30006820F00C00216CB3
:10187000084340492C3108600846006820F0020007
:10188000616C08433B492C3108600846006840F40D
:10189000803008600846006840F400300860084660
:1018A000006802E093E038E01FE040F48020086028
:1018B0000846006840F0010008602E48006840F0CB
:1018C00080702C490860FEF7A9FF054606E0FEF788
:1018D000A5FF401B022801D9032056E425480068D3
:1018E000C0F340600028F2D071E02248006820F088
:1018F000807020490860FEF791FF054606E0FEF77C
:101900008DFF401B022801D903203EE419480068DE
:10191000C0F340600028F2D159E01648283007682B
:10192000144830300668606A012821D007F00301AE
:10193000A06A81421CD1C7F30511E06A884217D121
:10194000C6F30801206B401E814211D1606B401E1E
:10195000C6F3462188420BD1A06B401EC6F3064158
:10196000884205D1E06B401EC6F30661884205D06F
:1019700001200AE400440258004802581548006853
:10198000C0F3CC07A06CB84221D0124808380068D8
:1019900020F001000F4908390860FEF73FFF0546B7
:1019A00000BFFEF73BFF401BFBD00A4800684FF624
:1019B000F8718843A16C40EAC100064908600548F7
:1019C0000838006840F0010002490839086000202A
:1019D0004AE400003444025870477047704710B51D
:1019E00004460CB9012010BD94F83D0028B9002030
:1019F00084F83C00204600F029F8022084F83D00DD
:101A0000211D206800F034FD012084F8480000BF4B
:101A100084F83E0001213F2001554020015541201E
:101A20000155422001554320015500BF00BF012050
:101A300084F84400452001554620015547200155B2
:101A400000BF012084F83D000020CCE77047000073
:101A5000014691F83D00012801D001207047022085
:101A600081F83D000868C06840F001000B68D8604C
:101A70001C4B086898421BD00868B0F1804F17D003
:101A8000194B0868984213D0184B086898420FD039
:101A9000174B086898420BD0164B0868984207D03D
:101AA000154B0868984203D0144B0868984210D12F
:101AB00008688068124B00EA0302062A0FD0B2F5CC
:101AC000803F0CD00868006840F001000B68186087
:101AD00005E00868006840F001000B68186000200D
:101AE000BCE7000000000140000400400008004086
:101AF000000C00400004014000180040004001407C
:101B000007000100704770B504462068C668206869
:101B1000056905F00200022819D106F0020002282A
:101B200015D1401F21680861012020772068806955
:101B300000F0030018B12046FFF7E4FF05E020465F
:101B400000F0ADF8204600F0ABF80020207705F05B
:101B50000400042819D106F00400042815D1C0435C
:101B600021680861022020772068806900F44070B5
:101B700018B12046FFF7C6FF05E0204600F08FF8B9
:101B8000204600F08DF80020207705F00800082896
:101B900019D106F00800082815D1C0432168086152
:101BA000042020772068C06900F0030018B12046A7
:101BB000FFF7A8FF05E0204600F071F8204600F08E
:101BC0006FF80020207705F01000102819D106F0DA
:101BD0001000102815D1C043216808610820207723
:101BE0002068C06900F4407018B12046FFF78AFFF2
:101BF00005E0204600F053F8204600F051F80020A0
:101C0000207705F0010048B106F0010030B16FF017
:101C1000010021680861204600F044F805F08000CA
:101C2000802804D005F40050B0F5005F0AD106F01A
:101C30008000802806D16FF4025021680861204698
:101C4000FFF7CBFE05F48070B0F5807F0AD106F077
:101C50008000802806D16FF48070216808612046DA
:101C6000FFF7BAFE05F04000402809D106F0400019
:101C7000402805D1C04321680861204600F01EF8C5
:101C800005F02000202809D106F02000202805D1E9
:101C9000C043216808612046FFF7A0FE70BD704771
:101CA0007047000010B5044603492068884201D1FE
:101CB000FEF7BAFD10BD000000000140704700BFF4
:101CC000FEE700001FB500200090019002900390F5
:101CD000FEF75EFE01208DF8000000208DF8010067
:101CE00001901F208DF8080087208DF80900002042
:101CF0008DF80A008DF80B0001208DF80C008DF88E
:101D00000D0000208DF80E008DF80F006846FEF7DC
:101D100011FE01208DF801001548019010208DF86A
:101D2000080000208DF8090001208DF80A0003202A
:101D30008DF80B0000208DF80D006846FEF7FAFDC7
:101D400002208DF801000B48019008208DF8080052
:101D500000208DF80A0001208DF80D008DF80F008D
:101D60006846FEF7E7FD0420FEF728FE1FBD0000D1
:101D7000000002300000043008B500BF13480068BE
:101D800040F00400114908600846006800F00400B3
:101D9000009000BF00BF00BF0846006840F001008F
:101DA00008600846006800F00100009000BF00BF16
:101DB00000BF0846006840F002000860084600685E
:101DC00000F00200009000BF00BF08BDE0440258D0
:101DD00000BFFEE700BFFEE710B507A1002000F03E
:101DE000EBF80FA1002000F0E7F8174817A10268F0
:101DF000002000F0EEF810BD5345474745522052F1
:101E000065616C2D54696D652D5465726D696E61E7
:101E10006C2053616D706C650D0A0D0A00000000A6
:101E20002323232323232054657374696E6720536F
:101E300045474745525F7072696E746628292023B2
:101E400023232323230D0A0008000024636F756EEB
:101E50007465723A2025640D0A00000008B502205E
:101E600000231A4619460090184600F001F808BDF4
:101E70002DE9F05F05460F469046994600BFDFF812
:101E800064B09BF80000532801D000F05DFB00BF58
:101E9000DFF850A0032D1FD2EFF311810846202157
:101EA00081F3118800BF00BF05EB45020AF118015C
:101EB00001EBC2043DB12760C4F80480C4F8089067
:101EC00000212161E1600A996161C1B281F3118849
:101ED00000BF00BF002601E04FF0FF363046BDE8EE
:101EE000F09F0000484100242DE9F04104460D46D2
:101EF000164600BF0E4F3878532801D000F024FB5F
:101F000000BFEFF311800746202080F3118800BF47
:101F100000BF32462946204600F00CF88046F8B251
:101F200080F3118800BF00BF4046BDE8F08100008B
:101F3000484100242DE9F047074688461646C24628
:101F400007EB47011B4800EBC109D9F8140020B189
:101F5000012811D0022826D11EE0484600F02CFBB3
:101F60000546B54201D2002405E0344632465146CA
:101F7000484600F078FC18E0484600F01DFB054696
:101F8000B54201D2284600E030460446224651467A
:101F9000484600F068FC08E032465146484600F0EA
:101FA00027FC044601E0002400BF00BF2046BDE836
:101FB000F08700006041002470B505460C462046BD
:101FC000FEF71EFA0646324621462846FFF78CFFEA
:101FD00070BD0FB438B5044606A800906A46204686
:101FE000059900F007F8054600200090284638BC07
:101FF0005DF814FB2DE9F74F98B00D46144602A882
:1020000013904020149000201590189817900020ED
:10201000169000BF2E786D1C06B9FBE0252E73D1FB
:1020200000274FF0010A00BF2E78232E12D02B2E4E
:102030000CD02D2E02D0302E10D103E047F0010736
:102040006D1C0EE047F002076D1C0AE047F0040724
:102050006D1C06E047F008076D1C02E04FF0000A17
:1020600000BF00BFBAF1000FDED14FF0000900BF82
:102070002E78302E01DB392E00DD07E06D1CA6F135
:10208000300009EB890100EB4109F1E700BF0020B6
:10209000129080462E782E2E1ED16D1C28782A286C
:1020A00008D16D1C012012902168081D2060D1F814
:1020B000008011E000BF2E78302E01DB392E00DDCC
:1020C00009E0012012906D1CA6F1300008EB880198
:1020D00000EB4108EFE700BF2E7800BF6C2E01D067
:1020E000682E02D16D1C2E7800E000E0F6E700BFFC
:1020F000702E6CD009DC252E7BD0582E35D0632E67
:102100000AD0642E7AD113E07CE0732E3BD0752E7A
:102110001CD0782E72D127E02168081D2060D1F8EC
:1021200000A00AF0FF0B594613A800F03FFB66E041
:102130002168081D2060D1F800A043460A225146BC
:1021400013A8CDE9009700F045FA58E02168081D72
:102150002060D1F800A043460A22514613A8CDE9D9
:10216000009700F0ADFA4AE000BF2168081D20602A
:10217000D1F800A043461022514613A8CDE900979C
:1021800000F09EFA3BE02168081D2060D1F800B005
:10219000BBF1000F03D10FF2A40B0020129000BF7F
:1021A0009BF800600BF1010B06B90EE0129818B114
:1021B000B8F1000F00D108E0314613A800F0F6FA9C
:1021C000A8F1010816980028EADA00BF17E0216894
:1021D000081D2060D1F800A0002008210B46102225
:1021E000CDE90010514613A800F06AFA07E000E0BC
:1021F00004E0252113A800F0D9FA00E000BF00BFD9
:102200006D1C03E0314613A800F0D0FA16980028A0
:10221000BFF600AF00BF169800280ADD159820B160
:1022200002A9159A1898FFF75FFEDDE9151008441A
:10223000169016981BB0BDE8F08F0000284E554C44
:102240004C29000000BFFFF7C7FD05480068401C8F
:10225000034908604FF47A7000F021FCF3E70000B6
:102260000800002410B500BF502080F31188BFF390
:102270004F8FBFF36F8F00BF01F026FD18B14FF0F5
:1022800080500449086000BF002080F3118800BF1F
:1022900010BD000004ED00E000B59DB04C210AA87F
:1022A000FEF7A3F8202102A8FEF79FF80220FEF710
:1022B00023FC00BF002001902148006820F00100AD
:1022C0001F4908600846006800F0010001901D48A1
:1022D000006820F4404040F480401A4908600846F5
:1022E000006800F44040019000BF00BF00BF1548E7
:1022F000006800F40050B0F5005FF8D102200A90A9
:1023000001200D9040200E90002013900AA8FEF7A7
:1023100037FF08B1FEF7CCF83F2002900020039071
:10232000049005900690079008900990012102A85A
:10233000FEF712FC08B1FEF7BBF81DB000BD0000AF
:102340002C0400581848025808B53B48006840F46F
:102350007000394908603948006800F00F0007280C
:1023600006D23648006820F00F00C01D33490860CF
:102370003348006840F001003149086000203049CE
:10238000103108602E4800682E4908402C4908602A
:102390002A48006800F00F00072806D9274800687F
:1023A00020F00F00C01D2549086000202449183185
:1023B0000860091D0860091D08602348204928316C
:1023C00008602248091D08602148091D0860002096
:1023D000091D08601E48091D08600020091D0860CD
:1023E0001B48091D08600020091D0860144800688A
:1023F00020F48020124908600020114960310860F3
:10240000144800686FF30F00B0F1005F02D20120A2
:10241000114908600A48DC30006840F06040084913
:10242000DC31086008460068009000BF43F2D2002B
:102430000A49086008BD000088ED00E00020005255
:10244000004402587FEDF6EA000202020000FF019C
:10245000800201010010005C088100510040005220
:1024600010B50248FFF74FFB10BD00000403002425
:1024700010B502682B4B98420ED0B0F1804F0BD0B4
:10248000294B984208D0294B984205D0284B9842B6
:1024900002D0284B984203D122F070024B681A43B5
:1024A000204B984217D0B0F1804F14D01E4B984269
:1024B00011D01E4B98420ED01D4B98420BD01D4B95
:1024C000984208D01C4B984205D01C4B984202D031
:1024D0001B4B984203D122F44072CB681A4322F07E
:1024E00080034C6943EA04028B68C3620B68836211
:1024F0000C4B98420BD00F4B984208D00E4B984291
:1025000005D00E4B984202D00D4B984201D10B6979
:102510000363036843F00403036001234361026023
:1025200010BD000000000140000400400008004011
:10253000000C004000040140004001400044014004
:102540000048014000BFFEE770B5144CA8212046AA
:10255000FDF74BFF03202061606111A0A0611349CA
:10256000E1614FF4806121620021A1626162E16258
:102570000BA020660E4961661021A166002121672B
:10258000E1666167002505E0C5F10F000949085CB7
:1025900060556D1C102DF7D370BD0000484100241C
:1025A0005465726D696E616C00000000F04100249A
:1025B000F0450024B040000810B501460A69CB6818
:1025C0009A4204D88C68641EE41AA01801E0D41A58
:1025D000601E10BD2DE9FC5F06460F4692469846E8
:1025E000DDE90C45002F01DA784200E038468346E9
:1025F0004FF0010903E09BFBFAFB09F10109D34508
:10260000F9DAC84500D9C14634B1002F03DB05F023
:102610000400042800D1641E05F0020010B1B8F1D6
:10262000000F11D005F0010070B96CB108E0641E14
:102630002021304600F0BAF8F068002800DA02E005
:102640000CB1A145F3D300BFF068002836DB002FA2
:1026500005DA7F422D21304600F0A8F807E005F0AA
:102660000400042803D12B21304600F09FF8F068C5
:10267000002823DB05F00200022814D105F0010038
:1026800088B9B8F1000F0ED16CB108E0641E30219A
:10269000304600F08BF8F068002800DA02E00CB158
:1026A000A145F3D300BFF068002807DB434652463C
:1026B00039463046CDE9004500F002F8BDE8FC9F00
:1026C0002DE9FC5F8046894615461E460C9CCDF8D8
:1026D00004900127BB4605E00198B0FBF5F001909E
:1026E0000BF1010B0198A842F6D25E4500D9B34622
:1026F0000D9800F00100D0B9CCB10D9800F00200A7
:10270000022803D116B93020009001E0202000906B
:1027100009E0641E4046009900F048F8D8F80C0023
:10272000002800DA02E00CB1A345F2D300BFD8F8CC
:102730000C00002835DB09E0012E01D9761E04E0EB
:10274000B9FBF7FAAA4500D201E06F43F4E700BFF6
:1027500000BFB9FBF7FA0AFB1799134810F80A10E3
:10276000404600F023F8D8F80C00002800DA03E017
:10277000B7FBF5F7002FECD100BF0D9800F001007A
:1027800078B174B109E0641E2021404600F00EF8D3
:10279000D8F80C00002800DA02E00CB1A345F2D30F
:1027A00000BFBDE8FC9F0000C140000870B50446B2
:1027B0000E46A568681C6168814206D320684655AC
:1027C000681CA060E068401CE060D4E90110884209
:1027D0000DD1A26821682069FFF786FBA1688842B5
:1027E00003D04FF0FF30E06001E00020A06070BD3A
:1027F0002DE9F05F0446894617464FF0000AE56868
:1028000000BFD4F81080A84503D9A8EB0500461EE8
:1028100004E0A5EB0800401CA1680E1AA068401B4C
:10282000B04201D9304601E0A068401B0646BE42D6
:1028300001D2304600E038460646606800EB050BE2
:10284000324649465846FDF7A9FDB244B144BF1B84
:102850003544A068A84200D10025E560002FD0D102
:102860005046BDE8F09F2DE9F047044689461546DD
:10287000E668A068871BAF420AD9606800EB060AC9
:102880002A4649465046FDF789FD7019E06014E07C
:10289000B846606800EB060A424649465046FDF7D6
:1028A0007DFDA5EB0708D4F804A009EB070142461B
:1028B0005046FDF773FDC4F80C80BDE8F0870000BA
:1028C00002480068C0F30220704700000CED00E0F1
:1028D00010B5002804DB0A07130E054A135406E05E
:1028E0000A07140E034A00F00F031B1FD45410BD37
:1028F00000E400E018ED00E002E008C8121F08C183
:10290000002AFAD170477047002001E001C1121F70
:10291000002AFBD1704700BFEFF3058008B101200A
:1029200070470020FCE7000088B0FFF7CBF900BF3C
:102930005348006800F4003000B139E000BF00BF28
:1029400000BFBFF34F8F00BF00BF00BF00BF00BF7D
:1029500000BFBFF36F8F00BF00BF00BF0020494919
:10296000086000BF00BF00BFBFF34F8F00BF00BFB4
:1029700000BF00BF00BF00BFBFF36F8F00BF00BF2D
:1029800000BF3F48006840F400303D49086000BF88
:1029900000BF00BFBFF34F8F00BF00BF00BF00BF2D
:1029A00000BF00BFBFF36F8F00BF00BF00BF00BFFD
:1029B00000BF334B1B6803F4803303B148E00023AE
:1029C0002F4C7034236000BF00BF00BFBFF34F8F98
:1029D00000BF00BF00BF231F1868C0F34E3100BF07
:1029E000C0F3C90200BF43F6E07303EA41134FF09E
:1029F000404404EA82742343224C1034236000BF15
:102A000000BF131EA2F10102EDD10B1EA1F10101C5
:102A1000E6D100BF00BF00BFBFF34F8F00BF00BFB4
:102A200000BF174B1B6843F48033154C236000BF75
:102A300000BF00BFBFF34F8F00BF00BF00BF00BF8C
:102A400000BF00BFBFF36F8F00BF00BF00BF00BF5C
:102A5000FDF7F6FEFFF720FCFFF78EF9FFF7FEF912
:102A60001C22094901A8FDF799FC002101A800F0EA
:102A70004FF80649086000F01EF800BFFEE70000AE
:102A800014ED00E050EF00E0744000080000002466
:102A900001460020842901D0CA1C1044704770B53B
:102AA000044625460DB1294600E00121084600F004
:102AB0002BFD002070BD10B500F082FD002010BD80
:102AC00038B50446002500200090FFF724FF90B1A0
:102AD0006946204600F0A2FF012801D0FF2038BD42
:102AE000009888B14FF0805008490860BFF34F8FBD
:102AF000BFF36F8F08E000231A461946204600F006
:102B0000B9FE012800D0FF252846E8E704ED00E0E3
:102B10007FB504460D46606998B1A06988B1B4F9E3
:102B20000800FFF7B5FF0646D4E90510CDE90061BE
:102B300002902B462269D4E9001001F057F8039067
:102B400013E0B4F90800FFF7A3FF064603A8CDE998
:102B50000060238A9AB22B46D4E9001001F014F8E1
:102B6000012802D0002004B070BD0398FBE70000EC
:102B70002DE9F04105460E461C4807681C480068D0
:102B8000001D00F081FB50B91948006890F82C1026
:102B90000120884017490968814316480160681C74
:102BA00038B936B112480168091D134800F0B6FB68
:102BB0001AE07C190E4800684460BC4207D20C48F9
:102BC0000168091D0D48006800F08EFB0CE0084804
:102BD0000168091D0A48006800F086FB0948006882
:102BE000844201D207480460BDE8F0815C00002403
:102BF0004800002460000024340500245000002414
:102C00004C0000247800002410B5044600F092FB2C
:102C100023480068401C224908602248006840B9E7
:102C2000204804600846006801280DD100F07EF9B4
:102C30000AE01D48006838B91A480068C06AE16AAD
:102C4000884201D81748046018480068401C17499A
:102C5000086094F82C100120884015490968084341
:102C600013490860E16A01EB8101124A02EB81001D
:102C7000211D00F053FB00F087FB0B48006868B192
:102C800008480068C06AE16A884207D24FF0805065
:102C900009490860BFF34F8FBFF36F8F10BD00006D
:102CA000580000244800002464000024740000241C
:102CB000600000245804002404ED00E010B516E084
:102CC00000F038FB0C48C068C468201D00F0DCFA36
:102CD0000A480068401E0949086009480068401E0B
:102CE0000749086000F050FB204600F04AF804480D
:102CF00000680028E4D110BD2005002458000024FD
:102D0000540000242DE9F04104460F4615464FF0CB
:102D10000008A66B206C48B9206800282CD1A06858
:102D200001F076F880460020A06025E07DB93946A4
:102D3000226C6068FDF732FB216C606808446060BB
:102D4000D4E90101884217D32068606014E0394655
:102D5000226CE068FDF722FB216CE068411AE1601B
:102D60002168E068884203D2216CA068411AE160C2
:102D7000022D01D106B1761E701CA0634046BDE84D
:102D8000F08110B5044694F8510030B9206B00F082
:102D900019FB204600F016FB1AE094F851000128B8
:102DA00003D1204600F00EFB12E094F851000228F7
:102DB00001D1012000E0002050B900BF502080F375
:102DC0001188BFF34F8FBFF36F8F00BF00BFFEE7C7
:102DD00010BD000030B54FF47053174800F00704E1
:102DE0002CB1C01D20F00700134C041B1B1B024616
:102DF000124C22600024114D6C60D018083820F06D
:102E000007000F4C206000240D4D2D686C600C4DA8
:102E10002D682C601146441A4C60094C24680C60E3
:102E2000084D4C682C60084D4C682C604FF00044F5
:102E3000064D2C6030BD00004805002484000024AD
:102E40008C0000249400002490000024A0000024A2
:102E500000BFFFF733FF064800680128F9D94FF09B
:102E6000805004490860BFF34F8FBFF36F8FF0E7C6
:102E70005804002404ED00E02DE9FF5F81460E4672
:102E80009246DDE90E7B109CAAF10100216B01EB5B
:102E9000800828F0070808F0070008B9012000E0C2
:102EA000002050B900BF502080F31188BFF34F8F2E
:102EB000BFF36F8F00BF00BFFEE786B1002507E0BC
:102EC000715D04F134004155705D00B902E06D1C84
:102ED000102DF5D300BF00214320015502E0002052
:102EE00084F83400072F00D30627E76267640020C8
:102EF000A064201D00F0F5F904F1180000F0F1F9CC
:102F00002461C7F10700A06164620020E06484F8D6
:102F1000500049464046039A00F0A0F92060BBF1FA
:102F2000000F01D0CBF80040BDE8FF9F10B5002492
:102F300007E004EB84010F4A02EB810000F0C4F9C2
:102F4000641C072CF5D30C4800F0BEF90B4800F0C8
:102F5000BBF90B4800F0B8F90A4800F0B5F90A4887
:102F600000F0B2F9044809490860044808490860BB
:102F700010BD000058040024E4040024F8040024D8
:102F80000C05002420050024340500244C000024F6
:102F90005000002410B50146164800E000680368A0
:102FA0008B42FBD30246436813448B4204D14368EF
:102FB0004C682344436001460A464B681344046846
:102FC000A34211D10C4C03682468A34208D04B687B
:102FD0000468646823444B6003681B680B6005E069
:102FE000054B1B680B6001E003680B60884200D052
:102FF000016010BD840000248C00002470B50546DB
:1030000000F098F9A86BE96B884201D1012400E037
:10301000002400F0B9F9204670BD00000A49096893
:10302000096809B9012100E0002121B14FF0FF3109
:10303000064A116006E004490968C968C868034A7D
:1030400041681160704700004C00002478000024A3
:103050000E480068401C08B9012000E0002050B96B
:1030600000BF502080F31188BFF34F8FBFF36F8FE5
:1030700000BF00BFFEE700BF502080F31188BFF300
:103080004F8FBFF36F8F00BF00BFFEE7A400002487
:1030900070B5044600F04EF994F9455010E0606AAE
:1030A00008B9012000E0002038B904F1240000F044
:1030B00013FF18B100F062FA00E003E0681E45B2A9
:1030C000002DECDC00BFFF2084F8450000F05CF927
:1030D00000F030F994F9445010E0206908B901205B
:1030E00000E0002048B904F1100000F0F5FE08B13E
:1030F00000F044FA681E45B200E001E0002DECDC6F
:1031000000BFFF2084F8440000F03EF970BD0000CD
:103110002DE9F04104464FF0000800F0A9FA4948B3
:10312000006808B9FFF756FE4748006820400028AD
:1031300070D1D4B1083404F00700B0B104F0070036
:10314000C0F10800044404F0070008B9012000E0C1
:10315000002050B900BF502080F31188BFF34F8F7B
:10316000BFF36F8F00BF00BFFEE7002C52D037487F
:10317000006884424ED8364E3046056801E02E463F
:103180002D686868A04202D228680028F7D12D482F
:10319000006885423ED0306800F108082868306039
:1031A0006868001B102819D92F1907F0070008B903
:1031B000012000E0002050B900BF502080F31188AA
:1031C000BFF34F8FBFF36F8F00BF00BFFEE768688C
:1031D000001B78606C603846FFF7DCFE1B496868AE
:1031E0000968081A194908600846006819490968F9
:1031F000884203D215480068164908601249686879
:103200000968084368600020286013480068401C73
:103210001149086000F0ACFE08F0070008B9012071
:1032200000E0002050B900BF502080F31188BFF3A8
:103230004F8FBFF36F8F00BF00BFFEE74046BDE872
:10324000F08100008C000024A000002490000024E5
:10325000840000249400002498000024001F4FF0F4
:1032600080730360001F21F001030360001F054B02
:10327000036014380260001F6FF0020303602038FF
:10328000704700005130000801460A69D1E9013059
:103290009860D1E9010358605068884201D188687C
:1032A0005060002008611068401E10601068704770
:1032B000034B0360034B0B608023136070470000D7
:1032C000B00000240401002400F1080141604FF027
:1032D000FF31816000F10801C160016100210160DE
:1032E000704700210161704710B502460B685C1CF5
:1032F0000CB9106907E002F1080000E0406844687A
:1033000024689C42FAD944684C604C68A16088608B
:1033100041600A611468641C146010BD42684A6010
:1033200093688B60936859609160086103685B1CC7
:103330000360704700BF502080F31188BFF34F8FA8
:10334000BFF36F8F00BF0E480068401C0C49086037
:1033500008460068012812D10A480068C0B208B9BE
:10336000012000E0002050B900BF502080F31188F8
:10337000BFF34F8FBFF36F8F00BF00BFFEE77047F3
:10338000A400002404ED00E00D48006850B900BF1F
:10339000502080F31188BFF34F8FBFF36F8F00BFB2
:1033A00000BFFEE706480068401E05490860084661
:1033B000006820B9002080F3118800BF00BF70476B
:1033C000A400002470B506463546002E44D0083DC2
:1033D0002C46224960680968084008B1012000E0D5
:1033E000002050B900BF502080F31188BFF34F8FE9
:1033F000BFF36F8F00BF00BFFEE7206808B9012050
:1034000000E0002050B900BF502080F31188BFF3C6
:103410004F8FBFF36F8F00BF00BFFEE70F4960689B
:1034200009680840C0B12068B0B90C4960680968F3
:103430008843606000F01CF9094960680968084425
:10344000074908602046FFF7A5FD06480068401CB4
:103450000449086000F08CFD70BD0000A00000244D
:10346000900000249C00002400204FF0E02108611F
:103470008861064800684FF47A71B0FBF1F0401E95
:103480004FF0E02148610720086170471C000024CC
:1034900070B5FCF769FF0446102C16D304F1E02048
:1034A00090F8F05315480078854201DB012000E0D8
:1034B000002050B900BF502080F31188BFF34F8F18
:1034C000BFF36F8F00BF00BFFEE70D48006800F438
:1034D000E0600C490968884201D8012000E0002022
:1034E00050B900BF502080F31188BFF34F8FBFF356
:1034F0006F8F00BF00BFFEE770BD0000A800002472
:103500000CED00E0AC00002470B504460025D4B1F9
:103510001248006808B9012000E0002050B900BF3F
:10352000502080F31188BFF34F8FBFF36F8F00BF20
:1035300000BFFEE700F09CF800212046FFF718FBD3
:1035400000F016FD05463DB94FF080500449086073
:10355000BFF34F8FBFF36F8F70BD0000800000245A
:1035600004ED00E00349096801600349096841600E
:1035700070470000700000245C0000240120014915
:10358000086070476C00002470B504460D4654B9BD
:1035900000BF502080F31188BFF34F8FBFF36F8FB0
:1035A00000BF00BFFEE70548016818312046FFF75D
:1035B0009BFE01212846FFF7DBFA70BD480000247E
:1035C00010B586B000200590049003AA04A905A8B0
:1035D000FFF76EFE0022DDE904101346CDE900215D
:1035E00002901CA11D48039A00F000FB1C490860D2
:1035F0000846006808B1012400E00024012C15D120
:1036000000BF502080F31188BFF34F8FBFF36F8F3F
:1036100000BF4FF0FF3013490860012012490860D5
:1036200000201249086000F071F810E0601C08B139
:10363000012000E0002050B900BF502080F3118825
:10364000BFF34F8FBFF36F8F00BF00BFFEE706B021
:1036500010BD000049444C4500000000512E0008F8
:103660007C00002478000024640000245C00002416
:1036700002480068401C014908607047800000242F
:103680001D48006818B101201C49086032E0002084
:103690001A4908601A480068B0FA80F0C0F11F01AA
:1036A00001EB8100174A52F8200008B1012000E028
:1036B000002050B900BF502080F31188BFF34F8F16
:1036C000BFF36F8F00BF00BFFEE701EB81020D4B20
:1036D00003EB820042685268426000F108024368CE
:1036E000934202D14268526842604268D268064BF7
:1036F0001A6000BF70470000800000246C000024A6
:103700006000002458040024480000241CB55248DE
:1037100000685249884201D0012000E0002050B9E1
:1037200000BF502080F31188BFF34F8FBFF36F8F1E
:1037300000BF00BFFEE7484800684849491E88426C
:1037400001D0012000E0002050B900BF502080F3DC
:103750001188BFF34F8FBFF36F8F00BF00BFFEE72D
:103760003F49084600780190FF200A46107008463D
:10377000007800909DF8000000F0F0009DF8002017
:10378000904201D1012000E0002050B900BF50203C
:1037900080F31188BFF34F8FBFF36F8F00BF00BF5F
:1037A000FEE79DF8000000F050002E4A1070072040
:1037B0002D4A106009E02C480068401E2A4A10601B
:1037C0009DF800004006000E00909DF8000000F0FB
:1037D00080008028EFD024480068C0F1070004284A
:1037E00001D1012000E0002050B900BF502080F33B
:1037F0001188BFF34F8FBFF36F8F00BF00BFFEE78D
:10380000194800680002184A10601046008800F449
:10381000E0601060124A019810700F482030006874
:1038200040F470000C49203108600846006840F000
:1038300070400860FFF718FE00200C490860FCF794
:103840005BFD0B48006840F0404009490860FCF708
:103850003FFD00201CBD000000ED00E071C20F41E3
:1038600000E400E0A8000024AC000024A400002430
:1038700034EF00E02DE9FF4383B0064688461D463D
:103880004FF00009344654B900BF502080F311882E
:10389000BFF34F8FBFF36F8F00BF00BFFEE7B8F1DC
:1038A000000F01D1206C08B9012000E0002050B9C0
:1038B00000BF502080F31188BFF34F8FBFF36F8F8D
:1038C00000BF00BFFEE7022D02D1E06B012801D14D
:1038D000012000E0002050B900BF502080F3118883
:1038E000BFF34F8FBFF36F8F00BF00BFFEE700F045
:1038F000DBF908B9059808B9012000E0002050B9AB
:1039000000BF502080F31188BFF34F8FBFF36F8F3C
:1039100000BF00BFFEE700BFFFF70CFDA06BE16B2F
:10392000884201D3022D28D12A4641462046FFF77E
:10393000E9F90746606A08B9012000E0002068B98B
:1039400004F1240000F0C8FA88B14FF080503249E9
:103950000860BFF34F8FBFF36F8F08E03FB14FF0A8
:1039600080502D490860BFF34F8FBFF36F8FFFF773
:103970000BFD012007B0BDE8F083059818B9FFF7EB
:1039800003FD0020F6E7B9F1000F04D101A8FFF70D
:10399000E9FD4FF00109FFF7F7FCFFF769FEFFF7BC
:1039A000C9FC94F94400401C10B9002084F844007C
:1039B00094F94500401C10B9002084F84500FFF739
:1039C000E3FC05A901A800F099F8F0B92046FFF73B
:1039D00015FBA0B104F110000599FFF7D5FD2046B5
:1039E000FFF756FB00F0C4FA002895D14FF0805045
:1039F00009490860BFF34F8FBFF36F8F8CE72046F4
:103A0000FFF746FB00F0B4FA86E72046FFF740FBDD
:103A100000F0AEFA0020ADE704ED00E02DE9F0473C
:103A200006460F46344654B900BF502080F3118833
:103A3000BFF34F8FBFF36F8F00BF00BFFEE7206C57
:103A400008B9012000E0002050B900BF502080F3E9
:103A50001188BFF34F8FBFF36F8F00BF00BFFEE72A
:103A6000206808B9A06808B9012000E0002050B91A
:103A700000BF502080F31188BFF34F8FBFF36F8FCB
:103A800000BF00BFFEE7FFF703FD00BF5021EFF3CB
:103A9000118081F31188BFF34F8FBFF36F8F00BF89
:103AA0000546D4F83890E06B48451ED994F945A0F6
:103AB00009F10100A0630AF1010070B9606A08B958
:103AC000012000E0002068B904F1240000F004FAAD
:103AD00040B13FB10120386004E00AF1010040B27A
:103AE00084F845004FF0010801E04FF0000800BFE6
:103AF00085F3118800BF4046BDE8F08770B50546E4
:103B00000C4655B900BF502080F31188BFF34F8F8A
:103B1000BFF36F8F00BF00BFFEE754B900BF502056
:103B200080F31188BFF34F8FBFF36F8F00BF00BFCB
:103B3000FEE7FFF7FFFB124802686868131A206867
:103B4000401C08B9002617E00E4928680968884219
:103B500004D06868904201D801260DE020689842A0
:103B600007D92068C01A20602846FFF7FBFC002612
:103B700002E0002020600126FFF706FC304670BD01
:103B80005C000024700000242DE9FF4F85B08046C2
:103B900089461746DDE912ABB800FFF7B9FA0646C9
:103BA00056B15420FFF7B4FA04460CB1266304E082
:103BB0003046FFF707FC00E000248CB1002084F8B9
:103BC0005100CDE900ABCDE902403A4649464046B6
:103BD000089BFFF751F92046FFF716F8012501E091
:103BE0004FF0FF35284609B0BDE8F08F2DE9F04FC2
:103BF00085B00746884691469A46DDE90EB6109C88
:103C00000EB1012000E0002050B900BF502080F329
:103C10001188BFF34F8FBFF36F8F00BF00BFFEE768
:103C20000CB1012000E0002050B900BF502080F30B
:103C30001188BFF34F8FBFF36F8F00BF00BFFEE748
:103C4000542003900398542801D1012000E0002063
:103C500050B900BF502080F31188BFF34F8FBFF3DE
:103C60006F8F00BF00BFFEE700BFB4B1AEB1254605
:103C70002C462E63022085F85100002004A95346EB
:103C80004A46CDE900B1CDE9025041463846FFF73A
:103C9000F3F82846FEF7B8FF01E0002004900498EE
:103CA00005B0BDE8F08F00000549096809B9012099
:103CB00005E00449096809B9022000E000207047C6
:103CC00064000024800000242DE9F0414FF000083A
:103CD0004448006800287CD143480068451C42489D
:103CE000056015BB41480068006808B9012000E084
:103CF000002050B900BF502080F31188BFF34F8FD0
:103D0000BFF36F8F00BF00BFFEE738480768384831
:103D10000068364908603648076036480068401C2D
:103D200034490860FFF77AF900BF334800688542DC
:103D30003CD300BF2D480068006808B9012000E0AE
:103D4000002020B14FF0FF302B4908602DE02748BC
:103D50000068C068C4686668B54202D2264806603A
:103D600023E0201DFFF790FAA06A18B104F11800B3
:103D7000FFF78AFA94F82C10012088401F4909683F
:103D800008431E490860E16A01EB81011C4A02EB0D
:103D90008100211DFFF7C2FA1A49E06A0968C96A61
:103DA0008842C7D34FF00108C4E700BF1548006838
:103DB000C06A00EB8000124951F82000012801D9A7
:103DC0004FF001081048006808B14FF0010805E005
:103DD000FFE70E480068401C0C4908604046BDE8FB
:103DE000F0810000800000245C0000244C000024CE
:103DF000500000247000002478000024600000249B
:103E000058040024480000246C00002468000024AA
:103E100070B505462C460026002D55D02B4800686D
:103E2000844201D1012000E0002050B900BF5020A1
:103E300080F31188BFF34F8FBFF36F8F00BF00BFB8
:103E4000FEE7A06C50B900BF502080F31188BFF38B
:103E50004F8FBFF36F8F00BF00BFFEE7A06C401E07
:103E6000A064616CE06A88422ED0A06C60BB201D0B
:103E7000FFF70AFA78B9E06A00EB8000144951F8BC
:103E8000200040B994F82C1001208840114909689D
:103E9000814310480160606CE062E06AC0F1070095
:103EA000A06194F82C10012088400A490968084351
:103EB00008490860E16A01EB8101054A02EB8100D3
:103EC000211DFFF72BFA0126304670BD4800002463
:103ED000580400246000002470B50646F068C468E9
:103EE00054B900BF502080F31188BFF34F8FBFF348
:103EF0006F8F00BF00BFFEE704F11800FFF7C4F9A1
:103F000015480068A8B9201DFFF7BEF994F82C10D9
:103F10000120884011490968084310490860E16A96
:103F200001EB81010E4A02EB8100211DFFF7F6F93A
:103F300004E004F118010B48FFF7F0F90A49E06AC0
:103F40000968C96A884204D9012501200749086027
:103F500000E00025284670BD800000246000002499
:103F6000580400240C050024480000246C000024A0
:103F700070B5002400263648006850B900BF5020B4
:103F800080F31188BFF34F8FBFF36F8F00BF00BF67
:103F9000FEE7FFF7CFF92E480068401E2C49086065
:103FA0000846006800284FD12A48006800284BD0F6
:103FB00024E02948C068C46804F11800FFF764F9D8
:103FC000201DFFF761F994F82C1001208840234947
:103FD0000968084321490860E16A01EB8101204A30
:103FE00002EB8100211DFFF799F91E49E06A09687B
:103FF000C96A884202D301201B490860164800683C
:1040000008B9012000E000200028D2D00CB1FFF751
:1040100005F81648056865B100BFFFF755FE10B1F9
:104020000120114908606D1E002DF6D100200F49B6
:1040300008600D48006838B1012630070C49086057
:10404000BFF34F8FBFF36F8FFFF79EF9304670BD00
:1040500080000024580000240C0500246000002487
:1040600058040024480000246C0000246800002448
:1040700004ED00E0D44000084522000800000000E4
:10408000000000000001000000000000000000002F
:1040900000000000000000000102030406070809F8
:1040A000303132333435363738394142434445466E
:1040B0000000000000005454522052454747455329
:1040C0000030313233343536373839414243444594
:1040D0004600000064656661756C745461736B0022
:1040E0000041000800000024B0000000F82800088B
:1040F000B0410008B0000024504900000829000821
:1041000000000000000000000000000000000000AF
:104110000000000010000000010000000090D0032B
:104120000090D0030000000000000000000000002C
:1041300000000000590400084D0400088D04000828
:10414000690400085104000800000000000000009D
:10415000000000000000000000000000000000005F
:10416000000000000000000000000000000000004F
:10417000000000000000000000000000000000003F
:10418000000000000000000000000000000000002F
:10419000000000000000000000000000000000001F
:1041A00000000000AAAAAAAA000000000000000067
:040000050800029954
:00000001FF
