:020000040800F2
:1000000048CC00247103000865590008E353000838
:10001000615900088F0500083168000800000000E1
:10002000000000000000000000000000B102000815
:1000300093050008000000000D030008475C00085D
:100040008F0300088F0300088F0300088F03000848
:100050008F0300088F0300088F0300088F03000838
:100060008F0300088F0300088F0300088F03000828
:100070008F0300088F0300088F0300088F03000818
:100080008F0300088F0300088F0300088F03000808
:100090008F0300088F0300088F0300088F030008F8
:1000A0008F030008195E00088F0300088F03000803
:1000B0008F0300088F0300088F0300088F030008D8
:1000C0008F0300088F0300088F0300088F030008C8
:1000D0008F030008216800088F0300088F030008C1
:1000E0008F0300088F030008000000008F03000842
:1000F0008F0300088F0300088F0300088F03000898
:100100008F0300088F0300088F0300088F03000887
:100110008F0300088F0300088F0300088F03000877
:100120008F0300088F0300088F0300088F03000867
:100130008F030008490600088F0300088F0300089A
:1001400000000000000000000000000000000000AF
:100150008F0300088F0300088F0300088F03000837
:100160008F0300088F0300088F0300088F03000827
:100170008F0300088F0300088F0300088F03000817
:100180008F0300088F0300088F0300088F03000807
:100190008F0300088F0300088F0300088F030008F7
:1001A0008F0300088F0300088F0300088F030008E7
:1001B0008F0300088F0300088F0300088F030008D7
:1001C0008F0300088F0300088F0300088F030008C7
:1001D0008F0300088F0300088F0300088F030008B7
:1001E0008F0300088F0300088F0300088F030008A7
:1001F0008F0300088F0300088F0300088F03000897
:100200008F0300088F0300088F0300088F03000886
:100210008F0300088F0300088F0300088F03000876
:100220008F0300088F0300088F0300080000000000
:100230008F0300088F030008000000008F030008F0
:100240008F0300088F0300088F0300088F03000846
:100250008F0300088F0300088F0300088F03000836
:100260008F0300088F0300088F0300088F03000826
:100270008F0300088F0300088F03000800000000B0
:100280008F0300088F0300088F03000800000000A0
:10029000000000008F030008DFF810D000F03AF9EA
:1002A00000480047F9B80008AFF3008048CC0024AC
:1002B0002C4B19680868B0E8F04F80F30988BFF349
:1002C0006F8F4FF0000080F311887047000000002E
:1002D00008480068006880F308884FF0000080F349
:1002E000148862B661B6BFF34F8FBFF36F8F00DF24
:1002F00000BF00BF08ED00E0DFF80C00016841F42A
:1003000070010160704700BF88ED00E0EFF30980E5
:10031000BFF36F8F134B1A681EF0100F08BF20ED4C
:10032000108A20E9F04F106009B44FF0500080F3BC
:100330001188BFF34F8FBFF36F8F19F08DF94FF016
:10034000000080F3118809BC19680868B0E8F04F14
:100350001EF0100F08BFB0EC108A80F30988BFF3BD
:100360006F8F7047E8490024EFF305807047000065
:10037000074880470748804707480047FEE7FEE7F1
:10038000FEE7FEE7FEE7FEE7FEE7FEE7FEE7FEE745
:10039000AD0E00081D5D0008990200082DE9F05F10
:1003A0000546002092469B468846064681464024E4
:1003B0001BE0284641464746224600F09BF853463C
:1003C0005A46C01A914110D311461846224600F0F1
:1003D00082F82D1A67EB01084F46224601200021C2
:1003E00000F079F817EB00094E41201EA4F101043A
:1003F000DFDC484631462A464346BDE8F09F000010
:10040000004870474CAD01080649074A0868504348
:1004100043F23902104408604008704701490860FF
:1004200070470000404B00246D4EC64110B5431A82
:10043000934209D28318881803E010F8011D03F8CD
:10044000011D521EF9D210BD40EA01039B0703D0E3
:1004500009E008C9121F08C0042AFAD203E011F803
:10046000013B00F8013B521EF9D210BDD2B201E0AF
:1004700000F8012B491EFBD270470022F6E710B5A9
:1004800013460A4604461946FFF7F0FF204610BD02
:1004900030B504460020034600E05B1C934203D2C3
:1004A000E05CCD5C401BF8D030BD30B50B4601465A
:1004B00000202022012409E021FA02F59D4205D303
:1004C00003FA02F5491B04FA02F52844151EA2F1AD
:1004D0000102F1DC30BD202A04DB203A00FA02F1EF
:1004E000002070479140C2F1200320FA03F3194322
:1004F00090407047202A04DB203A21FA02F00021C4
:10050000704721FA02F3D040C2F120029140084323
:1005100019467047064C074D06E0E06840F00103BD
:1005200094E8070098471034AC42F6D3FFF7B8FEC2
:10053000BCAE0108DCAE010870B58C1810F8015B88
:1005400015F0070301D110F8013B2A1106D110F86C
:10055000012B03E010F8016B01F8016B5B1EF9D170
:100560002B0705D40023521E0DD401F8013BFAE7F6
:1005700010F8013BCB1A921C03E013F8015B01F861
:10058000015B521EF9D5A142D8D3002070BD00BF37
:10059000FEE7704710B5002210E002EB4204036949
:1005A00003EBC40100230B604B608B60CB600B61DD
:1005B0004B6100F1480343F82210521C042AECD38B
:1005C0000024C46504668466C466846503240368E5
:1005D00003F58053C3F83041036803F58053046981
:1005E000C3F81C4103694833046804F58054C4F817
:1005F000283110BD10B500220EE002EB4204C368A2
:1006000003EBC40100230B604B608B60CB6000F1F7
:10061000180343F82210521C042AEED300248462EB
:100620000324036803F58053C3F82C41036803F5E2
:100630008053C468C3F81441036803F58053C46849
:10064000C3F8204110BD000010B5024801F080F948
:1006500010BD0000284C002410B5A2B004460120B3
:100660008DF83300002012908DF841008DF8430082
:1006700001208DF828008DF856008DF832000020FA
:100680008DF84C0001208DF8840040030F9000206D
:100690008DF85C0018908DF885008DF886004FF479
:1006A000C360169000208DF830000B9001208DF86B
:1006B000350000208DF836008DF840001D901B900D
:1006C00014908DF864008DF87A0001208DF84200B6
:1006D0002020209001208DF8440000208DF8550046
:1006E0004FF0405009904FF480400E9000208DF85C
:1006F000310002201F9000208DF878008DF87900DD
:100700008DF8540001208DF8340000201A9001204B
:100710008DF8700009A9204600F0A8FA01208DF894
:1007200004000290002000908DF81C008DF80D0050
:100730008DF80C004FF40010069000208DF8140086
:100740004FF40010049000208DF81D004FF4067047
:1007500008906946204600F02BFA22B010BD002018
:10076000704710B501F050FF10BD000010B50248F1
:1007700001F0B8FC002010BD284C002470B50446E0
:100780000D46164633462A462146044801F099FB99
:1007900010B14FF0FF3070BD0020FCE7284C002462
:1007A00070B504460D46164633462A46214604488F
:1007B00001F0D6FD10B14FF0FF3070BD0020FCE716
:1007C000284C00242DE9F04F06460B46924606F1D0
:1007D00018042269D4F810804FF0000C54F822104D
:1007E0009D68E346C86800F00040B0F1004F04D0B7
:1007F00004F1140050F8220010B10220BDE8F08F7F
:10080000187800F00400C8B3C8686FF30F00D3F87D
:1008100024E040EA0E00C860C86840F48030C86038
:100820003068006E40F48010D6F800E0CEF860002A
:10083000187800F0080008B3B3F82CE088686EF36D
:100840001F408860C86840F40030C860C86820F461
:100850004020D3F830E040EA0E00C8603068406EB7
:1008600040F48010D6F800E0CEF864003068006DE7
:1008700040F08060D6F800E0CEF85000187800F024
:10088000100058B188686FF30D00D3F818E040EA03
:100890000E008860C86840F08060C860187800F07A
:1008A000040018B9187800F0100078B3C86840F058
:1008B0008040C86000BF00BF00BFBFF35F8F00BFB4
:1008C00000BF00BFC86840F00040C86000BF521CB5
:1008D000042A00D3121F00BF54F822100CF1010C9F
:1008E000C86800F00040B0F1004F10D154F8281053
:1008F00000BF00BF00BFBFF35F8F00BF00BF00BFDE
:10090000C86820F00040C860022077E7FFE70CF1DC
:10091000010C2868086088686FF30D00D5F804E0C2
:1009200040EA0E008860A86868B1AD682868486031
:100930008868DFF878E200EA0E00B5F804E040EAE3
:100940000E40886007E0002048608868DFF85CE2BD
:1009500000EA0E008860187800F01000A0B1C868A6
:1009600020F4F000B3F820E040EACE40C860C86848
:100970006FF31100D3F81CE040EA0E00C860C868AD
:1009800040F48020C8601FE0C8686FF30E00D3F801
:1009900004E040EA0E00C860187800F0010038B1A9
:1009A000C86820F44030D3F814E040EA0E00C86074
:1009B000187800F0200038B1C86820F04060D3F803
:1009C00010E040EA0E00C860187800F0040038B16A
:1009D000886820F44040D3F828E040EA0E008860A0
:1009E000C86840F00050C860C86820F08040C86007
:1009F00000BF00BF00BFBFF35F8F00BF00BF00BFDD
:100A0000C86840F00040C860187800F0020038B1B3
:100A1000C86820F06070D3F80CE040EA0E00C860AF
:100A200096E0C86820F08050C86000BF521C042ABD
:100A300000D3121F00BF54F82210C86820F00050E5
:100A4000C860C86800F00040B0F1004F04D004F165
:100A5000140050F82200F8B1424654F822104FF02A
:100A6000000915E000BF00BF00BFBFF35F8F00BFEC
:100A700000BF00BFC86820F00040C86000BF521C23
:100A8000042A00D3121F00BF54F8221009F10109F3
:100A9000E145E7D30220B1E60CF1010CAD6828680E
:100AA000086088686FF30D00D5F804E040EA0E0096
:100AB0008860A86868B1AD68286848608868DFF811
:100AC000ECE000EA0E00B5F804E040EA0E40886071
:100AD00007E0002048608868DFF8D0E000EA0E00F8
:100AE0008860187800F0100060B1C8686FF31100DA
:100AF000D3F81CE040EA0E00C860C86840F48020CB
:100B0000C86013E0C8686FF30E00D3F804E040EA51
:100B10000E00C860187800F0010038B1C86820F4F1
:100B20004030D3F814E040EA0E00C8600BF1010B2E
:100B300000BF00BF00BFBFF35F8F00BF00BF00BF9B
:100B4000C86840F00040C860C86820F08040C860B5
:100B5000A86800287FF465AFBAF1000F04D0886858
:100B600040F00040886003E0886820F00040886022
:100B7000C86840F08050C86004F1140E606A4EF8F6
:100B80002200226100BFEFF31080074600BF012062
:100B900080F3108800BF0BF1010EA06A7044A062C0
:100BA00000BF87F3108800BF002027E6FFFF00C0CA
:100BB00010B5036803F580531B6847F60204A3438E
:100BC0000C682343046804F5805423600C798B6817
:100BD00043EA04330C7B43EAC432036803F58053D1
:100BE0005B684DF20104A3431343046804F5805489
:100BF00063604C7B0B6A43EA0442036803F580534D
:100C0000D3F80031164C23401343046804F5805494
:100C1000C4F800310C7D0B6943EA04134C7F43EAAE
:100C20000432036803F58053D3F804310D4C23409C
:100C30001343046804F58054C4F804310C7F8B69B5
:100C400043EAC472036803F58053D3F80831064CB5
:100C500023401343046804F58054C4F8083110BDE0
:100C600000C0FEFFEFEFC0FFFFFFC07F10B50C68B4
:100C70008B6823430C7943EAC4630C7B43EAC45377
:100C80004C7B43EA84538C7B43EA4453CC7B43EA5A
:100C900004530C7C0CB9012400E0002443EAC44353
:100CA0004C7C0CB9012400E0002443EA44438C7CD2
:100CB00043EA04434C6923438C6923430C7F43EA92
:100CC00004334C7F43EAC4238C7F0CB9012400E039
:100CD000002443EA8423CC7F43EA442391F8204054
:100CE0000CB9012400E0002443EA042351F8244F06
:100CF00023430C7943EA04138C6843EA0402036833
:100D00001B683D4C23401343046823600B7E5B0645
:100D10000C7D43EA04630C7B43EA84434C7B43EA47
:100D200044438C7B24390CB9012400E0002443EABD
:100D300004434C6B43EA040203685B682F4C234076
:100D400013430468636091F840404B6C43EA04220B
:100D50000368DB6840F20F14A34313430468E360A5
:100D600091F854400B6D43EA440391F84C400CB9A0
:100D7000012400E0002443EAC41331F8484F43EA59
:100D8000044203681B6F4FF60D742340134304683D
:100D900023678B7B4C7B43EA44020368D3F8903093
:100DA00023F0030313430468C4F890300368D3F8B6
:100DB000003D23F072030C6923430468C4F8003D2E
:100DC0000C7E4B6948390CB9012400E0002443EA49
:100DD000841391F8614043EA041391F8624043EAB6
:100DE000C4020368D3F8303D23F07B031343046847
:100DF000C4F8303D10BD0000838004000080F8C0BE
:100E00002DE9F8430446002000904FF00109A56E3B
:100E100004F1480050F82560E76E24E0306958B9C5
:100E2000684601F0CDF8009810B94FF0000903E0D2
:100E30000098306100983060B9F1000F13D0A06DB8
:100E400018B14FF04140F06002E04FF00140F06017
:100E500000BF6D1C042D00D32D1F00BF04F14800FE
:100E600050F825607F1E17B1B9F1000FD6D1E06EA2
:100E7000B84216D0E81C00F0030800BF00BF00BF56
:100E8000BFF35F8F00BF00BF00BF08EB48012069C0
:100E900000EBC101206800F58050C0F82811A5665C
:100EA000E766BDE8F88372B600BFFEE70748006852
:100EB00040F002000549086000BF04480838006897
:100EC00000F400500028F8D0704700000C48025889
:100ED0002DE9F041044601F097FB804614B901204A
:100EE000BDE8F08194F83500022808D080206065C4
:100EF00000BF002084F8340000BF0120F0E7FE4965
:100F00002068884249D0FC4918312068884244D082
:100F1000F9493031206888423FD0F749483120688C
:100F200088423AD0F44960312068884235D0F2498D
:100F300078312068884230D0EF499031206888426B
:100F40002BD0ED49A8312068884226D0EB49206893
:100F5000884222D0E9491831206888421DD0E749EB
:100F600030312068884218D0E449483120688842EE
:100F700013D0E2496031206888420ED0DF497831D1
:100F80002068884209D0DD4990312068884204D029
:100F9000DA49A8312068884201D1012000E0002010
:100FA00068B12068006820F01E0021680860206891
:100FB000406920F0800021684861256806E02068CB
:100FC000006820F00E00216808602568CA49206882
:100FD000884270D0C8491831206888426BD0C64911
:100FE00030312068884266D0C34948312068884241
:100FF00061D0C1496031206888425CD0BE497831F7
:101000002068884257D0BC4990312068884252D02D
:10101000B949A831206888424DD0B8492068884233
:1010200049D0B64918312068884244D0B34930319C
:10103000206888423FD0B1494831206888423AD080
:10104000AE4960312068884235D0AC49783120689B
:10105000884230D0A9499031206888422BD0A749D6
:10106000A8312068884226D0A5492068884222D02D
:10107000A3491431206888421DD0A1492831206835
:10108000884218D09E493C312068884213D09C4940
:101090005031206888420ED09949643120688842D6
:1010A00009D0974978312068884204D094498C311E
:1010B0002068884201D1012000E0002028B1206E84
:1010C000006820F48070216E08608B492068884297
:1010D00049D0894918312068884244D08649303146
:1010E000206888423FD084494831206888423AD0FD
:1010F000814960312068884235D07F497831206845
:10110000884230D07C499031206888422BD07A497F
:10111000A8312068884226D078492068884222D0A9
:1011200076491831206888421DD0744930312068D2
:10113000884218D0714948312068884213D06F49DD
:101140006031206888420ED06C497831206888422E
:1011500009D06A4990312068884204D06749A83193
:101160002068884206D12068006820F001002168CC
:10117000086005E02068006820F001002168086030
:1011800011E001F041FAA0EB080005280BD920205E
:101190006065032084F8350000BF002084F8340027
:1011A00000BF01209CE6286800F001000028E8D17B
:1011B00051492068884249D04F49183120688842F7
:1011C00044D04D493031206888423FD04A494831A7
:1011D000206888423AD0484960312068884235D03A
:1011E000454978312068884230D0434990312068A1
:1011F00088422BD04049A8312068884226D03F49F8
:101200002068884222D03D491831206888421DD08C
:101210003A4930312068884218D03849483120682E
:10122000884213D035496031206888420ED0334956
:1012300078312068884209D030499031206888424E
:1012400004D02E49A8312068884201D1012000E055
:10125000002040B1A66D94F85C0000F01F013F2013
:101260008840B06007E0A76D94F85C0000F01F01B3
:1012700001208840786020492068884276D01E4945
:1012800018312068884271D01B493031206888426B
:101290006CD0194948312068884267D016496031BE
:1012A0002068884262D014497831206888425DD035
:1012B000114990312068884258D00F49A8312068E0
:1012C000884253D00D49206888424FD00B491831CD
:1012D000206888424AD0094930312068884245D088
:1012E000064948312068884240D00449603120686E
:1012F00088423BD0014905E0100002401004024042
:10130000085402587831206888422FD02549206837
:1013100088422BD0234918312068884226D02249A0
:101320002068884222D020491431206888421DD08C
:101330001D4928312068884218D01B493C3120685B
:10134000884213D018495031206888420ED016497F
:1013500064312068884209D0134978312068884276
:1013600004D011498C312068884201D1012000E06D
:10137000002068B1D4E919104860E06E40B1E06E19
:10138000006820F48070E16E0860D4E91C104860A9
:10139000012084F8350000BF002084F8340000BF2D
:1013A00000BF9DE5A00402400854025870B50446F1
:1013B0000CB9012070BD94F83500022803D08020BC
:1013C00060650120F6E7DC492068884249D0DA49A7
:1013D00018312068884244D0D7493031206888428B
:1013E0003FD0D5494831206888423AD0D24960314F
:1013F0002068884235D0D04978312068884230D082
:10140000CD499031206888422BD0CB49A831206843
:10141000884226D0C9492068884222D0C74918315D
:10142000206888421DD0C54930312068884218D0D4
:10143000C24948312068884213D0C04960312068D1
:1014400088420ED0BD4978312068884209D0BB4916
:1014500090312068884204D0B849A8312068884279
:1014600001D1012000E00020F0B3042084F8350011
:10147000B149206888424BD0AF4918312068884272
:1014800046D0AD4930312068884241D0AA49483120
:10149000206888423CD0A84960312068884237D013
:1014A000A54978312068884232D0A349903120681C
:1014B00088422DD0A049A8312068884228D09F4971
:1014C0002068884224D09D491831206888421FD066
:1014D0009A493031206888421AD0984948312068AA
:1014E000884215D0954900E020E0603120688842AC
:1014F0000ED0924978312068884209D08F499031C6
:101500002068884204D08D49A8312068884206D1DD
:101510002068006820F001002168086009E1206867
:10152000006820F001002168086002E1206800687E
:1015300020F00E00216808607F492068884249D069
:101540007D4918312068884244D07B493031206879
:1015500088423FD078494831206888423AD076495D
:1015600060312068884235D07349783120688842DC
:1015700030D071499031206888422BD06E49A83113
:101580002068884226D06D492068884222D06B4965
:101590001831206888421DD068493031206888425F
:1015A00018D0664948312068884213D063496031B9
:1015B000206888420ED0614978312068884209D07D
:1015C0005E4990312068884204D05C49A831206887
:1015D000884206D12068006820F001002168086078
:1015E00005E02068006820F0010021680860524989
:1015F0002068884270D050491831206888426BD0EA
:101600004D4930312068884266D04B4948312068C6
:10161000884261D048496031206888425CD04649A0
:1016200078312068884257D04349903120688842F9
:1016300052D04149A831206888424DD03F492068A6
:10164000884249D03D4918312068884244D03B49FE
:101650003031206888423FD038494831206888427C
:101660003AD0364960312068884235D033497831E4
:101670002068884230D031499031206888422BD090
:101680002E49A8312068884226D02D4920688842FA
:1016900022D02B491431206888421DD02849283196
:1016A0002068884218D026493C312068884213D0EF
:1016B00023495031206888420ED021496431206886
:1016C000884209D01E4978312068884204D01C49DC
:1016D0008C312068884201D1012000E00020D8B17F
:1016E000206E006820F48070216E0860A56D94F86B
:1016F0005C0000F01F01012088406860D4E91910E7
:101700004860E06E40B1E06E006820F48070E16EE9
:101710000860D4E91C104860012084F8350000BF3F
:10172000002084F8340000BF206D10B12046216DE8
:10173000884700203EE600001000024010040240EE
:10174000085402587047000010B50446204600F0C7
:101750000BF800F08000802803D1024800680CF0EC
:10176000C5FB10BDA04900240146D1F88C0070478C
:101770000146D1F888007047024609B90120704738
:101780001068006800F00C00C86210680068C0F3C0
:10179000001081F828001068006800F060004862BE
:1017A00010680068C0F3002080F0010081F820007C
:1017B00010680068C0F34020C87710680068C0F364
:1017C000802080F00100887710680068C0F3C02096
:1017D000487710680068C0F3003008771068006828
:1017E00000F4005088611068006800F4804048618F
:1017F00010680068C0F30040887410680068C0F387
:10180000404080F00100487410680068C0F3C04098
:1018100080F00100087410680068C0F30050C873BD
:1018200010680068C0F34050887310680068C0F307
:101830008050487310680068C0F3C0500873106887
:10184000006800F0E060886010680068C0F3C06065
:1018500008711068006800F0E04008601068406897
:10186000C0F30D00486310684068C0F3004080F08A
:10187000010081F8320010684068C0F3404081F8F0
:10188000310010684068C0F3804081F83000106873
:101890004068C0F3006081F8380010684068C0F309
:1018A0004460C8631068C068C0F3002081F840003D
:1018B0001068C06800F00F0048641068006FC0F343
:1018C000400081F854001068006FC0F3C01080F031
:1018D000010081F84C001068006F00F0700008658E
:1018E0001068006F000C88641068D0F8900000F059
:1018F000010081F856001068D0F89000C0F3400055
:1019000081F855001068D0F8000D00F0720088656D
:101910001068D0F8300D00F02300C8651068D0F8CA
:10192000300DC0F3C00081F862001068D0F8300DAF
:10193000C0F3001081F861001068D0F8300DC0F3DA
:10194000801080F0010081F86000002017E700009F
:101950002DE9F04104462068D0F8B050206800F529
:101960008050D0F86061206800F58050D0F8347164
:101970005348D0F8008006F0400060B107F0400006
:1019800048B148F24001206800F58050C0F860116D
:10199000204600F039FB06F0010060B107F00100BD
:1019A00048B148F20101206800F58050C0F860118C
:1019B000204600F0C3FC06F48040C0B307F480402A
:1019C000A8B3D4F8880040F00800C4F8880006F4F2
:1019D0008050C8B1206800F58050D0F8600141F215
:1019E00002110840C4F88C00206800F58050D0F83F
:1019F000340120F44041206800F58050C0F83411D3
:101A0000E020C4F884000FE0206800F58050D0F892
:101A1000600100F4CD40C4F88C004FF4CD41206843
:101A200000F58050C0F860112046FFF78DFE05F4E8
:101A30008040B0F5804F04D005F40050B0F5005F51
:101A400012D11434606F40F01000606754F8140C29
:101A5000D0F8B800E067E0202067143C2046FFF78C
:101A600073FE0020C4F8900005F0100060B12068FB
:101A7000D0F8C00000F06000C4F89400204600F0E8
:101A8000A1F90020C4F8940005F0200060B120689E
:101A9000D0F8D00000F00F00C4F898002046FFF7FF
:101AA00051FE0020C4F8980008F4800030B14FF4D3
:101AB000800003490860204600F050FCBDE8F0813A
:101AC000A800005838B504460CB9012038BDD4F838
:101AD000840028B92020C4F88400204600F0BAF819
:101AE00000BF5748006840F00200554908600846AA
:101AF000006800F00200009000BF00BF207A18B913
:101B0000002002F067FF03E04FF4000002F062FFE4
:101B10004C480068206800F58050006840F00101E2
:101B2000206800F58050016000F06EFD05460DE074
:101B300000F06AFD401BB0F5FA7F07D90420C4F815
:101B40008800E020C4F884000120BFE7206800F589
:101B50008050006800F001000028E9D1204600F024
:101B6000C1FA02F0ABF93849B0FBF1F0401E216830
:101B7000C1F8DC002046FEF76FFD206800F58050BC
:101B8000D0F8000120F4E01040F40021206800F5B6
:101B90008050C0F80011207D00F0030038B1012012
:101BA000C4F88800E020C4F8840001208EE7206893
:101BB00000F58050D0F8080147F6FE71884361694E
:101BC00040EA4101206800F58050C0F80811204625
:101BD000FEF710FD2046FEF7DDFC606800796168C5
:101BE000497940EA01202168C1F800036068C078A3
:101BF00000066168897840EA01406168497840EAF6
:101C000001206168097808432168C1F8040320684D
:101C1000D0F80C070D4908432168C1F80C0720686B
:101C2000D0F810070A4908432168C1F810070020BE
:101C3000C4F888001020C4F88400002046E70000A3
:101C4000F44402580404005840420F006000020CA3
:101C500000C0200C10B586B00446142101A8FEF780
:101C60000CFC5349206888427ED100BF514800686F
:101C700040F400404F4908600846006800F4004006
:101C8000009000BF00BF00BF0846006840F48030ED
:101C900008600846006800F48030009000BF00BF74
:101CA00000BF0846006840F400300860084600683D
:101CB00000F40030009000BF00BF00BF3D48083076
:101CC000006840F004003B4908310860084600689D
:101CD00000F00400009000BF00BF00BF084600688D
:101CE00040F0010008600846006800F00100009024
:101CF00000BF00BF00BF0846006840F00200086057
:101D00000846006800F00200009000BF00BF0220FB
:101D1000019002900020039004900B20059001A9EF
:101D2000254800F05DFB86200190022002900020F3
:101D30000390032004900B20059001A91F4800F098
:101D40004FFB3020019002200290002003900320DE
:101D500004900B20059001A9174800F041FB4FF4B7
:101D600080600190022000E020E0029000200390BB
:101D700004900B20059001A9114800F031FB4FF4AD
:101D800060500190022002900020039003200490F4
:101D90000B20059001A90A4800F022FB0022052132
:101DA0003D2000F04DFD3D2000F036FD06B010BD99
:101DB00000800240D844025800080258000002582F
:101DC0000004025870472DE9F05F04460F464FF0BB
:101DD0000008C34647B9D4F8880040F00100C4F8B1
:101DE00088000120BDE8F09FD4F88400402801D08D
:101DF0000120F7E7E66D04F1480050F82650E06E48
:101E0000C0F1040A3FE0E86800F0804018B169685A
:101E1000A16729686167E86800F0005008B9E06FC1
:101E200028B3E86800F0005010B100212166616617
:101E3000E868C0F30E01606EA1EB0009E86800F0ED
:101E4000805018B1E96821674FF0010B1FFA89F340
:101E500004F18001081F2A6900F0E0F8206E401CA0
:101E60002066606E00EB090161660020286100BFFA
:101E7000761C042E00D3361F00BF04F1480050F832
:101E8000265008F10108E86800F0004020B9D0456C
:101E900002D2BBF1000FB6D0E06E00EB0801E166A4
:101EA000E06E10B12046FEF7ABFFE665BBF1010F17
:101EB00005D1E06F38600021E167002092E7012042
:101EC00090E72DE9F04704460F4690469946206872
:101ED000D0F8000200F0010010B10120BDE8F08749
:101EE0002068D0F8005225F0787040EA475525F474
:101EF000F81040EA084545F00C0545F0010520685A
:101F0000C0F8005200F080FB064607E000F07CFBC2
:101F1000801BB0F57A7F01D90120DFE72068D0F877
:101F2000000200F001000028F0D12068D0F804027F
:101F300080B2C9F800000020D0E72DE9F04706463E
:101F400006F11805AF6AEC6A4FF0010831E04FF076
:101F500001097F1E05F1140050F8240038B900BFB4
:101F6000641C042C00D3241F00BF4FF00009B9F1FA
:101F7000000F1ED004EB4401F06800EBC100C06804
:101F800000F0004098B905F1140151F8240000F068
:101F9000DFF9002105F1140040F8241000BF641C93
:101FA000042C00D3241F00BFAF62EC6201E04FF0AD
:101FB000000817B1B8F1000FC9D10020BDE8F087C3
:101FC0007CB504460D480AF0B7FA054685B105F11F
:101FD000200020600A48286140F2F45120682B4616
:101FE0004122CDE90001002108460CF033FA04E05B
:101FF000012004490870002020607CBDECAA010883
:10200000E1EB00089C49002410B504460248006832
:102010000BF06CFF10BD0000A04900242DE9F04733
:1020200004460F462146BC460020A2F120000025B0
:102030000560058143810D680DB9086002E0DCF898
:1020400000502860CCF80000086803E005891D44B2
:10205000058100680028F9D115461E46002E29DDAD
:1020600005F01F0A0AEB0608A94600BF00BF00BF23
:10207000BFF34F8F00BF00BF00BF00BFDFF83CA021
:10208000CAF8009009F12009A8F12008B8F1000F62
:10209000F4DC00BF00BF00BFBFF34F8F00BF00BF25
:1020A00000BF00BF00BF00BFBFF36F8F00BF00BF06
:1020B00000BF00BF00BFBDE8F08700005CEF00E09C
:1020C00070B504460D460DB9012070BDD4F88400EA
:1020D000102805D129462046FEF7C8FD0020F4E768
:1020E0000120F2E770B506463068D0F8004224F4CB
:1020F000706401F0E3FE05461048854202D244F4C4
:10210000007417E00E48854202D244F4407411E096
:102110000C48854200D20DE00B48854202D244F4BF
:10212000807407E00948854202D244F4806401E0EB
:1021300044F4A0643068C0F8004270BDC00E1602BE
:102140000087930300E1F50580D1F00880B2E60E28
:1021500010B50446D4F88400102853D12020C4F8C8
:1021600084000121A1650421E1662046FEF748FEB6
:10217000206800F58050D0F8040140F0010120688B
:1021800000F58050C0F80411206800F58050D0F8A8
:10219000080140F00101206800F58050C0F80811E6
:1021A000206800F58050D0F8600140F4817120680B
:1021B00000F58050C0F860112068D0F8000D40F0A4
:1021C00001002168C1F8000D2068006840F002009D
:1021D000216808602068006840F0010021680860FC
:1021E000206800F58050D0F834014DF2C101084359
:1021F000216801F58051C1F834014020C4F8840001
:10220000002010BD0120FCE710B50146D1F8840084
:1022100040284FD12020C1F88400086800F5805084
:10222000D0F834014DF2C104A0430C6804F5805489
:10223000C4F83401086800F58050D0F8040120F09B
:102240000104086800F58050C0F80441086800F5F2
:102250008050D0F8080120F00104086800F5805093
:10226000C0F808410868006820F001000C68206090
:102270000868D0F8000D40F001000C68C4F8000DAB
:102280000868006820F002000C682060002208E066
:1022900001F1480050F82230D86820F08040D86022
:1022A000521C042AF4D300248C651020C1F8840049
:1022B000002010BD0120FCE770B504460D463DB975
:1022C000D4F8880040F00100C4F88800012070BDF7
:1022D000D4F8840040282ED1696BE163012229469D
:1022E0002046FEF76FFA38B1D4F8880040F00200BB
:1022F000C4F888000120EAE700BF00BF00BFBFF3B9
:102300004F8F00BF00BF00BF00BFA06A401CA0628B
:10231000A06A042802D3A06A001FA06200BF04F1D3
:102320001800A16A50F82110206800F58050C0F80C
:1023300020110020CBE70120C9E7000010B50446BA
:10234000024800680BF0D2FD10BD0000A449002433
:1023500010B5044620460CF06FFB10BD704700001E
:102360002DE9F04705460F46904699462868D0F873
:10237000000200F0010010B10120BDE8F0872868DC
:10238000D0F8004224F0787040EA475424F4F81062
:1023900040EA084424F00C00041D44F001041FFA34
:1023A00089F00D4908600D48C0F8004200F02CF992
:1023B000064607E000F028F9801BB0F57A7F01D9C6
:1023C0000120DAE72868D0F8000200F001000028B8
:1023D000F0D100BFD1E7000004820240008002403B
:1023E000F8B502460B4600216F4DD7E001278F401C
:1023F0001E6806EA0704002C72D01E7906F0030658
:10240000012E04D01E7906F00306022E13D1906827
:102410004F000326BE40B0434F00DE68BE4030434D
:102420009060506801268E40B0431E79C6F30016B6
:102430008E40304350601E7906F00306032E09D00B
:10244000D0684F000326BE40B0434F009E68BE4098
:102450003043D0601E7906F00306022E13D1CF0858
:1024600002F1200656F827004E07F70E0F26BE4051
:10247000B0434F07FF0E1E69BE403043CF0802F144
:10248000200646F8270010684F000326BE40B043E0
:102490001E7906F003064F00BE40304310605E68B0
:1024A00006F44036002E78D000BF404E366846F025
:1024B00002063E4F3E603E46366806F00206009633
:1024C00000BF00BF3A4E8F0856F827008E07370F1F
:1024D0000F26BE40B043374EB24202D100262EE056
:1024E0005BE0354EB24201D1012628E0334EB242C4
:1024F00001D1022623E0324EB24201D103261EE072
:10250000304EB24201D1042619E02F4EB24201D121
:10251000052614E02D4EB24201D106260FE02C4EC6
:10252000B24201D107260AE02A4EB24201D1082662
:1025300005E0294EB24201D1092600E00A268F07A4
:102540003F0FBE4030431A4E8F0846F827004FF029
:10255000B0463068A0435E6806F4801606B120439A
:102560004FF0B04630607068A0435E6806F4001615
:1025700006B120434FF0B04670606868A0435E68C3
:1025800006F4003606B1204368602868A0435E6800
:1025900006F4803606B120432860491C1E68CE40F0
:1025A000002E7FF423AFF8BD80000058F444025899
:1025B000080400580000025800040258000802589D
:1025C000000C02580010025800140258001802585B
:1025D000001C0258002002580024025810B542691D
:1025E00021EA020302EA010443EA0443836110BDC5
:1025F0000AB1816101E00B04836170470148006802
:10260000000C70470010005C014800687047000033
:10261000D449002403480068034909780844014963
:1026200008607047D4490024DC49002410B5032019
:1026300000F044F901F08CFC10490968C1F3032152
:102640000F4A515C01F01F0120FA01F40B480068A9
:1026500000F00F001146085C00F01F0024FA00F0A3
:1026600008490860084804600F2000F00FF808B11E
:10267000012010BD00F0B8F80020FAE71844025815
:1026800020AB0108E4490024E049002470B58AB079
:102690000446102C0AD200222146192000F0D0F85E
:1026A000192000F0B9F81948046002E001200AB0CE
:1026B00070BD00BF1648006840F001001449086072
:1026C0000846006800F00100009000BF00BF01A9AB
:1026D00002A801F0BDFB01F029FC06460D48B6FB3F
:1026E000F0F0451E0C480D49086040F2E7310B48F8
:1026F000C160456000210161816002F078F918B97C
:10270000064802F0ADF9D2E70120D0E7D84900240D
:10271000F044025840420F0000000140DC4B00240E
:102720004178154A116014490831096821F0010106
:10273000114A08321160121F41681160017B0907BC
:10274000C27A41EA0261827A41EAC241427B41EAAD
:102750008241827B41EA4241C27B41EA0241427AA4
:1027600041EA0221027A41EA420102781143024A17
:10277000083211607047000098ED00E000BF00BF14
:1027800000BFBFF35F8F00BF00BF00BF05480068F8
:1027900020F480300349086000200249703108604D
:1027A0007047000024ED00E040F001010D4A116087
:1027B0000C497039096841F480310A4A703A116055
:1027C00000BF00BF00BFBFF34F8F00BF00BF00BFFF
:1027D00000BF00BF00BFBFF36F8F00BF00BF00BFCF
:1027E0007047000094ED00E008B500BF094800689C
:1027F00040F00200074908600846006800F0020047
:10280000009000BF00BF00220F21901E00F018F8BA
:1028100008BD0000F44402580146084600280DDBBC
:1028200000BF00BF00F01F0301229A4043099B0034
:1028300003F1E023C3F8002100BF00BF00BF7047D1
:102840002DE9F05F80460D46164604F017F807465E
:1028500039462A46334601F00700C0F1070ABAF1AB
:10286000040F02D94FF0040A01E0C0F1070AD14673
:1028700000F1040ABAF1070F02D24FF0000A01E09A
:10288000A0F1030AD4464FF0010A0AFA09FAAAF1A4
:10289000010A0AEA020A0AFA0CFA4FF0010B0BFAD3
:1028A0000CFBABF1010B0BEA030B4AEA0B042146CC
:1028B000404603F0EBFFBDE8F09F000000BF00F0D2
:1028C0000702064B19684FF6FF031940044B0B43F0
:1028D00043EA0221014B196000BF70470CED00E094
:1028E0000000FA0570B5044615480068C0F3800082
:1028F00048B91348006800F00700A04201D0012049
:1029000070BD0020FCE70E48006820F0070020435F
:102910000B490860FFF778FE054607E0FFF774FEF5
:10292000401BB0F57A7F01D90120E9E70448083857
:102930000068C0F340300028F0D00020E0E700003D
:102940000C48025810B501F0B9FA05490968C1F3FD
:102950000211044A515C01F01F01C84010BD000083
:102960002044025820AB010870B50146844D2D6803
:1029700005F00303824D2D68C5F30530804D2D1DF4
:102980002D68C5F300147E4D14352D68C5F3CC05B4
:1029900015FB04F501EE105AB8EE411AF0EE410AAB
:1029A00000286FD023B1012B4ED0022B6BD16BE0EE
:1029B000734D283D2D68C5F340153DB3704D283D3E
:1029C0002D68C5F3C1066F4D25FA06F201EE102AF7
:1029D000F8EE411A01EE100AB8EE411A81EE812A92
:1029E0009FED691AC0EE811A654D10352D68C5F34B
:1029F000080501EE105AB8EE411A31EE811AF7EED1
:102A0000001A31EE211A22EE010A1CE001EE100A32
:102A1000B8EE411ADFED5D1A81EE812A9FED5A1A58
:102A2000C0EE811A564D10352D68C5F3080501EE2C
:102A3000105AB8EE411A31EE811AF7EE001A31EE53
:102A4000211A22EE010A5BE001EE100AB8EE411AEB
:102A5000DFED4F1A81EE812A9FED4B1AC0EE811AED
:102A6000474D10352D68C5F3080501EE105AB8EE34
:102A7000411A31EE811AF7EE001A31EE211A22EED8
:102A8000010A3DE077E01DE001EE100AB8EE411AC0
:102A90009FED402AC2EE011A9FED3B1A80EE812A7B
:102AA000374D10352D68C5F3080501EE105AB8EE04
:102AB000411A32EE011AB7EE002A31EE021A21EE67
:102AC000810A1DE001EE100AB8EE411ADFED301A5E
:102AD00081EE812A9FED2C1AC0EE811A284D103507
:102AE0002D68C5F3080501EE105AB8EE411A31EE13
:102AF000811AF7EE001A31EE211A22EE010A00BF08
:102B000000BF1F4D10352D68C5F3462501EE105A44
:102B1000B8EE411AF7EE001A31EE211AC0EE011A92
:102B2000BCEEE11A81ED001A154D10352D68C5F384
:102B3000064501EE105AB8EE411AF7EE001A31EED2
:102B4000211AC0EE011ABCEEE11A81ED011A0C4DFA
:102B500010352D68C5F3066501EE105AB8EE411A1E
:102B6000F7EE001A31EE211AC0EE011ABCEEE11A9E
:102B700081ED021A03E000250D604D608D6070BD8F
:102B8000284402580090D003000000460024744CF2
:102B90000024744A20BCBE4B70B50146844D2D689C
:102BA00005F00303824D2D68C5F30550804D2D1DA2
:102BB0002D68C5F300247E4D1C352D68C5F3CC056A
:102BC00015FB04F501EE105AB8EE411AF0EE410A79
:102BD00000286FD023B1012B4ED0022B6BD16BE0BC
:102BE000734D283D2D68C5F340153DB3704D283D0C
:102BF0002D68C5F3C1066F4D25FA06F201EE102AC5
:102C0000F8EE411A01EE100AB8EE411A81EE812A5F
:102C10009FED691AC0EE811A654D18352D68C5F310
:102C2000080501EE105AB8EE411A31EE811AF7EE9E
:102C3000001A31EE211A22EE010A1CE001EE100A00
:102C4000B8EE411ADFED5D1A81EE812A9FED5A1A26
:102C5000C0EE811A564D18352D68C5F3080501EEF2
:102C6000105AB8EE411A31EE811AF7EE001A31EE21
:102C7000211A22EE010A5BE001EE100AB8EE411AB9
:102C8000DFED4F1A81EE812A9FED4B1AC0EE811ABB
:102C9000474D18352D68C5F3080501EE105AB8EEFA
:102CA000411A31EE811AF7EE001A31EE211A22EEA6
:102CB000010A3DE077E01DE001EE100AB8EE411A8E
:102CC0009FED402AC2EE011A9FED3B1A80EE812A49
:102CD000374D18352D68C5F3080501EE105AB8EECA
:102CE000411A32EE011AB7EE002A31EE021A21EE35
:102CF000810A1DE001EE100AB8EE411ADFED301A2C
:102D000081EE812A9FED2C1AC0EE811A284D1835CC
:102D10002D68C5F3080501EE105AB8EE411A31EEE0
:102D2000811AF7EE001A31EE211A22EE010A00BFD5
:102D300000BF1F4D18352D68C5F3462501EE105A0A
:102D4000B8EE411AF7EE001A31EE211AC0EE011A60
:102D5000BCEEE11A81ED001A154D18352D68C5F34A
:102D6000064501EE105AB8EE411AF7EE001A31EEA0
:102D7000211AC0EE011ABCEEE11A81ED011A0C4DC8
:102D800018352D68C5F3066501EE105AB8EE411AE4
:102D9000F7EE001A31EE211AC0EE011ABCEEE11A6C
:102DA00081ED021A03E000250D604D608D6070BD5D
:102DB000284402580090D003000000460024744CC0
:102DC0000024744A20BCBE4B2DE9F0410446002586
:102DD000A8464FF00062D4E90010114000201346CD
:102DE00059404040014331D1A06E48B1B0F5801F39
:102DF0000DD0B0F5001F11D0B0F5401F16D114E072
:102E0000F948006840F40030F749086010E00221FA
:102E100004F1080002F0A8FD054609E0022104F1D2
:102E2000280002F053FE054602E001E0012500BF44
:102E300000BF55B9EC482430006820F44010A16E62
:102E40000843E9492431086000E0A8464FF4807344
:102E5000D4E90010194000205940404001432ED1D0
:102E6000A06D05281BD2DFE800F0030A1118190035
:102E7000DD48006840F40030DB49086011E00021C3
:102E800004F1080002F070FD05460AE0002104F19B
:102E9000280002F01BFE054603E002E001E00125E8
:102EA00000BF00BF55B9D0482430006820F00700AB
:102EB000A16D0843CC492431086000E0A8464FF4D6
:102EC0000073D4E9001019400020594040400143EC
:102ED00034D1E06D802818D003DC40B140281DD1EA
:102EE0000CE0C02818D0B0F5807F17D115E0BE489F
:102EF000006840F40030BC49086011E0002104F192
:102F0000080002F031FD05460AE0002104F1280026
:102F100002F0DCFD054603E002E001E0012500BF10
:102F200000BF55B9B0482430006820F4E070E16D6E
:102F30000843AD492431086000E0A8464FF480639F
:102F4000D4E900101940002059404040014339D1D4
:102F5000D4F8A800B0F5800F1AD004DC50B1B0F559
:102F6000001F1ED10DE0B0F5C00F18D0B0F5000F56
:102F700017D115E09C48006840F400309A49086079
:102F800011E0002104F1080002F0EEFC05460AE021
:102F9000002104F1280002F099FD054603E002E05B
:102FA00001E0012500BF00BF5DB98F482C300068EB
:102FB00020F46000D4F8A81008438B492C31086035
:102FC00000E0A8464FF40062D4E900101140002050
:102FD000134659404040014339D1D4F8AC00B0F118
:102FE000007F1AD004DC50B1B0F1807F1ED10DE01B
:102FF000B0F1407F18D0B0F1806F17D115E07A485A
:10300000006840F400307849086011E0002104F1C4
:10301000080002F0A9FC05460AE0002104F128009E
:1030200002F054FD054603E002E001E0012500BF87
:1030300000BF5DB96C482C30006820F0E060D4F827
:10304000AC10084368492C31086000E0A8464FF0F6
:103050000073D4E90001184000215840494008435A
:1030600028D1E06CA8B1102804D0202809D030283D
:1030700010D10DE05C48006840F400305A49086007
:103080000AE0022104F1080002F06EFC054603E0AC
:1030900002E001E0012500BF00BF55B952482030D1
:1030A000006820F03000E16C08434F49203108608F
:1030B00000E0A8464FF48053D4E9001019400020E6
:1030C00059404040014337D1206EB0F5005F1AD01F
:1030D00004DC50B1B0F5805F1ED10DE0B0F5405F6B
:1030E00018D0B0F5804F17D115E03F48006840F484
:1030F00000303D49086011E0002104F1080002F0B1
:1031000033FC05460AE0002104F1280002F0DEFC51
:10311000054603E002E001E0012500BF00BF55B90C
:1031200031482430006820F4E040216E08432E49E5
:103130002431086000E0A8464FF40053D4E90010A1
:103140001940002059404040014335D1606EB0F530
:10315000403F1ED007DC68B1B0F5803F0BD0B0F522
:10316000003F19D10EE0B0F5802F13D0B0F5A02F9D
:1031700012D110E012E0012104F1080002F0F4FB8A
:1031800005460BE0012104F1280002F09FFC0546F2
:1031900004E003E002E001E0012500BF00BF55B9F3
:1031A00011482430006820F4E020616E08430E4985
:1031B0002431086000E0A8464FF48043D4E90001C0
:1031C0001840002158404940084337D1D4F8B00096
:1031D000B0F1405F20D009DC78B1B0F1805F0DD054
:1031E000B0F1005F1BD110E02C440258B0F1804FC9
:1031F00013D0B0F1A04F12D110E012E0012104F180
:10320000080002F0B1FB05460BE0012104F12800A3
:1032100002F05CFC054604E003E002E001E0012569
:1032200000BF00BF4DB9FE48006820F0E040D4F870
:10323000B0100843FA49086000E0A8464FF4004285
:10324000D4E900101140002013465940404001438A
:1032500029D1206FB0B1B0F1805F03D0B0F1005F31
:1032600011D108E0EE482C38006840F40030EC49F9
:103270002C39086009E0012104F1080002F074FB18
:10328000054602E001E0012500BF00BF55B9E44852
:103290000838006820F04050216F0843E0490839A1
:1032A000086000E0A8464FF08072D4E90010114099
:1032B000002013465940404001432AD1A06CB8B1C8
:1032C000012804D002280BD0032812D10FE0D448E3
:1032D0002C38006840F40030D1492C3908600AE0ED
:1032E000022104F1080002F03FFB054603E002E082
:1032F00001E0012500BF00BF55B9C9480C3800687E
:1033000020F00300A16C0843C5490C39086000E0B7
:10331000A8464FF48002D4E9000110400021134672
:103320005840494008437DD1BE48006840F4807051
:10333000BC490860FFF768F9064606E0FFF764F944
:10334000801B642801D9032505E0B648006800F415
:1033500080700028F2D000BF85BBB14818300068EB
:1033600000F44070B4F8B41001F44071884213D0F6
:10337000AB481830006820F44077A948183000683E
:1033800040F48030A649183108600846006820F4EF
:103390008030086008460760D4F8B400B0F5807F3C
:1033A00015D1FFF731F9064609E0FFF72DF9801B2B
:1033B00041F28831884202D9032507E038E0984875
:1033C00018300068C0F340000028EED000BF55BBA5
:1033D00000BFB4F8B40000F44070B0F5407F0ED1E7
:1033E0008F484838006820F47C518F4AD4F8B400E4
:1033F000104041EA10108A494839086007E08848BF
:103400004838006820F47C50854948390860844871
:1034100018300068B4F8B410C1F30B0108438049B8
:10342000183101E005E001E0086002E0A84600E094
:10343000A8460122D4E9000110400021134658405B
:103440004940084330D1E06F18281AD005DC48B154
:10345000082808D0102817D10CE0202812D02828DE
:1034600012D110E012E0012104F1080002F07CFA10
:1034700005460BE0012104F1280002F027FB054678
:1034800004E003E002E001E0012500BF00BF55B900
:103490006348001F006820F03800E16F084360496E
:1034A000091F086000E0A8460222D4E9000110408C
:1034B0000021134658404940084329D1A06F0628EF
:1034C00016D2DFE800F003040B12131412E00121FE
:1034D00004F1080002F048FA05460BE0012104F16E
:1034E000280002F0F3FA054604E003E002E001E000
:1034F000012500BF00BF55B94948001F006820F0F2
:103500000700A16F08434649091F086000E0A8466C
:103510000423D4E9001019400020594040400143E1
:1035200029D1D4F89400062816D2DFE800F003046D
:103530000B12131412E0012104F1080002F014FA36
:1035400005460BE0012104F1280002F0BFFA054610
:1035500004E003E002E001E0012500BF00BF4DB937
:103560002F48006820F00700D4F8941008432C4935
:10357000086000E0A8462023D4E90001184000219B
:1035800058404940084337D1D4F89000B0F1405F2B
:103590001ED007DC68B1B0F1805F0BD0B0F1005FE6
:1035A00019D10EE0B0F1804F13D0B0F1A04F12D17D
:1035B00010E012E0002104F1080002F0D5F9054600
:1035C0000BE0022104F1280002F080FA054604E035
:1035D00003E002E001E0012500BF00BF5DB9104833
:1035E000001F006820F0E040D4F8901008430C4918
:1035F000091F086000E0A8464023D4E900101940E4
:1036000000205940404001433CD1D4F89C00B0F523
:10361000406F25D00EDCA0B1B0F5806F12D005E070
:103620005844025800480258FFFCFF0FB0F5006FE5
:1036300019D10EE0B0F5805F13D0B0F5A05F12D1C4
:1036400010E012E0002104F1080002F08DF90546B7
:103650000BE0022104F1280002F038FA054604E0EC
:1036600003E002E001E0012500BF00BF4DB9FE48C4
:10367000006820F4E050D4F89C100843FA49086030
:1036800000E0A8468023D4E90010194000205940EA
:103690004040014335D1D4F8A000B0F5C04F1ED052
:1036A00007DC68B1B0F5005F0BD0B0F5804F19D1E1
:1036B0000EE0B0F5004F13D0B0F5204F12D110E05E
:1036C00012E0002104F1080002F04EF905460BE07B
:1036D000022104F1280002F0F9F9054604E003E0B4
:1036E00002E001E0012500BF00BF4DB9DE480068DF
:1036F00020F46040D4F8A0100843DB49086000E0E3
:10370000A8460823D4E90010194000205940404041
:10371000014317D1D4F88400B0F5805F07D10221AE
:1037200004F1280002F0D2F908B14FF00108CE48A8
:10373000001F006820F44050D4F884100843CA49A0
:10374000091F08601023D4E90010194000205940D7
:103750004040014315D1D4F89800B0F5807F07D1DF
:10376000022104F1280002F0B1F908B14FF001087C
:10377000BD48006820F44070D4F898100843BA4956
:1037800008604FF40022D4E90001104000211346E4
:1037900058404940084327D1D4F8A40030B1B0F5CF
:1037A000803F0AD0B0F5003F0FD10DE0002104F1B9
:1037B000080002F0D9F8054609E0022104F12800CA
:1037C00002F084F9054602E001E0012500BF00BFD8
:1037D0004DB9A548006820F44030D4F8A41008433F
:1037E000A149086000E0A8464FF48023D4E9000115
:1037F000184000215840494008432DD1D4F8880092
:10380000B0F5801F06D0B0F5001F0CD0B0F5401FFA
:1038100011D10FE094482C38006840F400309249F0
:103820002C39086009E0012104F1280002F04EF96A
:10383000054602E001E0012500BF00BF5DB98A48EE
:10384000001F006820F44010D4F88810084386490F
:10385000091F086000E0A8464FF48032D4E9000157
:1038600010400021134658404940084325D1206D9F
:1038700018B1B0F5803F10D108E07B482C380068C3
:1038800040F4003078492C39086008E0022104F146
:10389000080002F069F8054601E0012500BF00BFFD
:1038A00055B971480C38006820F48030216D084308
:1038B0006D490C39086000E0A8464FF00052D4E989
:1038C000001011400020134659404040014307D1E9
:1038D000022104F1280002F0F9F808B14FF00108C4
:1038E0004FF40033D4E9000118400021584049400A
:1038F000084329D1D4F88000A0B1B0F5807F06D06C
:10390000B0F5007F0CD0B0F5407F0CD109E05648EF
:103910002C38006840F4003053492C39086004E02A
:1039200003E002E001E0012500BF00BF5DB94E48A1
:10393000001F006820F44070D4F8801008434A4902
:10394000091F086000E0A8464FF48012D4E9001077
:1039500011400020134659404040014309D14248DC
:103960000838006820F00040616F08433E4908397C
:1039700008604FF08052D4E9001011400020134637
:103980005940404001430AD137484838006820F484
:103990008040D4F8B81008433349483908604FF4E0
:1039A0000012D4E900101140002013465940404055
:1039B000014309D12C480838006820F08070E16E7E
:1039C00008432949083908604FF08042D4E90010C3
:1039D00011400020134659404040014311D100BF1F
:1039E00021484838006820F400401F4948390860E1
:1039F00008460068D4F8BC1008431B4948390860E1
:103A000000BF4FF00042D4E90010114000201346DF
:103A100059404040014309D113480C38006820F058
:103A20004050616D084310490C3908604FF40002A2
:103A3000D4E9001011400020134659404040014392
:103A40000AD10948001F006820F44000D4F88C1007
:103A500008430549091F08600123002160681840D8
:103A600001224940504001E058440258014306D128
:103A700004F1080001F078FF054605B1A8460222CE
:103A800000216068104049405040014307D10121A6
:103A900004F1080001F068FF054605B1A8460423BB
:103AA000002061681940042240405140084307D17A
:103AB000022104F1080001F057FF054605B1A846B0
:103AC0000823002160681840082249405040014303
:103AD00006D104F1280001F0F9FF054605B1A8461A
:103AE000102200216068104049405040014307D136
:103AF000012104F1280001F0E9FF054605B1A846BF
:103B0000202200206168114040405140084307D105
:103B1000022104F1280001F0D9FF054605B1A846AD
:103B2000B8F1000F02D10020BDE8F0810120FBE7D1
:103B30002DE9F04104460D4614B90120BDE8F0819D
:103B4000BD48006800F00F00A8420ED2BA480068D5
:103B500020F00F002843B84908600846006800F0CC
:103B60000F00A84201D00120E8E7207800F004000F
:103B700004280ED1B1492069096801F0700188421A
:103B800007D9AE48006820F0700021690843AB49AE
:103B90000860207800F00800082811D1A749091D05
:103BA0006069096801F07001884209D9A348001DC5
:103BB000006820F0700061690843A049091D086091
:103BC000207800F01000102811D19C49091DA0692F
:103BD000096801F4E061884209D99848001D00682D
:103BE00020F4E060A16908439449091D0860207829
:103BF00000F02000202811D190490831E0690968BF
:103C000001F07001884209D98C480830006820F022
:103C10007000E1690843894908310860207800F0A4
:103C2000020002280ED18549E068096801F00F0101
:103C3000884207D98148006820F00F00E1680843F6
:103C40007E490860207800F00100002850D07B48B1
:103C5000006820F47060A1680843784908606068D3
:103C6000022807D1754818380068C0F34040F8B9F9
:103C7000012063E76068032807D17048183800689E
:103C8000C0F34060A0B9012058E76068012807D15F
:103C90006A4818380068C0F3002048B901204DE791
:103CA000664818380068C0F3800008B9012045E76D
:103CB00062480838006820F00700616808435F49DF
:103CC00008390860FEF7A0FC064608E0FEF79CFCF9
:103CD000801B41F28831884201D903202EE75748E2
:103CE0000838006800F038006168B0EBC10FEDD112
:103CF000207800F0020002280ED15049E0680968DF
:103D000001F00F01884207D24C48006820F00F00F4
:103D1000E1680843494908604748006800F00F001F
:103D2000A8420ED94448006820F00F0028434249B9
:103D300008600846006800F00F00A84201D001208A
:103D4000FCE6207800F0040004280ED13B492069ED
:103D5000096801F07001884207D23848006820F0F5
:103D600070002169084335490860207800F0080098
:103D7000082811D13149091D6069096801F07001F5
:103D8000884209D22D48001D006820F0700061694A
:103D900008432A49091D0860207800F01000102807
:103DA00011D12649091DA069096801F4E061884222
:103DB00009D22248001D006820F4E060A169084390
:103DC0001E49091D0860207800F02000202811D12C
:103DD0001A490831E069096801F07001884209D286
:103DE00016480830006820F07000E1690843134964
:103DF0000831086000F0ACF810490968C1F30321EC
:103E00000F4A515C01F01F0120FA01F70B480068CE
:103E100000F00F001146085C00F01F0027FA00F0C8
:103E2000084908600848076008480068FEF72EFC4B
:103E30008046404682E600000020005218440258A6
:103E400020AB0108E4490024E0490024D8490024BB
:103E50003F220260174A126802F007024260154AC8
:103E60000832126802F470628260124A08321268E4
:103E700002F00F02C2600F4A0832126802F07002AC
:103E800002610C4A0C32126802F070024261094A67
:103E90000C32126802F4E0628261064A1032126843
:103EA00002F07002C261044A126802F00F020A6056
:103EB00070470000104402580020005210B500F076
:103EC00047F80D490968C1F303210C4A515C01F020
:103ED0001F0120FA01F40848006800F00F001146A5
:103EE000085C00F01F0024FA00F00549086005484E
:103EF00004600846006810BD1844025820AB010851
:103F0000E4490024E049002400B5FFF7D7FF054944
:103F10000968C1F30211044A515C01F01F01C84055
:103F200000BD00001C44025820AB010800B5FFF79B
:103F3000C5FF05490968C1F30221044A515C01F03B
:103F40001F01C84000BD00001C44025820AB0108FE
:103F5000F0B5824E366806F0380636B1082E15D018
:103F6000102E15D0182E7DD114E07C4E103E3668F0
:103F7000C6F3401646B1794E103E3668C6F3C10707
:103F8000774E26FA07F000E07548E5E07548E3E073
:103F90007548E1E0714E1836366806F003046F4E3E
:103FA00018363668C6F305116C4E1C36366806F0B6
:103FB00001056A4E24363668C6F3CC0616FB05F6B4
:103FC00001EE106AB8EE410A002971D024B1012C2B
:103FD00050D0022C6DD16DE0604E103E3668C6F3B5
:103FE00040163EB35D4E103E3668C6F3C1075C4EC8
:103FF00026FA07F301EE103AF8EE411A01EE101A14
:10400000B8EE411A81EE812A9FED581AC0EE011ACE
:10401000524E20363668C6F3080601EE106AB8EE36
:10402000411A31EE811AF7EE001A31EE211A62EED2
:10403000010A1EE001EE101AB8EE411ADFED4C1A2B
:1040400081EE812A9FED491AC0EE011A434E2036B7
:104050003668C6F3080601EE106AB8EE411A31EE72
:10406000811A00E076E0F7EE001A31EE211A62EED6
:10407000010A5BE001EE101AB8EE411A9FED3D2AED
:10408000C2EE011A9FED391A80EE012A334E203616
:104090003668C6F3080601EE106AB8EE411A32EE31
:1040A000011AB7EE002A31EE021A61EE810A3DE0F4
:1040B0004EE01DE001EE101AB8EE411ADFED2E1AA7
:1040C00081EE812A9FED291AC0EE011A234E203677
:1040D0003668C6F3080601EE106AB8EE411A31EEF2
:1040E000811AF7EE001A31EE211A62EE010A1DE084
:1040F00001EE101AB8EE411A9FED1E2AC2EE011A07
:104100009FED1A1A80EE012A144E20363668C6F347
:10411000080601EE106AB8EE411A32EE011AB7EE47
:10412000002A31EE021A61EE810A00BF00BF0B4E79
:1041300020363668C6F34626721C01EE102AB8EE09
:10414000411AC0EE811ABCEEE11A11EE100A00E02D
:10415000002001E0034800BF00BFF0BD104402583A
:104160000090D00300093D0040787D01000000462A
:104170000024744C0024744A20BCBE4B2DE9F04747
:10418000044614B90120BDE8F087207800F0010052
:10419000002870D0FA48006800F03808F848183055
:1041A000D0F80090B8F1100F06D0B8F1180F0FD169
:1041B00009F0030002280BD1F14810380068C0F361
:1041C000404000286AD06068002867D10120DAE703
:1041D00000BF6068B0F5803F08D1E948103800683A
:1041E00040F48030E649103908602EE0606868B914
:1041F000E3481038006820F48030E1491039086045
:104200000846006820F4802008601EE06068B0F571
:10421000A02F0DD1DA481038006840F48020D8492A
:10422000103908600846006840F4803008600CE0EF
:10423000D3481038006820F48030D1491039086024
:104240000846006820F48020086000BF606898B1CC
:10425000FEF7DAF9054606E0FEF7D6F9401B6428BA
:1042600001D903208FE7C64810380068C0F34040EA
:104270000028F1D012E012E0FEF7C6F9054606E08C
:10428000FEF7C2F9401B642801D903207BE7BC4834
:1042900010380068C0F340400028F1D100BF2078FA
:1042A00000F00200022874D1B548006800F0380818
:1042B000B3481830D0F80090B8F1000F05D0B8F12D
:1042C000180F56D109F00300D0BBAD481038006874
:1042D000C0F3800018B1E06808B9012053E7A8488E
:1042E0001038006820F01900E1680843A44910392B
:1042F0000860FEF789F9054606E0FEF785F9401BE0
:10430000022801D903203EE79D4810380068C0F319
:1043100080000028F1D000BFFEF770F941F20301E0
:1043200088421AD8206940280BD195480C3800687B
:1043300020F47C3040F4003091490C39086017E0DB
:1043400017E08F480C38006820F47C30216940EA7F
:1043500001308B490C3908600AE089480C38006844
:1043600020F0FE40217C40EA016085490C3908605C
:1043700066E0E06888B382481038006820F01900D1
:10438000E16808437E4910390860FEF73DF90546AB
:1043900007E056E0FEF738F9401B022801D9032058
:1043A000F1E6774810380068C0F380000028F1D0AB
:1043B00000BFFEF723F941F2030188421AD82069B1
:1043C00040280BD16E480C38006820F47C3040F453
:1043D00000306B490C39086017E017E068480C386A
:1043E000006820F47C30216940EA013064490C39CE
:1043F00008600AE062480C38006820F0FE40217C2A
:1044000040EA01605E490C39086019E05C481038E8
:10441000006820F001005A4910390860FEF7F4F8EE
:10442000054606E0FEF7F0F8401B022801D90320FC
:10443000A9E6534810380068C0F380000028F1D185
:1044400000BF207800F0100010287CD14C48006894
:1044500000F038084A481830D0F80090B8F1080F3A
:1044600006D0B8F1180F3DD109F00300012839D169
:10447000434810380068C0F3002020B1E06980286C
:1044800001D001207FE600BFFEF7B8F841F203013A
:1044900088421AD8206A20280AD139480C38006886
:1044A00020F0F84040F0804035490C39086018E0B1
:1044B00033480C38006820F0F84094F8201040EAA7
:1044C00081602F490C3908600BE02D48001F0068FF
:1044D00020F07C5094F8201040EA01602849091F20
:1044E000086066E0E06978B325481038006840F05D
:1044F0008000234910390860FEF786F8054606E07B
:10450000FEF782F8401B022801D903203BE61C4835
:1045100010380068C0F300200028F1D000BFFEF77B
:104520006DF841F2030188421CD8206A20280CD182
:1045300013480C38006820F0F84040F080401049E3
:104540000C3908601AE035E01CE00D480C380068B2
:1045500020F0F84094F8201040EA816008490C39B6
:1045600008600BE00648001F006820F07C5094F8BB
:10457000201040EA01600249091F086019E00000AC
:1045800010440258FA48006820F08000F84908609A
:10459000FEF73AF8054606E0FEF736F8401B02281B
:1045A00001D90320EFE5F2480068C0F3002000289D
:1045B000F2D100BF207800F00800082836D16069E9
:1045C000D0B1EB487430006840F00100E849743124
:1045D0000860FEF719F8054606E0FEF715F8401BDF
:1045E000022801D90320CEE5E14874300068C0F309
:1045F00040000028F1D019E0DD487430006820F058
:104600000100DB4974310860FDF7FEFF054606E056
:10461000FDF7FAFF401B022801D90320B3E5D44877
:1046200074300068C0F340000028F1D1207800F019
:104630002000202830D1A069B8B1CD48006840F4EE
:104640008050CB490860FDF7DFFF054606E0FDF727
:10465000DBFF401B022801D9032094E5C448006811
:10466000C0F340300028F2D016E0C148006820F4C2
:104670008050BF490860FDF7C7FF054606E0FDF71B
:10468000C3FF401B022801D903207CE5B84800681D
:10469000C0F340300028F2D1207800F00400042854
:1046A0007DD1B448006840F48070B2490860FDF7DD
:1046B000ABFF054606E0FDF7A7FF401B642801D9C4
:1046C000032060E5AB48006800F480700028F2D059
:1046D00000BFA068012808D1A5487030006840F0EC
:1046E0000100A349703108602DE0A06868B9A048B6
:1046F0007030006820F001009D4970310860084664
:10470000006820F0040008601DE0A06805280DD1B5
:1047100097487030006840F0040095497031086097
:104720000846006840F0010008600CE090487030D6
:10473000006820F001008E4970310860084600686A
:1047400020F00400086000BFA068A0B1FDF75CFF86
:10475000054608E0FDF758FF401B41F288318842CA
:1047600001D903200FE5824870300068C0F3400093
:104770000028EFD013E0FDF747FF054608E0FDF7FE
:1047800043FF401B41F28831884201D90320FAE4FB
:10479000774870300068C0F340000028EFD1606AAD
:1047A00000287DD072481030006800F038001828CA
:1047B00077D0606A022875D16D48006820F080705B
:1047C0006B490860FDF720FF054606E0FDF71CFF7A
:1047D000401B022801D90320D5E465480068C0F3D6
:1047E00040600028F2D100BFD4E90A1041EA00106D
:1047F0005F492831096840F2F332914308435C492C
:1048000028310860208E401EC0F30800616B491EED
:104810004FF47E4202EA41210843218F491ED20112
:1048200002EA014108433C21095D491E120202EAE5
:10483000016108434E493031086000BF081F00681D
:1048400020F00100091F08604948343000684FF625
:10485000F8718843A16C40EAC100454934310860D1
:1048600043482C30006820F00C00216C084340497C
:104870002C3108600846006820F00200616C084393
:104880003B492C3108600846006840F480300860DD
:104890000846006840F4003008600846006802E0FE
:1048A00093E038E01FE040F480200860084600688C
:1048B00040F0010008602E48006840F080702C49EC
:1048C0000860FDF7A1FE054606E0FDF79DFE401BD2
:1048D000022801D9032056E425480068C0F340604F
:1048E0000028F2D071E02248006820F08070204952
:1048F0000860FDF789FE054606E0FDF785FE401BD2
:10490000022801D903203EE419480068C0F3406042
:104910000028F2D159E01648283007681448303092
:104920000668606A012821D007F00301A06A81426D
:104930001CD1C7F30511E06A884217D1C6F30801FC
:10494000206B401E814211D1606B401EC6F3462190
:1049500088420BD1A06B401EC6F30641884205D1A8
:10496000E06B401EC6F30661884205D001200AE4D0
:10497000004402580048025815480068C0F3CC07AC
:10498000A06CB84221D012480838006820F001001D
:104990000F4908390860FDF737FE054600BFFDF7EF
:1049A00033FE401BFBD00A4800684FF6F87188437D
:1049B000A16C40EAC1000649086005480838006853
:1049C00040F0010002490839086000204AE4000074
:1049D000344402580349096821F460010143014A43
:1049E000116070470404005870477047704710B555
:1049F00004460CB9012010BD94F83D0028B90020F0
:104A000084F83C00204600F029F8022084F83D009C
:104A1000211D206801F008FA012084F8480000BF39
:104A200084F83E0001213F200155402001554120DE
:104A30000155422001554320015500BF00BF012010
:104A400084F8440045200155462001554720015572
:104A500000BF012084F83D000020CCE77047000033
:104A6000014691F83D00012801D001207047022045
:104A700081F83D000868C06840F001000B68D8600C
:104A80001C4B086898421BD00868B0F1804F17D0C3
:104A9000194B0868984213D0184B086898420FD0F9
:104AA000174B086898420BD0164B0868984207D0FD
:104AB000154B0868984203D0144B0868984210D1EF
:104AC00008688068124B00EA0302062A0FD0B2F58C
:104AD000803F0CD00868006840F001000B68186047
:104AE00005E00868006840F001000B6818600020CD
:104AF000BCE7000000000140000400400008004046
:104B0000000C00400004014000180040004001403B
:104B100007000100704770B504462068C668206829
:104B2000056905F00200022819D106F002000228EA
:104B300015D1401F21680861012020772068806915
:104B400000F0030018B12046FFF7E4FF05E020461F
:104B500000F0ADF8204600F0ABF80020207705F01B
:104B60000400042819D106F00400042815D1C0431C
:104B700021680861022020772068806900F4407075
:104B800018B12046FFF7C6FF05E0204600F08FF879
:104B9000204600F08DF80020207705F00800082856
:104BA00019D106F00800082815D1C0432168086112
:104BB000042020772068C06900F0030018B1204667
:104BC000FFF7A8FF05E0204600F071F8204600F04E
:104BD0006FF80020207705F01000102819D106F09A
:104BE0001000102815D1C0432168086108202077E3
:104BF0002068C06900F4407018B12046FFF78AFFB2
:104C000005E0204600F053F8204600F051F800205F
:104C1000207705F0010048B106F0010030B16FF0D7
:104C2000010021680861204600F044F805F080008A
:104C3000802804D005F40050B0F5005F0AD106F0DA
:104C40008000802806D16FF4025021680861204658
:104C5000FFF7CBFE05F48070B0F5807F0AD106F037
:104C60008000802806D16FF480702168086120469A
:104C7000FFF7BAFE05F04000402809D106F04000D9
:104C8000402805D1C04321680861204600F01EF885
:104C900005F02000202809D106F02000202805D1A9
:104CA000C043216808612046FFF7A0FE70BD704731
:104CB0007047000010B5044603492068884201D1BE
:104CC000FDF7A8FC10BD0000000001407047014640
:104CD00000BF91F88400012801D102207047012013
:104CE00081F8840000BF2420C1F8880008680268A9
:104CF0000868006820F001000B68186022F000527C
:104D000000204866086802602020C1F8880000BFC3
:104D1000002081F8840000BF00BFDFE770477047C4
:104D200070B504460D4600BF94F88400012801D1F7
:104D3000022070BD012084F8840000BF2420C4F844
:104D40008800206806682068006820F0010021685B
:104D500008602068806820F06060284321688860CF
:104D6000204601F0CBF8206806602020C4F88800B7
:104D700000BF002084F8840000BF00BFD9E770B5F1
:104D800004460D4600BF94F88400012801D102209A
:104D900070BD012084F8840000BF2420C4F888007E
:104DA000206806682068006820F00100216808601B
:104DB0002068806820F06040284321688860204691
:104DC00001F09CF8206806602020C4F8880000BF2D
:104DD000002084F8840000BF00BFD9E77047704707
:104DE000704700002DE9F04704462068C569206837
:104DF00006682068876840F60F0005EA0009B9F1E7
:104E0000000F0FD105F0200060B106F0200010B9AE
:104E100007F0805030B1606F10B12046616F884755
:104E2000BDE8F087B9F1000F7ED0F848384018B9D6
:104E3000F74830400028F7D005F0010058B106F4DB
:104E4000807040B1012021680862D4F8900040F0E1
:104E50000100C4F8900005F0020058B107F001000D
:104E600040B1022021680862D4F8900040F00400AC
:104E7000C4F8900005F0040058B107F0010040B1FB
:104E8000042021680862D4F8900040F00200C4F8C1
:104E9000900005F0080070B106F0200010B9DB4862
:104EA000384040B1082021680862D4F8900040F0F2
:104EB0000800C4F8900005F4006060B106F080605E
:104EC00048B14FF4006021680862D4F8900040F0C7
:104ED0002000C4F89000D4F89000002852D005F0CB
:104EE000200050B106F0200010B907F0805020B12A
:104EF000606F10B12046616F8847D4F890A0206899
:104F0000806800F04000402802D00AF0280070B30A
:104F1000204601F01BF92068806800F0400040281E
:104F200026D100BF00BF00E02DE02168083151E824
:104F3000001F21F040002168083141E80002002AEA
:104F4000F1D100BFD4F8800068B1B248D4F8801025
:104F50000865D4F88000FCF729FA98B1D4F88000ED
:104F6000016D88470EE02046FFF73AFF0AE003E0B4
:104F70002046FFF735FF05E02046FFF731FF002010
:104F8000C4F890004CE7E06E01287DD105F01000D8
:104F9000002879D006F010000028FAD010202168EF
:104FA00008622068806800F0400040286DD1D4F885
:104FB00080000068984988426BD0D4F8800000686F
:104FC00095491831884264D0D4F88000006892492D
:104FD000303188425DD0D4F8800000688E49483175
:104FE000884256D0D4F8800000688B4960318842EE
:104FF0004FD0D4F88000006887497831884248D083
:10500000D4F88000006884499031884241D0D4F8B7
:10501000800000688049A83188423AD0D4F88000E6
:1050200000687E49884234D0D4F8800000687B490B
:10503000183188422DD0D4F880000068774930318B
:10504000884226D0D4F880000068744948318842EC
:105050001FD0D4F88000006870496031884218D0B1
:10506000D4F8800000686D497831884211D0D4F8B6
:10507000800000686949903188420AD0D4F88000E5
:1050800000686649A83102E0CAE07BE001E088429E
:1050900004D1D4F880000068406803E0D4F88000B0
:1050A000006840681FFA80F8B8F1000F58D0B4F8D3
:1050B0005C00404554DDA4F85E80D4F88000C069EF
:1050C000B0F5807F40D000BF00BF216851E8001FCD
:1050D00021F48070226842E800010029F5D100BF68
:1050E00000BF00BF2168083151E8001F21F0010016
:1050F0002168083141E80002002AF3D100BF00BF57
:1051000000BF2168083151E8001F21F040002168EC
:10511000083141E80002002AF3D100BF2020C4F882
:105120008C000020E06600BF00BF216851E8001F2E
:1051300021F01000226842E800010029F5D100BFEB
:10514000D4F88000FBF7C4FE02202067B4F85C00AE
:10515000B4F85E20801A81B22046FFF7DFFD10E030
:10516000B4F85C0040450CD1D4F88000C069B0F5BB
:10517000807F06D102202067B4F85C102046FFF73C
:10518000CDFD4DE634F85C0F6188401A1FFA80F8B7
:1051900060885C3CC8B3B8F1000F36D000BF00BFD8
:1051A000216851E8001F21F49070226842E8000154
:1051B0000029F5D100BF00BF00BF2168083151E8C8
:1051C000001F124AD24301EA02002168083141E877
:1051D0000002002AF1D100BF2020C4F88C0000207A
:1051E000E066606700BF00BF216851E8001F21F042
:1051F0001000226842E800010029F5D100BF02201A
:10520000206741462046FFF789FD09E601000010AE
:105210002001000437610008100002401004024021
:1052200005F4801050B107F4800038B14FF48010BD
:10523000216808622046FFF7D2FDF1E505F0800005
:1052400058B106F0800010B907F4000028B1A06F33
:1052500010B12046A16F8847E2E505F0400030B16B
:1052600006F0400018B1204600F0A6FFD8E505F48E
:10527000000030B106F0804018B12046FFF7AEFDC7
:10528000CEE505F0807030B106F0004018B1204640
:10529000FFF745FDC4E500BFC2E510B504460CB9F3
:1052A000012010BDA06900B100E000BFD4F8880063
:1052B00028B9002084F88400204600F02BF8242030
:1052C000C4F888002068006820F0010021680860A8
:1052D000A06A10B1204600F03DFE204600F084FF99
:1052E000012800D1DDE72068406820F49040216863
:1052F00048602068806820F02A0021688860206863
:10530000006840F0010021680860204600F09EFE21
:10531000C7E7000010B5B8B00446142132A8FBF767
:10532000ACF8C02102A8FBF7A8F82A4920688842F7
:105330004ED101210020CDE90210202004908121CE
:105340000591022106910621079102210891402131
:10535000099100210A910B910820219002A8FDF7E4
:1053600033FD08B1FBF79FFD00BF1B48006840F00C
:105370001000194908600846006800F0100001900C
:1053800000BF00BF00BF14481038006840F00200A2
:105390001149103908600846006800F002000190C9
:1053A00000BF00BF4FF440403290022033900020F5
:1053B000349035900420369032A90848FDF710F853
:1053C000002205212520FDF73BFA2520FDF724FAD0
:1053D00038B010BD00100140F044025800040258DB
:1053E000704700BFFEE738B50446002000906A46CB
:1053F0000121636920689847002802DA6FF00400F1
:1054000038BD6A460121636920689847002802DA9E
:105410006FF00400F4E7009800F0040008B90120E0
:10542000EEE76A460021636920689847002802DA9F
:105430006FF00400E4E7009800F48050B0F5805F5E
:105440001FD0009800F40050B0F5005F07D100981D
:1054500000F48070B0F5807F01D10220D0E7009881
:1054600000F40050B0F5005F01D10320C8E70098B8
:1054700000F48070B0F5807F01D10420C0E70520E2
:10548000BEE76A461F21636920689847002802DA50
:105490006FF00400B4E7009800F4805008B90620CB
:1054A000AEE7009800F01C00182801D10220A7E701
:1054B000009800F01C00082801D10320A0E7009804
:1054C00000F01C00142801D1042099E7052097E77B
:1054D000F8B504460020009000250026606830BB27
:1054E000A06808B1A068804720202060002513E054
:1054F0006A461221284663699847002802DA6FF04D
:10550000040608E0009800F01F00A84202D12560C0
:10551000002603E000BF6D1C1F2DE9D900BF2068E5
:105520001F2801D96FF002060EB9012060603046D5
:10553000F8BD02462AB1C86818B1886808B1086980
:1055400010B94FF0FF307047086890604B68D36027
:10555000CB6853618B6813610B6993610020F2E79C
:105560001FB500200090019002900390FDF706F90E
:1055700001208DF8000000208DF8010001901F200F
:105580008DF8080087208DF8090000208DF80A00AA
:105590008DF80B0001208DF80C008DF80D00002017
:1055A0008DF80E008DF80F006846FDF7B9F8012060
:1055B0008DF801001548019010208DF8080000209A
:1055C0008DF8090001208DF80A0003208DF80B00EA
:1055D00000208DF80D006846FDF7A2F802208DF836
:1055E00001000B48019008208DF8080000208DF87C
:1055F0000A0001208DF80D008DF80F006846FDF7B8
:105600008FF80420FDF7D0F81FBD00000000023025
:105610000000043000B587B0142102A8FAF72DFF6E
:1056200000BF1C48006840F004001A4908600846A2
:10563000006800F00400019000BF00BF00BF0846F2
:10564000006840F0010008600846006800F00100B2
:10565000019000BF00BF00BF0846006840F0020094
:1056600008600846006800F00200019000BF00BF1B
:10567000002208210848FCF7BBFF08200290012007
:10568000039000200490059002A90348FCF7A8FEAF
:1056900007B000BDE0440258000002580EB5C0201B
:1056A00086490870A82048700A208870C870FF20BA
:1056B00083490870487088700020C870814908705C
:1056C00048708870C8700021084612F03BFA7B4889
:1056D000007800067949497840EA0140774989789D
:1056E00040EA01207549C9780843020673480078EA
:1056F00000067249497840EA01407049897840EAD9
:1057000001206E49C978084300F47F4042EA002234
:105710006A48007800066949497840EA01416748CB
:10572000807841EA00206549C978084300F47F0089
:1057300042EA10226148007801066048407841EA58
:1057400000415E48807841EA00205C49C9780843FE
:1057500042EA10605C4908605948007800065849E0
:10576000497840EA01405649897840EA0120544985
:10577000C978084302065248007800065049497823
:1057800040EA01404E49897840EA01204C49C978F5
:10579000084300F47F4042EA0022494800780006AE
:1057A0004749497840EA01414548807841EA00206C
:1057B0004349C978084300F47F0042EA1022404878
:1057C000007801063E48407841EA00413C48807834
:1057D00041EA00203A49C978084342EA10603B494F
:1057E00008603848007800063649497840EA0140A8
:1057F0003449897840EA01203249C97808430206D1
:105800003048007800062F49497840EA01402D4988
:10581000897840EA01202B49C978084300F47F4089
:1058200042EA00222748007800062649497840EAE3
:1058300001412448807841EA00202249C978084380
:1058400000F47F0042EA10221E48007801061D483D
:10585000407841EA00411B48807841EA002019491C
:10586000C978084342EA10601949086019481A4982
:105870000022174BCDE900210290144A1249174823
:1058800007F062FC154807F0D1FE144808F00EF846
:105890001349124807F036FF24211248FAF7EDFDAC
:1058A00011A0104908604FF48060486110208861A1
:1058B0000A460A490E4808F047FB0EBDC8490024B5
:1058C000CC490024D0490024BC490024C04900240C
:1058D000C44900243D7D010879820008304D002430
:1058E0009D800008644D00244574684C696E6B000F
:1058F000A180000810B51848184908604FF4E1303D
:105900004860002115488160C16001610C2141613E
:1059100000218161C1610162416200200F498862FA
:105920000846FFF7BAFC08B1FBF7BDFA00210B48A7
:10593000FFF725FA08B1FBF7B6FA00210748FFF791
:10594000EFF908B1FBF7AFFA0448FFF7C0F908B167
:10595000FBF7A9FA10BD000000100140484B0024DD
:1059600000BFFEE700BFFEE72DE9F04104460E460A
:1059700000275548006800F00300032802D10120E9
:10598000BDE8F08150482838006820F080604E491A
:1059900028390860FCF738FE054606E0FCF734FEBF
:1059A000401B022801D90320EAE74748283800684D
:1059B000C0F3C0600028F1D100BF4348006820F464
:1059C0007C30216840EA01303F490860A088401ED1
:1059D000C0F30800A168491E4FF47E4202EA41214B
:1059E0000843A189491ED20102EA01410843217CF2
:1059F000491E120202EA016108433349103108606E
:105A000000BF3148001D006820F0C00061690843F4
:105A10002D49091D08600846006820F02000A16992
:105A200008432949091D08600846006820F0100055
:105A300008602548143000684FF6F8718843E16922
:105A400040EAC1002049143108601F48001D006869
:105A500040F010001C49091D08602EB90846006876
:105A600040F40020086012E0012E08D11648001D05
:105A7000006840F480101449091D086007E01248CE
:105A8000001D006840F400100F49091D08600E4811
:105A90002838006840F080600B4928390860FCF71E
:105AA000B3FD054606E0FCF7AFFD401B022801D917
:105AB000032065E7044828380068C0F3C060002868
:105AC000F1D038465CE70000284402582DE9F04147
:105AD00004460E4600275548006800F003000328DE
