:020000040800F2
:1000000080DA0024F903000811930008758A0008BB
:100010000D930008AD08000835A600080000000098
:10002000000000000000000000000000390300088C
:10003000370C0008000000009503000837980008FE
:100040001704000817040008170400081704000824
:100050001704000817040008170400081704000814
:10006000170400081704000817040008B108000866
:10007000C1080008D1080008E1080008F1080008DC
:100080000109000811090008170400086D0C000898
:100090008D0C00087D0C00089D0C0008390C000830
:1000A00017040008299A000817040008170400081C
:1000B000399A0008499A0008599A0008798A000874
:1000C0001704000817040008170400081197000817
:1000D0001704000825A600081704000817040008E4
:1000E00017040008170400080000000017040008A7
:1000F0001704000817040008170400081704000874
:100100001704000817040008699A0008170400087B
:10011000559C0008659C0008799A0008170400089F
:100120002109000831090008170400081704000815
:100130001704000817040008170400081704000833
:1001400000000000000000000000000000000000AF
:100150001704000817040008170400081704000813
:100160001704000817040008170400081704000803
:100170001704000817040008170400080000000016
:100180001704000817040008759C0008859C0008E7
:1001900017040008170400081704000817040008D3
:1001A00017040008170400081704000817040008C3
:1001B00017040008170400081704000817040008B3
:1001C00017040008170400081704000817040008A3
:1001D0001704000817040008170400081704000893
:1001E0001704000817040008170400081704000883
:1001F0001704000817040008170400081704000873
:100200001704000817040008170400081704000862
:100210001704000817040008170400081704000852
:100220001704000817040008170400080000000065
:100230001704000817040008000000003907000830
:100240001704000817040008170400081704000822
:100250001704000817040008170400081704000812
:100260001704000817040008170400081704000802
:100270001704000817040008170400080000000015
:100280001704000817040008170400080000000005
:10029000000000001704000800F002F800F03CF82D
:1002A0000AA090E8000C82448344AAF10107DA45D1
:1002B00001D100F031F8AFF2090EBAE80F0013F0E7
:1002C000010F18BFFB1A43F001031847E4C50000F3
:1002D00004C60000103A24BF78C878C1FAD8520783
:1002E00024BF30C830C144BF04680C6070470000B0
:1002F0000023002400250026103A28BF78C1FBD82F
:10030000520728BF30C148BF0B6070471FB50CF0C3
:1003100063FA1FBD10B510BD00F0D9F91146FFF703
:10032000F5FF0AF0A9F900F0F7F903B4FFF7F2FFBF
:1003300003BC00F0FBF900002C4B19680868B0E81A
:10034000F04F80F30988BFF36F8F4FF0000080F308
:10035000118870470000000008480068006880F3BA
:1003600008884FF0000080F3148862B661B6BFF3CE
:100370004F8FBFF36F8F00DF00BF00BF08ED00E0BD
:10038000DFF80C00016841F470010160704700BFA4
:1003900088ED00E0EFF30980BFF36F8F134B1A680D
:1003A0001EF0100F08BF20ED108A20E9F04F1060FA
:1003B00009B44FF0500080F31188BFF34F8FBFF3A3
:1003C0006F8F0BF005FB4FF0000080F3118809BC24
:1003D00019680868B0E8F04F1EF0100F08BFB0ECC5
:1003E000108A80F30988BFF36F8F70471C000024C8
:1003F000EFF30580704700000A4880470A488047AD
:100400000A480047FEE7FEE7FEE7FEE7FEE7FEE7F5
:10041000FEE7FEE7FEE7FEE705480649064A074B0A
:1004200070470000490C00082D9900089902000847
:10043000805A002480DA0024809A0024809A0024C4
:1004400053EA020C00F069802DE9F04B4FF00006F2
:10045000002B1FBFB3FA83F503FA05F424FA05F65F
:100460005E4012BF1643B2FA82F502FA05F4C5F1F6
:1004700020051EBF22FA05FC44EA0C04203556EA8A
:10048000044C4FEA144418BF641C4FF000084FF0AE
:100490000009904271EB030C39D3002919BFB1FA5E
:1004A00081F701FA07F6B0FA80F700FA07F6C7F10C
:1004B00020071EBF20FA07FC46EA0C062037B6FBD1
:1004C000F4FCA7EB0507103F07F01F0BCBF120064C
:1004D0000CFA0BFB2CFA06F644BFB3460026202F7D
:1004E000A4BF5E464FF0000B5BEA060C08BF4FF05E
:1004F000010B19EB0B09ABFB027C48EB0608C01B98
:1005000006FB02CC0BFB03CC71EB0C01C1E70B46E5
:10051000024641464846BDE8F08B13B54FF0000057
:100520004FF00001AFF30080BDE81C407047032A84
:1005300040F2308010F0030C00F0158011F8013B00
:10054000BCF1020F624498BF11F801CB00F8013BE7
:1005500038BF11F8013BA2F1040298BF00F801CBAB
:1005600038BF00F8013B11F0030300F02580083A82
:10057000C0F0088051F8043B083A51F804CBA0E8D9
:100580000810F5E7121D5CBF51F8043B40F8043B2E
:10059000AFF30080D20724BF11F8013B11F801CB63
:1005A00048BF11F8012B24BF00F8013B00F801CB34
:1005B00048BF00F8012B704710B5203AC0F00B80FF
:1005C000B1E81850203AA0E81850B1E81850A0E857
:1005D0001850BFF4F5AF5FEA027C24BFB1E81850B1
:1005E000A0E8185044BF18C918C0BDE810405FEA21
:1005F000827C24BF51F8043B40F8043B08BF70479D
:10060000D20728BF31F8023B48BF11F8012B28BFA1
:1006100020F8023B48BF00F8012B704702F0FF03AF
:1006200043EA032242EA024200F002B84FF000021D
:100630000429C0F0128010F0030C00F01B80CCF1F4
:10064000040CBCF1020F18BF00F8012BA8BF20F862
:10065000022BA1EB0C0100F00DB85FEAC17C24BFB6
:1006600000F8012B00F8012B48BF00F8012B704760
:100670004FF0000200B5134694469646203922BF3B
:10068000A0E80C50A0E80C50B1F12001BFF4F7AF86
:10069000090728BFA0E80C5048BF0CC05DF804EB68
:1006A000890028BF40F8042B08BF704748BF20F8D6
:1006B000022B11F0804F18BF00F8012B70477047D4
:1006C00070477047004870471C5A002470477546B1
:1006D000FFF7F8FFAE4605006946534620F00700D5
:1006E000854618B020B5FFF797FEBDE820404FF0D3
:1006F00000064FF000074FF000084FF0000B21F00C
:100700000701AC46ACE8C009ACE8C009ACE8C009D8
:10071000ACE8C0098D46704710B50446AFF30080C1
:100720002046BDE81040FFF700BE00000149182038
:10073000ABBEFEE72600020010B5024800F0A8FE9E
:1007400010BD00009C00002470B504464F4920688D
:10075000884203D04E492068884208D14D4800683D
:1007600000F4403008B1012009E0002007E04A48C9
:10077000006800F4403008B1012000E00020B8B16A
:1007800005F0F4FE05466068B0F5803F06D0B0F590
:10079000003F04D0B0F5403F08D105E000BF6068DD
:1007A000000CB5FBF0F502E0AD0800E000BF2BE067
:1007B0004FF40020002104F007FA05466068C0F3FA
:1007C0001101F9B980140C281CD2DFE800F01B06D7
:1007D0000708090A0B111315171900BF00BF00BF46
:1007E00000BF00BF6068800C4000B5FBF0F50AE078
:1007F0002D0908E06D0906E0AD0904E0ED0902E00D
:100800002D0A00E000BF00BF03F048FB41F20301E6
:10081000884210D82148854206D92068806840F473
:100820008070216888602FE02068806820F48070E4
:100830002168886028E06D081948854206D820683C
:10084000806820F44070216888601DE0154885426A
:1008500008D82068806820F4407040F480702168D7
:10086000886011E01048854208D82068806820F42C
:10087000407040F400702168886005E0206880685E
:1008800040F440702168886070BD00000020024084
:10089000002102400823024008630258002D310164
:1008A000105E5F0020BCBE0040787D0100BFFEE707
:1008B00010B5024801F0AAFD10BD00009C0F0024F5
:1008C00010B5024801F0A2FD10BD0000BC0D0024CF
:1008D00010B5024801F09AFD10BD0000CC0C0024B8
:1008E00010B5024801F092FD10BD0000AC0E0024CE
:1008F00010B5024801F08AFD10BD0000240F00244D
:1009000010B5024801F082FD10BD0000340E002435
:1009100010B5024801F07AFD10BD0000440D00241E
:1009200010B5024801F072FD10BD00000001002466
:1009300010B5024801F06AFD10BD0000141000243B
:100940000146374A0868904249D0354A183208684B
:10095000904244D0324A3032086890423FD0304A08
:100960004832086890423AD02D4A60320868904276
:1009700035D02B4A78320868904230D0284A9032DD
:10098000086890422BD0264AA8320868904226D0A8
:10099000244A0868904222D0224A183208689042BD
:1009A0001DD0204A30320868904218D01D4A483283
:1009B0000868904213D01B4A6032086890420ED0FB
:1009C000184A78320868904209D0164A903208686E
:1009D000904204D0134AA8320868904201D1012005
:1009E00000E00020B0B10A78103A1823B2FBF3F00F
:1009F00000F007020C4B9A5CCA65032805D90A6807
:100A00006FF30902121D8A6503E00A686FF3090299
:100A10008A6503E0086820F0FF008865886D7047EC
:100A2000100002401004024008C8000810B5026817
:100A30002B4C0368A34222D0294C14340368A342F0
:100A40001DD0274C28340368A34218D0244C3C34D2
:100A50000368A34213D0224C50340368A3420ED043
:100A60001F4C64340368A34209D01D4C78340368DA
:100A7000A34204D01A4C8C340368A34201D1012351
:100A800000E000238BB10378083B1424B3FBF4F19E
:100A9000144B03EB81030366124B8033436601F072
:100AA0001F040123A340836618E00378103B182439
:100AB000B3FBF4F10C4B9A4204D80B4BA83B9A427F
:100AC00000D30831094B03EB81030366074B8033E6
:100AD000436601F01F040123A340836610BD00009C
:100AE0000854025800580258B80402400008024056
:100AF0000179A9B3082940D8204B02689A4222D034
:100B00001E4B143302689A421DD01C4B28330268D6
:100B10009A4218D0194B3C3302689A4213D0174BB3
:100B2000503302689A420ED0144B643302689A42E2
:100B300009D0124B783302689A4204D00F4B8C33A1
:100B400002689A4201D1012200E000224AB14A1E05
:100B50000B4B03EB8202C266094A4032026708E08F
:100B60000BE04A1E074B03EB8202C266054A403285
:100B700002674A1E01239340436770470854025896
:100B80000059025800090240014600208A69D2B982
:100B90008A6A32B1012A0DD0022A03D0032A10D169
:100BA0000EE000BFCA6A02F08072B2F1807F00D10D
:100BB000012007E0CA6AB2F1C07F00D1012001E044
:100BC00000E000BF36E08A69B2F5005F1BD18A6A97
:100BD00032B1012A07D0022A03D0032A11D10AE038
:100BE00000BF01200EE0CA6A02F08072B2F1807F7D
:100BF00000D1012006E0CA6AB2F1C07F00D1012015
:100C000000E000BF16E08A6A32B1012A05D0022A4C
:100C100004D0032A0CD103E000BF00BF012008E08C
:100C2000CA6A02F08072B2F1807F00D1012000E038
:100C300000BF00BF7047704710B5802003F022F856
:100C400010BD72B600BFFEE70748006840F0020022
:100C50000549086000BF04480838006800F40050E7
:100C60000028F8D0704700000C48025810B5024820
:100C700002F0DCFB10BD00007801002410B5024832
:100C800002F0D4FB10BD00007801002410B502482A
:100C900002F0CCFB10BD00001802002410B5024881
:100CA00002F0C4FB10BD00001802002410B501467C
:100CB0004A6B0868D0F884004FF6FC74A04340EA01
:100CC00082000C68C4F884000868D0F8840020F41E
:100CD0007F04088F44EA00400C68C4F88400886BE5
:100CE00002440868D0F888004FF6FC74A04340EA3C
:100CF00082000C68C4F888000868D0F8880020F4E6
:100D0000FE04888F44EA00400C68C4F88800C86B71
:100D100002EB40020868D0F8A0004FF6FC74A04334
:100D200040EA82000C68C4F8A0000868D0F8A0006F
:100D300020F4FE044020405A44EA00400C68C4F805
:100D4000A000D1E9104004FB00220868D0F8B000F0
:100D50004FF6FC74A04340EA82000C68C4F8B0006F
:100D60000868D0F8B00020F4FE04B1F8480044EA66
:100D700000400C68C4F8B000D1E9124004FB002226
:100D80000868D0F8AC004FF6FC74A04340EA82003B
:100D90000C68C4F8AC00D1E9144004FB00220868D8
:100DA000D0F8F0004FF6FC74A04340EA82000C68D3
:100DB000C4F8F0000868D0F8F00020F47C14B1F812
:100DC000580044EA00400C68C4F8F000886D02EB5B
:100DD00040020868D0F8C0004FF6FC74A04340EA17
:100DE00082000C68C4F8C0000868D0F8C00020F485
:100DF0007C14B1F85C0044EA00400C68C4F8C00000
:100E00000868D0F8C00020F07C5491F8600044EAF3
:100E100000600C68C4F8C0002A4C486B04EB8000EA
:100E2000C866CC6E886B04EB80040C670C6FC86BD3
:100E300004EBC0044C67D1E9100460434C6F04EB31
:100E400080048C67D1E9120460438C6F04EB80044A
:100E5000CC67D1E914046043CC6F04EB800480209C
:100E600044504458886D04EBC004842044508C6E78
:100E7000C86D60438424645804EB80048820445087
:100E80008C6E086E60438824645804EB80049020C4
:100E9000445040580C4CA04209D99831486840F061
:100EA00020004860032001F89809012010BDCB6E96
:100EB00002E0002018601B1D902040589842F8D88E
:100EC0000020F3E700AC0040FCD3004070477047BF
:100ED00070477047704700002DE9F84F04460D46F3
:100EE0004FF0000A0020009094F83800012800D14B
:100EF00000E000BFFC49E868884200D00EE0FB49F2
:100F00002068884200D100BFF9492068884200D19A
:100F100000BFF8492068884200D100BF00BF94F8A4
:100F20005000012802D10220BDE8F88F012084F88A
:100F3000500000BF206807F0C0FD002870D128686D
:100F400000F00040A8B92068C1692868C0F3130008
:100F500018B92868C0F3846004E0286890FAA0F00B
:100F6000B0FA80F000F01F02012090400143206899
:100F7000C1612168D5E9002001F1300CC0F3012BDB
:100F80000CEB8B03D3F800C000F01F0E4FF01F0BCB
:100F90000BFA0EFB2CEA0B0C00F01F0BC2F3846E55
:100FA0000EFA0BFE4CEA0E0CC3F800C000BF20681E
:100FB00007F083FD8146206807F070FD8046B9F197
:100FC000000F78D1B8F1000FFBD12168AA6828681A
:100FD00001F1140CC0F3406B0CEB8B03D3F800C091
:100FE000C0F3045E4FF0070B0BFA0EFB2CEA0B0C60
:100FF000C0F3045B02FA0BFB4CEA0B0CC3F800C015
:1010000000BFBD48006800F07040B0F1805F08D1BB
:1010100068692168C968C1F382014900884015E008
:1010200013E22068C06800F0100038B968692168D0
:10103000C968C1F382014900884007E068692168F6
:10104000C96801F0100189084900884007462869ED
:1010500004283FD020682A68296900F1600C0CEB55
:101060008103D3F800C00CF0004C02F0F84B4BEABF
:10107000070B4CEA0B0CC3F800C000BF20686A7E67
:101080002969012A01D1D20700E00022134600F1AC
:10109000600C0CEB8102D2F800C02CF0004C4CEA42
:1010A000030CC2F800C000BF20682B7E2969012B09
:1010B00002D1DB0201E045E000231A46036923F474
:1010C000F04301F01F0C02FA0CFC43EA0C0303612D
:1010D00000BF37E02068006E00F0F8402978B0EBE0
:1010E000816F05D12068006E20F0004021680866FD
:1010F0002068406E00F0F8402978B0EB816F05D190
:101100002068406E20F00040216848662068806EAC
:1011100000F0F8402978B0EB816F05D12068806E2F
:1011200020F00040216888662068C06E00F0F8401A
:101130002978B0EB816F05D12068C06E20F00040A7
:101140002168C866206807F0AEFC00286FD12068CF
:10115000EA682968D0F8C0C0C1F313032CEA030C75
:1011600002F0180B654B23FA0BF30B404CEA030C0F
:10117000C0F8C0C000BF5C49E868884270D15B4BD2
:10118000206898423DD15E4B2A689A4201D10122E3
:1011900076E05C4B2A689A4201D15B4A70E05B4B77
:1011A0002A689A4201D15A4A6AE05A4B2A689A42FE
:1011B00001D1594A64E0594B2A689A4201D1584AF0
:1011C0005EE0584B2A689A4201D1574A58E0564B84
:1011D0002A689A4201D1554A52E0544B2A689A42F1
:1011E00001D1534A4CE0534B2A689A4201D1524AEA
:1011F00046E0524B2A689A4201D1514A40E000220F
:101200003EE03B4B22689A4239D13D4B2A689A42D4
:1012100001D1012234E03B4B2A689A4201D13A4A7B
:101220002EE03A4B2A689A4202D1394A28E0B4E0CB
:10123000384B2A689A4201D1374A21E0374B2A6855
:101240009A4201D1364A1BE0364B2A689A4201D1B4
:10125000354A15E0344B2A689A4202D1334A0FE0EE
:1012600023E0324B2A689A4201D1314A08E0334BDD
:101270002A689A4201D1324A02E0002200E00022AC
:101280001146C369C1F3130212B9C1F3846203E0CA
:1012900091FAA1F2B2FA82F202F01F0C012202FAD4
:1012A0000CF21343C36100BF00BF286800F0004088
:1012B000002872D00D4A2168914203D00C4A21685F
:1012C000914201D11F4900E01F490846816801F0A1
:1012D000E07600BF05492068884203D004492068B1
:1012E000884233D1174832E00000FF470020024017
:1012F00000210240006002580010005CFFFF0F0058
:101300000200300404006008400020190800900C1E
:101310008000501D1000C010000180212000F0143A
:101320000002B0250004002A0008302E00106032B0
:101330000020903600002143000052470000844BFB
:101340000000B84F00230240006302584548464958
:10135000884209D1454807F0A6FB8346444807F078
:10136000A2FB4BEA000002E0424807F09CFBE8BB0E
:1013700041492868884227D106F4000020BB3D4936
:101380002068884267D1394B22689A4203D0384B93
:1013900022689A4202D1344A01E032E0314A1046D2
:1013A00046F4000107F097FB344800683449B0FB6D
:1013B000F1F0401C4000009002E00098401E0090B8
:1013C00000980028F9D146E02E492868884219D1B2
:1013D00006F08070B0B92749206888423BD1234B82
:1013E00022689A4205D0224B226800E026E09A4209
:1013F00001D11D4A00E01B4A104646F0807107F0FB
:101400006AFB28E020492868884224D106F480003D
:1014100008BB1849206888421DD1144B22689A42A3
:1014200003D0134B22689A4201D10F4A00E00D4AC3
:10143000104646F4800107F04EFB0CE0606D40F072
:10144000200060654FF0010A05E0606D40F020006B
:1014500060654FF0010A00BF002084F8500000BF13
:10146000504661E50063025800230240002002401C
:101470000021024000600258000084CB14000024C8
:10148000400D0300000052C70000B8CF70477047FE
:101490002DE9F84F04460020009020680568206878
:1014A0004668CD4A2168914203D0CC4A21689142D6
:1014B00001D1CB4900E0CB49084607F0EAFA0746DC
:1014C00005F00200022811D106F0020002280DD119
:1014D000606D00F0100018B9606D40F40060606548
:1014E0002046FFF7F3FC02202168086005F00400A5
:1014F000042803D106F00400042807D005F00800F2
:1015000008285DD106F00800082859D1606D00F068
:10151000100018B9606D40F400706065206807F035
:10152000D1FA002846D0AD492068884201D1AA48A6
:1015300000E020682168884204D01FB1052F01D047
:10154000092F03D12068D0F80C8009E0A349206856
:10155000884201D1A04800E020688346DBF80C8077
:1015600008F40050B0F5005F24D02068006800F057
:10157000080008281ED1206807F09FFA90B920685B
:10158000406820F00C0021684860606D20F4807095
:101590006065606D00F4805060B9606D40F00100DE
:1015A000606507E0606D40F010006065A06D40F080
:1015B0000100A0652046FFF769FF0C202168086044
:1015C00005F02000202803D106F02000202807D0B5
:1015D00005F04000402870D106F0400040286CD152
:1015E000606D00F0100018B9606D40F40050606547
:1015F0002068C16C01F4C07109B9012100E000212B
:101600008A4600BF206807F05DFA8146734920686A
:10161000884201D1704800E020682168884204D0E7
:101620001FB1062F01D0072F03D12068D0F80C80FE
:1016300009E06A492068884201D1674800E02068D3
:101640008346DBF80C80BAF1000F30D008F0007050
:1016500028B1B9F1000F2AD008F4005038BB206837
:10166000006800F04000402821D108F40010F0B9D3
:10167000206807F013FA90B92068406820F06000F5
:1016800021684860606D20F480506065606D00F4F2
:10169000807060B9606D40F00100606507E0606DCA
:1016A00040F010006065A06D40F00100A06520468C
:1016B000FFF70DFC60202168086005F0800080289D
:1016C0000DD106F08000802809D1606D40F4803093
:1016D0006065204600F0CEF980202168086005F49E
:1016E0008070B0F5807F0FD106F48070B0F5807FF8
:1016F0000AD1606D40F4003060652046FFF7E9FBD9
:101700004FF480702168086005F40070B0F5007F28
:101710000FD106F40070B0F5007F0AD1606D40F47F
:10172000802060652046FFF7D5FB4FF400702168EC
:10173000086005F01000102833D106F010001028C2
:101740002FD1206B10B90120009019E08FB1224AEF
:101750002168914203D0214A2168914201D1204958
:1017600000E02049084607F08FF948B101200090B9
:1017700006E02068C06800F0030008B10120009076
:10178000009801280AD1606D40F480606065A06D0A
:1017900040F00200A0652046FFF779FE1020216886
:1017A000086005F48060B0F5806F13D106F48060A6
:1017B000B0F5806F0ED1606D40F480406065A06D23
:1017C00040F00800A0654FF4806021680860204662
:1017D000FFF77EFBBDE8F88F0020024000210240A9
:1017E00000230240006302582DE9F84F04464FF0F1
:1017F00000090020009014B90120BDE8F88FE068CE
:1018000018B1207F012800D100BF606D30B920469B
:1018100000F032F90020A06584F85000206881684B
:10182000C1F3407131B120688168874A11408160FD
:1018300000BF00BF206807F03BF9A8B920688168A5
:10184000824A114041F08051816000BF80480068A9
:101850008049B0FBF1F0401C009002E00098401E6F
:10186000009000980028F9D1206807F021F948B9C4
:10187000606D40F010006065A06D40F00100A06553
:101880004FF00109206807F018F90646606D00F076
:10189000100000287ED1002EFCD1606D20F48070F5
:1018A00040F002006065206807F0FDF878BB6A49E7
:1018B0002068884203D069492068884201D168487D
:1018C00000E068486649884209D1634807F0EBF8B0
:1018D0008246624807F0E7F84AEA000002E0624800
:1018E00007F0E1F898B95C4B22689A4203D05B4B51
:1018F00022689A4201D15A4A00E05A4A1046616869
:10190000826822F47C120A43826000BF00BF02F0AA
:10191000C5FA41F2030188420ED9A06810280BD104
:10192000607D216B41EA4030A168084340F00C0122
:10193000207F41EA004508E0607D216B41EA4030AC
:10194000A1680843217F40EA0145207F012803D197
:10195000208C401E45EA4045606A28B1A08C00F406
:101960007870A16A084305432068C0683F49084071
:1019700028432168C860206807F09FF880462068E7
:1019800007F08CF80746B8F1000F3BD1D7BB207D9C
:10199000E16A00E050E041EA80352068C06844F226
:1019A0000301884328432168C86094F8380001285F
:1019B00017D1606A08B1A06A00B900BFA08F401EAD
:1019C000012141EA0041206C0843616C0843A16C8D
:1019D000084321680969264A1140084321680861C3
:1019E00005E02068006920F0010021680861206896
:1019F000006920F07040616B08432168086120464F
:101A0000FEF7A2FEE068012809D12068006B20F0F3
:101A10000F00A169491E08432168086305E020689A
:101A2000006B20F00F0021680863606D20F0020059
:101A300040F00100606505E0606D40F010006065F9
:101A40004FF001094846D8E6C0FFFF5FC0FFFF7FA7
:101A500014000024400D0300002002400021024039
:101A600000230240006302580060025803C0F0FFE8
:101A70001EF800FC7047000010B5B8B004461421F1
:101A800032A8FEF7F5FDC02102A8FEF7F1FD3C49A2
:101A90002068884271D14FF400210020CDE9021066
:101AA00088102B9002A803F0E7FC08B1FFF7C9F8F3
:101AB00000BF3448006840F0807032490860084632
:101AC000006800F08070019000BF00BF00BF0846B2
:101AD000006840F0200008600846006800F0200020
:101AE000019000BF00BF00BF0846006840F004003E
:101AF00008600846006800F00400019000BF00BFC5
:101B00004FF4FF603290032033900020349032A9CC
:101B10001D4802F0C5F801203290032033900020C8
:101B2000349032A9194802F0BBF8194819490860E5
:101B300073204860002117488160C1604FF48061C4
:101B4000016149004161890081614911C161490216
:101B500001620021416201F0D5F908B1FFF771F887
:101B600000BF0C48E064846300BF002205217F2091
:101B700002F04EFB7F2002F037FB38B010BD0000B2
:101B800000600258E044025800140258000802584D
:101B900010040240000100242DE9F041044602F047
:101BA00083F9804614B90120BDE8F08194F835002E
:101BB000022808D08020606500BF002084F834002F
:101BC00000BF0120F0E7FE492068884249D0FC4967
:101BD00018312068884244D0F94930312068884261
:101BE0003FD0F7494831206888423AD0F449603103
:101BF0002068884235D0F24978312068884230D058
:101C0000EF499031206888422BD0ED49A8312068F7
:101C1000884226D0EB492068884222D0E949183111
:101C2000206888421DD0E74930312068884218D0AA
:101C3000E44948312068884213D0E2496031206885
:101C400088420ED0DF4978312068884209D0DD49CA
:101C500090312068884204D0DA49A831206888424F
:101C600001D1012000E0002068B12068006820F068
:101C70001E00216808602068406920F0800021680B
:101C80004861256806E02068006820F00E002168A1
:101C900008602568CA492068884270D0C849183150
:101CA000206888426BD0C64930312068884266D0AF
:101CB000C34948312068884261D0C14960312068F9
:101CC00088425CD0BE4978312068884257D0BC49F0
:101CD00090312068884252D0B949A83120688842A2
:101CE0004DD0B8492068884249D0B649183120689B
:101CF000884244D0B3493031206888423FD0B1494E
:101D00004831206888423AD0AE4960312068884224
:101D100035D0AC4978312068884230D0A94990311B
:101D2000206888422BD0A749A8312068884226D055
:101D3000A5492068884222D0A349143120688842EE
:101D40001DD0A14928312068884218D09E493C31D5
:101D50002068884213D09C495031206888420ED0B8
:101D6000994964312068884209D0974978312068C0
:101D7000884204D094498C312068884201D10120E6
:101D800000E0002028B1206E006820F48070216EF1
:101D900008608B492068884249D0894918312068F9
:101DA000884244D086493031206888423FD08449F7
:101DB0004831206888423AD08149603120688842A1
:101DC00035D07F4978312068884230D07C499031C5
:101DD000206888422BD07A49A8312068884226D0D2
:101DE00078492068884222D0764918312068884294
:101DF0001DD0744930312068884218D0714948316B
:101E00002068884213D06F496031206888420ED024
:101E10006C4978312068884209D06A49903120683D
:101E2000884204D06749A8312068884206D12068DA
:101E3000006820F001002168086005E02068006863
:101E400020F001002168086011E002F02DF8A0EBFD
:101E5000080005280BD920206065032084F8350090
:101E600000BF002084F8340000BF01209CE62868F1
:101E700000F001000028E8D151492068884249D08B
:101E80004F4918312068884244D04D49303120688C
:101E900088423FD04A494831206888423AD0484970
:101EA00060312068884235D04549783120688842C1
:101EB00030D043499031206888422BD04049A83126
:101EC0002068884226D03F492068884222D03D4978
:101ED0001831206888421DD03A4930312068884244
:101EE00018D0384948312068884213D035496031CC
:101EF000206888420ED0334978312068884209D062
:101F0000304990312068884204D02E49A831206899
:101F1000884201D1012000E0002040B1A66D94F874
:101F20005C0000F01F013F208840B06007E0A76D13
:101F300094F85C0000F01F0101208840786020497F
:101F40002068884276D01E4918312068884271D0B6
:101F50001B493031206888426CD0194948312068CB
:101F6000884267D0164960312068884262D014499F
:101F70007831206888425DD01149903120688842CC
:101F800058D00F49A8312068884253D00D492068A5
:101F900088424FD00B491831206888424AD00949FD
:101FA00030312068884245D006494831206888424F
:101FB00040D004496031206888423BD0014905E0A7
:101FC0001000024010040240085402587831206882
:101FD00088422FD02549206888422BD023491831C8
:101FE0002068884226D022492068884222D0204991
:101FF0001431206888421DD01D492831206888424C
:1020000018D01B493C312068884213D01849503100
:10201000206888420ED0164964312068884209D071
:10202000134978312068884204D011498C312068E6
:10203000884201D1012000E0002068B1D4E91910E4
:102040004860E06E40B1E06E006820F48070E16EA0
:102050000860D4E91C104860012084F8350000BFF6
:10206000002084F8340000BF00BF9DE5A0040240BA
:102070000854025870B504460CB9012070BD94F89C
:102080003500022803D0802060650120F6E7DC4996
:102090002068884249D0DA4918312068884244D003
:1020A000D7493031206888423FD0D549483120682F
:1020B00088423AD0D24960312068884235D0D04930
:1020C00078312068884230D0CD49903120688842EC
:1020D0002BD0CB49A8312068884226D0C949206836
:1020E000884222D0C7491831206888421DD0C5498E
:1020F00030312068884218D0C2494831206888426F
:1021000013D0C0496031206888420ED0BD49783173
:102110002068884209D0BB4990312068884204D0A9
:10212000B849A8312068884201D1012000E0002090
:10213000F0B3042084F83500B149206888424BD0C0
:10214000AF4918312068884246D0AD493031206807
:10215000884241D0AA494831206888423CD0A849E9
:1021600060312068884237D0A5497831206888429C
:1021700032D0A3499031206888422DD0A049A8319F
:102180002068884228D09F492068884224D09D49F1
:102190001831206888421FD09A493031206888421F
:1021A0001AD0984948312068884215D0954900E0F6
:1021B00020E06031206888420ED092497831206852
:1021C000884209D08F4990312068884204D08D49D7
:1021D000A8312068884206D12068006820F00100FC
:1021E0002168086009E12068006820F0010021688A
:1021F000086002E12068006820F00E002168086095
:102200007F492068884249D07D491831206888423A
:1022100044D07B493031206888423FD078494831EA
:10222000206888423AD0764960312068884235D0AB
:10223000734978312068884230D0714990312068E4
:1022400088422BD06E49A8312068884226D06D493B
:102250002068884222D06B491831206888421DD0FE
:10226000684930312068884218D066494831206872
:10227000884213D063496031206888420ED061499A
:1022800078312068884209D05E49903120688842C0
:1022900004D05C49A8312068884206D120680068D3
:1022A00020F001002168086005E02068006820F047
:1022B00001002168086052492068884270D0504966
:1022C0001831206888426BD04D49303120688842EF
:1022D00066D04B4948312068884261D04849603116
:1022E000206888425CD0464978312068884257D0BF
:1022F000434990312068884252D04149A831206832
:1023000088424DD03F492068884249D03D49183124
:102310002068884244D03B493031206888423FD011
:1023200038494831206888423AD0364960312068BF
:10233000884235D0334978312068884230D03149DD
:102340009031206888422BD02E49A83120688842DD
:1023500026D02D492068884222D02B49143120688C
:1023600088421DD0284928312068884218D0264943
:102370003C312068884213D023495031206888427C
:102380000ED0214964312068884209D01E49783135
:102390002068884204D01C498C312068884201D1D1
:1023A000012000E00020D8B1206E006820F4807089
:1023B000216E0860A56D94F85C0000F01F010120FB
:1023C00088406860D4E919104860E06E40B1E06E62
:1023D000006820F48070E16E0860D4E91C10486049
:1023E000012084F8350000BF002084F8340000BFCD
:1023F000206D10B12046216D884700203EE6000088
:102400001000024010040240085402582DE9F84F11
:10241000044600200090FE4800684FF41651B0FBBF
:10242000F1FAA66DD4F858803768D8F80090F949C9
:102430002068884249D0F74918312068884244D042
:10244000F4493031206888423FD0F2494831206851
:1024500088423AD0EF4960312068884235D0ED4952
:1024600078312068884230D0EA499031206888422B
:102470002BD0E849A8312068884226D0E649206858
:10248000884222D0E4491831206888421DD0E249B0
:1024900030312068884218D0DF49483120688842AE
:1024A00013D0DD496031206888420ED0DA49783196
:1024B0002068884209D0D84990312068884204D0E9
:1024C000D549A8312068884201D1012000E00020D0
:1024D00000287DD094F85C0000F01F01082088409F
:1024E0003840002868D0CB492068884249D0C94983
:1024F00018312068884244D0C6493031206888426B
:102500003FD0C4494831206888423AD0C14960313F
:102510002068884235D0BF4978312068884230D061
:10252000BC499031206888422BD0BA49A831206834
:10253000884226D0B8492068884222D0B64918314E
:10254000206888421DD0B44930312068884218D0B4
:10255000B14948312068884213D0AF4960312068C2
:1025600088420ED0AC4978312068884209D0AA4907
:1025700090312068884204D0A749A8312068884259
:1025800004D12068006800F0040003E020680068BF
:1025900000F0080080B12068006820F00400216885
:1025A000086094F85C0000F01F0108208840B060CB
:1025B000606D40F00100606594F85C0000F01F0160
:1025C000012088403840E8B392492068884200E002
:1025D000B7E24BD08F4918312068884246D08D49E8
:1025E00030312068884241D08A4948312068884289
:1025F0003CD0884960312068884237D0854978319D
:102600002068884232D083499031206888422DD09A
:102610008049A8312068884228D07F4920688842B4
:1026200024D07D491831206888421FD07A49303142
:10263000206888421AD0784948312068884215D0ED
:10264000754900E026E06031206888420ED072496A
:1026500078312068884209D06F49903120688842DB
:1026600004D06D49A8312068884204D120684069AF
:1026700000F0800002E020680068002050B194F86B
:102680005C0000F01F0101208840B060606D40F0E8
:102690000200606594F85C0000F01F01042088408F
:1026A0003840E8B35B49206888424BD0594918311B
:1026B0002068884246D0574930312068884241D04E
:1026C00054494831206888423CD0524960312068E2
:1026D000884237D04F4978312068884232D04D49FE
:1026E0009031206888422DD04A49A831206888421C
:1026F00028D049492068884224D0474918312068A9
:1027000088421FD044493031206888421AD042495B
:1027100048312068884215D03F496031206800E088
:1027200024E088420ED03C4978312068884209D0A4
:10273000394990312068884204D03749A83120684F
:10274000884204D12068006800F0020002E020689E
:102750000068002050B194F85C0000F01F010420D4
:102760008840B060606D40F00400606594F85C00E3
:1027700000F01F01102088403840E8B32549206848
:10278000884251D023491831206888424CD02149D1
:1027900030312068884247D01E494831206888423D
:1027A00042D01C496031206888423DD019497831B7
:1027B0002068884238D0174990312068884233D049
:1027C0001449A831206888422ED0134920688842D5
:1027D0002AD0114918312068884225D00E4930315D
:1027E0002068884220D00C494831206888421BD09C
:1027F00009496031206800E04DE0884214D0064964
:102800007831206888420FD003499031206805E074
:10281000140000241000024010040240884203D03B
:10282000FE492068884204D12068006800F0080052
:1028300003E02068006800F0040060B394F85C00D6
:1028400000F01F0110208840B0602068006800F48C
:10285000802080B12068006800F4002028B9206C36
:10286000C8B12046216C884715E0A06C98B120467D
:10287000A16C88470FE02068006800F4807028B9D8
:102880002068006820F0080021680860206C10B102
:102890002046216C884794F85C0000F01F0120203E
:1028A0008840384000287DD0DD492068884249D0E2
:1028B000DB4918312068884244D0D949303120683A
:1028C00088423FD0D6494831206888423AD0D4491E
:1028D00060312068884235D0D149783120688842FB
:1028E00030D0CF499031206888422BD0CC49A831D4
:1028F0002068884226D0C949A8392068884221D05A
:10290000C6499039206888421CD0C449783920686B
:10291000884217D0C14960392068884212D0BF4927
:102920004839206888420DD0BC4930392068884237
:1029300008D0BA4918392068884203D0B7492068BE
:10294000884204D12068006800F0100003E020688D
:10295000006800F0020028B394F85C0000F01F014A
:1029600020208840B06094F8350004282DD12068DC
:10297000006820F01600216808602068406920F097
:10298000800021684861206C08B9A06C28B12068DB
:10299000006820F008002168086094F85C0000F0EE
:1029A0001F0100E03FE03F208840B060012084F834
:1029B000350000BF002084F8340000BF206D10B146
:1029C0002046216D8847BDE8F88F2068006800F434
:1029D000802080B12068006800F4002028B9606C75
:1029E00008B32046616C88471DE0E06BD8B12046F3
:1029F000E16B884717E02068006800F4807068B9D0
:102A00002068006820F0100021680860012084F828
:102A1000350000BF002084F8340000BFE06B10B127
:102A20002046E16B8847606D00287AD0606D00F029
:102A30000100E8B3042084F8350079492068884211
:102A40004BD0774918312068884246D074493031DC
:102A50002068884241D072494831206888423CD081
:102A60006F4960312068884237D06D4978312068DD
:102A7000884232D06A499031206888422DD0684916
:102A8000A8312068884228D06449A8392068884243
:102A900023D062499039206888421ED05F49783936
:102AA0002068884219D05D4960392068884200E07A
:102AB00040E012D059494839206888420DD0574922
:102AC00030392068884208D0544918392068884233
:102AD00003D052492068884206D12068006820F05F
:102AE00001002168086005E02068006820F001000E
:102AF0002168086000BF0098401C0090504500D934
:102B000005E02068006800F001000028F3D100BF54
:102B10002068006800F0010020B1032084F835002F
:102B200003E00DE0012084F8350000BF002084F8A8
:102B3000340000BFE06C002802D02046E16C8847DA
:102B4000D9E138492068884222D0364914312068BA
:102B500088421DD0334928312068884218D0314935
:102B60003C312068884213D02E4950312068884279
:102B70000ED02C4964312068884209D02949783127
:102B80002068884204D027498C312068884201D1CE
:102B9000012000E000200028D2D02068056894F8C9
:102BA0005C0000F01F010420884000EA0900D8B34F
:102BB00005F00400C0B394F85C0000F01F0104208D
:102BC0008840C8F8040005F4004080B105F4803066
:102BD00030B9A06C0028B3D02046A16C88478AE1A8
:102BE000206C0028ACD02046216C884783E105F09A
:102BF0002000E8BB0A492068884253D008491831B0
:102C0000206888424ED0064930312068884249D039
:102C1000034948312068884244D006E0B8040240A5
:102C200010000240085402584FE0B4496031206857
:102C3000884237D0B14978312068884232D0AF49D4
:102C40009031206888422DD0AC49A8312068884254
:102C500028D0AB492068884224D0A949183120687F
:102C600088421FD0A6493031206888421AD000E03F
:102C700025E0A34948312068884213D0A04960313B
:102C8000206888420ED09E4978312068884209D059
:102C90009B4990312068884204D09949A831206826
:102CA000884206D12068006820F00800216808608A
:102CB00005E02068006820F0040021680860206CAE
:102CC00010B32046216C884715E194F85C0000F0B1
:102CD0001F010220884000EA0900E8B305F0020065
:102CE000D0B394F85C0000F01F0102208840C8F8BF
:102CF000040005F4004070B105F4803028B9606C20
:102D000010B12046616C8847F5E0E06BF0B32046D7
:102D1000E16B8847EFE005F02000C0BB77492068F1
:102D200088424ED0754918312068884249D073498D
:102D300030312068884244D0704948312068884248
:102D40003FD06E496031206888423AD06B49783173
:102D50002068884235D000E04EE068499031206814
:102D600088422ED06549A8312068884229D064491C
:102D70002068884225D0624918312068884220D0D6
:102D80005F493031206888421BD001E06EE02DE0C1
:102D90005B4948312068884213D059496031206826
:102DA00088420ED0564978312068884209D054496B
:102DB00090312068884204D05149A8312068884267
:102DC00006D12068006820F014002168086005E042
:102DD0002068006820F00A0021680860012084F85B
:102DE000350000BF002084F8340000BFE06BE8B37A
:102DF0002046E16B88477EE094F85C0000F01F01FC
:102E00000820884000EA090080B305F0080068B394
:102E10003A49206888424BD03849183120688842A6
:102E200046D0364930312068884241D03349483154
:102E3000206888423CD0314960312068884237D0D0
:102E40002E4978312068884232D02C499031206850
:102E500088422DD02949A8312068884228D02849A5
:102E60002068884224D02649183100E043E02068D9
:102E700088421DD0224930312068884218D020492C
:102E800048312068884213D01D496031206888424B
:102E90000ED01B4978312068884209D018499031FA
:102EA0002068884204D01649A8312068884206D19B
:102EB0002068006820F01C002168086005E0206898
:102EC000006820F00E002168086094F85C0000F0B3
:102ED0001F0101208840C8F804000120606584F8C3
:102EE000350000BF002084F8340000BFE06C10B152
:102EF0002046E16C884700BF65E5000010000240F5
:102F0000100402402DE9F041044600F0CDFF804658
:102F100014B90120BDE8F081FE492068884249D0FB
:102F2000FC4918312068884244D0FA493031206881
:102F300088423FD0F7494831206888423AD0F54965
:102F400060312068884235D0F24978312068884263
:102F500030D0F0499031206888422BD0ED49A8311B
:102F60002068884226D0EC492068884222D0EA496D
:102F70001831206888421DD0E749303120688842E6
:102F800018D0E54948312068884213D0E2496031C1
:102F9000206888420ED0E04978312068884209D004
:102FA000DD4990312068884204D0DB49A83120688F
:102FB000884201D1012000E00020002873D0606A1F
:102FC00000B100BF022084F8350000BF002084F863
:102FD000340000BFCF492068884249D0CD4918311C
:102FE0002068884244D0CB493031206888423FD0A5
:102FF000C8494831206888423AD0C64960312068C3
:10300000884235D0C34978312068884230D0C149E0
:103010009031206888422BD0BE49A8312068884270
:1030200026D0BD492068884222D0BB49183120688B
:1030300088421DD0B84930312068884218D0B6493E
:1030400048312068884213D0B349603120688842F3
:103050000ED0B14978312068884209D0AE4990310C
:103060002068884204D0AC49A8312068884206D143
:103070002068006820F001002168086005E02068F1
:10308000006820F00100216808600DE000F00CFFEE
:10309000A0EB0800052807D920206065032084F8EC
:1030A0003500012036E76AE02068006800F0010082
:1030B0000028EBD12068056898480540D4E9020152
:1030C00008432169084361690843A1690843E1692C
:1030D0000843216A08430543606A042803D1D4E900
:1030E0000B01084305438E4800686FF30F00B0F1F1
:1030F000005F1DD36068292802D360682E2811D98B
:1031000060683F2802D3606842280BD9606847286E
:1031100002D36068482805D960684F2804D36068E6
:10312000522801D8012000E0002008B145F48015A4
:10313000206805602068456925F00705606A054339
:10314000606A04280DD1A06A0543E06A48B12046B0
:10315000FDF71AFD28B140206065012084F8350094
:10316000D8E6206845612046FDF7EAFB064694F85C
:103170005C0000F01F013F208840B0609EE069497C
:103180002068884222D067491431206888421DD0C7
:10319000644928312068884218D062493C3120684F
:1031A000884213D05F495031206888420ED05D4973
:1031B00064312068884209D05A49783120688842B1
:1031C00004D058498C312068884201D1012000E0A8
:1031D0000020E0B353492068884222D0514914317D
:1031E000206888421DD04F4928312068884218D075
:1031F0004C493C312068884213D04A4950312068FC
:1032000088420ED0474964312068884209D0454938
:1032100078312068884204D042498C312068884245
:1032200001D1012000E0002000B100BF022084F89D
:10323000350000BF002084F8340000BF2068056816
:1032400039480540A068402802D1102106E02EE050
:10325000A068802801D1C10100E00021E06841EAB6
:10326000D001206941EAD001606941EAD001A0693A
:1032700041EAD001E06941EAD001206A41EA101038
:1032800005432068056027492068401A1421B0FBD7
:10329000F1F08000E0652046FDF752FB074694F808
:1032A0005C0000F01F0101208840786006E04020AB
:1032B0006065032084F8350001202BE6154920685D
:1032C00088427FD013491831206888427AD011494A
:1032D00030312068884275D00E49483120688842D4
:1032E00070D00C496031206888426BD00949783130
:1032F0002068884266D0074990312068884261D0B2
:103300000449A831206888425CD00349206888427B
:1033100058D00BE010000240100402403F8010FE25
:103320000010005C085402580F00FEFF3B491831A2
:103330002068884246D0394930312068884241D0DF
:1033400036494831206888423CD034496031206891
:10335000884237D0314978312068884232D02F49AD
:103360009031206888422DD02C49A83120688842AD
:1033700028D02B492068884224D02949143120685C
:1033800088421FD026492831206888421AD0244913
:103390003C312068884215D021495031206888424C
:1033A00010D01F496431206888420BD01C49783105
:1033B0002068884206D01A498C312068884200E093
:1033C00000E001D1012000E0002000B32046FDF71D
:1033D0002DFBA068802801D1002060602079216E3B
:1033E0000860D4E919104860606860B16068082816
:1033F00009D82046FDF77CFB0020E16E0860D4E987
:103400001C10486003E00020E06620676067002031
:103410006065012084F8350000207BE5100402403F
:103420000854025870477047704770472DE9F04FB5
:103430008DB00446EF4800688707EE48001D00681D
:1034400007EA80772068006D00F470482068406DBE
:1034500000EA08082068006D00F00F092068406D40
:1034600000EA09092068006D00F0F00A2068406D4C
:1034700000EA0A0A2068006D00F0715B2068406D68
:1034800000EA0B0B2068006D00F060700C90206863
:10349000406D0C9908400C902068456D2068066DC1
:1034A000C5F3002070B1C6F3002058B100BF4FF43F
:1034B0008070216808650020CE49086000BF204662
:1034C000FFF7B3FFC5F38020C8B1C6F38020B0B1C9
:1034D0002068D0F8DC000A902068D0F8E4000A994F
:1034E00008400A9000BF4FF4806021680865002002
:1034F000C049086000BF20460A9900F0BEFB67B1D2
:1035000000BFBD48384021680865B80FB949086058
:1035100000BF39462046FFF785FFB8F1000F0ED0F7
:1035200000BFB54808EA0000216808654FEA9870B6
:10353000B049086000BF4146204600F0A0FBB9F149
:10354000000F0ED000BFAC4809EA000021680865F2
:103550004FEA9970A749086000BF4946204600F02D
:1035600084FBBAF1000F0ED000BFA3480AEA0000A6
:10357000216808654FEA9A709E49086000BF51466D
:10358000204600F073FBC5F3C02070B1C6F3C02025
:1035900058B100BF4FF400602168086500209549CC
:1035A000086000BF204600F06BFBC5F34020C8B1A7
:1035B000C6F34020B0B12068D0F8D8000B90206846
:1035C000D0F8E0000B9908400B9000BF4FF400705A
:1035D0002168086500208749086000BF20460B99D4
:1035E00000F04CFBC5F3C04070B1C6F3C04058B109
:1035F00000BF4FF400202168086500207D49086065
:1036000000BF204600F030FBC5F3004070B1C6F3A8
:10361000004058B100BF4FF4803021680865002099
:103620007449086000BF204600F026FBC5F38040C7
:1036300070B1C6F3804058B100BF4FF480202168BC
:10364000086500206B49086000BF204600F013FBAE
:10365000C5F3404088B1C6F3404070B100BF4FF49D
:1036600000302168086500206249086000BFD4F876
:103670009C0040F08000C4F89C000C9870B100BF22
:103680005D490C980840216808650C98800F5949DD
:10369000086000BF20460C99FFF7C6FEBBF1000F83
:1036A00010D000BF54480BEA0000216808654FEABB
:1036B0009B705049086000BFD4F89C0040EA0B00A2
:1036C000C4F89C004D49206888427DD160688068BC
:1036D00000F00300002877D06068006A00F00F0057
:1036E00009906068406A0999084009906068006A1A
:1036F00000F0300008906068406A0899084008901F
:103700006068006A00F4C07007906068406A0799BA
:10371000084007906068006A00F4FC40069060680A
:10372000406A0699084006906068006A00F4F0203C
:1037300005906068406A0599084005906068406A95
:1037400002906068006A0190099830B10998616838
:1037500008622046099900F08BFA089830B1089861
:10376000616808622046089900F084FA0298C0F364
:103770008010A0B10198C0F3801080B16068C06B68
:10378000000C04906068C06B00F03F000390402084
:10379000616808622046DDE9032100F06AFA0798B3
:1037A00030B10798616808622046079900F05FFA17
:1037B000069840B1069861680862D4F89C000699A2
:1037C0000843C4F89C0000E00AE0059840B1059861
:1037D00061680862D4F89C0005990843C4F89C000D
:1037E000D4F89C0010B12046FFF71DFE0DB0BDE8D7
:1037F000F08F000010A80040FFFFCF3F00A0004066
:1038000070B594B004464C22B34901A8FCF7D4FE2D
:1038100014B9012014B070BDB0492068884203D1AA
:10382000206800F580706060A068B0F5407F00D12E
:1038300000BF206C00B100BFA06C00B100BF206DC4
:1038400000B100BF206E00B100BFD4E917100844DA
:1038500000B100BF94F8980028B9002084F89900BE
:10386000204600F03DF92068806920F010002168B2
:10387000886100F019FB05460EE000F015FB401BC7
:103880000A2809D99834606840F00100606003207C
:1038900004F898090120BDE72068806900F008005D
:1038A0000828EAD02068806940F00100216888611A
:1038B00000F0FAFA05460EE000F0F6FA401B0A287E
:1038C00009D99834606840F001006060032004F872
:1038D000980901209EE72068806900F00100002817
:1038E000EAD02068806940F0020021688861207C6D
:1038F000012806D12068806920F040002168886195
:1039000005E02068806940F0400021688861607CA3
:10391000012806D12068806940F4804021688861D0
:1039200005E02068806920F4804021688861A07CDF
:10393000012806D12068806920F4805021688861C0
:1039400005E02068806940F4805021688861206823
:10395000806920F44070A16808432168886120686C
:10396000806920F0A400216888612068006920F047
:10397000100021680861E068012806D1206880698C
:1039800040F004002168886120E0E068F0B1E06860
:10399000022815D02068806940F080002168886185
:1039A0002068006940F0100021680861E068032881
:1039B0000CD12068806940F020002168886105E012
:1039C0002068806940F0200021688861207E401EC8
:1039D0004106E069401E41EA0020216A491E084371
:1039E000A18A491E40EA01402168C861A068B0F57B
:1039F000407F0FD1A06A401EE16A491E40EA0121C2
:103A0000206B401E41EA0011A08C401E41EA00409C
:103A10002168C860206E38B12068D0F8C000616E9F
:103A200008432168C1F8C000D4E91710084460B108
:103A30002068D0F8C80020F0070001AAA16E52F853
:103A4000211008432168C1F8C800206C60B12068CB
:103A5000D0F8BC0020F0070001AA616C52F82110D8
:103A600008432168C1F8BC00A06C68B12068D0F898
:103A7000BC0020F0700101AAE06C52F8200041EA7D
:103A800000102168C1F8BC00206D68B12068D0F832
:103A9000BC0020F4E06101AA606D52F8200041EA08
:103AA00000202168C1F8BC000C492068884205D17B
:103AB0006068806820F0030061688860002044F836
:103AC000940FA06001202071943C2046FDF7EEF891
:103AD000064630469EE6000020C8000800A00040D0
:103AE00010B5B8B00446142132A8FCF7C1FDC021BE
:103AF00002A8FCF7BDFD56492068884251D14FF419
:103B000000410020CDE9021048031E9002A801F0F8
:103B1000B3FC08B1FDF795F84E480068401C4D49CC
:103B200008600846006801280DD100BF4A480068B7
:103B300040F48070484908600846006800F48070CE
:103B4000019000BF00BF00BF43480C38006840F040
:103B5000080041490C3908600846006800F0080078
:103B6000019000BF00BF032032900220339000205C
:103B7000349035900920369032A9384800F090F8FA
:103B800000220521132000F043FB132000F02CFB42
:103B900000220521152000F03BFB152000F024FB3E
:103BA00054E02F492068884250D14FF40041002052
:103BB000CDE9021048031E9002A801F05DFC08B197
:103BC000FDF73FF823480068401C2249086008467A
:103BD000006801280DD100BF1F48006840F48070C4
:103BE0001D4908600846006800F48070019000BF1D
:103BF00000BF00BF18480C38006840F002001649AA
:103C00000C3908600846006800F00200019000BF0F
:103C100000BF602032900220339000203490359015
:103C20000920369032A90F4800F03AF80022052109
:103C3000142000F0EDFA142000F0D6FA002205213D
:103C4000162000F0E5FA162000F0CEFA38B010BDCC
:103C500000A0004004000024EC440258000C02586C
:103C600000A4004000040258704770477047704736
:103C7000704770477047704770477047704770478C
:103C80007047704710B5044604480068204020B1D2
:103C9000024804602046FFF7F4FF10BD880000587A
:103CA000F8B502460B4600216F4DD7E001278F4043
:103CB0001E6806EA0704002C72D01E7906F003067F
:103CC000012E04D01E7906F00306022E13D190684F
:103CD0004F000326BE40B0434F00DE68BE40304375
:103CE0009060506801268E40B0431E79C6F30016DE
:103CF0008E40304350601E7906F00306032E09D033
:103D0000D0684F000326BE40B0434F009E68BE40BF
:103D10003043D0601E7906F00306022E13D1CF087F
:103D200002F1200656F827004E07F70E0F26BE4078
:103D3000B0434F07FF0E1E69BE403043CF0802F16B
:103D4000200646F8270010684F000326BE40B04307
:103D50001E7906F003064F00BE40304310605E68D7
:103D600006F44036002E78D000BF404E366846F04C
:103D700002063E4F3E603E46366806F0020600965A
:103D800000BF00BF3A4E8F0856F827008E07370F46
:103D90000F26BE40B043374EB24202D100262EE07D
:103DA0005BE0354EB24201D1012628E0334EB242EB
:103DB00001D1022623E0324EB24201D103261EE099
:103DC000304EB24201D1042619E02F4EB24201D149
:103DD000052614E02D4EB24201D106260FE02C4EEE
:103DE000B24201D107260AE02A4EB24201D108268A
:103DF00005E0294EB24201D1092600E00A268F07CC
:103E00003F0FBE4030431A4E8F0846F827004FF050
:103E1000B0463068A0435E6806F4801606B12043C1
:103E20004FF0B04630607068A0435E6806F400163C
:103E300006B120434FF0B04670606868A0435E68EA
:103E400006F4003606B1204368602868A0435E6827
:103E500006F4803606B120432860491C1E68CE4017
:103E6000002E7FF423AFF8BD80000058F4440258C0
:103E700008040058000002580004025800080258C4
:103E8000000C025800100258001402580018025882
:103E9000001C025800200258002402580148006803
:103EA000000C70470010005C01480068704700007B
:103EB0000800002410B504460CB9012010BDD4F848
:103EC000880078B9002084F88400204606F05AF86B
:103ED000D4F8C40010B91B48C4F8C4002046D4F874
:103EE000C41088472420C4F888002068006820F0A7
:103EF000010021680860A06A10B1204605F0F6FEB6
:103F0000204606F073F8012800D1D7E72068406802
:103F100020F49040216848602068806820F02200EA
:103F2000216888602068806840F008002168886007
:103F30002068006840F0010021680860204605F014
:103F400051FFBBE71985000870B5044620688569F4
:103F500020680668606B20B1324629462046636BB4
:103F6000984770BD70B504460CB9012070BD4CF681
:103F7000CC402168086045F2555021680860D4E9BA
:103F8000001048602168A0688860FFF78DFF054633
:103F90000DE0FFF789FF401B41F60101884206D979
:103FA0002068C06800F0070008B10320DEE7206841
:103FB000C06800F007000028EBD120680169E068C4
:103FC000814203D02168E068086103E04AF6AA2034
:103FD000216808600020C9E70348006803490978A0
:103FE00008440149086070470800002410000024BC
:103FF00010B5032000F04AF902F002FB10490968ED
:10400000C1F303210F4A515C01F01F0120FA01F4B2
:104010000B48006800F00F001146085C00F01F001C
:1040200024FA00F008490860084804600F2000F0F6
:104030000FF808B1012010BD00F0BEF80020FAE72B
:104040001844025894C800081800002414000024E2
:10405000F0B58BB00446102C0AD2002221461D2058
:1040600000F0D6F81D2000F0BFF81C48046002E004
:1040700001200BB0F0BD00BF1948006840F00200FD
:10408000174908600846006800F00200019000BF70
:1040900000BF02A903A802F033FA089E1EB902F07D
:1040A0008BFA054602E002F087FA45000D48B5FBA1
:1040B000F0F0471E0C480D49086040F2E7310B480C
:1040C000C160476000210161816003F05DFC18B9A7
:1040D000064803F049FDCCE70120CAE70C000024A4
:1040E000E844025840420F00000400408C100024B5
:1040F0004178154A116014490831096821F001011D
:10410000114A08321160121F41681160017B0907D2
:10411000C27A41EA0261827A41EAC241427B41EAC3
:104120008241827B41EA4241C27B41EA0241427ABA
:1041300041EA0221027A41EA420102781143024A2D
:10414000083211607047000098ED00E000BF00BF2A
:1041500000BFBFF35F8F00BF00BF00BF054800680E
:1041600020F4803003490860002002497031086063
:104170007047000024ED00E040F001010D4A11609D
:104180000C497039096841F480310A4A703A11606B
:1041900000BF00BF00BFBFF34F8F00BF00BF00BF15
:1041A00000BF00BF00BFBFF36F8F00BF00BF00BFE5
:1041B0007047000094ED00E008B500BF09480068B2
:1041C00040F00200074908600846006800F002005D
:1041D000009000BF00BF00220F21901E00F018F8D1
:1041E00008BD0000F44402580146084600280DDBD3
:1041F00000BF00BF00F01F0301229A4043099B004B
:1042000003F1E023C3F8002100BF00BF00BF7047E7
:104210002DE9F05F80460D46164606F00DFA07467A
:1042200039462A46334601F00700C0F1070ABAF1C1
:10423000040F02D94FF0040A01E0C0F1070AD14689
:1042400000F1040ABAF1070F02D24FF0000A01E0B0
:10425000A0F1030AD4464FF0010A0AFA09FAAAF1BA
:10426000010A0AEA020A0AFA0CFA4FF0010B0BFAE9
:104270000CFBABF1010B0BEA030B4AEA0B042146E2
:10428000404606F0E1F9BDE8F09F000000BF00F0F5
:104290000702064B19684FF6FF031940044B0B4306
:1042A00043EA0221014B196000BF70470CED00E0AA
:1042B0000000FA0570B5044615480068C0F3800098
:1042C00048B91348006800F00700A04201D001205F
:1042D00070BD0020FCE70E48006820F00700204376
:1042E0000B490860FFF7E0FD054607E0FFF7DCFD3E
:1042F000401BB0F57A7F01D90120E9E7044808386E
:104300000068C0F340300028F0D00020E0E7000053
:104310000C480258F8B50446FFF7C6FD06460CB92E
:104320000120F8BD206A402800D000BF94F8410069
:1043300038B9204600F046F841F28831204600F0B6
:10434000E7F82068006820F4F851A068401E41EAB0
:10435000002021680860A06C3346002220210090D4
:10436000204604F0EBFF054635BB2179E06840EAC2
:104370000160E1690843216A0843216809680F4A1E
:104380001140084321680860208A616941EA0040C1
:10439000A169084321684968094A11400843216816
:1043A00048602068006840F0010021680860002033
:1043B0006064012084F841002846B2E72FFFFF0027
:1043C000FEF8E0FF10B5B8B00446142132A8FCF79F
:1043D0004FF9C02102A8FCF74BF9474920688842F1
:1043E0007ED14FF000710020CDE90210159002A897
:1043F00001F042F808B1FCF724FC00BF3F48006818
:1044000040F480403D4908600846006800F4804060
:10441000019000BF00BF00BF38480C30006840F07A
:10442000100036490C3108600846006800F01000A2
:10443000019000BF00BF00BF0846006840F00200C6
:1044400008600846006800F00200019000BF00BF4D
:1044500000BF0846006840F0080008600846006891
:1044600000F00800019000BF00BF00BF08460068D0
:1044700040F0400008600846006800F040000190ED
:1044800000BF00BF042032900220339000203490FF
:1044900035900920369032A91948FFF701FC042015
:1044A00032900220339000203490359009203690CD
:1044B00032A91448FFF7F4FB4FF460503290022009
:1044C00033900020349035900920369032A90E4860
:1044D000FFF7E6FB4020329002203390002000E0FE
:1044E00007E0349035900A20369032A90748FFF74C
:1044F000D7FB38B010BD000000500052D444025821
:104500000010025800040258000C0258001802580B
:104510008164704710B502F029F805490968C1F3B4
:104520000211044A515C01F01F01C84010BD000097
:104530002044025894C8000870B50146844D2D6887
:1045400005F00303824D2D68C5F30510804D2D1D28
:104550002D6805F001047E4D0C352D68C5F3CC05A2
:1045600015FB04F501EE105AB8EE411AF0EE410ABF
:1045700000286FD023B1012B4ED0022B6BD16BE002
:10458000734D283D2D68C5F340153DB3704D283D52
:104590002D68C5F3C1066F4D25FA06F201EE102A0B
:1045A000F8EE411A01EE100AB8EE411A81EE812AA6
:1045B0009FED691AC0EE811A654D08352D68C5F367
:1045C000080501EE105AB8EE411A31EE811AF7EEE5
:1045D000001A31EE211A22EE010A1CE001EE100A47
:1045E000B8EE411ADFED5D1A81EE812A9FED5A1A6D
:1045F000C0EE811A564D08352D68C5F3080501EE49
:10460000105AB8EE411A31EE811AF7EE001A31EE67
:10461000211A22EE010A5BE001EE100AB8EE411AFF
:10462000DFED4F1A81EE812A9FED4B1AC0EE811A01
:10463000474D08352D68C5F3080501EE105AB8EE50
:10464000411A31EE811AF7EE001A31EE211A22EEEC
:10465000010A3DE077E01DE001EE100AB8EE411AD4
:104660009FED402AC2EE011A9FED3B1A80EE812A8F
:10467000374D08352D68C5F3080501EE105AB8EE20
:10468000411A32EE011AB7EE002A31EE021A21EE7B
:10469000810A1DE001EE100AB8EE411ADFED2F1A73
:1046A00081EE812A9FED2C1AC0EE811A284D083523
:1046B0002D68C5F3080501EE105AB8EE411A31EE27
:1046C000811AF7EE001A31EE211A22EE010A00BF1C
:1046D00000BF1F4D08352D68C5F3462501EE105A61
:1046E000B8EE411AF7EE001A31EE211AC0EE011AA7
:1046F000BCEEE11A81ED001A154D08352D68C5F3A1
:10470000064501EE105AB8EE411AF7EE001A31EEE6
:10471000211AC0EE011ABCEEE11A81ED011A0C4D0E
:1047200008352D68C5F3066501EE105AB8EE411A3A
:10473000F7EE001A31EE211AC0EE011ABCEEE11AB2
:1047400081ED021A03E000250D604D608D6070BDA3
:10475000284402580090D003000000460024744C06
:104760000024744A20BCBE4B70B50146844D2D68B0
:1047700005F00303824D2D68C5F30530804D2D1DD6
:104780002D68C5F300147E4D14352D68C5F3CC0596
:1047900015FB04F501EE105AB8EE411AF0EE410A8D
:1047A00000286FD023B1012B4ED0022B6BD16BE0D0
:1047B000734D283D2D68C5F340153DB3704D283D20
:1047C0002D68C5F3C1066F4D25FA06F201EE102AD9
:1047D000F8EE411A01EE100AB8EE411A81EE812A74
:1047E0009FED691AC0EE811A654D10352D68C5F32D
:1047F000080501EE105AB8EE411A31EE811AF7EEB3
:10480000001A31EE211A22EE010A1CE001EE100A14
:10481000B8EE411ADFED5D1A81EE812A9FED5A1A3A
:10482000C0EE811A564D10352D68C5F3080501EE0E
:10483000105AB8EE411A31EE811AF7EE001A31EE35
:10484000211A22EE010A5BE001EE100AB8EE411ACD
:10485000DFED4F1A81EE812A9FED4B1AC0EE811ACF
:10486000474D10352D68C5F3080501EE105AB8EE16
:10487000411A31EE811AF7EE001A31EE211A22EEBA
:10488000010A3DE077E01DE001EE100AB8EE411AA2
:104890009FED402AC2EE011A9FED3B1A80EE812A5D
:1048A000374D10352D68C5F3080501EE105AB8EEE6
:1048B000411A32EE011AB7EE002A31EE021A21EE49
:1048C000810A1DE001EE100AB8EE411ADFED301A40
:1048D00081EE812A9FED2C1AC0EE811A284D1035E9
:1048E0002D68C5F3080501EE105AB8EE411A31EEF5
:1048F000811AF7EE001A31EE211A22EE010A00BFEA
:1049000000BF1F4D10352D68C5F3462501EE105A26
:10491000B8EE411AF7EE001A31EE211AC0EE011A74
:10492000BCEEE11A81ED001A154D10352D68C5F366
:10493000064501EE105AB8EE411AF7EE001A31EEB4
:10494000211AC0EE011ABCEEE11A81ED011A0C4DDC
:1049500010352D68C5F3066501EE105AB8EE411A00
:10496000F7EE001A31EE211AC0EE011ABCEEE11A80
:1049700081ED021A03E000250D604D608D6070BD71
:10498000284402580090D003000000460024744CD4
:104990000024744A20BCBE4B70B50146844D2D687E
:1049A00005F00303824D2D68C5F30550804D2D1D84
:1049B0002D68C5F300247E4D1C352D68C5F3CC054C
:1049C00015FB04F501EE105AB8EE411AF0EE410A5B
:1049D00000286FD023B1012B4ED0022B6BD16BE09E
:1049E000734D283D2D68C5F340153DB3704D283DEE
:1049F0002D68C5F3C1066F4D25FA06F201EE102AA7
:104A0000F8EE411A01EE100AB8EE411A81EE812A41
:104A10009FED691AC0EE811A654D18352D68C5F3F2
:104A2000080501EE105AB8EE411A31EE811AF7EE80
:104A3000001A31EE211A22EE010A1CE001EE100AE2
:104A4000B8EE411ADFED5D1A81EE812A9FED5A1A08
:104A5000C0EE811A564D18352D68C5F3080501EED4
:104A6000105AB8EE411A31EE811AF7EE001A31EE03
:104A7000211A22EE010A5BE001EE100AB8EE411A9B
:104A8000DFED4F1A81EE812A9FED4B1AC0EE811A9D
:104A9000474D18352D68C5F3080501EE105AB8EEDC
:104AA000411A31EE811AF7EE001A31EE211A22EE88
:104AB000010A3DE077E01DE001EE100AB8EE411A70
:104AC0009FED402AC2EE011A9FED3B1A80EE812A2B
:104AD000374D18352D68C5F3080501EE105AB8EEAC
:104AE000411A32EE011AB7EE002A31EE021A21EE17
:104AF000810A1DE001EE100AB8EE411ADFED301A0E
:104B000081EE812A9FED2C1AC0EE811A284D1835AE
:104B10002D68C5F3080501EE105AB8EE411A31EEC2
:104B2000811AF7EE001A31EE211A22EE010A00BFB7
:104B300000BF1F4D18352D68C5F3462501EE105AEC
:104B4000B8EE411AF7EE001A31EE211AC0EE011A42
:104B5000BCEEE11A81ED001A154D18352D68C5F32C
:104B6000064501EE105AB8EE411AF7EE001A31EE82
:104B7000211AC0EE011ABCEEE11A81ED011A0C4DAA
:104B800018352D68C5F3066501EE105AB8EE411AC6
:104B9000F7EE001A31EE211AC0EE011ABCEEE11A4E
:104BA00081ED021A03E000250D604D608D6070BD3F
:104BB000284402580090D003000000460024744CA2
:104BC0000024744A20BCBE4B2DE9F04389B0064650
:104BD0000F464FF4807186EA0100384370D1F748E0
:104BE000006800F00709B9F1050F65D2DFE809F0A8
:104BF000031221623000F1485038006800F0007064
:104C0000B0F1007F04D106A8FFF796FC079C00E0F6
:104C1000002453E0E9485038006800F00060B0F12B
:104C2000006F04D103A8FFF79FFD039C00E0002460
:104C300044E0E2485038006800F00050B0F1005FF6
:104C400004D16846FFF7A8FE009C00E0002435E090
:104C5000DA48001F006800F04055D8485038006816
:104C600000F00400042809D145B9D4485038006840
:104C7000C0F3C101D24820FA01F41AE0CF485038FD
:104C8000006800F48070B0F5807F04D1B5F1805FDA
:104C900001D1CC4C0DE0C9485038006800F4003018
:104CA000B0F5003F04D1B5F1005F01D1C64C00E082
:104CB000002403E0C54C01E0002400BFD4E3FFE77B
:104CC0004FF4007186EA010038437AD1BB4800688E
:104CD00000F4E079B9F1800F2CD006DCB9F1000FB7
:104CE0000AD0B9F1400F69D115E0B9F1C00F63D016
:104CF000B9F5807F62D12CE0B0485038006800F0F0
:104D00000070B0F1007F04D106A8FFF715FC079CE6
:104D100000E0002454E0A9485038006800F000602A
:104D2000B0F1006F04D103A8FFF71EFD039C00E063
:104D3000002445E0A1485038006800F00050B0F170
:104D4000005F04D16846FFF727FE009C00E00024C6
:104D500036E09A48001F006800F0405597485038E8
:104D6000006800F00400042809D145B99348503880
:104D70000068C0F3C101924820FA01F41BE08F489B
:104D80005038006800F48070B0F5807F04D1B5F130
:104D9000805F01D18B4C0EE088485038006800F4E9
:104DA0000030B0F5003F05D1B5F1005F02D1864C6F
:104DB00001E006E0002403E0844C01E0002400BF91
:104DC00052E34FF4806186EA010038437BD17B488F
:104DD0000830006800F46009B9F5800F2CD006DCBB
:104DE000B9F1000F0AD0B9F5001F69D115E0B9F586
:104DF000C00F63D0B9F5000F62D12CE06F48503876
:104E0000006800F00070B0F1007F04D106A8FFF741
:104E100093FB079C00E0002454E068485038006889
:104E200000F00060B0F1006F04D103A8FFF79CFC14
:104E3000039C00E0002445E060485038006800F022
:104E40000050B0F1005F04D16846FFF7A5FD009C5B
:104E500000E0002436E05948001F006800F040558B
:104E600056485038006800F00400042809D145B9BC
:104E7000524850380068C0F3C101514820FA01F48B
:104E80001BE04E485038006800F48070B0F5807F19
:104E900004D1B5F1805F01D14A4C0EE0474850384B
:104EA000006800F40030B0F5003F05D1B5F1005FB7
:104EB00002D1454C01E006E0002403E0434C01E050
:104EC000002400BFD0E24FF4006186EA01003843BD
:104ED00073D13A480830006800F0E069B9F1007F0A
:104EE0002CD006DCB9F1000F0AD0B9F1807F75D162
:104EF00015E0B9F1407F6FD0B9F1806F6ED12CE031
:104F00002E485038006800F00070B0F1007F04D1E6
:104F100006A8FFF711FB079C00E0002460E027488B
:104F20005038006800F00060B0F1006F04D103A8B1
:104F3000FFF71AFC039C00E0002451E01F485038A2
:104F4000006800F00050B0F1005F04D16846FFF740
:104F500023FD009C00E0002442E01848001F006888
:104F600000F0405515485038006800F0040004284F
:104F700009D145B9114850380068C0F3C101104843
:104F800020FA01F427E00D485038006800F48070E2
:104F9000B0F5807F04D1B5F1805F01D1094C1AE0F2
:104FA00006485038006800F40030B0F5003F11D1D9
:104FB000B5F1005F0ED1044C0DE012E050440258F0
:104FC0000090D00300093D0040787D010080BB00C7
:104FD00004E001E0002403E0F74C01E0002400BFFE
:104FE00042E24FF4805186EA010038437AD1F34817
:104FF000006800F4E048B8F5005F2CD006DCB8F19A
:10500000000F0AD0B8F5805F69D115E0B8F5405FB0
:1050100063D0B8F5804F62D12CE0E8485038006882
:1050200000F00070B0F1007F04D106A8FFF784FA09
:10503000079C00E0002454E0E0485038006800F08D
:105040000060B0F1006F04D103A8FFF78DFB039C53
:1050500000E0002445E0D9485038006800F00050D6
:10506000B0F1005F04D16846FFF796FC009C00E0B9
:10507000002436E0D148001F006800F04055CF48BA
:105080005038006800F00400042809D145B9CB4825
:1050900050380068C0F3C101C94820FA01F41BE090
:1050A000C6485038006800F48070B0F5807F04D1A5
:1050B000B5F1805F01D1C34C0EE0C04850380068A4
:1050C00000F40030B0F5003F05D1B5F1005F02D12A
:1050D000BD4C01E006E0002403E0B74C01E00024F1
:1050E00000BFC1E14FF4005186EA0100384367D1A7
:1050F000B248006800F4E028B8F5403F33D009DC3E
:10510000B8F1000F0DD0B8F5803F0ED0B8F5003FD4
:1051100053D119E0B8F5802F37D0B8F5A02F4CD176
:105120003FE001F049FA044649E0A44850380068DD
:1051300000F00060B0F1006F04D103A8FFF714FB8A
:10514000049C00E000243AE09C485038006800F0DD
:105150000050B0F1005F04D16846FFF71DFC019CD0
:1051600000E000242BE095485038006800F004006F
:10517000042808D1914850380068C0F3C101904814
:1051800020FA01F400E0002419E08C48503800684F
:1051900000F48070B0F5807F01D18A4C00E00024DB
:1051A0000DE086485038006800F40030B0F5003F4C
:1051B00001D1854C00E0002401E0002400BF53E150
:1051C0004FF4002186EA0100384361D17B48083062
:1051D000006800F44038B8F1000F06D0B8F5803F01
:1051E00012D0B8F5003F50D11DE074485038006827
:1051F00000F00060B0F1006F04D103A8FFF7B4FA2B
:10520000039C00E0002442E06C485038006800F045
:105210000050B0F1005F04D16846FFF7BDFB029C6F
:1052200000E0002433E06548001F006800F04055AE
:1052300062485038006800F00400042809D145B9DC
:105240005E4850380068C0F3C1015D4820FA01F49F
:105250001AE05A485038006800F48070B0F5807F3A
:1052600004D1B5F1805F01D1564C0DE05348503860
:10527000006800F40030B0F5003F04D1B5F1005FE4
:1052800001D1514C00E0002401E0002400BFEBE01C
:105290004FF4803186EA010038432CD14748001F83
:1052A000006800F48038B8F1000F03D0B8F5803FF3
:1052B0001ED10EE041485038006800F00070B0F197
:1052C000007F04D106A8FFF737F9079C00E000240F
:1052D00010E03A485038006800F00060B0F1006F0C
:1052E00004D103A8FFF740FA059C00E0002401E088
:1052F000002400BFB8E04FF4804186EA0100384343
:1053000072D12E480830006800F0E048B8F1405FE4
:1053100033D009DCB8F1000F0DD0B8F1805F0ED0AA
:10532000B8F1005F5DD119E0B8F1804F37D0B8F126
:10533000A04F56D14AE0FFF7EDF8044653E01F486E
:105340005038006800F00060B0F1006F04D103A88D
:10535000FFF70AFA049C00E0002444E017485038A4
:10536000006800F00050B0F1005F04D16846FFF71C
:1053700013FB019C00E0002435E010485038006821
:1053800000F00400042808D10C4850380068C0F32D
:10539000C1010B4820FA01F400E0002423E0074893
:1053A0005038006800F48070B0F5807F01D1054C62
:1053B00000E0002417E017E00080BB0050440258D2
:1053C0000090D00300093D0040787D012848006826
:1053D00000F40030B0F5003F01D1264C00E000247D
:1053E00001E0002400BF3FE04FF4004186EA0100E5
:1053F000384338D11E485030006800F04058B8F1AA
:10540000000F06D0B8F1805F0ED0B8F1005F27D151
:1054100018E01748006800F40030B0F5003F01D1F3
:10542000144C00E000241DE01148006800F00070FA
:10543000B0F1007F04D106A8FFF77EF8079C00E0DA
:1054400000240FE00A48006800F00060B0F1006F2F
:1054500004D103A8FFF788F9049C00E0002401E0D0
:10546000002400BF00E00024204609B0BDE8F0831E
:105470000044025840787D012DE9F04104460025A2
:10548000A8464FF00062D4E90010114000201346F6
:1054900059404040014331D1A06E48B1B0F5801F62
:1054A0000DD0B0F5001F11D0B0F5401F16D114E09B
:1054B000F948006840F40030F749086010E0022124
:1054C00004F1080003F060FF054609E0022104F141
:1054D000280004F00BF8054602E001E0012500BFBA
:1054E00000BF55B9EC482430006820F44010A16E8C
:1054F0000843E9492431086000E0A8464FF480736E
:10550000D4E90010194000205940404001432ED1F9
:10551000A06D05281BD2DFE800F0030A111819005E
:10552000DD48006840F40030DB49086011E00021EC
:1055300004F1080003F028FF05460AE0002104F109
:10554000280003F0D3FF054603E002E001E0012557
:1055500000BF00BF55B9D0482430006820F00700D4
:10556000A16D0843CC492431086000E0A8464FF4FF
:105570000073D4E900101940002059404040014315
:1055800034D1E06D802818D003DC40B140281DD113
:105590000CE0C02818D0B0F5807F17D115E0BE48C8
:1055A000006840F40030BC49086011E0002104F1BB
:1055B000080003F0E9FE05460AE0002104F1280096
:1055C00003F094FF054603E002E001E0012500BF7F
:1055D00000BF55B9B0482430006820F4E070E16D98
:1055E0000843AD492431086000E0A8464FF48063C9
:1055F000D4E900101940002059404040014339D1FE
:10560000D4F8A800B0F5800F1AD004DC50B1B0F582
:10561000001F1ED10DE0B0F5C00F18D0B0F5000F7F
:1056200017D115E09C48006840F400309A490860A2
:1056300011E0002104F1080003F0A6FE05460AE08F
:10564000002104F1280003F051FF054603E002E0C9
:1056500001E0012500BF00BF5DB98F482C30006814
:1056600020F46000D4F8A81008438B492C3108605E
:1056700000E0A8464FF40062D4E900101140002079
:10568000134659404040014339D1D4F8AC00B0F141
:10569000007F1AD004DC50B1B0F1807F1ED10DE044
:1056A000B0F1407F18D0B0F1806F17D115E07A4883
:1056B000006840F400307849086011E0002104F1EE
:1056C000080003F061FE05460AE0002104F128000D
:1056D00003F00CFF054603E002E001E0012500BFF6
:1056E00000BF5DB96C482C30006820F0E060D4F851
:1056F000AC10084368492C31086000E0A8464FF020
:105700000073D4E900011840002158404940084383
:1057100028D1E06CA8B1102804D0202809D0302866
:1057200010D10DE05C48006840F400305A49086030
:105730000AE0022104F1080003F026FE054603E01A
:1057400002E001E0012500BF00BF55B952482030FA
:10575000006820F03000E16C08434F4920310860B8
:1057600000E0A8464FF48053D4E90010194000200F
:1057700059404040014337D1206EB0F5005F1AD048
:1057800004DC50B1B0F5805F1ED10DE0B0F5405F94
:1057900018D0B0F5804F17D115E03F48006840F4AD
:1057A00000303D49086011E0002104F1080003F0D9
:1057B000EBFD05460AE0002104F1280003F096FE07
:1057C000054603E002E001E0012500BF00BF55B936
:1057D00031482430006820F4E040216E08432E490F
:1057E0002431086000E0A8464FF40053D4E90010CB
:1057F0001940002059404040014335D1606EB0F55A
:10580000403F1ED007DC68B1B0F5803F0BD0B0F54B
:10581000003F19D10EE0B0F5802F13D0B0F5A02FC6
:1058200012D110E012E0012104F1080003F0ACFDF8
:1058300005460BE0012104F1280003F057FE054660
:1058400004E003E002E001E0012500BF00BF55B91C
:1058500011482430006820F4E020616E08430E49AE
:105860002431086000E0A8464FF48043D4E90001E9
:105870001840002158404940084337D1D4F8B000BF
:10588000B0F1405F20D009DC78B1B0F1805F0DD07D
:10589000B0F1005F1BD110E02C440258B0F1804FF2
:1058A00013D0B0F1A04F12D110E012E0012104F1A9
:1058B000080003F069FD05460BE0012104F1280012
:1058C00003F014FE054604E003E002E001E00125D8
:1058D00000BF00BF4DB9FE48006820F0E040D4F89A
:1058E000B0100843FA49086000E0A8464FF40042AF
:1058F000D4E90010114000201346594040400143B4
:1059000029D1206FB0B1B0F1805F03D0B0F1005F5A
:1059100011D108E0EE482C38006840F40030EC4922
:105920002C39086009E0012104F1080003F02CFD86
:10593000054602E001E0012500BF00BF55B9E4487B
:105940000838006820F04050216F0843E0490839CA
:10595000086000E0A8464FF08072D4E900101140C2
:10596000002013465940404001432AD1A06CB8B1F1
:10597000012804D002280BD0032812D10FE0D4480C
:105980002C38006840F40030D1492C3908600AE016
:10599000022104F1080003F0F7FC054603E002E0F1
:1059A00001E0012500BF00BF55B9C9480C380068A7
:1059B00020F00300A16C0843C5490C39086000E0E1
:1059C000A8464FF48002D4E900011040002113469C
:1059D0005840494008437DD1BE48006840F480707B
:1059E000BC490860FEF760FA064606E0FEF75CFA7E
:1059F000801B642801D9032505E0B648006800F43F
:105A000080700028F2D000BF85BBB1481830006814
:105A100000F44070B4F8B41001F44071884213D01F
:105A2000AB481830006820F44077A9481830006867
:105A300040F48030A649183108600846006820F418
:105A40008030086008460760D4F8B400B0F5807F65
:105A500015D1FEF729FA064609E0FEF725FA801B64
:105A600041F28831884202D9032507E038E098489E
:105A700018300068C0F340000028EED000BF55BBCE
:105A800000BFB4F8B40000F44070B0F5407F0ED110
:105A90008F484838006820F47C518F4AD4F8B4000D
:105AA000104041EA10108A494839086007E08848E8
:105AB0004838006820F47C5085494839086084489B
:105AC00018300068B4F8B410C1F30B0108438049E2
:105AD000183101E005E001E0086002E0A84600E0BE
