:020000040800F2
:10000000E85801247103000899BA000805A3000804
:1000100095BA0008FD06000873D000080000000033
:10002000000000000000000000000000B102000815
:100030001D0D0008000000000D030008B9BF0008F6
:100040008F0300088F0300088F0300088F03000848
:100050008F0300088F0300088F0300088F03000838
:100060008F0300088F0300088F03000801070008B2
:1000700011070008210700083107000841070008A0
:1000800051070008610700088F0300085516000893
:100090007516000865160008851600081F1600086A
:1000A0008F030008ADC100088F0300088F0300080C
:1000B000BDC10008CDC10008DDC1000819A30008BA
:1000C00009A300088F0300088F0300084DBE000835
:1000D0008F030008ADCE00088F0300088F030008CF
:1000E0008F0300088F030008000000008F03000842
:1000F0008F0300088F0300088F03000871070008B2
:100100008F0300088F030008EDC100088F0300086B
:10011000D9C30008E9C30008FDC100088F03000827
:100120008107000891070008A10700088F03000855
:100130008F0300088F0300088F0300088F03000857
:1001400000000000000000000000000000000000AF
:100150008F0300088F0300088F0300088F03000837
:100160008F0300088F0300088F0300088F03000827
:100170008F0300088F0300088F03000800000000B1
:100180008F0300088F030008F9C3000809C40008A2
:100190008F0300088F0300088F0300088F030008F7
:1001A0008F0300088F0300088F0300088F030008E7
:1001B0008F0300088F0300088F0300088F030008D7
:1001C0008F0300088F0300088F0300088F030008C7
:1001D0008F0300088F0300088F0300088F030008B7
:1001E0008F0300088F0300088F0300088F030008A7
:1001F0008F0300088F0300088F0300088F03000897
:100200008F0300088F0300088F0300088F03000886
:100210008F0300088F0300088F0300088F03000876
:100220008F0300088F0300088F0300080000000000
:100230008F0300088F0300080000000089050008F4
:100240008F0300088F0300088F0300088F03000846
:100250008F0300088F0300088F0300088F03000836
:100260008F0300088F0300088F0300088F03000826
:100270008F0300088F0300088F03000800000000B0
:100280008F0300088F0300088F03000800000000A0
:10029000000000008F030008DFF810D000F036F9EE
:1002A0000048004775020108AFF30080E8580124B8
:1002B0002C4B19680868B0E8F04F80F30988BFF349
:1002C0006F8F4FF0000080F311887047000000002E
:1002D00008480068006880F308884FF0000080F349
:1002E000148862B661B6BFF34F8FBFF36F8F00DF24
:1002F00000BF00BF08ED00E0DFF80C00016841F42A
:1003000070010160704700BF88ED00E0EFF30980E5
:10031000BFF36F8F134B1A681EF0100F08BF20ED4C
:10032000108A20E9F04F106009B44FF0500080F3BC
:100330001188BFF34F8FBFF36F8F1AF09DFC4FF002
:10034000000080F3118809BC19680868B0E8F04F14
:100350001EF0100F08BFB0EC108A80F30988BFF3BD
:100360006F8F7047A4490024EFF3058070470000A9
:10037000074880470748804707480047FEE7FEE7F1
:10038000FEE7FEE7FEE7FEE7FEE7FEE7FEE7FEE745
:1003900031160008B1C00008990200082DE9F05F8D
:1003A0000546002092469B468846064681464024E4
:1003B0001BE0284641464746224600F097F8534640
:1003C0005A46C01A914110D311461846224600F0F1
:1003D0007EF82D1A67EB01084F46224601200021C6
:1003E00000F075F817EB00094E41201EA4F101043E
:1003F000DFDC484631462A464346BDE8F09F000010
:100400000649074A0868504343F23902104408601D
:10041000400870470149086070470000B84B00244D
:100420006D4EC64110B5431A934209D283188818FD
:1004300003E010F8011D03F8011D521EF9D210BD92
:1004400040EA01039B0703D009E008C9121F08C056
:10045000042AFAD203E011F8013B00F8013B521ED6
:10046000F9D210BDD2B201E000F8012B491EFBD237
:1004700070470022F6E710B513460A4604461946AF
:10048000FFF7F0FF204610BD30B5044600200346BC
:1004900000E05B1C934203D2E05CCD5C401BF8D0D3
:1004A00030BD30B50B46014600202022012409E072
:1004B00021FA02F59D4205D303FA02F5491B04FA1D
:1004C00002F52844151EA2F10102F1DC30BD202AFC
:1004D00004DB203A00FA02F1002070479140C2F19B
:1004E000200320FA03F3194390407047202A04DBCD
:1004F000203A21FA02F00021704721FA02F3D0409D
:10050000C2F120029140084319467047064C074D3E
:1005100006E0E06840F0010394E8070098471034D3
:10052000AC42F6D3FFF7BCFE00C5010820C50108A8
:1005300070B58C1810F8015B15F0070301D110F8A5
:10054000013B2A1106D110F8012B03E010F8016BD2
:1005500001F8016B5B1EF9D12B0705D40023521E55
:100560000DD401F8013BFAE710F8013BCB1A921CBD
:1005700003E013F8015B01F8015B521EF9D5A142BB
:10058000D8D3002070BD000010B5024801F074FC03
:1005900010BD0000C04B002470B504464F492068D0
:1005A000884203D04E492068884208D14D480068EF
:1005B00000F4403008B1012009E0002007E04A487B
:1005C000006800F4403008B1012000E00020B8B11C
:1005D00007F06AFB05466068B0F5803F06D0B0F5CD
:1005E000003F04D0B0F5403F08D105E000BF60688F
:1005F000000CB5FBF0F502E0AD0800E000BF2BE019
:100600004FF40020002105F07DFE05466068C0F330
:100610001101F9B980140C281CD2DFE800F01B0688
:100620000708090A0B111315171900BF00BF00BFF7
:1006300000BF00BF6068800C4000B5FBF0F50AE029
:100640002D0908E06D0906E0AD0904E0ED0902E0BE
:100650002D0A00E000BF00BF05F07CF841F2030165
:10066000884210D82148854206D92068806840F425
:100670008070216888602FE02068806820F4807096
:100680002168886028E06D081948854206D82068EE
:10069000806820F44070216888601DE0154885421C
:1006A00008D82068806820F4407040F48070216889
:1006B000886011E01048854208D82068806820F4DE
:1006C000407040F400702168886005E02068806810
:1006D00040F440702168886070BD00000020024036
:1006E000002102400823024008630258002D310116
:1006F000105E5F0020BCBE0040787D0100BFFEE7B9
:1007000010B5024802F07AFB10BD0000645B0024C3
:1007100010B5024802F072FB10BD0000845900249D
:1007200010B5024802F06AFB10BD00009458002486
:1007300010B5024802F062FB10BD0000745A00249C
:1007400010B5024802F05AFB10BD0000EC5A00241C
:1007500010B5024802F052FB10BD0000FC59002405
:1007600010B5024802F04AFB10BD00000C590024ED
:1007700010B5024802F042FB10BD0000844E002478
:1007800010B5024802F03AFB10BD0000244C0024D2
:1007900010B5024802F032FB10BD0000DC5B002403
:1007A00010B5024802F02AFB10BD0000FC4E0024E8
:1007B0000146374A0868904249D0354A18320868DD
:1007C000904244D0324A3032086890423FD0304A9A
:1007D0004832086890423AD02D4A60320868904208
:1007E00035D02B4A78320868904230D0284A90326F
:1007F000086890422BD0264AA8320868904226D03A
:10080000244A0868904222D0224A1832086890424E
:100810001DD0204A30320868904218D01D4A483214
:100820000868904213D01B4A6032086890420ED08C
:10083000184A78320868904209D0164A90320868FF
:10084000904204D0134AA8320868904201D1012096
:1008500000E00020B0B10A78103A1823B2FBF3F0A0
:1008600000F007020C4B9A5CCA65032805D90A6898
:100870006FF30902121D8A6503E00A686FF309022B
:100880008A6503E0086820F0FF008865886D70477E
:100890001000024010040240E4C0010810B50268D4
:1008A0002B4C0368A34222D0294C14340368A34282
:1008B0001DD0274C28340368A34218D0244C3C3464
:1008C0000368A34213D0224C50340368A3420ED0D5
:1008D0001F4C64340368A34209D01D4C783403686C
:1008E000A34204D01A4C8C340368A34201D10123E3
:1008F00000E000238BB10378083B1424B3FBF4F130
:10090000144B03EB81030366124B8033436601F003
:100910001F040123A340836618E00378103B1824CA
:10092000B3FBF4F10C4B9A4204D80B4BA83B9A4210
:1009300000D30831094B03EB81030366074B803377
:10094000436601F01F040123A340836610BD00002D
:100950000854025800580258B804024000080240E7
:100960000179A9B3082940D8204B02689A4222D0C5
:100970001E4B143302689A421DD01C4B2833026868
:100980009A4218D0194B3C3302689A4213D0174B45
:10099000503302689A420ED0144B643302689A4274
:1009A00009D0124B783302689A4204D00F4B8C3333
:1009B00002689A4201D1012200E000224AB14A1E97
:1009C0000B4B03EB8202C266094A4032026708E021
:1009D0000BE04A1E074B03EB8202C266054A403217
:1009E00002674A1E01239340436770470854025828
:1009F0000059025800090240014600208A69D2B914
:100A00008A6A32B1012A0DD0022A03D0032A10D1FA
:100A10000EE000BFCA6A02F08072B2F1807F00D19E
:100A2000012007E0CA6AB2F1C07F00D1012001E0D5
:100A300000E000BF36E08A69B2F5005F1BD18A6A28
:100A400032B1012A07D0022A03D0032A11D10AE0C9
:100A500000BF01200EE0CA6A02F08072B2F1807F0E
:100A600000D1012006E0CA6AB2F1C07F00D10120A6
:100A700000E000BF16E08A6A32B1012A05D0022ADE
:100A800004D0032A0CD103E000BF00BF012008E01E
:100A9000CA6A02F08072B2F1807F00D1012000E0CA
:100AA00000BF00BF70470000F0B5856D846D984FA2
:100AB0000668BE4270D0964F18370668BE426BD0AB
:100AC000934F30370668BE4266D0914F483706686C
:100AD000BE4261D08E4F60370668BE425CD08C4FFC
:100AE00078370668BE4257D0894F90370668BE42B5
:100AF00052D0874FA8370668BE424DD0854F066852
:100B0000BE4249D0834F18370668BE4244D0814F59
:100B100030370668BE423FD07E4F48370668BE4237
:100B20003AD07C4F60370668BE4235D0794F78376F
:100B30000668BE4230D0774F90370668BE422BD051
:100B4000744FA8370668BE4226D0734F0668BE426F
:100B500022D0714F14370668BE421DD06E4F283721
:100B60000668BE4218D06C4F3C370668BE4213D0B0
:100B7000694F50370668BE420ED0674F643706682B
:100B8000BE4209D0644F78370668BE4204D0624F37
:100B90008C370668BE4201D1012600E000263EB136
:100BA000D0E919767E60C66E16B1D0E91C767E60FB
:100BB000574F0668BE4249D0554F18370668BE42A7
:100BC00044D0534F30370668BE423FD0504F48376D
:100BD0000668BE423AD04E4F60370668BE4235D0F6
:100BE0004B4F78370668BE4230D0494F9037066881
:100BF000BE422BD0464FA8370668BE4226D0454F8E
:100C00000668BE4222D0434F18370668BE421DD048
:100C1000404F30370668BE4218D03E4F483706680E
:100C2000BE4213D03B4F60370668BE420ED0394FEC
:100C300078370668BE4209D0364F90370668BE4204
:100C400004D0344FA8370668BE4201D1012600E027
:100C50000026DEB190F85C6006F01F073F26BE401C
:100C6000AE600668366826F4802607683E6006682F
:100C700073608668402E04D10668B2600668F16031
:100C800044E00668B1600668F2603FE0224F066803
:100C9000BE4222D0204F14370668BE421DD01E4FE0
:100CA00028370668BE4218D01B4F3C370668BE4244
:100CB00013D0194F50370668BE420ED0164F643716
:100CC0000668BE4209D0144F78370668BE4204D089
:100CD000114F8C370668BE4201D1012600E0002684
:100CE000A6B190F85C6006F01F070126BE40666062
:100CF000066873608668402E04D10668B260066894
:100D0000F16003E00668B1600668F260F0BD0000C3
:100D1000100002401004024008540258704710B5F9
:100D2000002210E002EB4204036903EBC40100233C
:100D30000B604B608B60CB600B614B6100F1480333
:100D400043F82210521C042AECD30024C465046624
:100D50008466C46684650324036803F58053C3F87E
:100D60003041036803F580530469C3F81C410369EB
:100D70004833046804F58054C4F8283110BD10B518
:100D800000220EE002EB4204C36803EBC40100231F
:100D90000B604B608B60CB6000F1180343F82210AE
:100DA000521C042AEED3002484620324036803F552
:100DB0008053C3F82C41036803F58053C468C3F81B
:100DC0001441036803F58053C468C3F8204110BD83
:100DD00010B5A2B0044601208DF833000020129017
:100DE0008DF841008DF8430001208DF828008DF822
:100DF00056008DF8320000208DF84C0001208DF84F
:100E0000840040030F9000208DF85C0018908DF84E
:100E100085008DF886004FF4C360169000208DF891
:100E200030000B9001208DF8350000208DF8360041
:100E30008DF840001D901B9014908DF864008DF883
:100E40007A0001208DF842002020209001208DF8AA
:100E5000440000208DF855004FF0405009904FF4A9
:100E600080400E9000208DF8310002201F9000205D
:100E70008DF878008DF879008DF8540001208DF8F8
:100E8000340000201A9001208DF8700009A9204636
:100E900000F0A8FA01208DF80400029000200090D4
:100EA0008DF81C008DF80D008DF80C004FF400102B
:100EB000069000208DF814004FF4001004900020DC
:100EC0008DF81D004FF4067008906946204600F02A
:100ED0002BFA22B010BD0020704710B504F040FC82
:100EE00010BD000010B5024803F076FD002010BDD3
:100EF000E4A5002470B504460D46164633462A463E
:100F00002146044803F060FC10B14FF0FF3070BD83
:100F10000020FCE7E4A5002470B504460D46164603
:100F200033462A462146044803F088FE10B14FF0AC
:100F3000FF3070BD0020FCE7E4A500242DE9F04F50
:100F400006460B46924606F118042269D4F8108032
:100F50004FF0000C54F822109D68E346C86800F07A
:100F60000040B0F1004F04D004F1140050F822000A
:100F700010B10220BDE8F08F187800F00400C8B36B
:100F8000C8686FF30F00D3F824E040EA0E00C86091
:100F9000C86840F48030C8603068006E40F480104B
:100FA000D6F800E0CEF86000187800F0080008B32A
:100FB000B3F82CE088686EF31F408860C86840F47E
:100FC0000030C860C86820F44020D3F830E040EA20
:100FD0000E00C8603068406E40F48010D6F800E023
:100FE000CEF864003068006D40F08060D6F800E014
:100FF000CEF85000187800F0100058B188686FF3F0
:101000000D00D3F818E040EA0E008860C86840F090
:101010008060C860187800F0040018B9187800F0F3
:10102000100078B3C86840F08040C86000BF00BFBF
:1010300000BFBFF35F8F00BF00BF00BFC86840F0B4
:101040000040C86000BF521C042A00D3121F00BF1A
:1010500054F822100CF1010CC86800F00040B0F107
:10106000004F10D154F8281000BF00BF00BFBFF3DD
:101070005F8F00BF00BF00BFC86820F00040C8609D
:10108000022077E7FFE70CF1010C28680860886808
:101090006FF30D00D5F804E040EA0E008860A86800
:1010A00068B1AD68286848608868DFF878E200EACF
:1010B0000E00B5F804E040EA0E40886007E000202A
:1010C00048608868DFF85CE200EA0E008860187803
:1010D00000F01000A0B1C86820F4F000B3F820E0E0
:1010E00040EACE40C860C8686FF31100D3F81CE036
:1010F00040EA0E00C860C86840F48020C8601FE065
:10110000C8686FF30E00D3F804E040EA0E00C86030
:10111000187800F0010038B1C86820F44030D3F8E6
:1011200014E040EA0E00C860187800F0200038B1E2
:10113000C86820F04060D3F810E040EA0E00C860B4
:10114000187800F0040038B1886820F44040D3F8E3
:1011500028E040EA0E008860C86840F00050C8608F
:10116000C86820F08040C86000BF00BF00BFBFF368
:101170005F8F00BF00BF00BFC86840F00040C8607C
:10118000187800F0020038B1C86820F06070D3F819
:101190000CE040EA0E00C86096E0C86820F080507D
:1011A000C86000BF521C042A00D3121F00BF54F8AD
:1011B0002210C86820F00050C860C86800F00040E5
:1011C000B0F1004F04D004F1140050F82200F8B13F
:1011D000424654F822104FF0000915E000BF00BF4E
:1011E00000BFBFF35F8F00BF00BF00BFC86820F023
:1011F0000040C86000BF521C042A00D3121F00BF69
:1012000054F8221009F10109E145E7D30220B1E6C3
:101210000CF1010CAD682868086088686FF30D0058
:10122000D5F804E040EA0E008860A86868B1AD68AF
:10123000286848608868DFF8ECE000EA0E00B5F83E
:1012400004E040EA0E40886007E0002048608868BB
:10125000DFF8D0E000EA0E008860187800F0100097
:1012600060B1C8686FF31100D3F81CE040EA0E00CB
:10127000C860C86840F48020C86013E0C8686FF395
:101280000E00D3F804E040EA0E00C860187800F0C1
:10129000010038B1C86820F44030D3F814E040EAC7
:1012A0000E00C8600BF1010B00BF00BF00BFBFF311
:1012B0005F8F00BF00BF00BFC86840F00040C8603B
:1012C000C86820F08040C860A86800287FF465AF37
:1012D000BAF1000F04D0886840F00040886003E055
:1012E000886820F000408860C86840F08050C8607E
:1012F00004F1140E606A4EF82200226100BFEFF381
:101300001080074600BF012080F3108800BF0BF15A
:10131000010EA06A7044A06200BF87F3108800BF6E
:10132000002027E6FFFF00C010B5036803F58053D7
:101330001B6847F60204A3430C682343046804F5C2
:10134000805423600C798B6843EA04330C7B43EAB6
:10135000C432036803F580535B684DF20104A34374
:101360001343046804F5805463604C7B0B6A43EAC2
:101370000442036803F58053D3F80031164C234030
:101380001343046804F58054C4F800310C7D0B69E4
:1013900043EA04134C7F43EA0432036803F58053A5
:1013A000D3F804310D4C23401343046804F58054F2
:1013B000C4F804310C7F8B6943EAC472036803F5F7
:1013C0008053D3F80831064C23401343046804F5D6
:1013D0008054C4F8083110BD00C0FEFFEFEFC0FF1D
:1013E000FFFFC07F10B50C688B6823430C7943EA7C
:1013F000C4630C7B43EAC4534C7B43EA84538C7B29
:1014000043EA4453CC7B43EA04530C7C0CB90124DB
:1014100000E0002443EAC4434C7C0CB9012400E002
:10142000002443EA44438C7C43EA04434C6923434D
:101430008C6923430C7F43EA04334C7F43EAC42383
:101440008C7F0CB9012400E0002443EA8423CC7F84
:1014500043EA442391F820400CB9012400E0002421
:1014600043EA042351F8244F23430C7943EA04133D
:101470008C6843EA040203681B683D4C2340134315
:10148000046823600B7E5B060C7D43EA04630C7BDF
:1014900043EA84434C7B43EA44438C7B24390CB9B4
:1014A000012400E0002443EA04434C6B43EA0402B5
:1014B00003685B682F4C234013430468636091F812
:1014C00040404B6C43EA04220368DB6840F20F148F
:1014D000A34313430468E36091F854400B6D43EA5F
:1014E000440391F84C400CB9012400E0002443EA85
:1014F000C41331F8484F43EA044203681B6F4FF6A8
:101500000D7423401343046823678B7B4C7B43EAB1
:1015100044020368D3F8903023F0030313430468B4
:10152000C4F890300368D3F8003D23F072030C69CF
:1015300023430468C4F8003D0C7E4B6948390CB95C
:10154000012400E0002443EA841391F8614043EA57
:10155000041391F8624043EAC4020368D3F8303DB3
:1015600023F07B0313430468C4F8303D10BD000032
:10157000838004000080F8C02DE9F8430446002071
:1015800000904FF00109A56E04F1480050F8256065
:10159000E76E24E0306958B9684603F095F9009881
:1015A00010B94FF0000903E00098306100983060F6
:1015B000B9F1000F13D0A06D18B14FF04140F060A9
:1015C00002E04FF00140F06000BF6D1C042D00D31D
:1015D0002D1F00BF04F1480050F825607F1E17B191
:1015E000B9F1000FD6D1E06EB84216D0E81C00F079
:1015F000030800BF00BF00BFBFF35F8F00BF00BF85
:1016000000BF08EB4801206900EBC101206800F52C
:101610008050C0F82811A566E766BDE8F88310B5CC
:10162000802003F07BFF10BD72B600BFFEE7000014
:101630000748006840F002000549086000BF044800
:101640000838006800F400500028F8D07047000007
:101650000C48025810B5024803F034FB10BD0000DE
:101660009C4C002410B5024803F02CFB10BD000078
:101670009C4C002410B5024803F024FB10BD000070
:101680003C4D002410B5024803F01CFB10BD0000C7
:101690003C4D002410B501464A6B0868D0F8840020
:1016A0004FF6FC74A04340EA82000C68C4F8840042
:1016B0000868D0F8840020F47F04088F44EA0040D2
:1016C0000C68C4F88400886B02440868D0F888006D
:1016D0004FF6FC74A04340EA82000C68C4F888000E
:1016E0000868D0F8880020F4FE04888F44EA00409F
:1016F0000C68C4F88800C86B02EB40020868D0F898
:10170000A0004FF6FC74A04340EA82000C68C4F8C5
:10171000A0000868D0F8A00020F4FE044020405A41
:1017200044EA00400C68C4F8A000D1E9104004FB72
:1017300000220868D0F8B0004FF6FC74A04340EADD
:1017400082000C68C4F8B0000868D0F8B00020F43B
:10175000FE04B1F8480044EA00400C68C4F8B00048
:10176000D1E9124004FB00220868D0F8AC004FF623
:10177000FC74A04340EA82000C68C4F8AC00D1E9D4
:10178000144004FB00220868D0F8F0004FF6FC7407
:10179000A04340EA82000C68C4F8F0000868D0F862
:1017A000F00020F47C14B1F8580044EA00400C68C2
:1017B000C4F8F000886D02EB40020868D0F8C00061
:1017C0004FF6FC74A04340EA82000C68C4F8C000E5
:1017D0000868D0F8C00020F47C14B1F85C0044EA3A
:1017E00000400C68C4F8C0000868D0F8C00020F0C1
:1017F0007C5491F8600044EA00600C68C4F8C000B2
:101800002A4C486B04EB8000C866CC6E886B04EBF6
:1018100080040C670C6FC86B04EBC0044C67D1E903
:10182000100460434C6F04EB80048C67D1E9120410
:1018300060438C6F04EB8004CC67D1E914046043EF
:10184000CC6F04EB8004802044504458886D04EB36
:10185000C004842044508C6EC86D60438424645856
:1018600004EB8004882044508C6E086E604388240A
:10187000645804EB80049020445040580C4CA04223
:1018800009D99831486840F020004860032001F8E9
:101890009809012010BDCB6E02E0002018601B1DCE
:1018A000902040589842F8D80020F3E700AC004060
:1018B000FCD3004070477047704770477047000086
:1018C0002DE9F84F04460D464FF0000A0020009025
:1018D00094F83800012800D100E000BFFC49E86816
:1018E000884200D00EE0FB492068884200D100BF4A
:1018F000F9492068884200D100BFF8492068884231
:1019000000D100BF00BF94F85000012802D102208E
:10191000BDE8F88F012084F8500000BF206809F06E
:1019200092F9002870D1286800F00040A8B920681A
:10193000C1692868C0F3130018B92868C0F384602F
:1019400004E0286890FAA0F0B0FA80F000F01F02DE
:101950000120904001432068C1612168D5E9002041
:1019600001F1300CC0F3012B0CEB8B03D3F800C05A
:1019700000F01F0E4FF01F0B0BFA0EFB2CEA0B0CA6
:1019800000F01F0BC2F3846E0EFA0BFE4CEA0E0C35
:10199000C3F800C000BF206809F055F981462068EF
:1019A00009F042F98046B9F1000F78D1B8F1000F83
:1019B000FBD12168AA68286801F1140CC0F3406BC0
:1019C0000CEB8B03D3F800C0C0F3045E4FF0070BA1
:1019D0000BFA0EFB2CEA0B0CC0F3045B02FA0BFBB8
:1019E0004CEA0B0CC3F800C000BFBD48006800F013
:1019F0007040B0F1805F08D168692168C968C1F39F
:101A000082014900884015E013E22068C06800F0B8
:101A1000100038B968692168C968C1F382014900BA
:101A2000884007E068692168C96801F010018908E9
:101A3000490088400746286904283FD020682A6862
:101A4000296900F1600C0CEB8103D3F800C00CF0A5
:101A5000004C02F0F84B4BEA070B4CEA0B0CC3F8B6
:101A600000C000BF20686A7E2969012A01D1D2071F
:101A700000E00022134600F1600C0CEB8102D2F86A
:101A800000C02CF0004C4CEA030CC2F800C000BFB0
:101A900020682B7E2969012B02D1DB0201E045E0A1
:101AA00000231A46036923F4F04301F01F0C02FAE5
:101AB0000CFC43EA0C03036100BF37E02068006EB2
:101AC00000F0F8402978B0EB816F05D12068006EF6
:101AD00020F00040216808662068406E00F0F84061
:101AE0002978B0EB816F05D12068406E20F000406E
:101AF000216848662068806E00F0F8402978B0EBD5
:101B0000816F05D12068806E20F0004021688866D2
:101B10002068C06E00F0F8402978B0EB816F05D1E5
:101B20002068C06E20F000402168C866206809F077
:101B300080F800286FD12068EA682968D0F8C0C012
:101B4000C1F313032CEA030C02F0180B654B23FAC4
:101B50000BF30B404CEA030CC0F8C0C000BF5C495B
:101B6000E868884270D15B4B206898423DD15E4B5B
:101B70002A689A4201D1012276E05C4B2A689A4297
:101B800001D15B4A70E05B4B2A689A4201D15A4A04
:101B90006AE05A4B2A689A4201D1594A64E0594B8B
:101BA0002A689A4201D1584A5EE0584B2A689A4204
:101BB00001D1574A58E0564B2A689A4201D1554AFA
:101BC00052E0544B2A689A4201D1534A4CE0534B9D
:101BD0002A689A4201D1524A46E0524B2A689A42F8
:101BE00001D1514A40E000223EE03B4B22689A423C
:101BF00039D13D4B2A689A4201D1012234E03B4B56
:101C00002A689A4201D13A4A2EE03A4B2A689A420F
:101C100002D1394A28E0B4E0384B2A689A4201D10F
:101C2000374A21E0374B2A689A4201D1364A1BE0F5
:101C3000364B2A689A4201D1354A15E0344B2A685E
:101C40009A4202D1334A0FE023E0324B2A689A428B
:101C500001D1314A08E0334B2A689A4201D1324A15
:101C600002E0002200E000221146C369C1F3130222
:101C700012B9C1F3846203E091FAA1F2B2FA82F2DE
:101C800002F01F0C012202FA0CF21343C36100BFE1
:101C900000BF286800F00040002872D00D4A21687B
:101CA000914203D00C4A2168914201D11F4900E0C2
:101CB0001F490846816801F0E07600BF05492068A9
:101CC000884203D004492068884233D1174832E063
:101CD0000000FF470020024000210240006002583F
:101CE0000010005CFFFF0F000200300404006008D9
:101CF000400020190800900C8000501D1000C010FA
:101D0000000180212000F0140002B0250004002A08
:101D10000008302E00106032002090360000214371
:101D2000000052470000844B0000B84F00230240DF
:101D30000063025845484649884209D1454808F0A1
:101D400078FF8346444808F074FF4BEA000002E045
:101D5000424808F06EFFE8BB41492868884227D115
:101D600006F4000020BB3D492068884267D1394B0A
:101D700022689A4203D0384B22689A4202D1344AF0
:101D800001E032E0314A104646F4000108F069FFF4
:101D9000344800683449B0FBF1F0401C400000902A
:101DA00002E00098401E009000980028F9D146E01B
:101DB0002E492868884219D106F08070B0B92749A9
:101DC000206888423BD1234B22689A4205D0224B9F
:101DD000226800E026E09A4201D11D4A00E01B4A39
:101DE000104646F0807108F03CFF28E02049286842
:101DF000884224D106F4800008BB18492068884234
:101E00001DD1144B22689A4203D0134B22689A4288
:101E100001D10F4A00E00D4A104646F4800108F057
:101E200020FF0CE0606D40F0200060654FF0010A7B
:101E300005E0606D40F0200060654FF0010A00BFD2
:101E4000002084F8500000BF504661E5006302584E
:101E5000002302400020024000210240006002589E
:101E6000000084CB9C490024400D0300000052C7B1
:101E70000000B8CF704770472DE9F84F04460020A6
:101E800000902068056820684668CD4A2168914224
:101E900003D0CC4A2168914201D1CB4900E0CB4923
:101EA000084608F0BCFE074605F00200022811D1E2
:101EB00006F0020002280DD1606D00F0100018B984
:101EC000606D40F4006060652046FFF7F3FC02207F
:101ED0002168086005F00400042803D106F004001E
:101EE000042807D005F0080008285DD106F0080096
:101EF000082859D1606D00F0100018B9606D40F4E9
:101F000000706065206808F0A3FE002846D0AD4947
:101F10002068884201D1AA4800E0206821688842F0
:101F200004D01FB1052F01D0092F03D12068D0F8AC
:101F30000C8009E0A3492068884201D1A04800E054
:101F400020688346DBF80C8008F40050B0F5005F91
:101F500024D02068006800F0080008281ED12068FE
:101F600008F071FE90B92068406820F00C002168EC
:101F70004860606D20F480706065606D00F4805092
:101F800060B9606D40F00100606507E0606D40F091
:101F900010006065A06D40F00100A0652046FFF7CD
:101FA00069FF0C202168086005F02000202803D17B
:101FB00006F02000202807D005F04000402870D10E
:101FC00006F0400040286CD1606D00F0100018B998
:101FD000606D40F4005060652068C16C01F4C07110
:101FE00009B9012100E000218A4600BF206808F0FD
:101FF0002FFE814673492068884201D1704800E075
:1020000020682168884204D01FB1062F01D0072F15
:1020100003D12068D0F80C8009E06A492068884222
:1020200001D1674800E020688346DBF80C80BAF1F4
:10203000000F30D008F0007028B1B9F1000F2AD09D
:1020400008F4005038BB2068006800F040004028C9
:1020500021D108F40010F0B9206808F0E5FD90B92E
:102060002068406820F0600021684860606D20F4BE
:1020700080506065606D00F4807060B9606D40F004
:102080000100606507E0606D40F010006065A06DC4
:1020900040F00100A0652046FFF70DFC602021689C
:1020A000086005F0800080280DD106F080008028AF
:1020B00009D1606D40F480306065204600F0CEF9B3
:1020C00080202168086005F48070B0F5807F0FD112
:1020D00006F48070B0F5807F0AD1606D40F4003066
:1020E00060652046FFF7E9FB4FF4807021680860C7
:1020F00005F40070B0F5007F0FD106F40070B0F564
:10210000007F0AD1606D40F4802060652046FFF7B3
:10211000D5FB4FF400702168086005F0100010280E
:1021200033D106F0100010282FD1206B10B90120F8
:10213000009019E08FB1224A2168914203D0214AD0
:102140002168914201D1204900E02049084608F069
:1021500061FD48B10120009006E02068C06800F0F1
:10216000030008B101200090009801280AD1606D99
:1021700040F480606065A06D40F00200A0652046DC
:10218000FFF779FE10202168086005F48060B0F543
:10219000806F13D106F48060B0F5806F0ED1606D52
:1021A00040F480406065A06D40F00800A0654FF4E9
:1021B0008060216808602046FFF77EFBBDE8F88F4D
:1021C0000020024000210240002302400063025828
:1021D0002DE9F84F04464FF000090020009014B993
:1021E0000120BDE8F88FE06818B1207F012800D1F8
:1021F00000BF606D30B9204600F032F90020A065C4
:1022000084F8500020688168C1F3407131B12068C2
:102210008168874A1140816000BF00BF206808F0D4
:102220000DFDA8B920688168824A114041F08051B3
:10223000816000BF804800688049B0FBF1F0401C1D
:10224000009002E00098401E009000980028F9D10C
:10225000206808F0F3FC48B9606D40F0100060653C
:10226000A06D40F00100A0654FF00109206808F062
:10227000EAFC0646606D00F0100000287ED1002EBA
:10228000FCD1606D20F4807040F002006065206831
:1022900008F0CFFC78BB6A492068884203D06949BE
:1022A0002068884201D1684800E068486649884251
:1022B00009D1634808F0BDFC8246624808F0B9FCC9
:1022C0004AEA000002E0624808F0B3FC98B95C4BAF
:1022D00022689A4203D05B4B22689A4201D15A4A43
:1022E00000E05A4A10466168826822F47C120A4370
:1022F000826000BF00BF03F02DFA41F20301884263
:102300000ED9A06810280BD1607D216B41EA4030C6
:10231000A168084340F00C01207F41EA004508E035
:10232000607D216B41EA4030A1680843217F40EA8B
:102330000145207F012803D1208C401E45EA4045FD
:10234000606A28B1A08C00F47870A16A0843054344
:102350002068C0683F49084028432168C860206859
:1023600008F071FC8046206808F05EFC0746B8F172
:10237000000F3BD1D7BB207DE16A00E050E041EA8D
:1023800080352068C06844F20301884328432168EF
:10239000C86094F83800012817D1606A08B1A06AB3
:1023A00000B900BFA08F401E012141EA0041206C0E
:1023B0000843616C0843A16C084321680969264AF7
:1023C000114008432168086105E02068006920F099
:1023D0000100216808612068006920F07040616B8D
:1023E0000843216808612046FEF7D6F8E068012816
:1023F00009D12068006B20F00F00A169491E084335
:102400002168086305E02068006B20F00F00216858
:102410000863606D20F0020040F00100606505E097
:10242000606D40F0100060654FF001094846D8E645
:10243000C0FFFF5FC0FFFF7F9C490024400D0300E9
:1024400000200240002102400023024000630258A5
:102450000060025803C0F0FF1EF800FC7047000047
:1024600010B5B8B00446142132A8FEF702F8C02116
:1024700002A8FDF7FEFF3C492068884271D14FF465
:1024800000210020CDE9021088102B9002A804F052
:1024900091FB08B1FFF7C8F800BF3448006840F06E
:1024A0008070324908600846006800F08070019032
:1024B00000BF00BF00BF0846006840F02000086071
:1024C0000846006800F02000019000BF00BF00BF78
:1024D0000846006840F0040008600846006800F004
:1024E0000400019000BF00BF4FF4FF603290032052
:1024F00033900020349032A91D4803F01DF80120CC
:102500003290032033900020349032A9194803F010
:1025100013F81948194908607320486000211748CA
:102520008160C1604FF480610161490041618900AF
:1025300081614911C161490201620021416201F0DA
:10254000D9F908B1FFF770F800BF0C48E064846364
:1025500000BF002205217F2003F0F8FA7F2003F05E
:10256000E1FA38B010BD000000600258E0440258A3
:10257000001402580008025810040240244C0024A1
:102580002DE9F041044603F0EBF8804614B9012030
:10259000BDE8F08194F83500022808D080206065FD
:1025A00000BF002084F8340000BF0120F0E7FE499E
:1025B0002068884249D0FC4918312068884244D0BC
:1025C000F9493031206888423FD0F74948312068C6
:1025D00088423AD0F44960312068884235D0F249C7
:1025E00078312068884230D0EF49903120688842A5
:1025F0002BD0ED49A8312068884226D0EB492068CD
:10260000884222D0E9491831206888421DD0E74924
:1026100030312068884218D0E44948312068884227
:1026200013D0E2496031206888420ED0DF4978310A
:102630002068884209D0DD4990312068884204D062
:10264000DA49A8312068884201D1012000E0002049
:1026500068B12068006820F01E00216808602068CA
:10266000406920F0800021684861256806E0206804
:10267000006820F00E00216808602568CA492068BB
:10268000884270D0C8491831206888426BD0C6494A
:1026900030312068884266D0C3494831206888427A
:1026A00061D0C1496031206888425CD0BE49783130
:1026B0002068884257D0BC4990312068884252D067
:1026C000B949A831206888424DD0B849206888426D
:1026D00049D0B64918312068884244D0B3493031D6
:1026E000206888423FD0B1494831206888423AD0BA
:1026F000AE4960312068884235D0AC4978312068D5
:10270000884230D0A9499031206888422BD0A7490F
:10271000A8312068884226D0A5492068884222D066
:10272000A3491431206888421DD0A149283120686E
:10273000884218D09E493C312068884213D09C4979
:102740005031206888420ED099496431206888420F
:1027500009D0974978312068884204D094498C3157
:102760002068884201D1012000E0002028B1206EBD
:10277000006820F48070216E08608B4920688842D0
:1027800049D0894918312068884244D0864930317F
:10279000206888423FD084494831206888423AD036
:1027A000814960312068884235D07F49783120687E
:1027B000884230D07C499031206888422BD07A49B9
:1027C000A8312068884226D078492068884222D0E3
:1027D00076491831206888421DD07449303120680C
:1027E000884218D0714948312068884213D06F4917
:1027F0006031206888420ED06C4978312068884268
:1028000009D06A4990312068884204D06749A831CC
:102810002068884206D12068006820F00100216805
:10282000086005E02068006820F001002168086069
:1028300011E002F095FFA0EB080005280BD920203D
:102840006065032084F8350000BF002084F8340060
:1028500000BF01209CE6286800F001000028E8D1B4
:1028600051492068884249D04F4918312068884230
:1028700044D04D493031206888423FD04A494831E0
:10288000206888423AD0484960312068884235D073
:10289000454978312068884230D0434990312068DA
:1028A00088422BD04049A8312068884226D03F4931
:1028B0002068884222D03D491831206888421DD0C6
:1028C0003A4930312068884218D038494831206868
:1028D000884213D035496031206888420ED0334990
:1028E00078312068884209D0304990312068884288
:1028F00004D02E49A8312068884201D1012000E08F
:10290000002040B1A66D94F85C0000F01F013F204C
:102910008840B06007E0A76D94F85C0000F01F01EC
:1029200001208840786020492068884276D01E497E
:1029300018312068884271D01B49303120688842A4
:102940006CD0194948312068884267D016496031F7
:102950002068884262D014497831206888425DD06E
:10296000114990312068884258D00F49A831206819
:10297000884253D00D49206888424FD00B49183106
:10298000206888424AD0094930312068884245D0C1
:10299000064948312068884240D0044960312068A7
:1029A00088423BD0014905E010000240100402407B
:1029B000085402587831206888422FD02549206871
:1029C00088422BD0234918312068884226D02249DA
:1029D0002068884222D020491431206888421DD0C6
:1029E0001D4928312068884218D01B493C31206895
:1029F000884213D018495031206888420ED01649B9
:102A000064312068884209D01349783120688842AF
:102A100004D011498C312068884201D1012000E0A6
:102A2000002068B1D4E919104860E06E40B1E06E52
:102A3000006820F48070E16E0860D4E91C104860E2
:102A4000012084F8350000BF002084F8340000BF66
:102A500000BF9DE5A00402400854025870B504462A
:102A60000CB9012070BD94F83500022803D08020F5
:102A700060650120F6E7DC492068884249D0DA49E0
:102A800018312068884244D0D749303120688842C4
:102A90003FD0D5494831206888423AD0D249603188
:102AA0002068884235D0D04978312068884230D0BB
:102AB000CD499031206888422BD0CB49A83120687D
:102AC000884226D0C9492068884222D0C749183197
:102AD000206888421DD0C54930312068884218D00E
:102AE000C24948312068884213D0C049603120680B
:102AF00088420ED0BD4978312068884209D0BB4950
:102B000090312068884204D0B849A83120688842B2
:102B100001D1012000E00020F0B3042084F835004A
:102B2000B149206888424BD0AF49183120688842AB
:102B300046D0AD4930312068884241D0AA49483159
:102B4000206888423CD0A84960312068884237D04C
:102B5000A54978312068884232D0A3499031206855
:102B600088422DD0A049A8312068884228D09F49AA
:102B70002068884224D09D491831206888421FD09F
:102B80009A493031206888421AD0984948312068E3
:102B9000884215D0954900E020E0603120688842E5
:102BA0000ED0924978312068884209D08F499031FF
:102BB0002068884204D08D49A8312068884206D117
:102BC0002068006820F001002168086009E12068A1
:102BD000006820F001002168086002E120680068B8
:102BE00020F00E00216808607F492068884249D0A3
:102BF0007D4918312068884244D07B4930312068B3
:102C000088423FD078494831206888423AD0764996
:102C100060312068884235D0734978312068884215
:102C200030D071499031206888422BD06E49A8314C
:102C30002068884226D06D492068884222D06B499E
:102C40001831206888421DD0684930312068884298
:102C500018D0664948312068884213D063496031F2
:102C6000206888420ED0614978312068884209D0B6
:102C70005E4990312068884204D05C49A8312068C0
:102C8000884206D12068006820F0010021680860B1
:102C900005E02068006820F00100216808605249C2
:102CA0002068884270D050491831206888426BD023
:102CB0004D4930312068884266D04B494831206800
:102CC000884261D048496031206888425CD04649DA
:102CD00078312068884257D0434990312068884233
:102CE00052D04149A831206888424DD03F492068E0
:102CF000884249D03D4918312068884244D03B4938
:102D00003031206888423FD03849483120688842B5
:102D10003AD0364960312068884235D0334978311D
:102D20002068884230D031499031206888422BD0C9
:102D30002E49A8312068884226D02D492068884233
:102D400022D02B491431206888421DD028492831CF
:102D50002068884218D026493C312068884213D028
:102D600023495031206888420ED0214964312068BF
:102D7000884209D01E4978312068884204D01C4915
:102D80008C312068884201D1012000E00020D8B1B8
:102D9000206E006820F48070216E0860A56D94F8A4
:102DA0005C0000F01F01012088406860D4E9191020
:102DB0004860E06E40B1E06E006820F48070E16E23
:102DC0000860D4E91C104860012084F8350000BF79
:102DD000002084F8340000BF206D10B12046216D22
:102DE000884700203EE60000100002401004024028
:102DF00008540258014691F8350070472DE9F84F04
:102E0000044600200090FE4800684FF41651B0FBC5
:102E1000F1FAA66DD4F858803768D8F80090F949CF
:102E20002068884249D0F74918312068884244D048
:102E3000F4493031206888423FD0F2494831206857
:102E400088423AD0EF4960312068884235D0ED4958
:102E500078312068884230D0EA4990312068884231
:102E60002BD0E849A8312068884226D0E64920685E
:102E7000884222D0E4491831206888421DD0E249B6
:102E800030312068884218D0DF49483120688842B4
:102E900013D0DD496031206888420ED0DA4978319C
:102EA0002068884209D0D84990312068884204D0EF
:102EB000D549A8312068884201D1012000E00020D6
:102EC00000287DD094F85C0000F01F0108208840A5
:102ED0003840002868D0CB492068884249D0C94989
:102EE00018312068884244D0C64930312068884271
:102EF0003FD0C4494831206888423AD0C149603146
:102F00002068884235D0BF4978312068884230D067
:102F1000BC499031206888422BD0BA49A83120683A
:102F2000884226D0B8492068884222D0B649183154
:102F3000206888421DD0B44930312068884218D0BA
:102F4000B14948312068884213D0AF4960312068C8
:102F500088420ED0AC4978312068884209D0AA490D
:102F600090312068884204D0A749A831206888425F
:102F700004D12068006800F0040003E020680068C5
:102F800000F0080080B12068006820F0040021688B
:102F9000086094F85C0000F01F0108208840B060D1
:102FA000606D40F00100606594F85C0000F01F0166
:102FB000012088403840E8B392492068884200E008
:102FC000B7E24BD08F4918312068884246D08D49EE
:102FD00030312068884241D08A494831206888428F
:102FE0003CD0884960312068884237D085497831A3
:102FF0002068884232D083499031206888422DD0A1
:103000008049A8312068884228D07F4920688842BA
:1030100024D07D491831206888421FD07A49303148
:10302000206888421AD0784948312068884215D0F3
:10303000754900E026E06031206888420ED0724970
:1030400078312068884209D06F49903120688842E1
:1030500004D06D49A8312068884204D120684069B5
:1030600000F0800002E020680068002050B194F871
:103070005C0000F01F0101208840B060606D40F0EE
:103080000200606594F85C0000F01F010420884095
:103090003840E8B35B49206888424BD05949183121
:1030A0002068884246D0574930312068884241D054
:1030B00054494831206888423CD0524960312068E8
:1030C000884237D04F4978312068884232D04D4904
:1030D0009031206888422DD04A49A8312068884222
:1030E00028D049492068884224D0474918312068AF
:1030F00088421FD044493031206888421AD0424962
:1031000048312068884215D03F496031206800E08E
:1031100024E088420ED03C4978312068884209D0AA
:10312000394990312068884204D03749A831206855
:10313000884204D12068006800F0020002E02068A4
:103140000068002050B194F85C0000F01F010420DA
:103150008840B060606D40F00400606594F85C00E9
:1031600000F01F01102088403840E8B3254920684E
:10317000884251D023491831206888424CD02149D7
:1031800030312068884247D01E4948312068884243
:1031900042D01C496031206888423DD019497831BD
:1031A0002068884238D0174990312068884233D04F
:1031B0001449A831206888422ED0134920688842DB
:1031C0002AD0114918312068884225D00E49303163
:1031D0002068884220D00C494831206888421BD0A2
:1031E00009496031206800E04DE0884214D006496A
:1031F0007831206888420FD003499031206805E07B
:103200009C4900241000024010040240884203D070
:10321000FE492068884204D12068006800F0080058
:1032200003E02068006800F0040060B394F85C00DC
:1032300000F01F0110208840B0602068006800F492
:10324000802080B12068006800F4002028B9206C3C
:10325000C8B12046216C884715E0A06C98B1204683
:10326000A16C88470FE02068006800F4807028B9DE
:103270002068006820F0080021680860206C10B108
:103280002046216C884794F85C0000F01F01202044
:103290008840384000287DD0DD492068884249D0E8
:1032A000DB4918312068884244D0D9493031206840
:1032B00088423FD0D6494831206888423AD0D44924
:1032C00060312068884235D0D14978312068884201
:1032D00030D0CF499031206888422BD0CC49A831DA
:1032E0002068884226D0C949A8392068884221D060
:1032F000C6499039206888421CD0C4497839206872
:10330000884217D0C14960392068884212D0BF492D
:103310004839206888420DD0BC493039206888423D
:1033200008D0BA4918392068884203D0B7492068C4
:10333000884204D12068006800F0100003E0206893
:10334000006800F0020028B394F85C0000F01F0150
:1033500020208840B06094F8350004282DD12068E2
:10336000006820F01600216808602068406920F09D
:10337000800021684861206C08B9A06C28B12068E1
:10338000006820F008002168086094F85C0000F0F4
:103390001F0100E03FE03F208840B060012084F83A
:1033A000350000BF002084F8340000BF206D10B14C
:1033B0002046216D8847BDE8F88F2068006800F43A
:1033C000802080B12068006800F4002028B9606C7B
:1033D00008B32046616C88471DE0E06BD8B12046F9
:1033E000E16B884717E02068006800F4807068B9D6
:1033F0002068006820F0100021680860012084F82F
:10340000350000BF002084F8340000BFE06B10B12D
:103410002046E16B8847606D00287AD0606D00F02F
:103420000100E8B3042084F8350079492068884217
:103430004BD0774918312068884246D074493031E2
:103440002068884241D072494831206888423CD087
:103450006F4960312068884237D06D4978312068E3
:10346000884232D06A499031206888422DD068491C
:10347000A8312068884228D06449A8392068884249
:1034800023D062499039206888421ED05F4978393C
:103490002068884219D05D4960392068884200E080
:1034A00040E012D059494839206888420DD0574928
:1034B00030392068884208D0544918392068884239
:1034C00003D052492068884206D12068006820F065
:1034D00001002168086005E02068006820F0010014
:1034E0002168086000BF0098401C0090504500D93A
:1034F00005E02068006800F001000028F3D100BF5B
:103500002068006800F0010020B1032084F8350035
:1035100003E00DE0012084F8350000BF002084F8AE
:10352000340000BFE06C002802D02046E16C8847E0
:10353000D9E138492068884222D0364914312068C0
:1035400088421DD0334928312068884218D031493B
:103550003C312068884213D02E495031206888427F
:103560000ED02C4964312068884209D0294978312D
:103570002068884204D027498C312068884201D1D4
:10358000012000E000200028D2D02068056894F8CF
:103590005C0000F01F010420884000EA0900D8B355
:1035A00005F00400C0B394F85C0000F01F01042093
:1035B0008840C8F8040005F4004080B105F480306C
:1035C00030B9A06C0028B3D02046A16C88478AE1AE
:1035D000206C0028ACD02046216C884783E105F0A0
:1035E0002000E8BB0A492068884253D008491831B6
:1035F000206888424ED0064930312068884249D040
:10360000034948312068884244D006E0B8040240AB
:1036100010000240085402584FE0B449603120685D
:10362000884237D0B14978312068884232D0AF49DA
:103630009031206888422DD0AC49A831206888425A
:1036400028D0AB492068884224D0A9491831206885
:1036500088421FD0A6493031206888421AD000E045
:1036600025E0A34948312068884213D0A049603141
:10367000206888420ED09E4978312068884209D05F
:103680009B4990312068884204D09949A83120682C
:10369000884206D12068006820F008002168086090
:1036A00005E02068006820F0040021680860206CB4
:1036B00010B32046216C884715E194F85C0000F0B7
:1036C0001F010220884000EA0900E8B305F002006B
:1036D000D0B394F85C0000F01F0102208840C8F8C5
:1036E000040005F4004070B105F4803028B9606C26
:1036F00010B12046616C8847F5E0E06BF0B32046DE
:10370000E16B8847EFE005F02000C0BB77492068F7
:1037100088424ED0754918312068884249D0734993
:1037200030312068884244D070494831206888424E
:103730003FD06E496031206888423AD06B49783179
:103740002068884235D000E04EE06849903120681A
:1037500088422ED06549A8312068884229D0644922
:103760002068884225D0624918312068884220D0DC
:103770005F493031206888421BD001E06EE02DE0C7
:103780005B4948312068884213D05949603120682C
:1037900088420ED0564978312068884209D0544971
:1037A00090312068884204D05149A831206888426D
:1037B00006D12068006820F014002168086005E048
:1037C0002068006820F00A0021680860012084F861
:1037D000350000BF002084F8340000BFE06BE8B380
:1037E0002046E16B88477EE094F85C0000F01F0102
:1037F0000820884000EA090080B305F0080068B39B
:103800003A49206888424BD03849183120688842AC
:1038100046D0364930312068884241D0334948315A
:10382000206888423CD0314960312068884237D0D6
:103830002E4978312068884232D02C499031206856
:1038400088422DD02949A8312068884228D02849AB
:103850002068884224D02649183100E043E02068DF
:1038600088421DD0224930312068884218D0204932
:1038700048312068884213D01D4960312068884251
:103880000ED01B4978312068884209D01849903100
:103890002068884204D01649A8312068884206D1A1
:1038A0002068006820F01C002168086005E020689E
:1038B000006820F00E002168086094F85C0000F0B9
:1038C0001F0101208840C8F804000120606584F8C9
:1038D000350000BF002084F8340000BFE06C10B158
:1038E0002046E16C884700BF65E5000010000240FB
:1038F000100402402DE9F041044601F031FF8046FA
:1039000014B90120BDE8F081FE492068884249D001
:10391000FC4918312068884244D0FA493031206887
:1039200088423FD0F7494831206888423AD0F5496B
:1039300060312068884235D0F24978312068884269
:1039400030D0F0499031206888422BD0ED49A83121
:103950002068884226D0EC492068884222D0EA4973
:103960001831206888421DD0E749303120688842EC
:1039700018D0E54948312068884213D0E2496031C7
:10398000206888420ED0E04978312068884209D00A
:10399000DD4990312068884204D0DB49A831206895
:1039A000884201D1012000E00020002873D0606A25
:1039B00000B100BF022084F8350000BF002084F869
:1039C000340000BFCF492068884249D0CD49183122
:1039D0002068884244D0CB493031206888423FD0AB
:1039E000C8494831206888423AD0C64960312068C9
:1039F000884235D0C34978312068884230D0C149E7
:103A00009031206888422BD0BE49A8312068884276
:103A100026D0BD492068884222D0BB491831206891
:103A200088421DD0B84930312068884218D0B64944
:103A300048312068884213D0B349603120688842F9
:103A40000ED0B14978312068884209D0AE49903112
:103A50002068884204D0AC49A8312068884206D149
:103A60002068006820F001002168086005E02068F7
:103A7000006820F00100216808600DE001F070FE90
:103A8000A0EB0800052807D920206065032084F8F2
:103A90003500012036E76AE02068006800F0010088
:103AA0000028EBD12068056898480540D4E9020158
:103AB00008432169084361690843A1690843E16932
:103AC0000843216A08430543606A042803D1D4E906
:103AD0000B01084305438E4800686FF30F00B0F1F7
:103AE000005F1DD36068292802D360682E2811D991
:103AF00060683F2802D3606842280BD96068472875
:103B000002D36068482805D960684F2804D36068EC
:103B1000522801D8012000E0002008B145F48015AA
:103B2000206805602068456925F00705606A05433F
:103B3000606A04280DD1A06A0543E06A48B12046B6
:103B4000FCF75AFF28B140206065012084F8350059
:103B5000D8E6206845612046FCF72AFE064694F820
:103B60005C0000F01F013F208840B0609EE0694982
:103B70002068884222D067491431206888421DD0CD
:103B8000644928312068884218D062493C31206855
:103B9000884213D05F495031206888420ED05D4979
:103BA00064312068884209D05A49783120688842B7
:103BB00004D058498C312068884201D1012000E0AE
:103BC0000020E0B353492068884222D05149143183
:103BD000206888421DD04F4928312068884218D07B
:103BE0004C493C312068884213D04A495031206802
:103BF00088420ED0474964312068884209D045493F
:103C000078312068884204D042498C31206888424B
:103C100001D1012000E0002000B100BF022084F8A3
:103C2000350000BF002084F8340000BF206805681C
:103C300039480540A068402802D1102106E02EE056
:103C4000A068802801D1C10100E00021E06841EABC
:103C5000D001206941EAD001606941EAD001A06940
:103C600041EAD001E06941EAD001206A41EA10103E
:103C700005432068056027492068401A1421B0FBDD
:103C8000F1F08000E0652046FCF792FD074694F8CD
:103C90005C0000F01F0101208840786006E04020B1
:103CA0006065032084F8350001202BE61549206863
:103CB00088427FD013491831206888427AD0114950
:103CC00030312068884275D00E49483120688842DA
:103CD00070D00C496031206888426BD00949783136
:103CE0002068884266D0074990312068884261D0B8
:103CF0000449A831206888425CD003492068884282
:103D000058D00BE010000240100402403F8010FE2B
:103D10000010005C085402580F00FEFF3B491831A8
:103D20002068884246D0394930312068884241D0E5
:103D300036494831206888423CD034496031206897
:103D4000884237D0314978312068884232D02F49B3
:103D50009031206888422DD02C49A83120688842B3
:103D600028D02B492068884224D029491431206862
:103D700088421FD026492831206888421AD0244919
:103D80003C312068884215D0214950312068884252
:103D900010D01F496431206888420BD01C4978310B
:103DA0002068884206D01A498C312068884200E099
:103DB00000E001D1012000E0002000B32046FCF724
:103DC0006DFDA068802801D1002060602079216EFF
:103DD0000860D4E919104860606860B1606808281C
:103DE00009D82046FCF7BCFD0020E16E0860D4E94C
:103DF0001C10486003E00020E06620676067002038
:103E00006065012084F8350000207BE51004024045
:103E1000085402582DE9F04104460D4616461F4647
:103E20004FF0000814B90120BDE8F08100BF94F8FC
:103E30003400012801D10220F6E7012084F8340083
:103E400000BF94F8350001287ED1022084F83500A7
:103E500000206065E4492068884249D0E249183171
:103E60002068884244D0E0493031206888423FD001
:103E7000DD494831206888423AD0DB49603120680A
:103E8000884235D0D84978312068884230D0D64928
:103E90009031206888422BD0D349A83120688842CD
:103EA00026D0D2492068884222D0D04918312068D3
:103EB00088421DD0CD4930312068884218D0CB4986
:103EC00048312068884213D0C84960312068884250
:103ED0000ED0C64978312068884209D0C349903154
:103EE0002068884204D0C149A8312068884206D1A0
:103EF0002068006820F001002168086005E0206863
:103F0000006820F00100216808603B4632462946DF
:103F10002046FCF7C9FDB449206888424BD0B2491D
:103F200018312068884246D0AF4930312068884235
:103F300041D0AD494831206888423CD0AA4960311F
:103F40002068884237D000E042E1A74978312068F4
:103F5000884230D0A4499031206888422BD0A249B1
:103F6000A8312068884226D0A0492068884222D003
:103F70009E491831206888421DD09C493031206804
:103F8000884218D0994948312068884213D097490F
:103F90006031206888420ED0944978312068884288
:103FA00009D0924990312068884204D08F49A831C5
:103FB0002068884201D1012000E0002080B1206803
:103FC000006820F01E0040F0160021680860206C98
:103FD000B0B12068006840F00800216808600FE078
:103FE0002068006820F00E0040F00A002168086098
:103FF000206C28B12068006840F004002168086047
:1040000079492068884270D0774918312068884201
:104010006BD0754930312068884266D0724948318A
:104020002068884261D070496031206888425CD045
:104030006D4978312068884257D06B4990312068AB
:10404000884252D06849A831206888424DD06749DB
:104050002068884249D0654918312068884244D098
:1040600062493031206888423FD060494831206839
:1040700088423AD05D4960312068884235D05B493A
:1040800078312068884230D0584990312068884281
:104090002BD05649A8312068884226D05449206840
:1040A000884222D052491431206888421DD050499C
:1040B00028312068884218D04D493C312068884218
:1040C00013D04B495031206888420ED048496431A2
:1040D0002068884209D0464978312068884204D057
:1040E00043498C312068884201D1012000E0002042
:1040F00090B1206E006800F4803028B1206E006816
:1041000040F48070216E0860E06E28B1E06E0068B7
:1041100040F48070E16E086033492068884249D0DD
:10412000314918312068884244D02F493031206805
:1041300088423FD02C494831206888423AD02A49E9
:1041400060312068884235D027497831206888421C
:1041500030D025499031206888422BD02249A8319F
:104160002068884226D021492068884222D01F49F1
:104170001831206888421DD01C493031206888429F
:1041800018D01A4948312068884213D01749603145
:10419000206888420ED0154978312068884209D0BD
:1041A000124990312068884204D01049A831206813
:1041B000884206D12068006840F00100216808604C
:1041C00010E02068006840F001002168086009E004
:1041D0004FF40060606500BF002084F8340000BF29
:1041E0004FF0010840461FE6100002401004024054
:1041F000085402580146D1F888007047024609B9B0
:10420000012070471068006800F00C00C862106858
:104210000068C0F3001081F828001068006800F002
:104220006000486210680068C0F3002080F0010060
:1042300081F8200010680068C0F34020C87710683B
:104240000068C0F3802080F0010088771068006863
:10425000C0F3C020487710680068C0F300300877CA
:104260001068006800F4005088611068006800F46D
:104270008040486110680068C0F30040887410688E
:104280000068C0F3404080F0010048741068006886
:10429000C0F3C04080F00100087410680068C0F3EB
:1042A0000050C87310680068C0F3405088731068ED
:1042B0000068C0F38050487310680068C0F3C050B5
:1042C00008731068006800F0E0608860106800689B
:1042D000C0F3C06008711068006800F0E04008603A
:1042E00010684068C0F30D00486310684068C0F370
:1042F000004080F0010081F8320010684068C0F38F
:10430000404081F8310010684068C0F3804081F877
:10431000300010684068C0F3006081F83800106811
:104320004068C0F34460C8631068C068C0F30020F0
:1043300081F840001068C06800F00F004864106801
:10434000006FC0F3400081F854001068006FC0F3A4
:10435000C01080F0010081F84C001068006F00F080
:10436000700008651068006F000C88641068D0F851
:10437000900000F0010081F856001068D0F890001D
:10438000C0F3400081F855001068D0F8000D00F02F
:10439000720088651068D0F8300D00F02300C86501
:1043A0001068D0F8300DC0F3C00081F862001068CA
:1043B000D0F8300DC0F3001081F861001068D0F81B
:1043C000300DC0F3801080F0010081F86000002003
:1043D00017E7000038B504460CB9012038BDD4F801
:1043E000840028B92020C4F88400204600F0BAF8E0
:1043F00000BF5748006840F0020055490860084671
:10440000006800F00200009000BF00BF207A18B9D9
:10441000002004F0F7FD03E04FF4000004F0F2FD8B
:104420004C480068206800F58050006840F00101A9
:10443000206800F58050016001F092F905460DE01A
:1044400001F08EF9401BB0F5FA7F07D90420C4F8BB
:104450008800E020C4F884000120BFE7206800F550
:104460008050006800F001000028E9D1204600F0EB
:10447000B3FA03F019FC3849B0FBF1F0401E216893
:10448000C1F8DC002046FCF7A3FC206800F5805052
:10449000D0F8000120F4E01040F40021206800F57D
:1044A0008050C0F80011207D00F0030038B10120D9
:1044B000C4F88800E020C4F8840001208EE720685A
:1044C00000F58050D0F8080147F6FE718843616915
:1044D00040EA4101206800F58050C0F808112046EC
:1044E000FCF74DFC2046FCF71AFC60680079616817
:1044F000497940EA01202168C1F800036068C0786A
:1045000000066168897840EA01406168497840EABC
:1045100001206168097808432168C1F80403206814
:10452000D0F80C070D4908432168C1F80C07206832
:10453000D0F810070A4908432168C1F81007002085
:10454000C4F888001020C4F88400002046E700006A
:10455000F44402580404005840420F006000020C6A
:1045600000C0200C10B586B00446142101A8FBF74A
:1045700080FF5049206888427ED100BF4E480068C5
:1045800040F400404C4908600846006800F40040D0
:10459000009000BF00BF00BF0846006840F48030B4
:1045A00008600846006800F48030009000BF00BF3B
:1045B00000BF0846006840F4003008600846006804
:1045C00000F40030009000BF00BF00BF3A48083040
:1045D000006840F004003849083108600846006867
:1045E00000F00400009000BF00BF00BF0846006854
:1045F00040F0010008600846006800F001000090EB
:1046000000BF00BF00BF0846006840F0020008601D
:104610000846006800F00200009000BF00BF00BF25
:104620000846006840F0400008600846006800F056
:104630004000009000BF00BF322001900220029095
:1046400000200390022004900B20059001A91B4834
:1046500000F072FF8620019002200290002003905B
:10466000022004900B20059001A9154800F064FF7A
:104670004FF40060019000E01AE002200290002058
:104680000390022004900B20059001A90D4800F032
:1046900053FF4FF4405001900220029000200390FD
:1046A000022004900B20059001A9074800F044FF68
:1046B00006B010BD00800240D844025800080258DD
:1046C0000000025800040258001802582DE9F05F5B
:1046D00004460F464FF00008C34647B9D4F8880097
:1046E00040F00100C4F888000120BDE8F09FD4F834
:1046F0008400402801D00120F7E7E66D04F148006E
:1047000050F82650E06EC0F1040A3FE0E86800F07F
:10471000804018B16968A16729686167E86800F09E
:10472000005008B9E06F28B3E86800F0005010B1FD
:10473000002121666166E868C0F30E01606EA1EB9E
:104740000009E86800F0805018B1E96821674FF06F
:10475000010B1FFA89F304F18001081F2A6900F098
:10476000D7F8206E401C2066606E00EB0901616680
:104770000020286100BF761C042E00D3361F00BF26
:1047800004F1480050F8265008F10108E86800F0EC
:10479000004020B9D04502D2BBF1000FB6D0E06E88
:1047A00000EB0801E166E06E10B12046FCF7E4FE84
:1047B000E665BBF1010F05D1E06F38600021E167CC
:1047C000002092E7012090E72DE9F04704460F46CC
:1047D000904699462068D0F8000200F0010010B120
:1047E0000120BDE8F0872068D0F8005225F07870ED
:1047F00040EA475525F4F81040EA084545F00C0515
:1048000045F001052068C0F8005200F0A9FF0646F7
:1048100007E000F0A5FF801BB0F57A7F01D90120E9
:10482000DFE72068D0F8000200F001000028F0D196
:104830002068D0F8040280B2C9F800000020D0E758
:104840002DE9F047064606F11805AF6AEC6A4FF00D
:10485000010831E04FF001097F1E05F1140050F806
:10486000240038B900BF641C042C00D3241F00BFEF
:104870004FF00009B9F1000F1ED004EB4401F068BD
:1048800000EBC100C06800F0004098B905F11401C8
:1048900051F8240000F0CBF9002105F1140040F894
:1048A000241000BF641C042C00D3241F00BFAF627F
:1048B000EC6201E04FF0000817B1B8F1000FC9D168
:1048C0000020BDE8F08700007CB504460D480CF0E0
:1048D000F7FA054685B105F1200020600A482861F5
:1048E0004FF4C06120682B464122CDE90001002130
:1048F00008460DF079FC04E001200449087000200E
:1049000020607CBD04C2010861290108B04A00246E
:104910002DE9F04704460F462146BC460020A2F18F
:10492000200000250560058143810D680DB90860F0
:1049300002E0DCF800502860CCF80000086803E0D2
:1049400005891D44058100680028F9D115461E46D9
:10495000002E29DD05F01F0A0AEB0608A94600BF54
:1049600000BF00BFBFF34F8F00BF00BF00BF00BF3D
:10497000DFF83CA0CAF8009009F12009A8F120084E
:10498000B8F1000FF4DC00BF00BF00BFBFF34F8FD2
:1049900000BF00BF00BF00BF00BF00BFBFF36F8FED
:1049A00000BF00BF00BF00BF00BFBDE8F087000030
:1049B0005CEF00E070B504460D460DB9012070BDF6
:1049C000D4F88400102805D129462046FCF70AFDBA
:1049D0000020F4E70120F2E770B506463068D0F811
:1049E000004224F4706403F05FF9054610488542E4
:1049F00002D244F4007417E00E48854202D244F417
:104A0000407411E00C48854200D20DE00B4885420D
:104A100002D244F4807407E00948854202D244F48B
:104A2000806401E044F4A0643068C0F8004270BDC6
:104A3000C00E16020087930300E1F50580D1F0084F
:104A400080B2E60E10B50446D4F88400102853D185
:104A50002020C4F884000121A1650421E1662046DC
:104A6000FCF78AFD206800F58050D0F8040140F082
:104A70000101206800F58050C0F80411206800F59D
:104A80008050D0F8080140F00101206800F5805006
:104A9000C0F80811206800F58050D0F8600140F49B
:104AA0008171206800F58050C0F860112068D0F84E
:104AB000000D40F001002168C1F8000D2068006879
:104AC00040F00200216808602068006840F00100A2
:104AD00021680860206800F58050D0F834014DF25C
:104AE000C1010843216801F58051C1F8340140201B
:104AF000C4F88400002010BD0120FCE710B5014679
:104B0000D1F8840040284FD12020C1F884000868E3
:104B100000F58050D0F834014DF2C104A0430C6878
:104B200004F58054C4F83401086800F58050D0F8CA
:104B3000040120F00104086800F58050C0F8044129
:104B4000086800F58050D0F8080120F001040868DA
:104B500000F58050C0F808410868006820F00100A6
:104B60000C6820600868D0F8000D40F001000C6867
:104B7000C4F8000D0868006820F002000C6820608E
:104B8000002208E001F1480050F82230D86820F0F7
:104B90008040D860521C042AF4D300248C65102075
:104BA000C1F88400002010BD0120FCE770B5044668
:104BB0000D463DB9D4F8880040F00100C4F88800E3
:104BC000012070BDD4F8840040282ED1696BE163C8
:104BD000012229462046FCF7B1F938B1D4F8880003
:104BE00040F00200C4F888000120EAE700BF00BFDF
:104BF00000BFBFF34F8F00BF00BF00BF00BFA06A60
:104C0000401CA062A06A042802D3A06A001FA06210
:104C100000BF04F11800A16A50F82110206800F5C7
:104C20008050C0F820110020CBE70120C9E710B563
:104C3000044620460DF0C0FD10BD00002DE9F047F0
:104C400005460F46904699462868D0F8000200F0C5
:104C5000010010B10120BDE8F0872868D0F80042BB
:104C600024F0787040EA475424F4F81040EA0844ED
:104C700024F00C00041D44F001041FFA89F00D49D2
:104C800008600D48C0F8004200F06AFD064607E0E3
:104C900000F066FD801BB0F57A7F01D90120DAE7CC
:104CA0002868D0F8000200F001000028F0D100BF11
:104CB000D1E7000004820240008002407047704744
:104CC000704770472DE9F04F8DB00446EF480068FB
:104CD0008707EE48001D006807EA80772068006DAE
:104CE00000F470482068406D00EA08082068006DF4
:104CF00000F00F092068406D00EA09092068006D86
:104D000000F0F00A2068406D00EA0A0A2068006D91
:104D100000F0715B2068406D00EA0B0B2068006DAD
:104D200000F060700C902068406D0C9908400C9069
:104D30002068456D2068066DC5F3002070B1C6F38C
:104D4000002058B100BF4FF4807021680865002032
:104D5000CE49086000BF2046FFF7B3FFC5F38020AF
:104D6000C8B1C6F38020B0B12068D0F8DC000A904A
:104D70002068D0F8E4000A9908400A9000BF4FF478
:104D80008060216808650020C049086000BF204697
:104D90000A9900F0BEFB67B100BFBD4838402168EA
:104DA0000865B80FB949086000BF39462046FFF7CB
:104DB00085FFB8F1000F0ED000BFB54808EA00002B
:104DC000216808654FEA9870B049086000BF414605
:104DD000204600F0A0FBB9F1000F0ED000BFAC4898
:104DE00009EA0000216808654FEA9970A749086040
:104DF00000BF4946204600F084FBBAF1000F0ED0F8
:104E000000BFA3480AEA0000216808654FEA9A70CB
:104E10009E49086000BF5146204600F073FBC5F371
:104E2000C02070B1C6F3C02058B100BF4FF400607D
:104E30002168086500209549086000BF204600F001
:104E40006BFBC5F34020C8B1C6F34020B0B1206869
:104E5000D0F8D8000B902068D0F8E0000B990840FB
:104E60000B9000BF4FF4007021680865002087494F
:104E7000086000BF20460B9900F04CFBC5F3C04012
:104E800070B1C6F3C04058B100BF4FF40020216894
:104E9000086500207D49086000BF204600F030FB17
:104EA000C5F3004070B1C6F3004058B100BF4FF4E5
:104EB00080302168086500207449086000BF2046E2
:104EC00000F026FBC5F3804070B1C6F3804058B1B6
:104ED00000BF4FF480202168086500206B490860FE
:104EE00000BF204600F013FBC5F3404088B1C6F375
:104EF000404070B100BF4FF40030216808650020C9
:104F00006249086000BFD4F89C0040F08000C4F8FB
:104F10009C000C9870B100BF5D490C980840216856
:104F200008650C98800F5949086000BF20460C990D
:104F3000FFF7C6FEBBF1000F10D000BF54480BEACC
:104F40000000216808654FEA9B705049086000BF67
:104F5000D4F89C0040EA0B00C4F89C004D4920683E
:104F600088427DD16068806800F00300002877D017
:104F70006068006A00F00F0009906068406A099953
:104F8000084009906068006A00F03000089060688E
:104F9000406A0899084008906068006A00F4C07090
:104FA00007906068406A0799084007906068006A47
:104FB00000F4FC4006906068406A0699084006903C
:104FC0006068006A00F4F02005906068406A059906
:104FD000084005906068406A02906068006A01902D
:104FE000099830B10998616808622046099900F073
:104FF0008BFA089830B108986168086220460899D1
:1050000000F084FA0298C0F38010A0B10198C0F3B8
:10501000801080B16068C06B000C04906068C06B49
:1050200000F03F0003904020616808622046DDE9FF
:10503000032100F06AFA079830B1079861680862A6
:105040002046079900F05FFA069840B1069861681B
:105050000862D4F89C0006990843C4F89C0000E05C
:105060000AE0059840B1059861680862D4F89C0090
:1050700005990843C4F89C00D4F89C0010B1204660
:10508000FFF71DFE0DB0BDE8F08F000010A8004036
:10509000FFFFCF3F00A0004070B594B004464C2203
:1050A000B34901A8FBF7BEF914B9012014B070BDD3
:1050B000B0492068884203D1206800F580706060A4
:1050C000A068B0F5407F00D100BF206C00B100BFE8
:1050D000A06C00B100BF206D00B100BF206E00B118
:1050E00000BFD4E91710084400B100BF94F898003D
:1050F00028B9002084F89900204600F03DF9206886
:10510000806920F010002168886100F029FB0546C5
:105110000EE000F025FB401B0A2809D9983460688E
:1051200040F001006060032004F898090120BDE709
:105130002068806900F008000828EAD020688069AB
:1051400040F001002168886100F00AFB05460EE08E
:1051500000F006FB401B0A2809D99834606840F02B
:1051600001006060032004F8980901209EE7206890
:10517000806900F001000028EAD02068806940F0D2
:10518000020021688861207C012806D1206880699E
:1051900020F040002168886105E02068806940F0C7
:1051A000400021688861607C012806D12068806900
:1051B00040F480402168886105E02068806920F41F
:1051C000804021688861A07C012806D12068806920
:1051D00020F480502168886105E02068806940F4EF
:1051E0008050216888612068806920F44070A1683F
:1051F0000843216888612068806920F0A400216844
:1052000088612068006920F0100021680861E0686A
:10521000012806D12068806940F004002168886177
:1052200020E0E068F0B1E068022815D020688069CD
:1052300040F08000216888612068006940F010001B
:1052400021680861E06803280CD12068806940F07B
:1052500020002168886105E02068806940F0200016
:1052600021688861207E401E4106E069401E41EAB7
:105270000020216A491E0843A18A491E40EA0140D4
:105280002168C861A068B0F5407F0FD1A06A401EB8
:10529000E16A491E40EA0121206B401E41EA0011EB
:1052A000A08C401E41EA00402168C860206E38B1E1
:1052B0002068D0F8C000616E08432168C1F8C000C2
:1052C000D4E91710084460B12068D0F8C80020F075
:1052D000070001AAA16E52F8211008432168C1F805
:1052E000C800206C60B12068D0F8BC0020F0070036
:1052F00001AA616C52F8211008432168C1F8BC0072
:10530000A06C68B12068D0F8BC0020F0700101AA40
:10531000E06C52F8200041EA00102168C1F8BC009E
:10532000206D68B12068D0F8BC0020F4E06101AACB
:10533000606D52F8200041EA00202168C1F8BC00ED
:105340000C492068884205D16068806820F003001D
:1053500061688860002044F8940FA06001202071EB
:10536000943C2046FCF796F9064630469EE600003F
:10537000FCC0010800A0004010B5B8B004461421DC
:1053800032A8FBF776F8C02102A8FBF772F856495D
:105390002068884251D14FF400410020CDE902102D
:1053A00048031E9002A801F005FC08B1FCF73CF987
:1053B0004E480068401C4D490860084600680128B6
:1053C0000DD100BF4A48006840F480704849086029
:1053D0000846006800F48070019000BF00BF00BF65
:1053E00043480C38006840F0080041490C39086017
:1053F0000846006800F00800019000BF00BF0320CD
:10540000329002203390002034903590092036905D
:1054100032A9384800F090F800220521132000F04E
:1054200095FB132000F07EFB00220521152000F0E3
:105430008DFB152000F076FB54E02F492068884250
:1054400050D14FF400410020CDE9021048031E90D6
:1054500002A801F0AFFB08B1FCF7E6F823480068AA
:10546000401C224908600846006801280DD100BF91
:105470001F48006840F480701D49086008460068B5
:1054800000F48070019000BF00BF00BF18480C38C6
:10549000006840F0020016490C39086008460068B0
:1054A00000F00200019000BF00BF60203290022097
:1054B00033900020349035900920369032A90F485F
:1054C00000F03AF800220521142000F03FFB1420E0
:1054D00000F028FB00220521162000F037FB1620E3
:1054E00000F020FB38B010BD00A000408C49002423
:1054F000EC440258000C025800A40040000402587A
:1055000070477047704770477047704770477047E3
:1055100070477047704770477047704710B5044632
:1055200004480068204020B1024804602046FFF78C
:10553000F4FF10BD88000058F8B502460B46002164
:105540006F4DD7E001278F401E6806EA0704002C44
:1055500072D01E7906F00306012E04D01E7906F0E3
:105560000306022E13D190684F000326BE40B043BD
:105570004F00DE68BE4030439060506801268E4088
:10558000B0431E79C6F300168E40304350601E793A
:1055900006F00306032E09D0D0684F000326BE4054
:1055A000B0434F009E68BE403043D0601E7906F085
:1055B0000306022E13D1CF0802F1200656F8270069
:1055C0004E07F70E0F26BE40B0434F07FF0E1E6971
:1055D000BE403043CF0802F1200646F8270010688D
:1055E0004F000326BE40B0431E7906F003064F006D
:1055F000BE40304310605E6806F44036002E78D01E
:1056000000BF404E366846F002063E4F3E603E46C2
:10561000366806F00206009600BF00BF3A4E8F08BB
:1056200056F827008E07370F0F26BE40B043374E7F
:10563000B24202D100262EE05BE0354EB24201D1EB
:10564000012628E0334EB24201D1022623E0324E39
:10565000B24201D103261EE0304EB24201D10426EF
:1056600019E02F4EB24201D1052614E02D4EB24270
:1056700001D106260FE02C4EB24201D107260AE0E6
:105680002A4EB24201D1082605E0294EB24201D18C
:10569000092600E00A268F073F0FBE4030431A4E0E
:1056A0008F0846F827004FF0B0463068A0435E6888
:1056B00006F4801606B120434FF0B04630607068A3
:1056C000A0435E6806F4001606B120434FF0B046D2
:1056D00070606868A0435E6806F4003606B1204337
:1056E00068602868A0435E6806F4803606B12043EF
:1056F0002860491C1E68CE40002E7FF423AFF8BD01
:1057000080000058F4440258080400580000025871
:105710000004025800080258000C025800100258F9
:105720000014025800180258001C025800200258A9
:105730000024025810B5426921EA020302EA01047A
:1057400043EA0443836110BD0AB1816101E00B04A7
:105750008361704701480068000C70470010005CCE
:1057600001480068704700009049002410B50446C5
:105770000CB9012010BDD4F8880078B9002084F855
:105780008400204607F042F8D4F8C40010B91B4842
:10579000C4F8C4002046D4F8C41088472420C4F8B4
:1057A00088002068006820F0010021680860A06A75
:1057B00010B1204606F05CFE204607F05BF8012899
:1057C00000D1D7E72068406820F490402168486005
:1057D0002068806820F02200216888602068806846
:1057E00040F00800216888602068006840F00100EF
:1057F00021680860204606F0B7FEBBE70D9D000853
:10580000704770472DE9F04104462068856920689B
:105810000668C5F3002050B1C6F3C01038B1606C03
:1058200040F0010060644FF480702168C861C5F3E6
:10583000802050B1C6F3C01038B1606C40F0080051
:1058400060644FF480602168C861C5F3402050B1A6
:10585000C6F3C01038B1606C40F0020060644FF4D1
:1058600000702168C861676C07F00B0018B13946F9
:10587000204604F01DFEBDE8F08170B504462068A6
:10588000856920680668606B20B13246294620464B
:10589000636B984770BD704770477047704770B52D
:1058A00004460CB9012070BD4CF6CC40216808605C
:1058B00045F2555021680860D4E90010486021681D
:1058C000A0688860FFF74CFF05460DE0FFF748FF32
:1058D000401B41F60101884206D92068C06800F0EB
:1058E000070008B10320DEE72068C06800F0070069
:1058F0000028EBD120680169E068814203D021686B
:10590000E068086103E04AF6AA20216808600020E8
:10591000C9E70000034800680349097808440149C1
:1059200008607047904900249849002410B503206E
:1059300000F04AF902F002FA10490968C1F30321A4
:105940000F4A515C01F01F0120FA01F40B48006876
:1059500000F00F001146085C00F01F0024FA00F070
:105960000849086008480460002000F00FF808B1FA
:10597000012010BD00F0BEF80020FAE718440258DC
:1059800070C10108A04900249C490024F0B58BB0E7
:105990000446102C0AD2002221461D2000F0D6F821
:1059A0001D2000F0BFF81C48046002E001200BB08D
:1059B000F0BD00BF1948006840F0020017490860B8
:1059C0000846006800F00200019000BF00BF02A975
:1059D00003A802F033F9089E1EB902F08BF90546C0
:1059E00002E002F087F945000D48B5FBF0F0471ED4
:1059F0000C480D49086040F2E7310B48C160476030
:105A000000210161816003F071FB18B9064803F0C1
:105A10005DFCCCE70120CAE794490024E844025821
:105A200040420F0000040040545C00244178154AB5
:105A3000116014490831096821F00101114A083246
:105A40001160121F41681160017B0907C27A41EAA7
:105A50000261827A41EAC241427B41EA8241827B11
:105A600041EA4241C27B41EA0241427A41EA0221D3
:105A7000027A41EA420102781143024A0832116077
:105A80007047000098ED00E000BF00BF00BFBFF30B
:105A90005F8F00BF00BF00BF0548006820F4803062
:105AA0000349086000200249703108607047000017
:105AB00024ED00E040F001010D4A11600C497039FD
:105AC000096841F480310A4A703A116000BF00BF92
:105AD00000BFBFF34F8F00BF00BF00BF00BF00BFBC
